:020000040000FA
:0600000002011A0230D5D6
:03002B000237A2F7
:0300330002377918
:0300530002314B2C
:03006B0002374712
:10008300022F2BE5C754F84401F5C779012200007C
:100093000080FB120086B90003020104E479217891
:1000A30008B800028004F709D8FCE479297802B87B
:1000B30000028004F709D8FCE490028178AC791738
:1000C3008002F0A3D8FCD9FA781A90014A7A01BACF
:1000D30000028007E493A3F608DAF97A2C7B1990DF
:1000E300014B781279058015E493A3AD82AE838A20
:1000F300828B83F0A3AA82AB838D828E83D8E9D9C6
:10010300E77582AB7583CF740512012C75829175E7
:100113008300740012012C75D00075813F7518811E
:10012300751902759F00020096C09FF59FE473D076
:100133009F22D083D082C09FE493C0E0740193C018
:10014300E0740293F59F220100070C0742073C0766
:10015300FF0000B4000028002800283075A000A08C
:1001630000A000A00000080008E001F0001000104B
:10017300001000100010001000500050005000103C
:10018300001000D0070000000000000F0001000570
:1001930000307507001000010081FF00000000FF20
:1001A300FFFF80089E088608C208FF0202020802B9
:1001B3005000A0000000E803028E96010000719633
:1001C3000294960100008F19029A960100000A0416
:1001D300029496010000901902A2960100002004E7
:1001E300029496010000911902A6960100002204D0
:1001F300029496010000921902A8960800002304B5
:10020300029496010000931902BA96010000941912
:10021300FFFF0100FF20028E960100006B960294FF
:1002230096010000F91902A0960000000000029850
:100233009603000053041700081108110811081150
:1002430008110811081108110811081108110811E3
:1002530008116C138A136613B014C214AA14020291
:1002630002020202020202010D0000001001028ECE
:10027300960100007496029496010000421A028AC5
:1002830096010000A20E029496010000431A028810
:10029300960100004992029496010000441A027CE0
:1002A300960100003B92029496010000451A027ADF
:1002B300960100000391029496010000461A02BCC5
:1002C300960100009790029496010000471A027E5F
:1002D30096010000DF90029496010000481A028004
:1002E300960100008590029496010000491A02824B
:1002F300960100002D920294960100004A1A02848E
:10030300960100004B1A01E803057710020A0AC69A
:1003130016FFFFFF00013075030201060000000015
:1003230000000000000000000000000000000000CA
:100333000000000000000000FFFF0600800CE8033F
:10034300013FFEFF0101010201060302F0FF02016A
:10035300061AFF4C000215E2C56DB5DFFB48D2B0AB
:1003630060D0F5A71096E000010002CD461B4C1BA0
:10037300581B5E1B521B0A4368617261637465728A
:100383006973746963203100024368617261637445
:10039300657269737469632032000843686172612E
:1003A3006374657269737469632033001043686111
:1003B3007261637465726973746963203400024304
:1003C300686172616374657269737469632035006F
:1003D300164368617261637465726973746963203B
:1003E300360010436861726163746572697374697E
:1003F30063203700028E96010000689602949601EE
:1004030000005A1B02AC96030000F11802969601F5
:1004130000005B1B0294960100006C1B02AE960168
:100423000000F2180296960100006D1B02949601DB
:1004330000007E1B02B096020000F318029696019C
:1004430000007F1B029496010000901B02B29600ED
:100453000000F418029896030000F518029696011E
:100463000000911B029496010000A21B02B49604A3
:100473000000F718029696010000A31B0294960150
:100483000000B41B02B696030000FC180298960302
:1004930000001119029696010000B51B0294960103
:1004A3000000C61B02B896000000131902989603B9
:1004B30000002819029696010000C71B0100B042F4
:1004C3003BAAB83F0000003F8C906339AA0CA33AC3
:1004D30000941E3C8042633DCFFE753E1572313F52
:1004E3000000803FF304353F8096184B30313233A0
:1004F30034353637383941424344454600286E7512
:100503006C6C20706F696E74657229003031323300
:10051300343536373839616263646566003F3F3F7F
:10052300000000807FF9021550B743BA5100E7DBA2
:100533002E0000A040000080BF2292D43EDD9B2A03
:100543003F0400004000000000FFFF7F7FFFFF7FAC
:10055300FF010080341872313F120135E5B60512F0
:100563000135CCB705120135C6B8051201357DB288
:100573000512013590B205120135B1B205120135EC
:100583001CB3051201355DB3051201357EB30512A7
:100593000135BFB30512013557B4051201359FB4B8
:1005A3000512013526A10512013539A105120135C0
:1005B3006AA105120135A4A105120135FDA1051299
:1005C300013544A2051201358CA205120135BBA2E7
:1005D30005120135EAA20512013521A305120135E1
:1005E30068A30512013581A305120135D6A30512AF
:1005F3000135EFA3051201353DA40512013577A49A
:100603000512013558DF031201355BE00312013592
:1006130088E003120135D9E003120135FCE003122F
:1006230001350EE10312013511E1031201354FE1EA
:1006330003120135C3E1031201352FE20312013521
:10064300F7E20312013513E3031201354AE3031200
:10065300013584E3031201351BE4031201356DE414
:10066300031201359EE403120135CFE40312013571
:10067300DCE40312013546E50312013549E50312B3
:10068300013556E50312013559E503120135B0E58D
:1006930003120135B3E503120135ECE5031201350D
:1006A300EFE50312013523E60312013526E60312B3
:1006B30001357AE603120135C3E603120135D3E6A9
:1006C3000312013506E70312013513E7031201355F
:1006D30016E7031201357EE70312013580E80312A2
:1006E300013524E9031201358DE903120135CBE904
:1006F300031201357AF60212013577F7021201353A
:100703000DF80212013558F802120135BCF8021235
:10071300013546F902120135FFF90212013521FDB7
:10072300021201359EFE02120135C1FE021201358D
:10073300378D05120135DC8E05120135FC8E05124D
:1007430001351D90051201357090051201357D911B
:1007530005120135A59105120135D2910512013516
:100763000A9205120135689205120135B4920512F9
:1007730001351B93051201355B93051201359893DF
:1007830005120135C6930512013570940512013522
:100793007A9405120135879405120135BA9405122E
:1007A3000135C69405120135DE9405120135E8942E
:1007B3000512013587CA0512013595CA051201359F
:1007C300ADCA05120135C5CA05120135DCCA0512C9
:1007D3000135D5E4021201357FE50212013592E6B7
:1007E300021201350EE7021201352CE8021201351F
:1007F30068E80212013503E902120135E7E9021242
:100803000135AAEA0212013522EB02120135B0ECDE
:100813000212013521ED02120135DBED0212013521
:10082300CDEE021201350DEF02120135C1EF0212B6
:100833000135F3EF02120135E9F10212013530F20D
:10084300021201354EF202120135B4F202120135E1
:1008530083F30212013547F40212013566F60212E0
:10086300013570F6021201356DBE0412013557BF12
:100873000412013502C00412013553C004120135BC
:1008830003C10412013574C10412013559C20412A3
:1008930001358DC20412013586C304120135C3C369
:1008A300041201359FC404120135DEC4041201355C
:1008B300FAC40412013509BB051201358DBB0512BB
:1008C3000135B8BB05120135D2BC05120135769549
:1008D300051201358C9505120135AA9505120135CE
:1008E300BB9605120135C59605120135F097051221
:1008F3000135E798051201355499051201355E99C2
:100903000512013526CC041201355CCD04120135E4
:10091300D6CD0412013506CE0412013519CE0412C8
:10092300013570CE0412013585D0041201352E969F
:1009330002120135DF9602120135FB9602120135D0
:10094300C49702120135DE9702120135E9970212AC
:100953000135BF98021201359C99021201352C9A78
:1009630002120135E39A02120135F19D021201359B
:10097300E09F0212013592A0021201355BA102121F
:100983000135A0A4021201354AA50212013573A64E
:10099300021201352FA802120135CFA80212013528
:1009A3001DA9021201355CA9021201352FAA0212F8
:1009B300013563AA02120135F0AA0212013541D2B0
:1009C30002120135CDD20212013531D402120135A2
:1009D3003DD40212013578D402120135E7D4021254
:1009E3000135F0D502120135F9D602120135C0D70F
:1009F300021201351DD9021201353BD9021201350C
:100A030058D90212013505DA0212013582DA0212CF
:100A13000135AADA0212013574DD0212013579DDDE
:100A23000212013592DF02120135E0DF02120135B5
:100A330050E0021201358EE0021201356AE1021222
:100A430001352AE20212013576E20212013579E21A
:100A530002120135BDE20212013505E3021201352E
:100A630044E30212013566E3021201359AE30212EE
:100A73000135FDE302120135E6EC04120135EFEC1A
:100A830004120135FDEC0412013550ED0412013559
:100A93006FED04120135B4ED04120135F8EE0412C2
:100AA300013593EF04120135D7EF0412013501F03C
:100AB3000412013570F004120135B6F00412013549
:100AC3002DF104120135DEF104120135BE96011237
:100AD3000135CE96011201356F9701120135CB977F
:100AE30001120135889801120135A49901120135CB
:100AF300D69901120135059A01120135B29B0112F3
:100B03000135299E0112013599A0011201358BA1EE
:100B13000112013584A2011201358BA401120135A2
:100B23007FA701120135AEA801120135B2AA011245
:100B33000135C2AB0112013551AD0112013542AE8F
:100B43000112013590AE01120135FFAE01120135DC
:100B530023AF0112013574AF0112013515B401122F
:100B6300013516B50112013577B501120135A2B56C
:100B73000112013568B601120135EBD704120135B4
:100B8300F5D7041201353AD8041201354ED80412B0
:100B93000135DED80412013517D90412013552D9B3
:100BA300041201357BD904120135C9D90412013568
:100BB300DED904120135F3D90412013508DA04121F
:100BC30001354BDA0412013560DA04120135CBDA50
:100BD30004120135DFDA04120135F3DA04120135A8
:100BE30008DB0412013542DB0412013566DB041213
:100BF300013592DB04120135C9DB041201352BDC0C
:100C0300041201359DDC04120135E0DC04120135C8
:100C13000ADD0412013535DD0412013581C80512E0
:100C2300013557BC031201353ABD03120135B5BD79
:100C330003120135F0BD0312013541BF0312013523
:100C4300CABF03120135E2C10312013574C4031292
:100C5300013526C50312013532C603120135A5C776
:100C630003120135FEC703120135A8E20412013550
:100C7300EBE2041201356FE30412013542E404127E
:100C8300013519E704120135DFAF051201358CB0C8
:100C93000512013599B105120135D8B10512013597
:100CA30032B205120135E9C0051201354CC10512F6
:100CB3000135E9C1051201351EC2051201354EC2C7
:100CC300051201356FC205120135AAC2051201359D
:100CD300CAC205120135F0F1041201357CF2041287
:100CE30001353BF30412013553F4041201356DF65B
:100CF30004120135A7C803120135CCC8031201350C
:100D030099C9031201356DCA03120135DACA0312F8
:100D1300013530CB03120135CCCB0312013500CDA5
:100D230003120135DBCD031201353ACE031201352F
:100D3300C6CE0312013534CF03120135C0CF0312DF
:100D43000135C3CF031201350DD0031201357FD016
:100D53000312013511D103120135B2D1031201354A
:100D6300D2D1031201351AD20312013563D2031211
:100D730001357FD203120135A5D2031201351FD3EA
:100D8300031201352DD303120135BCD303120135F0
:100D930025D4031201353BFB04120135C0FB0412B9
:100DA300013502FC04120135E6FC0412013553FD42
:100DB3000412013597FD04120135DBFD04120135E0
:100DC30008FE0412013530FE0412013568FE0412D8
:100DD3000135A6FE04120135CDFE0412013547FF8D
:100DE3000412013591FF04120135D4B60112013505
:100DF300CDB801120135B9BB011201350DBC011289
:100E0300013538BC0112013512BD0112013551BD46
:100E13000112013598BD01120135ABBD0112013537
:100E2300ECBD0112013519BE0112013567BE011275
:100E33000135A6BE01120135D1BE0112013524BF11
:100E430001120135B3BF0112013591C201120135FF
:100E5300ACC401120135EAC4011201355FC60112A7
:100E63000135A4C60112013598C701120135B1C974
:100E73000112013513CA0112013564CA0112013589
:100E83007FCF01120135CECF0112013514D00112EB
:100E93000135FCD101120135CAD301120135CFD37B
:100EA30001120135A9D40112013522D501120135F0
:100EB30052D60112013564D60112013539AD05123E
:100EC3000135ABAD0512013501AE0512013545AE55
:100ED3000512013565AE05120135B2AE05120135B5
:100EE300FAAE051201354DAF051201359EAF05125D
:100EF3000135819304120135009404120135F999E7
:100F030004120135FF9A04120135729C0412013553
:100F1300099D0412013587D601120135D0D601127D
:100F23000135FDD6011201352FD7011201353BD70B
:100F33000112013547D7011201355ED70112013580
:100F430039D80112013597D801120135CCD80112D5
:100F53000135FDD9011201354ADA0112013590DA62
:100F630001120135FCDA01120135A0DB0112013552
:100F730056DC01120135B5DC0112013526DD011203
:100F8300013584DD01120135B6DE011201351EE0A3
:100F930001120135E8E001120135F5E001120135D6
:100FA30037E10112013547E1011201356BE101120D
:100FB30001356EE1011201355AE201120135F6E203
:100FC300011201358FE30112013526E401120135C7
:100FD30053E401120135B1E401120135F8E40112C1
:100FE300013548E50112013598E5011201350AE69C
:100FF30001120135A5E60112013550E70112013551
:10100300EFE7011201356DE801120135B4E8011271
:10101300013518E90112013547E901120135DEE90D
:1010230001120135F0EB0112013534EC01120135E7
:101033007FEC0112013505ED011201358FED01122F
:101043000135A8EE011201352EEF0112013553EFE0
:1010530001120135AAEF01120135BFEF011201356B
:1010630007F0011201357AF001120135BFF00112C8
:101073000135C8F10112013579F201120135D7F2B8
:101083000112013533F3011201354CF3011201351D
:10109300339D04120135879D04120135939D04127B
:1010A30001355D9E041201358A9E04120135B89EF6
:1010B30004120135249F041201355A9F041201358D
:1010C300939F04120135AB9F0412013500A0041253
:1010D300013519A0041201355EA00412013571A077
:1010E300041201358BA004120135A1A004120135AD
:1010F300BFA104120135EAA204120135D4A30412DC
:101103000135C5A404120135F47F00120135CBE784
:10111300041201354EEB041201359BEC0412013528
:101123007CF3011201354FF60112013555F6011218
:101133000135E5F80112013548FB01120135A4F62A
:10114300041201353BF704120135F9F70412013596
:1011530023F804120135FDF90412013502FB0412D0
:1011630001350080021201353280021201354F8CA5
:1011730002120135A08D02120135A98E021201352A
:101183002890021201351391021201356291021265
:1011930001357C9102120135BE9102120135C991CC
:1011A3000212013510920212013519920212013511
:1011B300C592021201359E9302120135E593021284
:1011C30001354D94021201358F9402120135BD94FD
:1011D30002120135FA94021201353DBF02120135A4
:1011E30008C3021201350EC302120135B2C902123D
:1011F300013506CE02120135EFD102120135539D9E
:1012030005120135C99D05120135DF9D0512013512
:101213006F9E05120135AC9E05120135E69E05123F
:101223000135209F05120135939F05120135D49F87
:1012330005120135DD9F05120135E99F05120135C0
:1012430008A00512013532A00512013547A0051289
:1012530001356FA005120135D1A005120135F8A0A3
:10126300051201355BC5041201356EC50412013543
:1012730088C504120135B5C504120135FBC5041236
:1012830001352EC6041201356CC604120135D1C6D0
:1012930004120135E6C604120135F1C60412013504
:1012A300FEC60412013515C70412013523C7041203
:1012B300013532C70412013547C7041201355CC733
:1012C3000412013567C70412013573C704120135CF
:1012D30080C70412013593C7041201359EC7041257
:1012E3000135C3C70412013567C80412013577C835
:1012F300041201358CC804120135A1C8041201354A
:10130300BBC804120135D8C804120135F5C804124C
:10131300013500C904120135ACC9041201358DCA67
:1013230004120135B2CA04120135BDCA04120135D3
:10133300D2CA04120135E6CA0412013547CB04129E
:1013430001354DCB0412013553CB0412013559CB72
:101353000412013571CB04120135A4CB04120135FB
:101363004BF4031201356DF40312013535F5031205
:101373000135EFF70312013505F90312013526FA9A
:101383000312013500FB03120135AFFB03120135D4
:10139300D4AE031201356BAF0312013503B0031250
:1013A3000135F3B0031201352AB1031201353DB102
:1013B30003120135ABB10312013546B303120135F4
:1013C3006DB3031201350FB40312013544B4031294
:1013D300013555B403120135CEB403120135EFB410
:1013E3000312013507B5031201355FB60312013548
:1013F30068B803120135B8BA03120135BBBB031237
:1014030001350ABC0312013538A00312013535A199
:101413000312013520A2031201352AA2031201355A
:1014230034A20312013556A20312013562A203123C
:101433000135B4A303120135E3A30312013513A548
:101443000312013555A50312013581A60312013597
:1014530057A703120135A9A70312013508A80312E0
:1014630001353FA8031201357AA80312013515ACE3
:10147300031201352EAC03120135B0AC0312013552
:10148300BEAC0312013513AD0312013521AD0312B6
:1014930001358EAD0312013500AE0312013546AEA0
:1014A3000312013548D4031201356AD403120135FE
:1014B30054D603120135F9D9031201353CDB03126B
:1014C300013516DC03120135D8C205120135FDC200
:1014D300051201356EC3051201357FA604120135CD
:1014E30088A60412013591A604120135C2A704127D
:1014F3000135E1A90412013517AA0412013551AAD5
:101503000412013587AA04120135C1AA0412013558
:10151300F5AA0412013521AB041201356AAB04129A
:101523000135A4AB04120135ECAB0412013542AC16
:101533000412013577AC04120135D2AC0412013523
:101543000CAD041201355DAD0412013593AD0412E7
:101553000135CDAD04120135FBAD041201351EAECC
:1015630004120135C0CD05120135ECCD051201354C
:1015730047CE0512013551CE0512013561CE051254
:101583000135ACAE04120135F0AE041201359EAF45
:101593000412013516B00412013568B00412013586
:1015A30008B10412013544B104120135DEB104124D
:1015B30001355BB204120135B4B304120135CDB366
:1015C3000412013505B50412013598B5041201352D
:1015D30001B6041201356DB6041201358A84051271
:1015E3000135B18405120135E284051201356BCE54
:1015F300051201359B5C00120135B75F00120135FE
:10160300A861001201351A6200120135D862001276
:101613000135836300120135136400120135A2649E
:1016230000120135CC640012013539650012013511
:10163300736A00120135076B00120135366C001214
:1016430001359A6C001201354E6D0012013501709F
:10165300001201353B7000120135A57000120135EF
:10166300037100120135617100120135BE71001260
:101673000135AD7200120135F37200120135387372
:1016830000120135597300120135BB740012013584
:10169300D674001201355C7600120135897600128A
:1016A3000135C976001201350F77001201352D7708
:1016B300001201356B770012013591790012013563
:1016C300CA7900120135617A00120135017B0012DB
:1016D3000135947B00120135007C00120135417DF8
:1016E300001201355DDD04120135F1DD041201350F
:1016F30030DF04120135B9DF041201358CE0041226
:101703000135B5E0041201351CE10412013584E111
:101713000412013595C905120135A6C90512013513
:1017230077CA05120135DFA405120135AAA70512F0
:1017330001357CD105120135A3FE03120135B3FE39
:1017430003120135CDFE03120135C9FF0312013522
:101753008EAA0512013528AB051201351EAD0512FF
:101763000135F6BE051201352CBF051201359CBFAC
:1017730005120135C7BF051201352AC0051201350F
:101783009AC005120135D8C005120135DBC0051218
:101793000135E4FF02120135E7FF02120135008033
:1017A30005120135228005120135B4800512013579
:1017B300B28105120135A383051201350384051295
:1017C30001356C8405120135F87F00120135CAB466
:1017D3000512013576B605120135E2B6051201355B
:1017E300F8FF01120135C0D00512013535D10512BC
:1017F300013545D10512013501BD0512013532BD53
:10180300051201355CBD0512013519BE05120135FE
:1018130039BE0512013591BE05120135C88904127E
:101823000135D689041201351C8A041201356F8AE9
:1018330004120135B78A04120135118B04120135E4
:10184300328B04120135098E04120135178E0412EE
:101853000135738E04120135A68E04120135B98E3B
:1018630004120135448F04120135DB8F0412013554
:101873005690041201358D90041201351391041210
:101883000135689104120135C39104120135D591D4
:10189300041201350692041201350F920412013528
:1018A3004D93041201358EC405120135EDC40512A2
:1018B300013588C505120135EEC505120135EA88E3
:1018C300051201351D8905120135438A05120135BB
:1018D300688A05120135298B05120135018C051221
:1018E300013542C6051201350BC705120135757D59
:1018F30000120135BA7D00120135F87D0012013561
:10190300937F001201356CCB0512013587CB05128D
:10191300013597CB05120135FACB0512013538CCC9
:1019230005120135FCCC0512013500800412013586
:10193300DC80041201351F81041201355981041220
:101943000135C581041201351D82041201358D82D2
:10195300041201355E8304120135488404120135F3
:10196300BF8404120135558604120135E086041242
:101973000135508704120135CA8704120135E18706
:10198300041201350C89041201355F8904120135F3
:101993004CD20412013569D20412013555D3041215
:1019A30001359ED304120135BED304120135FAD397
:1019B3000412013553D4041201358FD404120135B6
:1019C300D7D40412013571D704120135DAD70412C2
:1019D3000135E6AB0212013501B102120135F8B34C
:1019E300021201351EB40212013547B40212013549
:1019F300F5B402120135D6B602120135F1B702125F
:101A030001350AB80212013500BD0212013539BD94
:101A1300021201357DBD021201358ABE0212013563
:101A2300D037001201350438001201353F38001257
:101A33000135B138001201357839001201358F397B
:101A4300001201356B3A00120135603E0012013578
:101A5300703E00120135A13E00120135743F0012A1
:101A63000135D63F00120135D93F00120135404000
:101A7300001201351C4200120135D3420012013518
:101A83002543001201352C43001201359543001202
:101A93000135A54300120135E34300120135FC4330
:101AA300001201351344001201359F440012013521
:101AB300BA4400120135E85400120135E35800120C
:101AC3000135008003120135348103120135618130
:101AD30003120135B08403120135E9840312013581
:101AE300FA84031201351686031201352786031281
:101AF3000135B78603120135C786031201358E8B74
:101B030003120135328C03120135408C0312013567
:101B13006D8C03120135D28C03120135AA8E031288
:101B230001357F8F03120135F1E9031201353EEED2
:101B330003120135DFF00312013518F103120135E9
:101B430029F10312013548F10312013572F2031230
:101B5300013583F2031201350BF3031201359CF3B4
:101B630003120135B4B604120135C2B704120135AC
:101B7300DFB704120135BAB904120135DEBA041213
:101B830001357ABC041201355ED105120135B8A7BF
:101B93000512013563C70512013519D00512013548
:101BA3005A9003120135669503120135FAB80512EE
:101BB30001357AD005120135CFFF0312013568993B
:101BC3000512013515CF051201353FCF0512013539
:101BD300FED005120135D1FF04120135D67F00E096
:101BE30066701008A3E066700A08A3E06670040834
:101BF300A3E06622C008C3E096F50808A3E0964276
:101C03000808A3E096420808A3E0964208A2D2651A
:101C1300D033E5087001D3D00822C3E7960809E75B
:101C2300960809E7960809E79622C3E09608A3E019
:101C33009608A3E09608A3E09622C008C3E096F5B1
:101C43000808A3E096420808A3E096420808A3E028
:101C53009645087001D3D00822080808E630E7113A
:101C6300122516121C74080808C64480C6181818D2
:101C730022181818E9799EC608CAC608CBC608CC2C
:101C8300C6C370207996CACBCC7019798ECBCC7031
:101C9300137986CC700EF9802ACA33CACB33CBCCE6
:101CA30033CC331930E7F2CCCBCA3350147004EA87
:101CB30030E00DE4CA3ACACB3BCBCC3CCC50020952
:101CC300C3E913C6CC182313C6CB18C6CA18C6F962
:101CD30022121D1420F01430E72B74FFFCFBFA745E
:101CE3007F8022E4FCFBFA7480801AB48008BC0075
:101CF300F2BB00EF800F50EBF9E4C39AFAE49BFBCD
:101D0300E49CFCE499C6CC18C6CB18C6CA18C6F91D
:101D130022E4C9C608CAC608CBC6D3330308CCC657
:101D23003392F0C3947F402E94184019C9B9070425
:101D3300CACBCC225025C309CA33CACB33CBCC334D
:101D4300CC33D9F422F4600DC9CCC313CB13CBCA63
:101D530013CAD9F6CC22E4FCFBFA2214FCFBFA22C8
:101D6300E62618461846184622E727194719471941
:101D73004722181818E60846087009E62608700571
:101D8300E633F4220822191919E70947097009E70C
:101D930027097005E733F4220922E6084608C3132E
:101DA3004608336002E633F422E7094709C31347C1
:101DB30009336002E733F422121D9D6025121DAC26
:101DC3006020121D637003021D6C080808E766702B
:101DD300101819E766700A1819E76670041819E7EE
:101DE3006622F422121D9D601C121DAC6017121D89
:101DF300637007121D6C7001D322C0D0121D6C706A
:101E030006D0D0B322C32233D0D0501430E0F6C36F
:101E1300E7960809E7960809E7960809E796B322C3
:101E230020E0D5E6970809E6970809E6970809E64A
:101E330097B322121D9D601B121DAC6016121D6309
:101E43007007121D6C600CB322C0D0121D6C70059C
:101E5300D0D022C32233D0D0501330E0EBC3E79667
:101E63000809E7960809E7960809E7962220E0E4BF
:101E7300E6970809E6970809E6970809E697220016
:101E8300121D9D604F121DAC6012E7548066F6125E
:101E93001D757011121D6C703B090909F4F618F6D3
:101EA30018F618F622121D897015121D630808080A
:101EB30060EAE6447FF618768018E4F618F62212F4
:101EC3001D636016121D6C7012E4F608F608F6081E
:101ED300E65480F609090918181822EAC0E0EBC095
:101EE300E0ECC0E0EDC0E0E687F0A4FBACF008E670
:101EF30087F0A42CFCE435F0FA1809E687F0A42C4B
:101F03004B60027401CA35F0FCE433FB09E687F049
:101F1300D2F7A42CCB35F0FC1908E687F0A42BCC20
:101F230035F0FBE433FD0819E687F0D2E7A42C4A29
:101F3300CB35F0CD3400FC09E687F0D2E7A42DCCF5
:101F430035F0FDE433FA0918E687F0D2F7A42CCD77
:101F530035F0CA3400FC08E687F0D2E7D2F7A42AAA
:101F6300CC35F07A7E20E70B0ACB33CBCD33CDCC07
:101F730033CC33CB3350147004ED30E00ED2F1E4A4
:101F8300CD3DCDCC3CCC3B5005DA05C2F1EB547FC3
:101F9300C63308E63392F0FBE73309E733C39A50BD
:101FA3002D2B70190C0D4C4D70151806E608C33314
:101FB300700D20F10AA2F013F6E418800B4024E41C
:101FC300F630F002768018F618F618F68024D33B24
:101FD30014501074FFA2F013F6187680E418F61864
:101FE300F6800FA2F013F618E63303F618ECF61892
:101FF300EDF6D0E0FDD0E0FCD0E0FBD0E0FA221219
:102003001DAC6046121D9D603DE9687008F618F628
:1020130018F618F622748067F71220360909097436
:102023008067F722121D9D601D121DAC70051919E2
:1020330019801A121D75701F121D89C37003E6677C
:102043003319191940071818182208080874FFF6DD
:1020530018F618F618F622121D896017121D6C70F7
:102063002192F0121D637019501720F0140808080C
:10207300090909E7F61819E7F61819E7F61819E731
:10208300F622121D6360E6E869701F0808E62480E3
:10209300F608E436F618547FB47F0CE654806007E4
:1020A300F6E418F618F622181822E9C6CC08C6CDAD
:1020B30008C6CE08C6CFC0E0E8C0E0EAC0E0EBC087
:1020C300E009E9F809E7FA09E7FBE6F918E6F8C3D6
:1020D300EC98ED99EE9AEBC2E7F5F0EFC2E795F0D5
:1020E300500E600CEBCFFBEACEFAE9CDF9E8CCF861
:1020F300EAA2E7D2E7FAEB33FB13F5F0EEA2E7D25D
:10210300E7FEEF33FFC5F013A2E730E601B313C5D3
:10211300F0C3C0E0C0F07F00C39BFB605E94186017
:102123000F401D14601AD0E023F9D0E0F802220812
:102133008AF0E9486003D2F0E4AFF0FAF9F8803BA3
:10214300EB30E40D89F0EA6003D2F0E4AFF0F9CAB2
:10215300F8EB30E30D88F0EF6002D2F0AFF0E4CAA1
:10216300C9F8EB54076014FBC3EA13FAE913F9E85F
:1021730013F8EF135002D2E0FFDBEDD0E0C0E03004
:10218300E739C3E49FFFF5F0EC98FC42F0ED99FDCD
:1021930042F0EE9AFE42F0D0E0F9D0E0F8E5F060CC
:1021A3007AE923F9EE20E742D8028067C3EF33FFD1
:1021B300EC33FCED33FDEE33FE80EAEC28FCED3925
:1021C300FDEE3AFED0E023F9D0E0F84002801BC3D5
:1021D300EE13FEED13FDEC13FCEF135002D2E0FF00
:1021E30008B800067F7F74FF802EEF3350178CF002
:1021F30020F00260100CBC000C0DBD00080EBE00E8
:102203000408E860DFE933E813FFEE2313FE4F4DC4
:102213004C8008E95480FFE4FEFDFCEE33EF33F419
:102223007004FCFD7E80D0E0FBD0E0FAD0E0F8D073
:10223300E0CFC618CEC618CDC618CCC6F922121DDB
:102243009D700418181822121DAC700D74FFF61837
:1022530019F61819F61819F622E7548066F6121DB6
:1022630063700F121D6C70F014F608F608F608F68A
:1022730080D1121D6C700CF608F608768008E644CF
:102283007F80EC121D8C700C121D7860BFE65480A9
:10229300F6E480BB121D78700519191980A5E86949
:1022A300700C763F18768018F618F6E8F922E6CD1A
:1022B300C0E018ECC0E0E633CD33CDD313F6E71915
:1022C300FCE7191933CC33C3947F400ECD9D5024C2
:1022D30008E65480F6E418F6800FF4043D14501415
:1022E30008E6447FF6187680E418F618F6D0E0FC8A
:1022F300D0E0FD22CCD313CCFD18E4C6CBC0E0184C
:10230300E4C6CAC0E00808ED08C633E613F618E4CD
:1023130033C675F003C3CA97CA09CB97CB199C4040
:10232300047D08802EBD00030223EA16B6FF0506CE
:1023330006081618C3CA33CACB33CB33CA27CA0914
:10234300CB37CB193CC37D08803E187D0820E75C62
:10235300C633C6CA33CACB33CB33DDF1D5F0EB304A
:10236300E77BCA97CA09CB974ACB199C406F4B703E
:1023730025E620E0218066187D08C3CA97CA09CBE9
:1023830097CB199CD3C633C6CA33CACB33CB33508E
:10239300C9DDE7D5F0E1D3E4C636C608C636C608BC
:1023A300C636C608C636C61818188031C3CA97CAB7
:1023B30009CB97CB199CB34097C633C6CA33CACB54
:1023C30033CB33DD34D5F02EC6A2E0C640C8CA27CE
:1023D300CA09CB37194A70BECB3CB480B90808E6AA
:1023E3003308E633601F181818D0E0FAD0E0FBD0AA
:1023F300E0FCD0E0FD22187D08CA27CA09CB37CB01
:10240300193CD3808013F618E4B67F11F618B6FF93
:102413000EF618C60470D20808768080CAF618F63D
:1024230018F680C5080808EAC0E0EBC0E086F0E7CC
:10243300A4FA180986F0E7A42AFA180986F0E7A493
:102443002AFA180986F0E7A42AFA1986F0E7A4FB0A
:10245300E5F02AFA190886F0E7A42BFBE5F03AFA2F
:10246300190886F0E7A42BFBE5F03AFA1818098659
:10247300F0E7A4C5F02BFBE43AFA1908E7C5F0C668
:10248300A426F6E5F03BFBE43AFA1886F0E7A4F657
:10249300E5F00826F6E43B08F6E43A08F6D0E0FB5C
:1024A300D0E0FA22E4CFC0E0E4CEC0E0E4CDC0E067
:1024B300E4CCC0E075F020E626F608E633F608E63D
:1024C30033F608E633F6181818EC33FCED33FDEE5B
:1024D30033FEEF33FFC3EC9709ED9709EE9709EF4E
:1024E30097191919400FFFEC97FC09ED97FD09EEB9
:1024F30097FE191906D5F0BFECF709EDF709EEF7CA
:1025030009EFF7191919D0E0FCD0E0FDD0E0FED0B7
:10251300E0FF22181818E4C396F608E496F608E4D8
:1025230096F608E496F6226016080808C6C313C692
:1025330018C613C618C613C618C613C6D5E0EA22B2
:102543007009080808226016181818C6C333C6088D
:10255300C633C608C633C608C633C6D5E0EA22E684
:1025630027F60809E637F60809E637F60809E637D5
:10257300F622E026F608A3E036F608A3E036F608CE
:10258300A3E036F622E026F008A3E036F008A3E045
:1025930036F008A3E036F022C3E697F60809E6977B
:1025A300F60809E697F60809E697F622C3E096F0DF
:1025B30008A3E096F008A3E096F008A3E096F022C3
:1025C300E657F60809E657F60809E657F60809E656
:1025D30057F622E056F608A3E056F608A3E056F6AF
:1025E30008A3E056F622E056F008A3E056F008A34D
:1025F300E056F008A3E056F022E066F608A3E06692
:10260300F608A3E066F608A3E066F622E0F608A360
:10261300E0F608A3E0F608A3E0F622E6F008A3E656
:10262300F008A3E6F008A3E6F022E0FAA3E0FBA398
:10263300E0FCA3E0FD22EAF0A3EBF0A3ECF0A3EDB2
:10264300F022E0F8A3E0F9A3E0FAA3E0FB22E8F02C
:10265300A3E9F0A3EAF0A3EBF022CAC0E0E6F0A3FB
:1026630008DAFAD0E0FA22CAC0E0E0A3C582CCC5FA
:1026730082C583CDC583F0A3C582CCC582C583CD76
:10268300C583DAE6D0E0CA22C3E498F8E499F912E4
:1026930026CC8026C3E49AFAE49BFBE920E7E912FF
:1026A30026CCE498F8E499F922C3E498F8E499F97C
:1026B3001226CCE498F8E499F9C3E49AFAE49BFB74
:1026C30022EB20E7CFE920E7E0B90010BB0008E8E0
:1026D3008AF084F8AAF022E4FBC8FA22EB70227B8A
:1026E30010C833C8C933C9335007C39AC3DBF28058
:1026F300069A50012ADBEAC833F4C8C933F4C9FA8D
:102703002275F008E4C833C8C933C933C99AC99BD1
:102713005004C92AC93BD5F0ECFBC833F4C8E4C95B
:10272300FA22600D08C6A2E713C618C613C6D5E081
:10273300F322600C08C6C313C618C613C6D5E0F44B
:1027430022700422600D18C6C333C608C633C6D52B
:10275300E0F41822251810AF08F518400C1519805D
:1027630008F51840021519D2AF2200C0D025181061
:10277300AF08F518500C05198008F5185002051913
:10278300D2AFD0D0222518F58210AF08F518400C2F
:1027930015198008F51840021519D2AF851983223F
:1027A3002518F582E43519F583222518F8E435193F
:1027B300F9222518FAE43519FB222518FCE435190A
:1027C300FD22E4732518C582C0E0E51934FFC583F3
:1027D300C0E0E518C3958224F810AF0885831985F6
:1027E30082188008858319858218D2AFCEF0A3E5BD
:1027F30020F0A37808E608F0A3DEFAEFF0A3E58162
:1028030024FAF8E608F0A3E608F0A3E608F0A30824
:1028130008E608F0A3E608F0A315811581D0E0FED1
:10282300D0E0F8158115811581E8C0E0EEC0E02203
:102833002518C582C0E0E51934FFC583C0E0E5185B
:10284300C3958224F910AF088583198582188008FF
:10285300858319858218D2AFCEF0A3E520F0A37843
:1028630008E608F0A3DEFAEFF0A3E58124FBF8E61F
:1028730008F0A3E608F0A30808E608F0A3E608F0CA
:10288300A315811581D0E0FED0E0F815811581E80C
:10289300C0E0EEC0E022851983851882E0A3FEE044
:1028A300A3F5207808E0A3F608DFFAE0A3FFE0A38E
:1028B300C0E0E0A3C0E0E0A3C0E0E0A3C0E0E0A389
:1028C300C0E010AF088582188583198008858218B7
:1028D300858319D2AFD083D08202013285198385D3
:1028E3001882E0A3FEE0A3F5207808E0A3F608DF52
:1028F300FAE0A3FFE0A3C0E0E0A3C0E0E0A3C0E0F0
:10290300E0A3C0E010AF088582188583198008858D
:102913008218858319D2AFD083D08222C0D02518E4
:10292300C582C0E0E51934FFC583C0E0E518C3954F
:102933008224F310AF088583198582188008858364
:1029430019858218D2AFC8F0A3E9F0A3EAF0A3EB8C
:10295300F0A37908E709F0A3D8FAECF0A3EDF0A30C
:10296300EEF0A3EFF0A3D0E0F0A3D0E0F0A3D0E02B
:10297300F0A3E520F0A3E5F0F0A3228519838518E1
:1029830082E0C0E0A3E0F9A3E0FAA3E0FBA37808A8
:10299300E0F608A3DFFAE0FCA3E0FDA3E0FEA3E07A
:1029A300FFA3E0C0E0A3E0C0E0A3E0F5D0A3E0F51F
:1029B30020A3E0A3F5F010AF088583198582188062
:1029C30008858319858218D2AFD082D083D0E0F8EE
:1029D300D0E03274048006740280027401C0E0F413
:1029E30004122788D0E012265D2274048004740246
:1029F3008000CCC0E0EDC0E0E518C39CCCAD19501D
:102A0300011D10AF068C188D1980068C188D19D2F4
:102A1300AF12266AD0E0FDD0E0FC22D083D082E959
:102A2300C0E0E493A3C386F0C5F095F0F908E493FE
:102A3300A386F0C5F095F0700BE493A3C39940050A
:102A4300E9048002A3E475F002A42582F582E5F08F
:102A53003583F583D0E0F9E493A3C0E0E493C0E0C9
:102A630022D083D082ECC0E0EDC0E0E493A3FCE489
:102A730093A3FDED4C600D122AB0EC24FFFCED3462
:102A8300FFFD80EFE493A3FCE493A3FDED4C600D05
:102A9300122AEFEC24FFFCED34FFFD80EFD0E0FDC4
:102AA300D0E0FCE493A3C0E0E493C0E022C0E0C321
:102AB300E49396087401939618400FE493667008A4
:102AC30008740193661870007019A3A3C3E4939666
:102AD300087401939618A3A3400DD0E0D0E0D0E092
:102AE300022AA0A3A3A3A3A3A3D0E022C0E0C0F023
:102AF30088F0E4936670080874019366187000A860
:102B0300F0A3A3700BD0F0D0E0D0E0D0E0022AA075
:072B1300A3A3D0F0D0E022E3
:102B1C0074F6122833EAFEEBFF8C088D09EE243490
:102B2C00F8E43FF9E8FCE9FD122C4EE0FAEE24370C
:102B3C00F582E43FF583E0F88508F0A4C885F00A37
:102B4C008509F0A4250AF9EA28F8E439F97A257BF5
:102B5C00001226CCEA8C828D83F0FA131313541FC7
:102B6C00F8EE28F8E43FF9E8245DF582E439F583C2
:102B7C00E0C0E074075AF8D0E0B800028004C31338
:102B8C00D8FCA2E05003EA8020EE2436F582E43F24
:102B9C00F583E0F5F0EA84A8F0EE28F8E43FF9E8D4
:102BAC002438F582E439F583E0F97F030228DF74D9
:102BBC00F5122833EAFEEBFFEE2434F582E43FF500
:102BCC0083E0C0E0122C4ED0E0F08E828F83A3A362
:102BDC00A3A3A3E0FAA3E0FB8E828F83A3A3A3A3FA
:102BEC00A3A3A3E0C39AF508A3E09BF509EE247F09
:102BFC00F8E43FF9880A890B8882F583E064017058
:102C0C002CEE2480F582E43FF583EA2401F8E43BC2
:102C1C00F9E0687003A3E06970137C1A7D08EEFA82
:102C2C00EFFB121018850A82850B83E4F0AC08AD1B
:102C3C0009EEFAEFFB122B1CE9F91237397F04026B
:102C4C0028DFEE2435F582E43FF58322C082C08371
:102C5C00851882851983E0F8A3E0F9C3EA9CEB9D03
:102C6C005010C3EC98ED99401BC3EA98EB995014A3
:102C7C00800EC3EA98EB994007C3EC98ED99400499
:102C8C00790180027900D083D08222EAC39CFAEBCE
:102C9C009DFB2274ED1228339004C3E06408600598
:102CAC00E06407702C9061C8E060269004F1E0F8B5
:102CBC0074FF68601CE875F00DA4C8AAF02AF974BA
:102CCC00F328FE740439FF8E828F83A3A3A3E070D4
:102CDC00057900022E41EE2468F50EE43FF50F90C5
:102CEC006060E0850E82850F83F07510B475110855
:102CFC00750800750900E5D914F50AE5D95403F5F2
:102D0C000B601FEE2483F50CE43FF50D7403650B8B
:102D1C006059E50A6017EE2467F582E43FF583E01D
:102D2C00700B793DEEFAEFFB12104880A49008AFBF
:102D3C00E064016023850C82850D83E060047A04D5
:102D4C0080027A00E50AC39AFA95E0FB120DFC8A20
:102D5C00088B09EA45097006121342022CDD850C1A
:102D6C0082850D83E070048A108B117A008014E543
:102D7C00D9C0E0EAF8E51028F582E43511F583D0E6
:102D8C00E0F00AEAC3950A40E6850C82850D83E0E3
:102D9C00602874FC250AF50A78101229DAAC0AA905
:102DAC000BEEFAEFFB121102740212276DE9700A96
:102DBC00AA08AB091218AC022D2E7403650B6054D3
:102DCC00850A0C750D00780C1229DAAC10AD11AA1D
:102DDC0008AB091210C6740212276D850E82850F7E
:102DEC0083E0F87480687005750C7F8002880CE5B0
:102DFC000CF50D780D1229DE780B1229DEA90AAC20
:102E0C0008AD099004F1E0FA7B00120C1C7402125C
:102E1C00276D801C9004C3E06408AC10AD117009E0
:102E2C00EEFAEFFB1211328007EEFAEFFB1211EC07
:102E3C0012134E79017F0C0228DF74F312283374BD
:102E4C00FC122757EAFEEBFF8909A2AFE433F50821
:102E5C00C2AFEE2463F50AE43FF50B8010AA0AAB6F
:102E6C000B12107E1218AC900821E004F0850A8237
:102E7C00850B83E0F8A3E0F9E849602DE82402FA19
:102E8C00E439FBEA2402F50CE43BF50D780C12292D
:102E9C00DA8A828B83E0FCA3E0F9EEFAEFFB1210E6
:102EAC0072740212276DE960B4900821E0604D90B5
:102EBC000822E0F8900821E0C398500C74026509D0
:102ECC00703A900823E060348E828F83A3A3A3A36F
:102EDC00E0851882851983122F1874021227A3E833
:102EEC00122F18900820E028F074021227BDAA189F
:102EFC00AB197901120C7C900821E4F0E508A2E0F2
:102F0C0092AF740412276D7F060228DFF0A3E4F061
:102F1C00900821E0F82200008521878522C622C076
:102F2C00E074EB12291FA2AFE433F508C2AF759B16
:102F3C0000906182E0A2E05030E591A2E0502A7549
:102F4C0091FE7401652170211230BE1212461230AE
:102F5C00AC1229ED1234E3740412276DE96401708C
:102F6C000579011212A0122C9F906182E0A2E5500B
:102F7C005DE591A2E550577591DF9004C3E06407BD
:102F8C006005E06408702F1230BE74016521703E3C
:102F9C001212461230AC1229ED1234E374041227CB
:102FAC006DE96401700579011212A07901EEFAEF56
:102FBC00FB122E468018E0640D70139004E5E004BB
:102FCC00F064287002E4F07A00E0F9121354906176
:102FDC0082E0A2E64003023081E591A2E6400302C2
:102FEC0030817591BF9004C3E06405700812122EF5
:102FFC0012123A80031212347521001212BEE9909B
:10300C0004C4F079001212A0120F3A7A017B0090DE
:10301C0004C2E0F912187C907803E0644270569078
:10302C0008B3E014F0704EC2AF12303800782AD0DA
:10303C00E0F618D0E0F6E59F5407F87005750DFF23
:10304C008003750D7FC4C0E07829E6F50A08E655C3
:10305C000DF50B740B780A122735D0E0250AF89081
:10306C006270E0A2E740F8E8C333906272F09062BD
:10307C0070E0D2E0F0906181E0A2E35009E5E9A2B2
:10308C00E3500375E9F7A3E0A2E75009E591A2E745
:10309C00500375917FE508A2E092AF7F0802297E6C
:1030AC008E828F83E0F8A3E0C82416F582E438F50D
:1030BC0083229004F1E0F875F00DA4C8AAF02AF967
:1030CC0074F328FE740439FF22C0E0C0D0C082C063
:1030DC0083906183E0A2E05009E5BFA2E050037544
:1030EC00BFFEE0A2E15009E5BFA2E1500375BFFDB0
:1030FC00E0A2E25009E5BFA2E2500375BFFBE0A2DB
:10310C00E35009E5BFA2E3500375BFF7E0A2E4501A
:10311C0009E5BFA2E4500375BFEFE0A2E55009E555
:10312C00BFA2E5500375BFDFE0A2E65009E5BFA2E0
:10313C00E6500375BFBFD083D082D0D0D0E032C070
:10314C00E074F212291FE5A7A2E4500FE5A1A2E456
:10315C00500953A7EF75A1EF12319FE5A7A2E550D7
:10316C000CE5A1A2E5500653A7DF75A1DFE5A7A2E8
:10317C00E15009E5A1A2E1500375A1FDE5A7A2E28A
:10318C00500CE5A1A2E2500653A7FB75A1FB7F01F1
:10319C0002297E74F81228337521019004C3E0646F
:1031AC000670077A007B00121216A2AFE433FED22F
:1031BC00AF9004C9E0640170187A207B009004C2BF
:1031CC00E0F91219B47A207B009004C2E0F91218CD
:1031DC0082906182E0D2E6F09008B0E0602185C672
:1031EC002280169004C8E064017008E5C654F844C7
:1031FC0005F5C653BEFC122F247401652160E4EE64
:10320C00A2E092AF7F010228DF0000008E238F2402
:10321C00858228858327851882851983E0CEA3E0D3
:10322C00CF852882852783EBC9EAC8EDCBECCA751C
:10323C00F010C3E833C8E933C9EA33CAEB33CBC364
:10324C00EA9EF526EB9FF525B35004AB25AA26EC98
:10325C0033CCED33CDD5F0DAAE23AF242274E912A2
:10326C00283374FA122757EAFEEBFF8C088D0912EB
:10327C001258EAF8EBF9ECFAEDFB8E828F831226EA
:10328C00519004C3E024F7C3940550067510010255
:10329C0033A012118C8A0A8B0BEA450B7003023394
:1032AC009D12124C8A0C8B0D12124CEA650C700399
:1032BC00EB650D60ECEEFCEFFDAA18AB1912125287
:1032CC00850A82850B83A3A3780C12260F90959008
:1032DC00780C1225D6851882851983781412260F3E
:1032EC0090959078141225D6780C7914121C1D50D8
:1032FC001F780C791412259B909624780C121C3D87
:10330C004047850C10850D11850E12850F138045D5
:10331C00909624851410851511851612851713782F
:10332C0010790C12259B7810121C3D501C75100046
:10333C007511007512007513017810791412259B04
:10334C007810790C122562800C75100175110075BE
:10335C001200751300740978101225439095B078FB
:10336C000C12260F7810790C1224A79004C3E06479
:10337C0008600AE064066005E0640570209095A87A
:10338C007810121C3D5016909620781012257580DE
:10339C000C751000751100751200751300850882EC
:1033AC00850983781012261E740612276D7F100271
:1033BC0028DF74F712283312126A9008AEE0640109
:1033CC007010906245E4F0A3F053F4F343FE0C53F9
:1033DC0090F3121204E5C654B84441F5C6E59E5468
:1033EC0047644170F8906185740FF09008ACE0F47C
:1033FC007002A3E0602C7508017509009008ACE020
:10340C007808122744E508F4FAA3E0600814600A6F
:10341C0014600C800DEA52808008EA52908003EA16
:10342C0052A079007F020228DF74F7122833E9FEDC
:10343C00EAFF74016E700C7A807B009004C2E0F994
:10344C0012187C9037C8E493F46008E493F9120FD7
:10345C001C800953C6B8E59E544770FA12120A90A4
:10346C0008AEE064017003120F529008ACE0F470E7
:10347C0002A3E0602B7508017509009008ACE07898
:10348C0008122744E508FAA3E0600814600A1460E7
:10349C000C800DEA42808008EA42908003EA42A048
:1034AC0012118C8A088B09A808A909E8496016E54D
:1034BC00E170FCE82414F582E439F583E0F874FF3C
:1034CC0068600288E174016F700A7A019004C2E0AE
:1034DC00F912191202343074F11228338A088B094C
:1034EC008C0A8D0B90959078081225D6740F1227A4
:1034FC00A3780C12260F909590780C1225D678088C
:10350C00790C121C1D90962450107808790C1225F9
:10351C009B7808121C3D4014800E780C79081225FB
:10352C009B780C121C3D50047901800279007F08B5
:10353C000228DF74ED1228338A088B098C0A8D0B54
:10354C0090959078081225D674131227A3780C1234
:10355C00260F909590780C1225D6780C7908121CB1
:10356C001D40117808790C12259BAA08AB09AC0AEE
:10357C00AD0B8022751000751100751200751301CA
:10358C007810790C12259B78107908122562AA10F4
:10359C00AB11AC12AD137F0C0228DF90959078081C
:1035AC0012260F8A828B8378081225E97F04022861
:1035BC00DF74F51228338C828D83780812260F8ADB
:1035CC00828B8378081225AF123611C3E098F0A3D2
:1035DC00E099123603401E909600780812260F8A46
:1035EC00828B8378081225888E828F83E02420F0CA
:1035FC00A3E0344EF080A4F08E828F83C3E094203D
:10360C00A3E0944E22EA2404F8E43BF9E8FEE9FF37
:10361C008C828D83A3A3A3A3E0F8A3E0F98E828F01
:10362C00832274F5122833E9FE90083CE0FAA3E0FB
:10363C00FBEE29F8E433F9744828F582749139F5D6
:10364C0083E02AF508A3E03BF50978081229DA9003
:10365C0095C412262D123218740212276D8A088B0B
:10366C00098C0A8D0B7410780812252AAA08AB094C
:10367C007F040228DF74F11228338A0C8B0D8C0E18
:10368C008D0F74111227A31229F174111227A3E0C4
:10369C002401F508A3E03400F509E4F50AF50B78EC
:1036AC000C7908122427909618780812260F780C9B
:1036BC007908122427AA0CAB0DAC0EAD0F123218E0
:1036CC00740212276D8B09EA450960047A018002A5
:1036DC007A00EC2AFCE43DFD74131227A3E0F8A356
:1036EC00E0F9E8FEE9FFECF8EDF97A717B021226BD
:1036FC00CC88088909E4F50AF50B8E828F8378084B
:10370C0012261EECF8EDF97A717B021226CC8A088F
:10371C008B09740578081227448E828F83A3A3A388
:10372C00A3E508F0A3E509F07F080228DFC082C0FA
:10373C0083E9906000F0D083D08222C0E074F21252
:10374C00291FA2AFE433FED2AFE589A2E14006E522
:10375C0089A2E25003121780758900758900C2C5D1
:10376C00751A00EEA2E092AF7F0102297EC0E074D0
:10377C00F212291FA2AFE433FED2AFE58BA2E050C8
:10378C0003121780758B00C2E8751A00EEA2E09246
:10379C00AF7F0102297EC0E0C0D0E8C0E0A2AFE458
:1037AC0033F8D2AFC2C7751A00E8A2E092AFD0E0EE
:1037BC00F8D0D0D0E032C2AF02000022FFFFFFFFF2
:1037CC00FFFFFFFFEAF8EBF9E824FFFAE934FFFB0F
:1037DC00E84960217800790078DC7905C3E8940128
:1037EC00E99400A2D265D03340DA00E824FFF8E96E
:1037FC0034FFF980E702013274F71227C789087881
:10380C0000800108E8C395085022E8FE7F00EA2EEC
:10381C00F582EB3FF583E0F9E8FE7F00EC2EF582B4
:10382C00ED3FF583E06960DB7900800279017F016F
:10383C0002289974F01227C7E9FE7C007508007500
:10384C000900750A00750B00803A909640780C12AE
:10385C00260F7808790C122427ECF87900EA28F561
:10386C0082EB39F583E0F87900E824D0F50CE934E3
:10387C00FFF50DE50D3395E0F50EF50F7808790C95
:10388C001225620CECC39E500FECF87900EA28F577
:10389C0082EB39F583E070B2AA08AB09AC0AAD0B28
:1038AC007F0802289974F71227C774EF12275790D4
:1038BC009126AC18AD19741112266A78687918889B
:1038CC008289837430F088828983A3A882A9838833
:1038DC008289837478F088828983A3A882A983EA79
:1038EC002406FA50010B7E06806AEA24FFFAEB34B8
:1038FC00FFFB8A828B83E0C4540FFC7D0085188209
:10390C00851983E5822CF582E5833DF583E0C0E0E3
:10391C0088828983D0E0F088828983A3A882A983D6
:10392C008A828B83E0FC7D00EC540FFCED5400FD8F
:10393C00851882851983E5822CF582E5833DF58314
:10394C00E0C0E088828983D0E0F088828983A3A8D4
:10395C0082A9831EEE7093888289837400F07A6842
:10396C007B18741112276D7F01022899C082C083C5
:10397C007CB07D177AB6798012197EE9D083D0821B
:10398C0002013274F71227C7E9FEEE6003023A2AED
:10399C009017B07404F09017B17400F09017B274D3
:1039AC0000F09017B37400F07C277D947AB47B17E9
:1039BC00121BCA9017C07400F07C347D957AC17BC1
:1039CC0017121BCA9017C87400F07C0D7D0079008B
:1039DC007AC97B1712183A9017E37400F09017E429
:1039EC007400F07C787D0079007AE67B1712183A27
:1039FC0090185E7400F0A37400F09018607400F0DE
:103A0C009018617400F09018627400F09018637450
:103A1C00F4F0A37401F09018657400F0802B74011D
:103A2C006E70267C0D7D0079007AC97B1712183ACE
:103A3C009017E37400F09017E47400F07C787D002C
:103A4C0079007AE67B1712183A7C007D0079007AAF
:103A5C00097B041215F4E9121A387F0102289974B3
:103A6C00F41227C774D31227579017B0E0F50875D6
:103A7C00090078081229DA7C9E7D8E74021227B513
:103A8C00121BCA740212276DAA18AB1912181C8AC1
:103A9C00088B09AC08AD09AA18AB191217EC7A649B
:103AAC007B00121A209017B1E0F508750900780810
:103ABC001229DA7C3C7D8F74021227B5121BCA7452
:103ACC000212276DAA18AB1912181C8A088B09ACA4
:103ADC0008AD09AA18AB191217EC7A647B00121AFC
:103AEC00209017B2E0F50875090078081229DA7CE5
:103AFC00EF7D8E74021227B5121BCA740212276D49
:103B0C00AA18AB1912181C8A088B09AC08AD09AAA3
:103B1C0018AB191217EC7A647B00121A209017B3A9
:103B2C00E0F50875090078081229DA7C127D90748A
:103B3C00021227B5121BCA740212276DAA18AB19F0
:103B4C0012181C8A088B09AC08AD09AA18AB1912FB
:103B5C0017EC7A647B00121A207508B47509177873
:103B6C00081229DA7CCD7D8F74021227B5121BCA7C
:103B7C00740212276DAA18AB1912181C8A088B092B
:103B8C00AC08AD09AA18AB191217EC7A647B0012B9
:103B9C001A209017C0E0F50875090078081229DA88
:103BAC007CE47D8F74021227B5121BCA7402122793
:103BBC006DAA18AB1912181C8A088B09AC08AD0930
:103BCC00AA18AB191217EC7A647B00121A2075082C
:103BDC00C175091778081229DA7C577D9074021286
:103BEC0027B5121BCA740212276DAA18AB1912182A
:103BFC001C8A088B09AC08AD09AA18AB191217EC72
:103C0C007A647B00121A209017C8E0F50875090039
:103C1C0078081229DA7C407D9074021227B5121BA9
:103C2C00CA740212276DAA18AB1912181C8A088BB9
:103C3C0009AC08AD09AA18AB191217EC7A647B0011
:103C4C00121A207508C975091778081229DA7CB977
:103C5C007D8E74021227B5121BCA740212276DAA2C
:103C6C0018AB1912181C8A088B09AC08AD09AA18D4
:103C7C00AB191217EC7A647B00121A2075080075C8
:103C8C000900023D209092CB74201227BD740D12B6
:103C9C00266A750A0C750B00780A1229DAA808A98D
:103CAC0009E875F00CA4C8AAF075F000A42AFA75FE
:103CBC00F00CE9A42AF974E628FC741739FD742277
:103CCC001227B5121822740212276D74201227AD18
:103CDC00880A890B780A1229DA78081229DA7C5EAC
:103CEC007D9374041227B5121BCA740412276DAA93
:103CFC0018AB1912181C8A0A8B0BAC0AAD0BAA183C
:103D0C00AB191217EC7AC87B00121A200508E508CB
:103D1C00700205099017E3E0F87900C3E50898E50F
:103D2C000999A2D265D0335003023C9190185E12CF
:103D3C0029F17C587D8E74021227B5121BCA7402AD
:103D4C0012276DAA18AB1912181C8A088B09AC081B
:103D5C00AD09AA18AB191217EC7A647B00121A2061
:103D6C00901860E0F5083395E0F50978081229DA27
:103D7C007C6E7D9074021227B5121BCA7402122736
:103D8C006DAA18AB1912181C8A088B09AC08AD095E
:103D9C00AA18AB191217EC7A647B00121A2090182F
:103DAC0062E0F50875090078081229DA7C097D8F24
:103DBC0074021227B5121BCA740212276DAA18AB13
:103DCC001912181C8A088B09AC08AD09AA18AB1972
:103DDC001217EC7A647B00121A209018631229F1E6
:103DEC007C2E7D8E74021227B5121BCA7402122708
:103DFC006DAA18AB1912181C8A088B09AC08AD09EE
:103E0C00AA18AB191217EC7A647B00121A209018BE
:103E1C0065E0F50875090078081229DA7CD47D8EE6
:103E2C0074021227B5121BCA740212276DAA18ABA2
:103E3C001912181C8A088B09AC08AD09AA18AB1901
:103E4C001217EC7A647B00121A20742D12276D7FE6
:103E5C0004022899C082C0839017C0E0F9D083D0A7
:103E6C0082020132C082C083121A4AE964017010C6
:103E7C009018DEE064027004790180127900800EE3
:103E8C009018E9E064067004790180027900D0830F
:103E9C00D08202013274F41227C774F4122757EA45
:103EAC00FEEBFF121A4AE964016003023F6A7508CF
:103EBC0000800205089017E3E0F8E508C39850333A
:103ECC00AA18AB19A908121A5CE96027750A0C75B7
:103EDC000B00780A1229DAEEFCEFFD74021227B5FA
:103EEC00121834740212276DE960C8E5089017E5C2
:103EFC00F0806B75080C75090078081229DAEEFC55
:103F0C00EFFD9017E4E0F87900E875F00CA4C8AA6E
:103F1C00F075F000A42AFA75F00CE9A42AF974E6FD
:103F2C0028FA741739FB121822740212276D901795
:103F3C00E4E09017E5F09017E4E02401F09017E42A
:103F4C00E075F00A84E5F09017E4F09017E3E0C315
:103F5C00940A50079017E3E02401F0121A38740CFD
:103F6C0012276D7F0402289974F41227C78908EA76
:103F7C00FEEBFF121A4AE9640170489017E3E0F86F
:103F8C00E508C398503D750A0C750B00780A122988
:103F9C00DAE508F87900E875F00CA4C8AAF075F019
:103FAC0000A42AFA75F00CE9A42AF974E628FC742A
:103FBC001739FDEEFAEFFB121822740212276D79F5
:103FCC0001800279007F0402289902013274EC12FC
:103FDC0027C77E31750C00750D00750E40750F40AE
:103FEC00121B888A088B09A808A909EEFA7B00E83D
:103FFC00C39AF508E99BF509E5093395E0F50AF54F
:10400C000B7808121C5C909644781012260F780CD2
:10401C007910121E827808790C1222417808122924
:10402C00D690964412262D121BBE740412276D7F57
:10403C000C02289974F51227C7780079007C007D52
:10404C00007E007F007508E8750903901881E06414
:10405C000560030241E1901882E0F8A3E0F9E875ED
:10406C00F002A4C885F00A75F000A4250AF50A75BB
:10407C00F002E9A4250AF9747728F582741839F549
:10408C0083EAF0A3EBF0901882E02401F0A3E03473
:10409C0000F0901882E0F8A3E0F97A057B00122674
:1040AC00C4901882EAF0A3EBF0780079000241B3D7
:1040BC00E8FAE9FBEA75F002A4CA85F00A75F0008B
:1040CC00A4250AF50A75F002EBA4250AFB74772ADD
:1040DC00F58274183BF583E0FAA3E0FBC3EE9AEF8C
:1040EC009BA2D265D0335028E8FAE9FBEA75F002BE
:1040FC00A4CAAEF075F000A42EFE75F002EBA42E4F
:10410C00FB74772AF58274183BF583E0FEA3E0FF7D
:10411C00E8FAE9FBEA75F002A4CA85F00A75F0002A
:10412C00A4250AF50A75F002EBA4250AFB74772A7C
:10413C00F58274183BF583C3E09508A3E09509A2BA
:10414C00D265D033502EE8FAE9FBEA75F002A4CA26
:10415C0085F00875F000A42508F50875F002EBA4AD
:10416C002508FB74772AF58274183BF583E0F50873
:10417C00A3E0F509E8FAE9FBEA75F002A4CA85F0B8
:10418C000A75F000A4250AF50A75F002EBA4250ABD
:10419C00FB74772AF58274183BF583E02CFCA3E0C2
:1041AC003DFD08E8700109C3E89405E99400A2D22A
:1041BC0065D03350030240BCECC39EF8ED9FF9E888
:1041CC00C39508F8E99509F97A037B001226C4E82F
:1041DC00FAE9FB8036901881E0F87900E875F00276
:1041EC00A4C8ACF075F000A42CFC75F002E9A42C6A
:1041FC00F9747728F582741839F583EAF0A3EBF09B
:10420C00901881E02401F07A007B007F030228994A
:10421C0074F01227C774E0122757E9FEEE9018606D
:10422C00F0121A50E970030242C9EEFA3395E0FB22
:10423C00121A688A088B098C0A8D0B909648780C98
:10424C0012260F7808790C121E827808121CD4AA38
:10425C0008AB09121A6E8A088B0978081229DAEE53
:10426C00F404F50875090078081229DA7C157D919B
:10427C0074041227B5121BCA740412276D901866A9
:10428C00E0603AAA18AB19121BDC8A088B09AC083F
:10429C00AD09AA18AB191217ECAA18AB19121BDC32
:1042AC008A088B09AC08AD09AA18AB1912055CE990
:1042BC007A107B009018A9E0F912187CE97420128E
:1042CC00276D7F0802289974F61227C774E8122705
:1042DC0057908F55AC18AD19741812266A7508C111
:1042EC0075091778081229DA7C1F7D92740212273F
:1042FC00B5121BCA740212276DAA18AB1912181C1E
:10430C008A088B09AC08AD09AA18AB191217EC7402
:10431C001812276D7F020228997AB47B170201329A
:10432C00C082C08374FC122757901884E02401F0DB
:10433C00A3E03400F0901884C3E0940AA3E0940046
:10434C00403B9095FCAC18AD19740412266AAC185D
:10435C00AD197A047980121984E97C047D00AA18BD
:10436C00AB1912055CE97A047B009018A9E0F912EC
:10437C00187CE99018847400F0A37400F074041293
:10438C00276DD083D082020132C082C0839017C8BF
:10439C00E0F9D083D08202013274F01227C779067B
:1043AC007AC17B17121A2C8A0C8B0D8C0E8D0F85F3
:1043BC000C08850D09850E0A850F0B9095C4780C99
:1043CC0012260F7808790C1224A7AA0CAB0DAC0E90
:1043DC00AD0F7F08022899C082C0839017B3E064A8
:1043EC00027004790180027900D083D082020132FC
:1043FC00C082C0839017B3E0700479018002790009
:10440C00D083D08202013274F61227C7901867E06D
:10441C006403700479008076901867E0640160088A
:10442C00901867E0640470419017E3E0605E7508D3
:10443C000C75090078081229DA9017E5E0F8790074
:10444C00E875F00CA4C8ACF075F000A42CFC75F069
:10445C000CE9A42CF974E628FC741739FD12182207
:10446C00740212276D79018025901867E064027040
:10447C001B75080C75090078081229DA7CD67D1793
:10448C00121822740212276D7901800279007F02C2
:10449C0002289974F61227C7901863E0F508A3E078
:1044AC00F509AA08AB09E4FCFD7F0202289974E91E
:1044BC001227C774B9122757EAFEEBFF8C088D0937
:1044CC007514017515007404650870047400650991
:1044DC00703479047C6B7D95EEFAEFFB121A26E9A9
:1044EC0060247C7F7D95AA18AB19121BCAAA18AB45
:1044FC001912181C8A088B09AC08AD09AA18AB193B
:10450C001217EC0254C7740865087004740065092E
:10451C00701679087C8A7D94EEFAEFFB121A26E964
:10452C006006121A440254C7740A650870047400B9
:10453C006509600302460779077CFA7D94EEFAEF71
:10454C00FB121A26E970030246078E828F83A3A3FF
:10455C00A3A3A3A3A3E024D0604B1460481460452C
:10456C0014604214603F24F560030246019017B0BA
:10457C00E0F50875090078081229DA7C167D937429
:10458C00021227B5121BCA740212276DAA18AB1996
:10459C0012181C8A088B09AC08AD09AA18AB1912A1
:1045AC0017EC0254C78E828F83A3A3A3A3A3A3A348
:1045BC00E024D09017B0F0121A389017B0E0F5083C
:1045CC0075090078081229DA7C2E7D937402122763
:1045DC00B5121BCA740212276DAA18AB1912181C3B
:1045EC008A088B09AC08AD09AA18AB191217EC751F
:1045FC0015010254C77514000254C7740A6508707B
:10460C000474006509701679077CE27D94EEFAEF6C
:10461C00FB121A26E960067514000254C7740A6569
:10462C0008700474006509701679077CDA7D94EEC5
:10463C00FAEFFB121A26E960067514000254C774CF
:10464C000A6508700474006509600302471879074D
:10465C007CD27D94EEFAEFFB121A26E97003024726
:10466C00188E828F83A3A3A3A3A3A3A3E024D0605B
:10467C004514604214603F24F36003024712901704
:10468C00B3E0F50875090078081229DA7C167D93D9
:10469C0074021227B5121BCA740212276DAA18AB2A
:1046AC001912181C8A088B09AC08AD09AA18AB1989
:1046BC001217EC0254C78E828F83A3A3A3A3A3A3C8
:1046CC00A3E024D09017B3F0121A389017B3E0F58A
:1046DC000875090078081229DA7C2E7D9374021271
:1046EC0027B5121BCA740212276DAA18AB1912181F
:1046FC001C8A088B09AC08AD09AA18AB191217EC67
:10470C007515010254C77514000254C7E508C3940B
:10471C000AF8E5099400F9C3E8940BE99400400306
:10472C000247F379077CBB7D94EEFAEFFB121A2655
:10473C00E970030247F38E828F83A3A3A3A3A3A3E1
:10474C00A3E0643F70357508B47509177808122911
:10475C00DA7CF27D9274021227B5121BCA74021213
:10476C00276DAA18AB1912181C8A088B09AC08AD56
:10477C0009AA18AB191217EC0254C77C0C7D0079EE
:10478C00007AB47B1712183AE50824F9F508E50904
:10479C0034FFF50978081229DAEE2407FCE43FFD12
:1047AC007AB47B17121822740212276D121A3875FC
:1047BC0008B475091778081229DA7C527D937402B3
:1047CC001227B5121BCA740212276DAA18AB191244
:1047DC00181C8A088B09AC08AD09AA18AB1912175A
:1047EC00EC7515010254C7740A65087004740065F1
:1047FC0009703C79087C307D94EEFAEFFB121A2696
:10480C00E9602C7C967D93AA18AB19121BCAAA18C6
:10481C00AB1912181C8A088B09AC08AD09AA18AB85
:10482C00191217EC7900121A3E7515010254C7744F
:10483C000A6508700474006509701679087C4B7D54
:10484C0094EEFAEFFB121A26E96006751501025474
:10485C00C7740A6508700474006509600302493561
:10486C0079077CC37D94EEFAEFFB121A26E97003EC
:10487C000249358E828F83A3A3A3A3A3A3A3E02411
:10488C00D0604214603F24F2600302492F9017C09D
:10489C00E0F50875090078081229DA7C167D937406
:1048AC00021227B5121BCA740212276DAA18AB1973
:1048BC0012181C8A088B09AC08AD09AA18AB19127E
:1048CC0017EC0254C78E828F83A3A3A3A3A3A3A325
:1048DC00E024D0F9E970089017C07400F0800690BD
:1048EC0017C07401F0121A389017C0E0F50875095A
:1048FC000078081229DA7C2E7D9374021227B512E7
:10490C001BCA740212276DAA18AB1912181C8A083C
:10491C008B09AC08AD09AA18AB191217EC75150167
:10492C000254C77514000254C7740A6508700474E5
:10493C00006509701079087C5D7D94EEFAEFFB122E
:10494C001A26E97022740F650870047400650960FA
:10495C0003024A1479077CA37D94EEFAEFFB121A3A
:10496C0026E97003024A148E828F83A3A3A3A3A308
:10497C00A3A3E0643F70357508C175091778081258
:10498C0029DA7CD87D9274021227B5121BCA7402E4
:10499C0012276DAA18AB1912181C8A088B09AC08BF
:1049AC00AD09AA18AB191217EC0254C77508067595
:1049BC00090078081229DAEE2407FCE43FFD7AC1DD
:1049CC007B17121822740212276D9017C77400F00F
:1049DC00121A387508C175091778081229DA7C5231
:1049EC007D9374021227B5121BCA740212276DAA8A
:1049FC0018AB1912181C8A088B09AC08AD09AA1837
:104A0C00AB191217EC0254C7740A650870047400D1
:104A1C0065096003024ADE79077C937D94EEFAEF18
:104A2C00FB121A26E97003024ADE8E828F83A3A33F
:104A3C00A3A3A3A3A3E024D0604214603F24F2609C
:104A4C0003024AD89017C8E0F508750900780812D7
:104A5C0029DA7C167D9374021227B5121BCA7402D4
:104A6C0012276DAA18AB1912181C8A088B09AC08EE
:104A7C00AD09AA18AB191217EC0254C78E828F839A
:104A8C00A3A3A3A3A3A3A3E024D09017C8F0121A46
:104A9C00389017C8E0F50875090078081229DA7CF7
:104AAC002E7D9374021227B5121BCA740212276D45
:104ABC00AA18AB1912181C8A088B09AC08AD09AAE4
:104ACC0018AB191217EC7515010254C775140002B6
:104ADC0054C7C3E508940AE5099400404579087C5D
:104AEC006F7D94EEFAEFFB121A26E960357508C952
:104AFC0075091778081229DA7CE57D927402122761
:104B0C00B5121BCA740212276DAA18AB1912181C05
:104B1C008A088B09AC08AD09AA18AB191217EC025C
:104B2C0054C7740A65087004740065096003024B6D
:104B3C00C979087C787D94EEFAEFFB121A26E960AD
:104B4C007C121A4AE96401706E90959C744312278A
:104B5C00BD740412266A7E009018677401F09017D9
:104B6C00E3E070047E0180057E00121AC8EEF83373
:104B7C0095E0F974431227A3E58228F582E5833981
:104B8C00F583E0F50875090078081229DA7CFE7DBA
:104B9C009274021227B5121BCA740212276DAA183E
:104BAC00AB1912181C8A088B09AC08AD09AA18ABF2
:104BBC00191217EC0254C77514000254C77414650B
:104BCC00087004740065096003024C7979067C2630
:104BDC007D95EEFAEFFB121A26E97003024C7990E0
:104BEC00966E74401227BD740312266A7508001263
:104BFC001A4AE9640170709018677402F0750A0C17
:104C0C00750B00780A1229DAEE2406FCE43FFD7AD3
:104C1C00D67B17121822740212276DE508F879005A
:104C2C0074401227A3E58228F582E58339F583E0E9
:104C3C00F50875090078081229DA7CFE7D92740259
:104C4C001227B5121BCA740212276DAA18AB1912BF
:104C5C00181C8A088B09AC08AD09AA18AB191217D5
:104C6C00EC121AC80254C77514000254C7740A65B2
:104C7C0008700474006509705579087C817D94EE88
:104C8C00FAEFFB121A26E96045121A4AE964017020
:104C9C00377901121A3E7C007D0079007A097B0479
:104CAC001215F4E97C807D93AA18AB19121BCAAAC1
:104CBC0018AB1912181C8A088B09AC08AD09AA1874
:104CCC00AB191217EC0254C77514000254C7740ABE
:104CDC0065087004740065096003024DA379087CB3
:104CEC00667D94EEFAEFFB121A26E97003024DA3CF
:104CFC00121A4AE964016003024DA3121A4AE964CC
:104D0C00016003024D9D9017E3E070247CF37D91CC
:104D1C00AA18AB19121BCAAA18AB1912181C8A08AC
:104D2C008B09AC08AD09AA18AB191217EC0254C7C1
:104D3C007E009017E3E0F8EEC39840030254C7EEF0
:104D4C00F87900E875F00CA4C8AAF075F000A42A54
:104D5C00FA75F00CE9A42AF974E628F508741739E9
:104D6C00F50978081229DA7CBE7D9274021227B5F7
:104D7C00121BCA740212276DAA18AB1912181C8ABE
:104D8C00088B09AC08AD09AA18AB191217EC0E80E8
:104D9C00A17514000254C7740A6508700474006588
:104DAC0009704579087CF17D93EEFAEFFB121A2617
:104DBC00E9603575087075099578081229DA7C75E3
:104DCC007D9574021227B5121BCA740212276DAAA4
:104DDC0018AB1912181C8A088B09AC08AD09AA1853
:104DEC00AB191217EC0254C7740A650870047400EE
:104DFC0065096003024EA179077CB37D94EEFAEF4E
:104E0C00FB121A26E97003024EA1121A4AE9640138
:104E1C00707D8E828F83A3A3A3A3A3A3A3E0643F7F
:104E2C00703090185E1229F17C187D95740212274F
:104E3C00B5121BCA740212276DAA18AB1912181CD2
:104E4C008A088B09AC08AD09AA18AB191217EC0229
:104E5C0054C790185E7410F0A37427F0121A38908F
:104E6C00185E1229F17C117D9274021227B5121B67
:104E7C00CA740212276DAA18AB1912181C8A088B57
:104E8C0009AC08AD09AA18AB191217EC0254C77576
:104E9C0014000254C7740A65087004740065097024
:104EAC004A790A7C547D94EEFAEFFB121A26E960DB
:104EBC003A901860E0F5083395E0F5097808122966
:104ECC00DA7C8A7D9274021227B5121BCA74021204
:104EDC00276DAA18AB1912181C8A088B09AC08ADDF
:104EEC0009AA18AB191217EC0254C7740A6508709A
:104EFC0004740065096003024FCE79077C027D952E
:104F0C00EEFAEFFB121A26E97003024FCE8E828F57
:104F1C0083A3A3A3A3A3A3A3E0643F703890186258
:104F2C00E0F50875090078081229DA7C7D7D927409
:104F3C00021227B5121BCA740212276DAA18AB19DC
:104F4C0012181C8A088B09AC08AD09AA18AB1912E7
:104F5C0017EC0254C78E828F83A3A3A3A3A3A3A38E
:104F6C00E024D0901862F0901862E0C394044006DC
:104F7C009018627400F0121A38901862E0F50875F7
:104F8C00090078081229DA7C2E7D9374021227B559
:104F9C00121BCA740212276DAA18AB1912181C8A9C
:104FAC00088B09AC08AD09AA18AB191217EC9018AC
:104FBC0062E0F87403C398F9120BF8E97515010255
:104FCC0054C7740A6508700474006509600F740F87
:104FDC00650870047400650960030250AF79077CA2
:104FEC00EA7D94EEFAEFFB121A26E970030250AF39
:104FFC00121A4AE960030250A98E828F83A3A3A3DD
:10500C00A3A3A3A3E0643F70309018631229F17C32
:10501C00A87D9174021227B5121BCA740212276D57
:10502C00AA18AB1912181C8A088B09AC08AD09AA6E
:10503C0018AB191217EC0254C77906EE2407FAE4E0
:10504C003FFB121A2C8A088B098C0A8D0B90186363
:10505C00E508F0A3E509F0901863C3E09410A3E011
:10506C00942740030254C7121A389018631229F17E
:10507C007C117D9274021227B5121BCA740212277E
:10508C006DAA18AB1912181C8A088B09AC08AD094B
:10509C00AA18AB191217EC7515010254C775140038
:1050AC000254C7740A650870047400650960030231
:1050BC00517A79077C9B7D94EEFAEFFB121A26E964
:1050CC00700302517A8E828F83A3A3A3A3A3A3A3FD
:1050DC00E0643F7038901865E0F5087509007808B1
:1050EC001229DA7C167D9374021227B5121BCA742E
:1050FC000212276DAA18AB1912181C8A088B09AC5E
:10510C0008AD09AA18AB191217EC0254C77901EEB5
:10511C002407FAE43FFB121A2C8A088B098C0A8D9F
:10512C000BE508901865F0901865E0C394025038B0
:10513C00121A38901865E0F50875090078081229DC
:10514C00DA7C2E7D9374021227B5121BCA740212DC
:10515C00276DAA18AB1912181C8A088B09AC08AD5C
:10516C0009AA18AB191217EC7515010254C7740A69
:10517C006508700474006509704B790A7C757D9321
:10518C00EEFAEFFB121A26E9603B121A4AE96401A7
:10519C00702D9018677403F07C6A7D93AA18AB1974
:1051AC00121BCAAA18AB1912181C8A088B09AC0856
:1051BC00AD09AA18AB191217EC121AC80254C7750C
:1051CC0014000254C7740A650870047400650970F1
:1051DC003A79077CF27D94EEFAEFFB121A26E9601D
:1051EC002A121A4AE96401701C9018677404F08E34
:1051FC00828F83A3A3A3A3A3A3A3E024D0F9121AA1
:10520C00FEE90254C77514000254C774096508708E
:10521C00047400650960030254C479067C2D7D95E5
:10522C00EEFAEFFB121A26E970030254C48E828F39
:10523C0083A3A3A3A3A3A3E0F516E51624CC6018BF
:10524C0014601914601A14601B1470030252FE14BB
:10525C0070030253D20254BF7E04800A7E0580067E
:10526C007E0680027E0779801217207A04EEF912EE
:10527C00171A8A088B09AC08AD098C088D09E4F55E
:10528C000AF50B7808121C7790964C780C12260FA6
:10529C007808790C121E82909650780C12260F7892
:1052AC0008790C12224178081229D68C088D0978BD
:1052BC00081229DAE516F87900E824D0F508E93463
:1052CC00FFF50978081229DA7C9D7D8F7408122766
:1052DC00B5121BCA740812276DAA18AB1912181C28
:1052EC008A088B09AC08AD09AA18AB191217EC0285
:1052FC0054C77E117F017508997509017900121741
:10530C00207A02790F12171A8A0A8B0BAC0AAD0B92
:10531C00C3EC9508ED9509400474648058C3EE9C69
:10532C00EF9D40047400804DE508C39EF8E5099F8D
:10533C00F9E82401FAE439FB8A088B09740278082D
:10534C00122735AA08AB09ECC39EF8ED9FF9E87556
:10535C00F019A4C8AEF075F000A42EFE75F019E992
:10536C00A42EF9E82AF8E93BF9E824FFF8E934FF20
:10537C00F91226CCE8F50875090078081229DA8CA0
:10538C00088D0978081229DAE516F87900E824D096
:10539C00F508E934FFF50978081229DA7CFB7D8FD2
:1053AC0074061227B5121BCA740612276DAA18AB05
:1053BC001912181C8A088B09AC08AD09AA18AB196C
:1053CC001217EC0254C7750C00750D00750E0075A4
:1053DC000F0090624B7401F09061A97401F07E0093
:1053EC00805779001217207A03790E12171A8A083F
:1053FC008B09AC08AD098C088D09E4F50AF50B781E
:10540C0008121C77909654781012260F7808791091
:10541C00121E82909658781012260F780879101266
:10542C00202790965C781012260F7808791012229B
:10543C0041780C79081220270EEEC3944040A385C6
:10544C000C08850D09850E0A850F0B909660780C5B
:10545C0012260F7808790C12224190624BE0C2E0C0
:10546C00F09061A9E0C2E0F078081229D68C088D82
:10547C000978081229DAE516F87900E824D0F5083D
:10548C00E934FFF50978081229DA7C297D90740833
:10549C001227B5121BCA740812276DAA18AB191261
:1054AC00181C8A088B09AC08AD09AA18AB1912177D
:1054BC00EC80087514008003751400E51560117AF2
:1054CC00C87B00121A20C2AF75C9AB75C95B80FED0
:1054DC00A914744712276D7F0F02289974F61227AE
:1054EC00C774C8122757E9FF7E01EFA2E5400302FB
:1054FC00558C901B25E0C2E5F07C0A7D957A867B65
:10550C0018121BCA7C3A7D937A927B18121BCA9094
:10551C001B24E07008901B247401F08006901B245F
:10552C007400F0901B24E06007790112190C8005BF
:10553C00790012190C901B24E0F508750900780805
:10554C001229DA7CDE7D93740E1227B5121BCA74F5
:10555C000212276D7906740C1227B5121792740C6F
:10556C001227B5121BDC8A088B09AC08AD09740C28
:10557C001227B51217F27A017B00121A200257A6D5
:10558C00EFA2E05042901B25E0C2E0F07C117D952B
:10559C007A867B18121BCA7C1E7D947A927B181219
:1055AC001BCA121A4AE9640160030257A69018DE5E
:1055BC00E0640270030257A67C0A7D007A757B9327
:1055CC00121AB0E90257A6EFA2E45035901B25E061
:1055DC00C2E4F07CFA7D937A867B18121BCA7CE4B9
:1055EC007D917A927B18121BCA901866E070099014
:1055FC0018667401F00257A69018667400F00257F2
:10560C00A6EFA2E3503B901B25E0C2E3F07CE87DC3
:10561C00937A867B18121BCA7CE87D937A927B184E
:10562C00121BCA121A4AE9640160030257A69018A9
:10563C00DEE0640270030257A67901121AEC0257DD
:10564C00A6EFA2E15020901B25E0C2E1F07CCA7DC0
:10565C00937A867B18121BCA7CBB7D907A927B183E
:10566C00121BCA0257A6EFA2E240030257A4901BDA
:10567C0025E0C2E2F07CA17D937A867B18121BCACE
:10568C007C027D927A927B18121BCA121A4AE96428
:10569C000160030257459018DEE064026039121A6B
:1056AC00F2E9F50875090078081229DA7C0A7D936D
:1056BC0074021227B5121BCA740212276DAA18ABFA
:1056CC0019121BDC8A088B09AC08AD09AA18AB1996
:1056DC00121AB0E90257A6121A50E970030257A623
:1056EC009018A6E060089018A67400F08006901838
:1056FC00A67401F09018A6E0F50875090078081258
:10570C0029DA7CB17D9274021227B5121BCA74027D
:10571C0012276DAA18AB19121BDC8A088B09AC086E
:10572C00AD09AA18AB1912055CE97A107B00901828
:10573C00A9E0F912187CE98061121A50E9605B90BB
:10574C0018A7E060089018A77400F080069018A7BE
:10575C007401F09018A7E0F5087509007808122973
:10576C00DA7CA47D9274021227B5121BCA74021241
:10577C00276DAA18AB19121BDC8A088B09AC08AD73
:10578C0009AA18AB1912055CE97A107B009018A9CC
:10579C00E0F912187CE980027E00901B25E0701461
:1057AC009018A8E0700E9018A87401F07A0179078F
:1057BC001217A4E9EE60567508927509187808124C
:1057CC0029DA7C477D95740E1227B5121BCA740218
:1057DC0012276D901B25E060067800790080047814
:1057EC00807900E84408F9740C1227B512179275E9
:1057FC00088675091878081229DA7C477D95740E8D
:10580C001227B5121BCA740212276D8054750892A8
:10581C0075091878081229DA7C1F7D95740E1227E9
:10582C00B5121BCA740212276D901B25E060067816
:10583C00007900800478807900E84408F9740C122F
:10584C0027B512179275088675091878081229DA87
:10585C007C1F7D95740E1227B5121BCA7402122779
:10586C006D740C1227AD8808890978081229DA7C26
:10587C00757D9574261227B5121BCA740212276DFA
:10588C00121A50E9702174241227B5121BDC8A08F5
:10589C008B09AC08AD0974241227B51217EC7A01E8
:1058AC007B00121A20802674241227B5121BDC8A66
:1058BC00088B09AC08AD0974241227B512055CE9F4
:1058CC007A107B009018A9E0F912187CE974381250
:1058DC00276D7F0202289974EC1227C774C0122717
:1058EC0057EAFEEBFF8C088D09C3E5089409E5091E
:1058FC009400403979087C037D94EEFAEFFB121A80
:10590C0026E960298E828F83A3A3A3A3A3A3A3A3B9
:10591C00E0F8743068700B7A0079021217A4E9026F
:10592C005C8F7A0179021217A4E9025C8FC3E50837
:10593C009409E5099400403979087C0C7D94EEFAC1
:10594C00EFFB121A26E960298E828F83A3A3A3A3EF
:10595C00A3A3A3A3E0F8743068700B7A0079041247
:10596C0017A4E9025C8F7A0179041217A4E9025C8E
:10597C008FC3E5089409E5099400403579087C1536
:10598C007D94EEFAEFFB121A26E960258E828F8346
:10599C00A3A3A3A3A3A3A3A3E0F8743068700990F6
:1059AC0018667400F0025C8F9018667401F0025C4B
:1059BC008FC3E5089407E50994005003025C8F79C6
:1059CC00067C2D7D95EEFAEFFB121A26E970030288
:1059DC005C8F8E828F83A3A3A3A3A3A3E0FEEE24EC
:1059EC00CC601814601914601A14601B1470030234
:1059FC005AAE147003025B97025C8F7F04800A7F9F
:105A0C000580067F0680027F0779801217207A04B2
:105A1C00EFF912171A8A088B09AC08AD098C088D9E
:105A2C0009E4F50AF50B7808121C7790964C780C63
:105A3C0012260F7808790C121E82909650780C1250
:105A4C00260F7808790C12224178081229D68C0876
:105A5C008D0978081229DAEEF87900E824D0F508D7
:105A6C00E934FFF50978081229DA7C9D7D8F7408DA
:105A7C001227B5121BCA740812276DAA18AB19127B
:105A8C001BDC8A088B09AC08AD09AA18AB191205E6
:105A9C005CE97A107B009018A9E0F912187CE902F5
:105AAC005C8F750811750901750A99750B017900E0
:105ABC001217207A02790F12171A8A0C8B0DAC0C64
:105ACC00AD0DC3EC950AED950B40047464805EC378
:105ADC00E5089CE5099D400474008051E50AC395D6
:105AEC0008F8E50B9509F9E82401FAE439FB8A0A70
:105AFC008B0B7402780A122735AA0AAB0BECC395F0
:105B0C0008F8ED9509F9E875F019A4C8AFF075F02F
:105B1C0000A42FFF75F019E9A42FF9E82AF8E93B46
:105B2C00F9E824FFF8E934FFF91226CCE8F50875FA
