:020000040000FA
:0600000002011A0230F1BA
:03002B000237BEDB
:03003300023795FC
:0300530002316710
:03006B000237E475
:10008300022F47E5C754F84401F5C7790122000060
:100093000080FB120086B90003020104E479217891
:1000A30008B800028004F709D8FCE479297802B87B
:1000B30000028004F709D8FCE490028178AF791735
:1000C3008002F0A3D8FCD9FA781A90014A7A01BACF
:1000D30000028007E493A3F608DAF97A2F7B1990DC
:1000E300014B781279058015E493A3AD82AE838A20
:1000F300828B83F0A3AA82AB838D828E83D8E9D9C6
:10010300E77582767583D1740512012C758291751A
:100113008300740012012C75D00075813F7518811E
:10012300751902759F00020096C09FF59FE473D076
:100133009F22D083D082C09FE493C0E0740193C018
:10014300E0740293F59F220100070C0742073C0766
:10015300FF0000B4000028002800283075A000A08C
:1001630000A000A00000080008E001F0001000104B
:10017300001000100010001000500050005000103C
:10018300001000D0070000000000000F0001000570
:1001930000307507001000010081FF00000000FF20
:1001A300FFFF80089E088608C208FF0202020802B9
:1001B3005000A0000000E803028F9601000069963A
:1001C3000295960100009219029B960100000A0411
:1001D3000295960100009319029D960100002004E8
:1001E3000295960100009419029F960100002204D3
:1001F300029596010000951902A1960800002304B8
:10020300029596010000961902A396010000971922
:10021300FFFF0100FF20028F960100006696029502
:1002230096010000FC1902B5960000000000029937
:100233009603000053041700081108110811081150
:1002430008110811081108110811081108110811E3
:1002530008116C138A136613B014C214AA14020291
:1002630002020202020202010D0000001001028FCD
:10027300960100006396029596010000451A0277E5
:1002830096010000A20E029596010000461A02791B
:10029300960100009792029596010000471A027B8F
:1002A300960100002D92029596010000481A027DE6
:1002B30096010000DF90029596010000491A027F23
:1002C30096010000CD900295960100004A1A028122
:1002D30096010000BB900295960100004B1A02851F
:1002E3009601000097900295960100004C1A028730
:1002F300960100003B920295960100004D1A028977
:10030300960100004E1A01E803057710020A0AC697
:1003130016FFFFFF00013075030201060000000015
:1003230000000000000000000000000000000000CA
:100333000000000000000000FFFF0600800CE8033F
:10034300013FFEFF0101010201060302F0FF02016A
:10035300061AFF4C000215E2C56DB5DFFB48D2B0AB
:1003630060D0F5A71096E000010002CD581B5E1B7C
:100373006A1B701B641B0A43686172616374657254
:100383006973746963203100024368617261637445
:10039300657269737469632032000843686172612E
:1003A3006374657269737469632033001043686111
:1003B3007261637465726973746963203400024304
:1003C300686172616374657269737469632035006F
:1003D300164368617261637465726973746963203B
:1003E300360010436861726163746572697374697E
:1003F30063203700028F960100006C9602959601E8
:1004030000005D1B02A796030000F21802979601F5
:1004130000005E1B0295960100006F1B02A9960166
:100423000000F318029796010000701B02959601D5
:100433000000811B02AB96020000F418029796019C
:100443000000821B029596010000931B02AD9600EB
:100453000000F518029996030000F618029796011A
:100463000000941B029596010000A51B02AF9604A1
:100473000000F818029796010000A61B029596014A
:100483000000B71B02B196030000FD180299960302
:1004930000001219029796010000B81B02959601FD
:1004A3000000C91B02B396000000141902999603B9
:1004B30000002919029796010000CA1B0100B042EF
:1004C3003BAAB83F0000003F8C906339AA0CA33AC3
:1004D30000941E3C8042633DCFFE753E1572313F52
:1004E3000000803FF304353F8096184B30313233A0
:1004F30034353637383941424344454600286E7512
:100503006C6C20706F696E74657229003031323300
:10051300343536373839616263646566003F3F3F7F
:10052300000000807FF9021550B743BA5100E7DBA2
:100533002E0000A040000080BF2292D43EDD9B2A03
:100543003F0400004000000000FFFF7F7FFFFF7FAC
:10055300FF010080341872313F12013546B905128C
:1005630001352DBA0512013527BB05120135DEB45D
:1005730005120135F1B40512013512B50512013525
:100583007DB505120135BEB505120135DFB505127E
:10059300013520B605120135B8B60512013500B78D
:1005A3000512013526A10512013539A105120135C0
:1005B3006AA105120135A4A105120135FDA1051299
:1005C300013544A2051201358CA205120135BBA2E7
:1005D30005120135EAA20512013521A305120135E1
:1005E30068A30512013581A305120135D6A30512AF
:1005F3000135EFA3051201353DA40512013577A49A
:100603000512013558DF031201355BE00312013592
:1006130088E003120135D9E003120135FCE003122F
:1006230001350EE10312013511E1031201354FE1EA
:1006330003120135C3E1031201352FE20312013521
:10064300F7E20312013513E3031201354AE3031200
:10065300013584E3031201351BE4031201356DE414
:10066300031201359EE403120135CFE40312013571
:10067300DCE40312013546E50312013549E50312B3
:10068300013556E50312013559E503120135B0E58D
:1006930003120135B3E503120135ECE5031201350D
:1006A300EFE50312013523E60312013526E60312B3
:1006B30001357AE603120135C3E603120135D3E6A9
:1006C3000312013506E70312013513E7031201355F
:1006D30016E7031201357EE70312013580E80312A2
:1006E300013524E9031201358DE903120135CBE904
:1006F300031201357AF60212013577F7021201353A
:100703000DF80212013558F802120135BCF8021235
:10071300013546F902120135FFF90212013521FDB7
:10072300021201359EFE02120135C1FE021201358D
:10073300378D05120135DC8E05120135FC8E05124D
:1007430001351D90051201357090051201357D911B
:1007530005120135A59105120135D2910512013516
:100763000A9205120135689205120135B4920512F9
:1007730001351B93051201355B93051201359893DF
:1007830005120135C6930512013570940512013522
:100793007A9405120135879405120135BA9405122E
:1007A3000135C69405120135DE9405120135E8942E
:1007B30005120135E8CC05120135F6CC05120135D9
:1007C3000ECD0512013526CD051201353DCD05129D
:1007D3000135D5E4021201357FE50212013592E6B7
:1007E300021201350EE7021201352CE8021201351F
:1007F30068E80212013503E902120135E7E9021242
:100803000135AAEA0212013522EB02120135B0ECDE
:100813000212013521ED02120135DBED0212013521
:10082300CDEE021201350DEF02120135C1EF0212B6
:100833000135F3EF02120135E9F10212013530F20D
:10084300021201354EF202120135B4F202120135E1
:1008530083F30212013547F40212013566F60212E0
:10086300013570F6021201356DBE0412013557BF12
:100873000412013502C00412013553C004120135BC
:1008830003C10412013574C10412013559C20412A3
:1008930001358DC20412013586C304120135C3C369
:1008A300041201359FC404120135DEC4041201355C
:1008B300FAC4041201356ABD05120135EEBD0512F5
:1008C300013519BE0512013533BF05120135769581
:1008D300051201358C9505120135AA9505120135CE
:1008E300BB9605120135C59605120135F097051221
:1008F3000135E798051201355499051201355E99C2
:100903000512013526CC041201355CCD04120135E4
:10091300D6CD0412013506CE0412013519CE0412C8
:10092300013570CE0412013585D0041201352E969F
:1009330002120135DF9602120135FB9602120135D0
:10094300C49702120135DE9702120135E9970212AC
:100953000135BF98021201359C99021201352C9A78
:1009630002120135E39A02120135F19D021201359B
:10097300E09F0212013592A0021201355BA102121F
:100983000135A0A4021201354AA50212013573A64E
:10099300021201352FA802120135CFA80212013528
:1009A3001DA9021201355CA9021201352FAA0212F8
:1009B300013563AA02120135F0AA0212013541D2B0
:1009C30002120135CDD20212013531D402120135A2
:1009D3003DD40212013578D402120135E7D4021254
:1009E3000135F0D502120135F9D602120135C0D70F
:1009F300021201351DD9021201353BD9021201350C
:100A030058D90212013505DA0212013582DA0212CF
:100A13000135AADA0212013574DD0212013579DDDE
:100A23000212013592DF02120135E0DF02120135B5
:100A330050E0021201358EE0021201356AE1021222
:100A430001352AE20212013576E20212013579E21A
:100A530002120135BDE20212013505E3021201352E
:100A630044E30212013566E3021201359AE30212EE
:100A73000135FDE302120135E6EC04120135EFEC1A
:100A830004120135FDEC0412013550ED0412013559
:100A93006FED04120135B4ED04120135F8EE0412C2
:100AA300013593EF04120135D7EF0412013501F03C
:100AB3000412013570F004120135B6F00412013549
:100AC3002DF104120135DEF104120135B99601123C
:100AD3000135C996011201356A9701120135C6978E
:100AE300011201358398011201359F9901120135D5
:100AF300D19901120135009A01120135AD9B011202
:100B03000135249E0112013594A00112013586A1FD
:100B1300011201357FA20112013586A401120135AC
:100B23007AA701120135A9A801120135ADAA011254
:100B33000135BDAB011201354CAD011201353DAE9E
:100B4300011201358BAE01120135FAAE01120135E6
:100B53001EAF011201356FAF0112013510B401123E
:100B6300013511B50112013572B5011201359DB57B
:100B73000112013563B601120135EBD704120135B9
:100B8300F5D7041201353AD8041201354ED80412B0
:100B93000135DED80412013517D90412013552D9B3
:100BA300041201357BD904120135C9D90412013568
:100BB300DED904120135F3D90412013508DA04121F
:100BC30001354BDA0412013560DA04120135CBDA50
:100BD30004120135DFDA04120135F3DA04120135A8
:100BE30008DB0412013542DB0412013566DB041213
:100BF300013592DB04120135C9DB041201352BDC0C
:100C0300041201359DDC04120135E0DC04120135C8
:100C13000ADD0412013535DD04120135E2CA05127D
:100C2300013557BC031201353ABD03120135B5BD79
:100C330003120135F0BD0312013541BF0312013523
:100C4300CABF03120135E2C10312013574C4031292
:100C5300013526C50312013532C603120135A5C776
:100C630003120135FEC703120135A8E20412013550
:100C7300EBE2041201356FE30412013542E404127E
:100C8300013519E704120135DFAF051201358CB0C8
:100C93000512013599B105120135D8B10512013597
:100CA30032B2051201354AC305120135ADC305122F
:100CB30001354AC4051201357FC405120135AFC49D
:100CC30005120135D0C4051201350BC505120135D6
:100CD3002BC505120135F0F1041201357CF2041223
:100CE30001353BF30412013553F4041201356DF65B
:100CF30004120135A7C803120135CCC8031201350C
:100D030099C9031201356DCA03120135DACA0312F8
:100D1300013530CB03120135CCCB0312013500CDA5
:100D230003120135DBCD031201353ACE031201352F
:100D3300C6CE0312013534CF03120135C0CF0312DF
:100D43000135C3CF031201350DD0031201357FD016
:100D53000312013511D103120135B2D1031201354A
:100D6300D2D1031201351AD20312013563D2031211
:100D730001357FD203120135A5D2031201351FD3EA
:100D8300031201352DD303120135BCD303120135F0
:100D930025D4031201353BFB04120135C0FB0412B9
:100DA300013502FC04120135E6FC0412013553FD42
:100DB3000412013597FD04120135DBFD04120135E0
:100DC30008FE0412013530FE0412013568FE0412D8
:100DD3000135A6FE04120135CDFE0412013547FF8D
:100DE3000412013591FF04120135CFB6011201350A
:100DF300C8B801120135B4BB0112013508BC011298
:100E0300013533BC011201350DBD011201354CBD55
:100E13000112013593BD01120135A6BD0112013541
:100E2300E7BD0112013514BE0112013562BE011284
:100E33000135A1BE01120135CCBE011201351FBF20
:100E430001120135AEBF011201358CC20112013509
:100E5300A7C401120135E5C4011201355AC60112B6
:100E630001359FC60112013593C701120135ACC983
:100E7300011201350ECA011201355FCA0112013593
:100E83007ACF01120135C9CF011201350FD00112FA
:100E93000135F7D101120135C5D301120135CAD38A
:100EA30001120135A4D4011201351DD501120135FA
:100EB3004DD6011201355FD60112013539AD051248
:100EC3000135ABAD0512013501AE0512013545AE55
:100ED3000512013565AE05120135B2AE05120135B5
:100EE300FAAE051201354DAF051201359EAF05125D
:100EF3000135819304120135009404120135F999E7
:100F030004120135FF9A04120135729C0412013553
:100F1300099D0412013582D601120135CBD6011287
:100F23000135F8D6011201352AD70112013536D71A
:100F33000112013542D70112013559D7011201358A
:100F430034D80112013592D801120135C7D80112E4
:100F53000135F8D90112013545DA011201358BDA71
:100F630001120135F7DA011201359BDB011201355C
:100F730051DC01120135B0DC0112013521DD011212
:100F830001357FDD01120135B1DE0112013519E0B2
:100F930001120135E3E001120135F0E001120135E0
:100FA30032E10112013542E10112013566E101121C
:100FB300013569E10112013555E201120135F1E212
:100FC300011201358AE30112013521E401120135D1
:100FD3004EE401120135ACE401120135F3E40112D0
:100FE300013543E50112013593E50112013505E6AB
:100FF30001120135A0E6011201354BE7011201355B
:10100300EAE70112013568E801120135AFE8011280
:10101300013513E90112013542E901120135D9E91C
:1010230001120135EBEB011201352FEC01120135F1
:101033007AEC0112013500ED011201358AED01123E
:101043000135A3EE0112013529EF011201354EEFEF
:1010530001120135A5EF01120135BAEF0112013575
:1010630002F00112013575F001120135BAF00112D7
:101073000135C3F10112013574F201120135D2F2C7
:10108300011201352EF30112013547F30112013527
:10109300339D04120135879D04120135939D04127B
:1010A30001355D9E041201358A9E04120135B89EF6
:1010B30004120135249F041201355A9F041201358D
:1010C300939F04120135AB9F0412013500A0041253
:1010D300013519A0041201355EA00412013571A077
:1010E300041201358BA004120135A1A004120135AD
:1010F300BFA104120135EAA204120135D4A30412DC
:101103000135C5A404120135F3FF01120135CBE704
:10111300041201354EEB041201359BEC0412013528
:1011230077F3011201354AF60112013550F6011227
:101133000135E0F80112013543FB01120135A4F634
:10114300041201353BF704120135F9F70412013596
:1011530023F804120135FDF90412013502FB0412D0
:1011630001350080021201353280021201354F8CA5
:1011730002120135A08D02120135A98E021201352A
:101183002890021201351391021201356291021265
:1011930001357C9102120135BE9102120135C991CC
:1011A3000212013510920212013519920212013511
:1011B300C592021201359E9302120135E593021284
:1011C30001354D94021201358F9402120135BD94FD
:1011D30002120135FA94021201353DBF02120135A4
:1011E30008C3021201350EC302120135B2C902123D
:1011F300013506CE02120135EFD102120135539D9E
:1012030005120135C99D05120135DF9D0512013512
:101213006F9E05120135AC9E05120135E69E05123F
:101223000135209F05120135939F05120135D49F87
:1012330005120135DD9F05120135E99F05120135C0
:1012430008A00512013532A00512013547A0051289
:1012530001356FA005120135D1A005120135F8A0A3
:10126300051201355BC5041201356EC50412013543
:1012730088C504120135B5C504120135FBC5041236
:1012830001352EC6041201356CC604120135D1C6D0
:1012930004120135E6C604120135F1C60412013504
:1012A300FEC60412013515C70412013523C7041203
:1012B300013532C70412013547C7041201355CC733
:1012C3000412013567C70412013573C704120135CF
:1012D30080C70412013593C7041201359EC7041257
:1012E3000135C3C70412013567C80412013577C835
:1012F300041201358CC804120135A1C8041201354A
:10130300BBC804120135D8C804120135F5C804124C
:10131300013500C904120135ACC9041201358DCA67
:1013230004120135B2CA04120135BDCA04120135D3
:10133300D2CA04120135E6CA0412013547CB04129E
:1013430001354DCB0412013553CB0412013559CB72
:101353000412013571CB04120135A4CB04120135FB
:10136300F1E90312013513EA03120135DBEA031233
:10137300013595ED03120135ABEE03120135CCEFC8
:1013830003120135A6F00312013555F1031201359D
:10139300D4AE031201356BAF0312013503B0031250
:1013A3000135F3B0031201352AB1031201353DB102
:1013B30003120135ABB10312013546B303120135F4
:1013C3006DB3031201350FB40312013544B4031294
:1013D300013555B403120135CEB403120135EFB410
:1013E3000312013507B5031201355FB60312013548
:1013F30068B803120135B8BA03120135BBBB031237
:1014030001350ABC0312013538A00312013535A199
:101413000312013520A2031201352AA2031201355A
:1014230034A20312013556A20312013562A203123C
:101433000135B4A303120135E3A30312013513A548
:101443000312013555A50312013581A60312013597
:1014530057A703120135A9A70312013508A80312E0
:1014630001353FA8031201357AA80312013515ACE3
:10147300031201352EAC03120135B0AC0312013552
:10148300BEAC0312013513AD0312013521AD0312B6
:1014930001358EAD0312013500AE0312013546AEA0
:1014A3000312013548D4031201356AD403120135FE
:1014B30054D603120135F9D9031201353CDB03126B
:1014C300013516DC0312013539C5051201355EC538
:1014D30005120135CFC5051201357FA6041201356A
:1014E30088A60412013591A604120135C2A704127D
:1014F3000135E1A90412013517AA0412013551AAD5
:101503000412013587AA04120135C1AA0412013558
:10151300F5AA0412013521AB041201356AAB04129A
:101523000135A4AB04120135ECAB0412013542AC16
:101533000412013577AC04120135D2AC0412013523
:101543000CAD041201355DAD0412013593AD0412E7
:101553000135CDAD04120135FBAD041201351EAECC
:101563000412013521D0051201354DD00512013584
:10157300A8D005120135B2D005120135C2D005122B
:101583000135ACAE04120135F0AE041201359EAF45
:101593000412013516B00412013568B00412013586
:1015A30008B10412013544B104120135DEB104124D
:1015B30001355BB204120135B4B304120135CDB366
:1015C3000412013505B50412013598B5041201352D
:1015D30001B6041201356DB6041201358A84051271
:1015E3000135B18405120135E28405120135CCD0F1
:1015F30005120135795E001201359561001201353E
:10160300866300120135F86300120135B6640012D7
:101613000135616500120135F165001201358066FF
:1016230000120135AA660012013517670012013551
:10163300516C00120135E56C00120135146E001275
:101643000135786E001201352C6F00120135DF7100
:10165300001201351972001201358372001201352F
:10166300E172001201353F73001201359C730012C1
:1016730001358B7400120135D174001201351675D2
:1016830000120135377500120135997600120135C4
:10169300B476001201353A780012013567780012EA
:1016A3000135A77800120135ED78001201350B7969
:1016B300001201354979001201356F7B00120135A3
:1016C300A87B001201353F7C00120135DF7C00123C
:1016D3000135727D00120135DE7D001201351F7F59
:1016E300001201355DDD04120135F1DD041201350F
:1016F30030DF04120135B9DF041201358CE0041226
:101703000135B5E0041201351CE10412013584E111
:1017130004120135F6CB0512013507CC051201354C
:10172300D8CC05120135DFA405120135AAA705128D
:1017330001354ED3051201358BFE031201359BFE95
:1017430003120135B5FE03120135B1FF0312013552
:101753008EAA0512013528AB051201351EAD0512FF
:10176300013557C1051201358DC105120135FDC182
:101773000512013528C2051201358BC20512013548
:10178300FBC20512013539C3051201353CC30512ED
:101793000135F07F00120135F37F0012013500801F
:1017A30005120135228005120135B4800512013579
:1017B300B28105120135A383051201350384051295
:1017C30001356C8405120135F87F001201352BB702
:1017D30005120135D7B80512013543B90512013594
:1017E300E97F001201354BD205120135E9D205120A
:1017F3000135F9D20512013562BF0512013593BFD8
:1018030005120135BDBF051201357AC00512013538
:101813009AC005120135F2C005120135C8890412B8
:101823000135D689041201351C8A041201356F8AE9
:1018330004120135B78A04120135118B04120135E4
:10184300328B04120135098E04120135178E0412EE
:101853000135738E04120135A68E04120135B98E3B
:1018630004120135448F04120135DB8F0412013554
:101873005690041201358D90041201351391041210
:101883000135689104120135C39104120135D591D4
:10189300041201350692041201350F920412013528
:1018A3004D9304120135EFC6051201354EC70512DB
:1018B3000135E9C7051201354FC805120135EA881C
:1018C300051201351D8905120135438A05120135BB
:1018D300688A05120135298B05120135018C051221
:1018E3000135A3C8051201356CC9051201357DB256
:1018F30005120135C2B20512013500B305120135D7
:101903009BB405120135CDCD05120135E8CD051285
:101913000135F8CD051201355BCE0512013599CE9F
:10192300051201355DCF0512013500800412013522
:10193300DC80041201351F81041201355981041220
:101943000135C581041201351D82041201358D82D2
:10195300041201355E8304120135488404120135F3
:10196300BF8404120135558604120135E086041242
:101973000135508704120135CA8704120135E18706
:10198300041201350C89041201355F8904120135F3
:101993004CD20412013569D20412013555D3041215
:1019A30001359ED304120135BED304120135FAD397
:1019B3000412013553D4041201358FD404120135B6
:1019C300D7D40412013571D704120135DAD70412C2
:1019D3000135E6AB0212013501B102120135F8B34C
:1019E300021201351EB40212013547B40212013549
:1019F300F5B402120135D6B602120135F1B702125F
:101A030001350AB80212013500BD0212013539BD94
:101A1300021201357DBD021201358ABE0212013563
:101A23002C38001201356038001201359B38001242
:101A330001350D3900120135D43900120135EB3966
:101A430000120135C73A00120135BC3E00120135C0
:101A5300CC3E00120135FD3E00120135D03F00128D
:101A63000135324000120135354000120135514035
:101A730000120135B84000120135944200120135BD
:101A83004B43001201359D4300120135A44300125C
:101A93000135BB43001201358D44001201359D44CD
:101AA30000120135DB4400120135F4440012013504
:101AB3000B4500120135974500120135B24500125E
:101AC3000135E05500120135C65600120135C15AE1
:101AD30000120135008003120135348103120135F0
:101AE300618103120135B08403120135E9840312C5
:101AF3000135FA8403120135168603120135278650
:101B030003120135B78603120135C7860312013567
:101B13008E8B03120135328C03120135408C031274
:101B230001356D8C03120135D28C03120135AA8E57
:101B3300031201357F8F0312013549F40312013576
:101B430096F8031201351AFB0312013553FB0312F6
:101B5300013564FB0312013583FB03120135B2FC2B
:101B630003120135C3FC031201354BFD031201358A
:101B7300DCFD03120135B4B604120135C2B70412F9
:101B83000135DFB704120135BAB904120135DEBAE3
:101B9300041201357ABC04120135E4FF0212013547
:101BA300ECFF0212013530D305120135B8A7051237
:101BB3000135C4C905120135EAD1051201355A9020
:101BC300031201356695031201355BBB051201351E
:101BD300B7FF03120135D1FF0412013568990512CD
:101BE3000135537F001201357D7F0012013589D203
:101BF30005120135C0D20512013512D305E0667016
:101C03001008A3E066700A08A3E066700408A3E066
:101C13006622C008C3E096F50808A3E096420808C8
:101C2300A3E096420808A3E0964208A2D265D03307
:101C3300E5087001D3D00822C3E7960809E79608A0
:101C430009E7960809E79622C3E09608A3E09608F9
:101C5300A3E09608A3E09622C008C3E096F508081F
:101C6300A3E096420808A3E096420808A3E096453D
:101C7300087001D3D00822080808E630E7111225BE
:101C830034121C92080808C64480C6181818221873
:101C93001818E9799EC608CAC608CBC608CCC6C3BD
:101CA30070207996CACBCC7019798ECBCC7013790E
:101CB30086CC700EF9802ACA33CACB33CBCC33CC53
:101CC300331930E7F2CCCBCA3350147004EA30E056
:101CD3000DE4CA3ACACB3BCBCC3CCC500209C3E996
:101CE30013C6CC182313C6CB18C6CA18C6F92212BA
:101CF3001D3220F01430E72B74FFFCFBFA747F8055
:101D030022E4FCFBFA7480801AB48008BC00F2BBA6
:101D130000EF800F50EBF9E4C39AFAE49BFBE49CD9
:101D2300FCE499C6CC18C6CB18C6CA18C6F922E477
:101D3300C9C608CAC608CBC6D3330308CCC6339278
:101D4300F0C3947F402E94184019C9B90704CACB35
:101D5300CC225025C309CA33CACB33CBCC33CC33C3
:101D6300D9F422F4600DC9CCC313CB13CBCA13CA65
:101D7300D9F6CC22E4FCFBFA2214FCFBFA22E62679
:101D830018461846184622E72719471947194722C4
:101D9300181818E60846087009E626087005E633A1
:101DA300F4220822191919E70947097009E72709D5
:101DB3007005E733F4220922E6084608C3134608F0
:101DC300336002E633F422E7094709C313470933B3
:101DD3006002E733F422121DBB6025121DCA602086
:101DE300121D817003021D8A080808E76670101827
:101DF30019E766700A1819E76670041819E766226E
:101E0300F422121DBB601C121DCA6017121D8170C3
:101E130007121D8A7001D322C0D0121D8A7006D00A
:101E2300D0B322C32233D0D0501430E0F6C3E796A8
:101E33000809E7960809E7960809E796B32220E020
:101E4300D5E6970809E6970809E6970809E697B3E0
:101E530022121DBB601B121DCA6016121D81700762
:101E6300121D8A600CB322C0D0121D8A7005D0D017
:101E730022C32233D0D0501330E0EBC3E7960809D6
:101E8300E7960809E7960809E7962220E0E4E69733
:101E93000809E6970809E6970809E6972200121D44
:101EA300BB604F121DCA6012E7548066F6121D9381
:101EB3007011121D8A703B090909F4F618F618F619
:101EC30018F622121DA77015121D8108080860EA72
:101ED300E6447FF618768018E4F618F622121D8180
:101EE3006016121D8A7012E4F608F608F608E65426
:101EF30080F609090918181822EAC0E0EBC0E0ECE3
:101F0300C0E0EDC0E0E687F0A4FBACF008E687F0A4
:101F1300A42CFCE435F0FA1809E687F0A42C4B60F6
:101F2300027401CA35F0FCE433FB09E687F0D2F70B
:101F3300A42CCB35F0FC1908E687F0A42BCC35F0A4
:101F4300FBE433FD0819E687F0D2E7A42C4ACB352E
:101F5300F0CD3400FC09E687F0D2E7A42DCC35F0B0
:101F6300FDE433FA0918E687F0D2F7A42CCD35F057
:101F7300CA3400FC08E687F0D2E7D2F7A42ACC35AE
:101F8300F07A7E20E70B0ACB33CBCD33CDCC33CCE9
:101F930033CB3350147004ED30E00ED2F1E4CD3D79
:101FA300CDCC3CCC3B5005DA05C2F1EB547FC633B4
:101FB30008E63392F0FBE73309E733C39A502D2B3E
:101FC30070190C0D4C4D70151806E608C333700DCF
:101FD30020F10AA2F013F6E418800B4024E4F63053
:101FE300F002768018F618F618F68024D33B1450C6
:101FF3001074FFA2F013F6187680E418F618F68032
:102003000FA2F013F618E63303F618ECF618EDF604
:10201300D0E0FDD0E0FCD0E0FBD0E0FA22121DCAF4
:102023006046121DBB603DE9687008F618F618F6A5
:1020330018F622748067F71220540909097480671F
:10204300F722121DBB601D121DCA700519191980D4
:102053001A121D93701F121DA7C37003E66733196D
:10206300191940071818182208080874FFF618F6FB
:1020730018F618F622121DA76017121D8A702192F6
:10208300F0121D817019501720F01408080809096F
:1020930009E7F61819E7F61819E7F61819E7F6220B
:1020A300121D8160E6E869701F0808E62480F608BF
:1020B300E436F618547FB47F0CE654806007F6E4E8
:1020C30018F618F622181822E9C6CC08C6CD08C699
:1020D300CE08C6CFC0E0E8C0E0EAC0E0EBC0E0094C
:1020E300E9F809E7FA09E7FBE6F918E6F8C3EC981B
:1020F300ED99EE9AEBC2E7F5F0EFC2E795F0500EDB
:10210300600CEBCFFBEACEFAE9CDF9E8CCF8EAA212
:10211300E7D2E7FAEB33FB13F5F0EEA2E7D2E7FEE3
:10212300EF33FFC5F013A2E730E601B313C5F0C3E5
:10213300C0E0C0F07F00C39BFB605E9418600F405B
:102143001D14601AD0E023F9D0E0F80222268AF0A9
:10215300E9486003D2F0E4AFF0FAF9F8803BEB30E2
:10216300E40D89F0EA6003D2F0E4AFF0F9CAF8EBCA
:1021730030E30D88F0EF6002D2F0AFF0E4CAC9F8A3
:10218300EB54076014FBC3EA13FAE913F9E813F8F5
:10219300EF135002D2E0FFDBEDD0E0C0E030E739CF
:1021A300C3E49FFFF5F0EC98FC42F0ED99FD42F09B
:1021B300EE9AFE42F0D0E0F9D0E0F8E5F0607AE97B
:1021C30023F9EE20E742D8028067C3EF33FFEC33F5
:1021D300FCED33FDEE33FE80EAEC28FCED39FDEE39
:1021E3003AFED0E023F9D0E0F84002801BC3EE139F
:1021F300FEED13FDEC13FCEF135002D2E0FF08B821
:1022030000067F7F74FF802EEF3350178CF020F091
:102213000260100CBC000C0DBD00080EBE000408CB
:10222300E860DFE933E813FFEE2313FE4F4D4C80E4
:1022330008E95480FFE4FEFDFCEE33EF33F4700451
:10224300FCFD7E80D0E0FBD0E0FAD0E0F8D0E0CF18
:10225300C618CEC618CDC618CCC6F922121DBB703F
:102263000418181822121DCA700D74FFF61819F6F7
:102273001819F61819F622E7548066F6121D8170B4
:102283000F121D8A70F014F608F608F608F680D1CE
:10229300121D8A700CF608F608768008E6447F80E3
:1022A300EC121DAA700C121D9660BFE65480F6E472
:1022B30080BB121D96700519191980A5E869700C69
:1022C300763F18768018F618F6E8F922E6CDC0E0D6
:1022D30018ECC0E0E633CD33CDD313F6E719FCE7B2
:1022E300191933CC33C3947F400ECD9D502408E697
:1022F3005480F6E418F6800FF4043D14501408E6F5
:10230300447FF6187680E418F618F6D0E0FCD0E0A7
:10231300FD22CCD313CCFD18E4C6CBC0E018E4C631
:10232300CAC0E00808ED08C633E613F618E433C65E
:1023330075F003C3CA97CA09CB97CB199C40047D98
:1023430008802EBD000302240816B6FF0506060802
:102353001618C3CA33CACB33CB33CA27CA09CB3700
:10236300CB193CC37D08803E187D0820E75CC6334B
:10237300C6CA33CACB33CB33DDF1D5F0EB30E77BC1
:10238300CA97CA09CB974ACB199C406F4B7025E675
:1023930020E0218066187D08C3CA97CA09CB97CB72
:1023A300199CD3C633C6CA33CACB33CB3350C9DD2A
:1023B300E7D5F0E1D3E4C636C608C636C608C63646
:1023C300C608C636C61818188031C3CA97CA09CBBF
:1023D30097CB199CB34097C633C6CA33CACB33CB0A
:1023E30033DD34D5F02EC6A2E0C640C8CA27CA09D9
:1023F300CB37194A70BECB3CB480B90808E6330822
:10240300E633601F181818D0E0FAD0E0FBD0E0FCE8
:10241300D0E0FD22187D08CA27CA09CB37CB193C67
:10242300D3808013F618E4B67F11F618B6FF0EF6C4
:1024330018C60470D20808768080CAF618F618F613
:1024430080C5080808EAC0E0EBC0E086F0E7A4FA1C
:10245300180986F0E7A42AFA180986F0E7A42AFAED
:10246300180986F0E7A42AFA1986F0E7A4FBE5F039
:102473002AFA190886F0E7A42BFBE5F03AFA1908C3
:1024830086F0E7A42BFBE5F03AFA18180986F0E783
:10249300A4C5F02BFBE43AFA1908E7C5F0C6A42655
:1024A300F6E5F03BFBE43AFA1886F0E7A4F6E5F02C
:1024B3000826F6E43B08F6E43A08F6D0E0FBD0E061
:1024C300FA22E4CFC0E0E4CEC0E0E4CDC0E0E4CC47
:1024D300C0E075F020E626F608E633F608E633F6A4
:1024E30008E633F6181818EC33FCED33FDEE33FE33
:1024F300EF33FFC3EC9709ED9709EE9709EF9719AF
:102503001919400FFFEC97FC09ED97FD09EE97FEB3
:10251300191906D5F0BFECF709EDF709EEF709EF46
:10252300F7191919D0E0FCD0E0FDD0E0FED0E0FFB0
:1025330022181818E4C396F608E496F608E496F60B
:1025430008E496F6226016080808C6C313C618C620
:1025530013C618C613C618C613C6D5E0EA227009F7
:10256300080808226016181818C6C333C608C633ED
:10257300C608C633C608C633C6D5E0EA22E627F640
:102583000809E637F60809E637F60809E637F622BA
:10259300E026F608A3E036F608A3E036F608A3E043
:1025A30036F622E026F008A3E036F008A3E036F082
:1025B30008A3E036F022C3E697F60809E697F60883
:1025C30009E697F60809E697F622C3E096F008A312
:1025D300E096F008A3E096F008A3E096F022E65711
:1025E300F60809E657F60809E657F60809E657F626
:1025F30022E056F608A3E056F608A3E056F608A331
:10260300E056F622E056F008A3E056F008A3E056A1
:10261300F008A3E056F022E066F608A3E066F608A9
:10262300A3E066F608A3E066F622E0F608A3E0F668
:1026330008A3E0F608A3E0F622E6F008A3E6F00814
:10264300A3E6F008A3E6F022E0FAA3E0FBA3E0FC94
:10265300A3E0FD22EAF0A3EBF0A3ECF0A3EDF0225C
:10266300E0F8A3E0F9A3E0FAA3E0FB22E8F0A3E992
:10267300F0A3EAF0A3EBF022CAC0E0E6F0A308DA85
:10268300FAD0E0FA22CAC0E0E0A3C582CCC582C575
:1026930083CDC583F0A3C582CCC582C583CDC58355
:1026A300DAE6D0E0CA22C3E498F8E499F91226EAFC
:1026B3008026C3E49AFAE49BFBE920E7E91226EAC1
:1026C300E498F8E499F922C3E498F8E499F9122616
:1026D300EAE498F8E499F9C3E49AFAE49BFB22EB61
:1026E30020E7CFE920E7E0B90010BB0008E88AF053
:1026F30084F8AAF022E4FBC8FA22EB70227B10C80C
:1027030033C8C933C9335007C39AC3DBF280069A6F
:1027130050012ADBEAC833F4C8C933F4C9FA227575
:10272300F008E4C833C8C933C933C99AC99B5004F4
:10273300C92AC93BD5F0ECFBC833F4C8E4C9FA2273
:10274300600D08C6A2E713C618C613C6D5E0F32268
:10275300600C08C6C313C618C613C6D5E0F42270AE
:102763000422600D18C6C333C608C633C6D5E0F4C9
:102773001822251810AF08F518400C15198008F514
:102783001840021519D2AF2200C0D0251810AF0887
:10279300F518500C05198008F51850020519D2AF29
:1027A300D0D0222518F58210AF08F518400C151962
:1027B3008008F51840021519D2AF85198322251810
:1027C300F582E43519F583222518F8E43519F92241
:1027D3002518FAE43519FB222518FCE43519FD22E6
:1027E300E4732518C582C0E0E51934FFC583C0E052
:1027F300E518C3958224F810AF08858319858218DC
:102803008008858319858218D2AFCEF0A3E520F026
:10281300A37808E608F0A3DEFAEFF0A3E58124FA33
:10282300F8E608F0A3E608F0A3E608F0A30808E634
:1028330008F0A3E608F0A315811581D0E0FED0E0EF
:10284300F8158115811581E8C0E0EEC0E022251856
:10285300C582C0E0E51934FFC583C0E0E518C39520
:102863008224F910AF08858319858218800885832F
:1028730019858218D2AFCEF0A3E520F0A37808E63D
:1028830008F0A3DEFAEFF0A3E58124FBF8E608F0F5
:10289300A3E608F0A30808E608F0A3E608F0A315EA
:1028A300811581D0E0FED0E0F815811581E8C0E004
:1028B300EEC0E022851983851882E0A3FEE0A3F52C
:1028C300207808E0A3F608DFFAE0A3FFE0A3C0E066
:1028D300E0A3C0E0E0A3C0E0E0A3C0E0E0A3C0E069
:1028E30010AF08858218858319800885821885832F
:1028F30019D2AFD083D08202013285198385188221
:10290300E0A3FEE0A3F5207808E0A3F608DFFAE0F1
:10291300A3FFE0A3C0E0E0A3C0E0E0A3C0E0E0A326
:10292300C0E010AF08858218858319800885821856
:10293300858319D2AFD083D08222C0D02518C58217
:10294300C0E0E51934FFC583C0E0E518C3958224D0
:10295300F310AF088583198582188008858319854C
:102963008218D2AFC8F0A3E9F0A3EAF0A3EBF0A377
:102973007908E709F0A3D8FAECF0A3EDF0A3EEF0A1
:10298300A3EFF0A3D0E0F0A3D0E0F0A3D0E0F0A356
:10299300E520F0A3E5F0F0A322851983851882E0F2
:1029A300C0E0A3E0F9A3E0FAA3E0FBA37808E0F614
:1029B30008A3DFFAE0FCA3E0FDA3E0FEA3E0FFA38E
:1029C300E0C0E0A3E0C0E0A3E0F5D0A3E0F520A3DE
:1029D300E0A3F5F010AF0885831985821880088578
:1029E3008319858218D2AFD082D083D0E0F8D0E0AB
:1029F3003274048006740280027401C0E0F404128D
:102A030027A6D0E012267B2274048004740280007F
:102A1300CCC0E0EDC0E0E518C39CCCAD1950011D5E
:102A230010AF068C188D1980068C188D19D2AF1231
:102A33002688D0E0FDD0E0FC22D083D082E9C0E03C
:102A4300E493A3C386F0C5F095F0F908E493A38655
:102A5300F0C5F095F0700BE493A3C3994005E90426
:102A63008002A3E475F002A42582F582E5F03583A4
:102A7300F583D0E0F9E493A3C0E0E493C0E022D06F
:102A830083D082ECC0E0EDC0E0E493A3FCE493A325
:102A9300FDED4C600D122ACEEC24FFFCED34FFFD5E
:102AA30080EFE493A3FCE493A3FDED4C600D122BA4
:102AB3000DEC24FFFCED34FFFD80EFD0E0FDD0E012
:102AC300FCE493A3C0E0E493C0E022C0E0C3E4933A
:102AD30096087401939618400FE49366700808747F
:102AE3000193661870007019A3A3C3E49396087446
:102AF30001939618A3A3400DD0E0D0E0D0E0022AC2
:102B0300BEA3A3A3A3A3A3D0E022C0E0C0F088F098
:102B1300E4936670080874019366187000A8F0A324
:102B2300A3700BD0F0D0E0D0E0D0E0022ABEA3A384
:102B3300D0F0D0E02274F6122851EAFEEBFF8C08A5
:102B43008D09EE2434F8E43FF9E8FCE9FD122C6A20
:102B5300E0FAEE2437F582E43FF583E0F88508F0E8
:102B6300A4C885F00A8509F0A4250AF9EA28F8E43F
:102B730039F97A257B001226EAEA8C828D83F0FAF2
:102B8300131313541FF8EE28F8E43FF9E8245DF516
:102B930082E439F583E0C0E074075AF8D0E0B80066
:102BA300028004C313D8FCA2E05003EA8020EE2481
:102BB30036F582E43FF583E0F5F0EA84A8F0EE28E9
:102BC300F8E43FF9E82438F582E439F583E0F97F46
:102BD300030228FD74F5122851EAFEEBFFEE2434BC
:102BE300F582E43FF583E0C0E0122C6AD0E0F08E7A
:102BF300828F83A3A3A3A3A3E0FAA3E0FB8E828F18
:102C030083A3A3A3A3A3A3A3E0C39AF508A3E09B71
:102C1300F509EE247FF8E43FF9880A890B8882F5E9
:102C230083E06401702CEE2480F582E43FF583EAAF
:102C33002401F8E43BF9E0687003A3E06970137CB6
:102C43001A7D08EEFAEFFB121018850A82850B83B2
:102C5300E4F0AC08AD09EEFAEFFB122B38E9F912F8
:102C630037557F040228FDEE2435F582E43FF583D2
:102C730022C082C083851882851983E0F8A3E0F916
:102C8300C3EA9CEB9D5010C3EC98ED99401BC3EA3B
:102C930098EB995014800EC3EA98EB994007C3EC64
:102CA30098ED994004790180027900D083D0822283
:102CB300EAC39CFAEB9DFB2274ED1228519004C3E6
:102CC300E064086005E06407702C9061C8E060264A
:102CD3009004F1E0F874FF68601CE875F00DA4C877
:102CE300AAF02AF974F328FE740439FF8E828F83C5
:102CF300A3A3A3E070057900022E5DEE2468F50E10
:102D0300E43FF50F906060E0850E82850F83F075D8
:102D130010B4751108750800750900E5D914F50A92
:102D2300E5D95403F50B601FEE2483F50CE43FF55E
:102D33000D7403650B6059E50A6017EE2467F5828D
:102D4300E43FF583E0700B793DEEFAEFFB12104898
:102D530080A49008AFE064016023850C82850D8315
:102D6300E060047A0480027A00E50AC39AFA95E0E7
:102D7300FB120DFC8A088B09EA45097006121342FF
:102D8300022CF9850C82850D83E070048A108B1167
:102D93007A008014E5D9C0E0EAF8E51028F582E46A
:102DA3003511F583D0E0F00AEAC3950A40E6850CB5
:102DB30082850D83E0602874FC250AF50A781012D9
:102DC30029F8AC0AA90BEEFAEFFB121102740212F6
:102DD300278BE9700AAA08AB091218AC022D4A74B2
:102DE30003650B6054850A0C750D00780C1229F8E5
:102DF300AC10AD11AA08AB091210C6740212278BCE
:102E0300850E82850F83E0F87480687005750C7FEA
:102E13008002880CE50CF50D780D1229FC780B1255
:102E230029FCA90AAC08AD099004F1E0FA7B001271
:102E33000C1C740212278B801C9004C3E06408AC42
:102E430010AD117009EEFAEFFB1211328007EEFAA2
:102E5300EFFB1211EC12134E79017F0C0228FD7463
:102E6300F312285174FC122775EAFEEBFF8909A2BD
:102E7300AFE433F508C2AFEE2463F50AE43FF50B84
:102E83008010AA0AAB0B12107E1218AC900821E036
:102E930004F0850A82850B83E0F8A3E0F9E8496032
:102EA3002DE82402FAE439FBEA2402F50CE43BF5AD
:102EB3000D780C1229F88A828B83E0FCA3E0F9EEEB
:102EC300FAEFFB121072740212278BE960B49008B8
:102ED30021E0604D900822E0F8900821E0C398506B
:102EE3000C74026509703A900823E060348E828F77
:102EF30083A3A3A3A3E0851882851983122F3474B7
:102F0300021227C1E8122F34900820E028F074023F
:102F13001227DBAA18AB197901120C7C900821E463
:102F2300F0E508A2E092AF740412278B7F06022813
:102F3300FDF0A3E4F0900821E0F82200008521874A
:102F43008522C622C0E074EB12293DA2AFE433F51B
:102F530008C2AF759B00906182E0A2E05030E5911A
:102F6300A2E0502A7591FE7401652170211230DAB6
:102F73001212461230C8122A0B1234FF740412279D
:102F83008BE96401700579011212A0122CBB9061C8
:102F930082E0A2E5505DE591A2E550577591DF907F
:102FA30004C3E064076005E06408702F1230DA742C
:102FB300016521703E1212461230C8122A0B1234D8
:102FC300FF740412278BE96401700579011212A0C2
:102FD3007901EEFAEFFB122E628018E0640D701394
:102FE3009004E5E004F064287002E4F07A00E0F96C
:102FF300121354906182E0A2E6400302309DE591F2
:10300300A2E6400302309D7591BF9004C3E06405BE
:10301300700812122E12123A800312123475210014
:103023001212BEE99004C4F079001212A0120F3AF2
:103033007A017B009004C2E0F912187C907803E0D7
:10304300644270569008B3E014F0704EC2AF123071
:103053005400782AD0E0F618D0E0F6E59F5407F83C
:103063007005750DFF8003750D7FC4C0E07829E6F8
:10307300F50A08E6550DF50B740B780A122753D0A1
:10308300E0250AF8906270E0A2E740F8E8C33390C5
:103093006272F0906270E0D2E0F0906181E0A2E3AE
:1030A3005009E5E9A2E3500375E9F7A3E0A2E7506D
:1030B30009E591A2E7500375917FE508A2E092AF7D
:1030C3007F0802299C8E828F83E0F8A3E0C8241630
:1030D300F582E438F583229004F1E0F875F00DA44D
:1030E300C8AAF02AF974F328FE740439FF22C0E059
:1030F300C0D0C082C083906183E0A2E05009E5BFE5
:10310300A2E0500375BFFEE0A2E15009E5BFA2E1D2
:10311300500375BFFDE0A2E25009E5BFA2E25003F0
:1031230075BFFBE0A2E35009E5BFA2E3500375BFFF
:10313300F7E0A2E45009E5BFA2E4500375BFEFE056
:10314300A2E55009E5BFA2E5500375BFDFE0A2E6A3
:103153005009E5BFA2E6500375BFBFD083D082D02C
:10316300D0D0E032C0E074F212293DE5A7A2E450CA
:103173000FE5A1A2E4500953A7EF75A1EF1231BBEC
:10318300E5A7A2E5500CE5A1A2E5500653A7DF751C
:10319300A1DFE5A7A2E15009E5A1A2E1500375A1D2
:1031A300FDE5A7A2E2500CE5A1A2E2500653A7FB5E
:1031B30075A1FB7F0102299C74F812285175210126
:1031C3009004C3E0640670077A007B00121216A213
:1031D300AFE433FED2AF9004C9E0640170187A20E3
:1031E3007B009004C2E0F91219B47A207B009004AA
:1031F300C2E0F9121882906182E0D2E6F09008B042
:10320300E0602185C62280169004C8E0640170083E
:10321300E5C654F84405F5C653BEFC122F407401AD
:10322300652160E4EEA2E092AF7F010228FD000079
:10323300008E238F2485822885832785188285190C
:1032430083E0CEA3E0CF852882852783EBC9EAC834
:10325300EDCBECCA75F010C3E833C8E933C9EA33E0
:10326300CAEB33CBC3EA9EF526EB9FF525B3500497
:10327300AB25AA26EC33CCED33CDD5F0DAAE23AFB4
:10328300242274E912285174FA122775EAFEEBFF1F
:103293008C088D09121258EAF8EBF9ECFAEDFB8E63
:1032A300828F8312266F9004C3E024F7C3940550E2
:1032B300067510010233BC12118C8A0A8B0BEA4586
:1032C3000B70030233B912124C8A0C8B0D12124C81
:1032D300EA650C7003EB650D60ECEEFCEFFDAA18DC
:1032E300AB19121252850A82850B83A3A3780C12A1
:1032F300262D9095C0780C1225F4851882851983A4
:10330300781412262D9095C078141225F4780C7930
:1033130014121C3B501F780C79141225B99096286F
:10332300780C121C5B4047850C10850D11850E121D
:10333300850F1380459096288514108515118516E1
:10334300128517137810790C1225B97810121C5BAB
:10335300501C75100075110075120075130178105B
:1033630079141225B97810790C122580800C751008
:103373000175110075120075130074097810122578
:1033830061909588780C12262D7810790C1224C53B
:103393009004C3E06408600AE064066005E0640525
:1033A30070209095947810121C5B50169096247898
:1033B30010122593800C751000751100751200759D
:1033C3001300850882850983781012263C7406123F
:1033D300278B7F100228FD74F712285112126A906E
:1033E30008AEE064017010906245E4F0A3F053F47A
:1033F300F343FE0C5390F3121204E5C654B8444150
:10340300F5C6E59E5447644170F8906185740FF0EA
:103413009008ACE0F47002A3E0602C750801750914
:10342300009008ACE07808122762E508F4FAA3E0FC
:10343300600814600A14600C800DEA52808008EA68
:1034430052908003EA52A079007F020228FD74F7AC
:10345300122851E9FEEAFF74016E700C7A807B003A
:103463009004C2E0F912187C903824E493F46008C5
:10347300E493F9120F1C800953C6B8E59E544770B4
:10348300FA12120A9008AEE064017003120F529010
:1034930008ACE0F47002A3E0602B75080175090025
:1034A3009008ACE07808122762E508FAA3E0600808
:1034B30014600A14600C800DEA42808008EA42908E
:1034C3008003EA42A012118C8A088B09A808A90973
:1034D300E8496016E5E170FCE82414F582E439F567
:1034E30083E0F874FF68600288E174016F700A7A00
:1034F300019004C2E0F912191202344C74F112283B
:10350300518A088B098C0A8D0B9095C07808122577
:10351300F4740F1227C1780C12262D9095C0780CE5
:103523001225F47808790C121C3B909628501078D9
:1035330008790C1225B97808121C5B4014800E78A8
:103543000C79081225B9780C121C5B5004790180A0
:103553000279007F080228FD74ED1228518A088B36
:10356300098C0A8D0B9095C078081225F4741312F8
:1035730027C1780C12262D9095C0780C1225F4786B
:103583000C7908121C3B40117808790C1225B9AA52
:1035930008AB09AC0AAD0B802275100075110075DC
:1035A30012007513017810790C1225B97810790877
:1035B300122580AA10AB11AC12AD137F0C0228FDAB
:1035C3009095C0780812262D8A828B83780812265C
:1035D300077F040228FD74F51228518C828D8378AD
:1035E3000812262D8A828B8378081225CD12362D58
:1035F300C3E098F0A3E09912361F401E9095C87857
:103603000812262D8A828B8378081225A68E828F34
:1036130083E02420F0A3E0344EF080A4F08E828F68
:1036230083C3E09420A3E0944E22EA2404F8E43B0D
:10363300F9E8FEE9FF8C828D83A3A3A3A3E0F8A39B
:10364300E0F98E828F832274F5122851E9FE9008E7
:103653003CE0FAA3E0FBEE29F8E433F9749828F58B
:1036630082749139F583E02AF508A3E03BF50978E4
:10367300081229F89095D412264B12323474021290
:10368300278B8A088B098C0A8D0B741078081225F6
:1036930048AA08AB097F040228FD74F11228518A55
:1036A3000C8B0D8C0E8D0F74111227C1122A0F74FF
:1036B300111227C1E02401F508A3E03400F509E461
:1036C300F50AF50B780C79081224459096207808B2
:1036D30012262D780C7908122445AA0CAB0DAC0EDA
:1036E300AD0F123234740212278B8B09EA4509603D
:1036F300047A0180027A00EC2AFCE43DFD74131283
:1037030027C1E0F8A3E0F9E8FEE9FFECF8EDF97A68
:10371300717B021226EA88088909E4F50AF50B8E03
:10372300828F83780812263CECF8EDF97A717B02DC
:103733001226EA8A088B09740578081227628E829A
:103743008F83A3A3A3A3E508F0A3E509F07F0802F1
:1037530028FDC082C083E9906000F0D083D082222C
:10376300C0E074F212293DA2AFE433FED2AFE58983
:10377300A2E14006E589A2E2500312178075890091
:10378300758900C2C5751A00EEA2E092AF7F0102EF
:10379300299CC0E074F212293DA2AFE433FED2AFFC
:1037A300E58BA2E05003121780758B00C2E8751AEF
:1037B30000EEA2E092AF7F0102299CC0E0C0D0E8F6
:1037C300C0E0A2AFE433F8D2AFC2C7751A00E8A2D3
:1037D300E092AFD0E0F8D0D0D0E032C2AF02000028
:1037E30022C0E074F212293D90192B74FFF0901956
:1037F3002C74FFF07C027D007A2B7B1912055CE9A7
:103803007A047B009018AAE0F912187CE9D2F0A29E
:103813009130F001B39291758900C2C57F010229ED
:103823009CFFFFFFFFFFFFFFFFEAF8EBF9E824FF30
:10383300FAE934FFFBE84960217800790078DC7904
:1038430005C3E89401E99400A2D265D03340DA00BD
:10385300E824FFF8E934FFF980E702013274F71234
:1038630027E589087800800108E8C395085022E815
:10387300FE7F00EA2EF582EB3FF583E0F9E8FE7F59
:1038830000EC2EF582ED3FF583E06960DB79008083
:103893000279017F010228B774F01227E5E9FE7C63
:1038A30000750800750900750A00750B00803A90D1
:1038B3009640780C12262D7808790C122445ECF8E2
:1038C3007900EA28F582EB39F583E0F87900E824FA
:1038D300D0F50CE934FFF50DE50D3395E0F50EF564
:1038E3000F7808790C1225800CECC39E500FECF86E
:1038F3007900EA28F582EB39F583E070B2AA08ABC8
:1039030009AC0AAD0B7F080228B774F71227E574D8
:10391300EF122775909126AC18AD197411122688F1
:1039230078687918888289837430F088828983A3C0
:10393300A882A983888289837478F088828983A383
:10394300A882A983EA2406FA50010B7E06806AEA5C
:1039530024FFFAEB34FFFB8A828B83E0C4540FFC11
:103963007D00851882851983E5822CF582E5833DE8
:10397300F583E0C0E088828983D0E0F08882898380
:10398300A3A882A9838A828B83E0FC7D00EC540F79
:10399300FCED5400FD851882851983E5822CF582A0
:1039A300E5833DF583E0C0E088828983D0E0F08839
:1039B300828983A3A882A9831EEE70938882898358
:1039C3007400F07A687B18741112278B7F01022828
:1039D300B7C082C0837CB07D177AB6798012197E16
:1039E300E9D083D08202013274F71227E5E9FEEEB3
:1039F3006003023A869017B07404F09017B1740014
:103A0300F09017B27400F09017B37400F07C277D28
:103A1300947AB47B17121BE89017C07400F07C18DB
:103A23007D957AC17B17121BE89017C87400F07C50
:103A33000D7D0079007AC97B1712183A9017E37449
:103A430000F09017E47400F07C787D0079007AE64A
:103A53007B1712183A90185E7400F0A37400F0906C
:103A630018607400F09018617400F090186274008C
:103A7300F090186374F4F0A37401F0901865740067
:103A8300F0802B74016E70267C0D7D0079007AC95D
:103A93007B1712183A9017E37400F09017E4740040
:103AA300F07C787D0079007AE67B1712183A7C0067
:103AB3007D0079007A097B041215F4E9121A387F24
:103AC300010228B774F41227E574D31227759017EF
:103AD300B0E0F50875090078081229F87C9E7D8E00
:103AE30074021227D3121BE8740212278BAA18AB95
:103AF3001912181C8A088B09AC08AD09AA18AB194E
:103B03001217EC7A647B00121A209017B1E0F508C3
:103B130075090078081229F87C3C7D8F74021227FE
:103B2300D3121BE8740212278BAA18AB1912181CA4
:103B33008A088B09AC08AD09AA18AB191217EC7ADD
:103B4300647B00121A209017B2E0F508750900781B
:103B5300081229F87CEF7D8E74021227D3121BE81A
:103B6300740212278BAA18AB1912181C8A088B0926
:103B7300AC08AD09AA18AB191217EC7A647B0012D2
:103B83001A209017B3E0F50875090078081229F890
:103B93007C407D9074021227D3121BE87402122713
:103BA3008BAA18AB1912181C8A088B09AC08AD092B
:103BB300AA18AB191217EC7A647B00121A20750845
:103BC300B475091778081229F87CCD7D8F74021219
:103BD30027D3121BE8740212278BAA18AB191218E9
:103BE3001C8A088B09AC08AD09AA18AB191217EC8B
:103BF3007A647B00121A209017C0E0F5087509005B
:103C030078081229F87CFB7D8F74021227D3121BCC
:103C1300E8740212278BAA18AB1912181C8A088B96
:103C230009AC08AD09AA18AB191217EC7A647B002A
:103C3300121A207508C175091778081229F87C290A
:103C43007D9074021227D3121BE8740212278BAAE9
:103C530018AB1912181C8A088B09AC08AD09AA18ED
:103C6300AB191217EC7A647B00121A209017C8E084
:103C7300F50875090078081229F87C127D90740202
:103C83001227D3121BE8740212278BAA18AB19123E
:103C9300181C8A088B09AC08AD09AA18AB191217AE
:103CA300EC7A647B00121A207508C9750917780825
:103CB3001229F87CB97D8E74021227D3121BE87483
:103CC3000212278BAA18AB1912181C8A088B09AC8D
:103CD30008AD09AA18AB191217EC7A647B00121A03
:103CE30020750800750900023D7C9092B174201282
:103CF30027DB740D122688750A0C750B00780A12DF
:103D030029F8A808A909E875F00CA4C8AAF075F069
:103D130000A42AFA75F00CE9A42AF974E628FC74C5
:103D23001739FD74221227D3121822740212278B1B
:103D330074201227CB880A890B780A1229F878088D
:103D43001229F87C227D9374041227D3121BE87482
:103D53000412278BAA18AB1912181C8A0A8B0BACF6
:103D63000AAD0BAA18AB191217EC7AC87B00121A0A
:103D7300200508E508700205099017E3E0F87900CB
:103D8300C3E50898E50999A2D265D0335003023CF4
:103D9300ED90185E122A0F7C587D8E74021227D381
:103DA300121BE8740212278BAA18AB1912181C8A6B
:103DB300088B09AC08AD09AA18AB191217EC7A6481
:103DC3007B00121A20901860E0F5083395E0F5099E
:103DD30078081229F87CE47D8F74021227D3121B12
:103DE300E8740212278BAA18AB1912181C8A088BC5
:103DF30009AC08AD09AA18AB191217EC7A647B0059
:103E0300121A20901862E0F5087509007808122943
:103E1300F87C097D8F74021227D3121BE8740212F7
:103E2300278BAA18AB1912181C8A088B09AC08AD8A
:103E330009AA18AB191217EC7A647B00121A2090A6
:103E43001863122A0F7C2E7D8E74021227D3121B45
:103E5300E8740212278BAA18AB1912181C8A088B54
:103E630009AC08AD09AA18AB191217EC7A647B00E8
:103E7300121A20901865E0F50875090078081229D0
:103E8300F87CD47D8E74021227D3121BE8740212BD
:103E9300278BAA18AB1912181C8A088B09AC08AD1A
:103EA30009AA18AB191217EC7A647B00121A207452
:103EB3002D12278B7F040228B7C082C0839017C0BE
:103EC300E0F9D083D082020132C082C083121A4A41
:103ED300E9640170109018DFE064027004790180D6
:103EE300127900800E9018EAE0640670047901806C
:103EF300027900D083D08202013274F41227E57470
:103F0300F4122775EAFEEBFF121A4AE96401600313
:103F1300023FC6750800800205089017E3E0F8E544
:103F230008C3985033AA18AB19A908121A5CE960A0
:103F330027750A0C750B00780A1229F8EEFCEFFDC1
:103F430074021227D3121834740212278BE960C843
:103F5300E5089017E5F0806B75080C750900780883
:103F63001229F8EEFCEFFD9017E4E0F87900E8750C
:103F7300F00CA4C8AAF075F000A42AFA75F00CE9B5
:103F8300A42AF974E628FA741739FB12182274026A
:103F930012278B9017E4E09017E5F09017E4E024E4
:103FA30001F09017E4E075F00A84E5F09017E4F06F
:103FB3009017E3E0C3940A50079017E3E02401F05D
:103FC300121A38740C12278B7F040228B774F41268
:103FD30027E58908EAFEEBFF121A4AE964017048F3
:103FE3009017E3E0F8E508C398503D750A0C750B8C
:103FF30000780A1229F8E508F87900E875F00CA4AE
:10400300C8AAF075F000A42AFA75F00CE9A42AF9FD
:1040130074E628FC741739FDEEFAEFFB12182274CC
:104023000212278B7901800279007F040228B702EC
:10403300013274F71227E5E9FEEEFA79011217A4AB
:10404300E943FD60EEA2E092867F010228B774EC9B
:104053001227E57E31750C00750D00750E40750F46
:1040630040121BA68A088B09A808A909EEFA7B004F
:10407300E8C39AF508E99BF509E5093395E0F50AE4
:10408300F50B7808121C7A909584781012262D78F7
:104093000C7910121EA07808790C12225F7808128E
:1040A30029F490958412264B121BDC740412278B7F
:1040B3007F0C0228B774F51227E5780079007C009D
:1040C3007D007E007F007508E8750903901881E084
:1040D30064056003024259901882E0F8A3E0F9E80E
:1040E30075F002A4C885F00A75F000A4250AF50A44
:1040F30075F002E9A4250AF9747728F58274183952
:10410300F583EAF0A3EBF0901882E02401F0A3E03A
:104113003400F0901882E0F8A3E0F97A057B0012EE
:1041230026E2901882EAF0A3EBF0780079000242CD
:104133002BE8FAE9FBEA75F002A4CA85F00A75F0E8
:1041430000A4250AF50A75F002EBA4250AFB74778F
:104153002AF58274183BF583E0FAA3E0FBC3EE9AD9
:10416300EF9BA2D265D0335028E8FAE9FBEA75F059
:1041730002A4CAAEF075F000A42EFE75F002EBA403
:104183002EFB74772AF58274183BF583E0FEA3E0D7
:10419300FFE8FAE9FBEA75F002A4CA85F00A75F0B4
:1041A30000A4250AF50A75F002EBA4250AFB74772F
:1041B3002AF58274183BF583C3E09508A3E09509BB
:1041C300A2D265D033502EE8FAE9FBEA75F002A4D7
:1041D300CA85F00875F000A42508F50875F002EB10
:1041E300A42508FB74772AF58274183BF583E0F560
:1041F30008A3E0F509E8FAE9FBEA75F002A4CA8529
:10420300F00A75F000A4250AF50A75F002EBA4255F
:104213000AFB74772AF58274183BF583E02CFCA320
:10422300E03DFD08E8700109C3E89405E99400A2A4
:10423300D265D0335003024134ECC39EF8ED9FF9AD
:10424300E8C39508F8E99509F97A037B001226E299
:10425300E8FAE9FB8036901881E0F87900E875F018
:1042630002A4C8ACF075F000A42CFC75F002E9A41C
:104273002CF9747728F582741839F583EAF0A3EBE7
:10428300F0901881E02401F07A007B007F0302287C
:10429300B774F01227E574E0122775E9FEEE901863
:1042A30060F0121A50E97003024341EEFA3395E0CD
:1042B300FB121A6E8A088B098C0A8D0B909648782C
:1042C3000C12262D7808790C121EA07808121CF205
:1042D300AA08AB09121A748A088B0978081229F8FC
:1042E300EEF404F50875090078081229F87C377D87
:1042F3009174041227D3121BE8740412278B9018AD
:1043030066E0603AAA18AB19121BFA8A088B09AC4B
:1043130008AD09AA18AB191217ECAA18AB19121B8E
:10432300FA8A088B09AC08AD09AA18AB1912055C07
:10433300E97A107B009018AAE0F912187CE974203E
:1043430012278B7F080228B774F61227E574E81248
:104353002775908F55AC18AD1974181226887508F7
:10436300C175091778081229F87C1F7D927402120F
:1043730027D3121BE8740212278BAA18AB19121841
:104383001C8A088B09AC08AD09AA18AB191217ECE3
:10439300741812278B7F020228B77AB47B170201A5
:1043A30032C082C0839017E3E06004790180027910
:1043B30001D083D082020132C082C083121A50E935
:1043C3006003024454121A4AE964017053121A8CAE
:1043D300E9701C901884E070077901121A6880292B
:1043E300901884E0640170217900121A68801A9091
:1043F3001884E070077901121A68800D901884E020
:10440300640970057900121A68901884E02401F099
:10441300901884E075F00A84E5F0901884F08063C6
:10442300901884E070077900121A68800D90188440
:10443300E0640A70057901121A68901884E0240177
:10444300F0901884E075F01484E5F0901884F080FF
:1044530032901884E070077901121A68800D901861
:1044630084E0640170057900121A68901884E024CE
:1044730001F0901884E075F03284E5F0901884F030
:10448300121AC2D083D082020132C082C083901735
:10449300C8E0F9D083D08202013274F01227E579A3
:1044A300067AC17B17121A2C8A0C8B0D8C0E8D0F7A
:1044B300850C08850D09850E0A850F0B9095D47818
:1044C3000C12262D7808790C1224C5AA0CAB0DAC5E
:1044D3000EAD0F7F080228B7C082C0839017B3E0E8
:1044E30064027004790180027900D083D0820201D2
:1044F30032C082C0839017B3E070047901800279DF
:1045030000D083D08202013274F61227E590186737
:10451300E06403700479008076901867E0640160BA
:1045230008901867E0640470419017E3E0605E75DB
:10453300080C75090078081229F89017E5E0F87956
:1045430000E875F00CA4C8ACF075F000A42CFC7561
:10455300F00CE9A42CF974E628FC741739FD121841
:1045630022740212278B79018025901867E0640278
:10457300701B75080C75090078081229F87CD67D24
:1045830017121822740212278B7901800279007F97
:10459300020228B774F61227E5901863E0F508A322
:1045A300E0F509AA08AB09E4FCFD7F020228B77411
:1045B300E91227E574B9122775EAFEEBFF8C088D23
:1045C3000975140175150074046508700474006599
:1045D30009703479047C6B7D95EEFAEFFB121A2691
:1045E300E960247C7A7D95AA18AB19121BE8AA18F6
:1045F300AB1912181C8A088B09AC08AD09AA18ABB1
:10460300191217EC0255BF7408650870047400652D
:1046130009701679087C547D94EEFAEFFB121A2682
:10462300E96006121A440255BF740A6508700474DF
:1046330000650960030246FF79077CF27D94EEFA78
:10464300EFFB121A26E970030246FF8E828F83A3C3
:10465300A3A3A3A3A3A3E024D0604B1460481460D6
:104663004514604214603F24F560030246F9901735
:10467300B0E0F50875090078081229F87CF27D92FC
:1046830074021227D3121BE8740212278BAA18ABE9
:104693001912181C8A088B09AC08AD09AA18AB19A2
:1046A3001217EC0255BF8E828F83A3A3A3A3A3A3E8
:1046B300A3E024D09017B0F0121A389017B0E0F5A9
:1046C3000875090078081229F87C2E7D937402126C
:1046D30027D3121BE8740212278BAA18AB191218DE
:1046E3001C8A088B09AC08AD09AA18AB191217EC80
:1046F3007515010255BF7514000255BF740A65088C
:10470300700474006509701679077CE27D94EEFAF3
:10471300EFFB121A26E960067514000255BF740AEE
:104723006508700474006509701679077CDA7D9456
:10473300EEFAEFFB121A26E960067514000255BF64
:10474300740A6508700474006509600302481079EF
:10475300077CB27D94EEFAEFFB121A26E97003028E
:1047630048108E828F83A3A3A3A3A3A3A3E024D083
:10477300604514604214603F24F3600302480A90CA
:1047830017B3E0F50875090078081229F87CF27D63
:104793009274021227D3121BE8740212278BAA18F1
:1047A300AB1912181C8A088B09AC08AD09AA18ABFF
:1047B300191217EC0255BF8E828F83A3A3A3A3A361
:1047C300A3A3E024D09017B3F0121A389017B3E0E4
:1047D300F50875090078081229F87C2E7D93740278
:1047E3001227D3121BE8740212278BAA18AB1912D3
:1047F300181C8A088B09AC08AD09AA18AB19121743
:10480300EC7515010255BF7514000255BFE508C3C9
:10481300940AF8E5099400F9C3E8940BE99400407D
:10482300030248EB79077CBA7D94EEFAEFFB121A88
:1048330026E970030248EB8E828F83A3A3A3A3A36D
:10484300A3A3E0643F70357508B47509177808129F
:1048530029F87CFE7D9274021227D3121BE874029E
:1048630012278BAA18AB1912181C8A088B09AC08DB
:10487300AD09AA18AB191217EC0255BF7C0C7D00C9
:1048830079007AB47B1712183AE50824F9F508E59C
:104893000934FFF50978081229F8EE2407FCE43FF0
:1048A300FD7AB47B17121822740212278B121A385E
:1048B3007508B475091778081229F87C0A7D937472
:1048C300021227D3121BE8740212278BAA18AB1902
:1048D30012181C8A088B09AC08AD09AA18AB191267
:1048E30017EC7515010255BF740A6508700474004E
:1048F3006509703C79087CFA7D93EEFAEFFB121A96
:1049030026E9602C7CA17D93AA18AB19121BE8AA97
:1049130018AB1912181C8A088B09AC08AD09AA1820
:10492300AB191217EC7900121A3E7515010255BF27
:10493300740A6508700474006509701679087CE8C8
:104943007D93EEFAEFFB121A26E960067515010254
:1049530055BF740A65087004740065096003024A50
:104963002D79077CCA7D94EEFAEFFB121A26E970C3
:1049730003024A2D8E828F83A3A3A3A3A3A3A3E041
:1049830024D0604214603F24F26003024A27901748
:10499300C0E0F50875090078081229F87CF27D92C9
:1049A30074021227D3121BE8740212278BAA18ABC6
:1049B3001912181C8A088B09AC08AD09AA18AB197F
:1049C3001217EC0255BF8E828F83A3A3A3A3A3A3C5
:1049D300A3E024D0F9E970089017C07400F08006B2
:1049E3009017C07401F0121A389017C0E0F50875DB
:1049F300090078081229F87C2E7D9374021227D3BC
:104A0300121BE8740212278BAA18AB1912181C8AFE
:104A1300088B09AC08AD09AA18AB191217EC751568
:104A2300010255BF7514000255BF740A650870046E
:104A330074006509701079087C037D94EEFAEFFB2E
:104A4300121A26E97022740F650870047400650950
:104A53006003024B0C79077CEA7D94EEFAEFFB12BC
:104A63001A26E97003024B0C8E828F83A3A3A3A3A0
:104A7300A3A3A3E0643F70357508C17509177808CF
:104A83001229F87C8A7D9274021227D3121BE874D0
:104A93000212278BAA18AB1912181C8A088B09ACAF
:104AA30008AD09AA18AB191217EC0255BF75080611
:104AB30075090078081229F8EE2407FCE43FFD7A13
:104AC300C17B17121822740212278B9017C7740028
:104AD300F0121A387508C175091778081229F87C7D
:104AE3000A7D9374021227D3121BE8740212278BD8
:104AF300AA18AB1912181C8A088B09AC08AD09AAAD
:104B030018AB191217EC0255BF740A6508700474C8
:104B13000065096003024BD679077CFA7D94EEFAAF
:104B2300EFFB121A26E97003024BD68E828F83A302
:104B3300A3A3A3A3A3A3E024D0604214603F24F261
:104B43006003024BD09017C8E0F508750900780898
:104B53001229F87CF27D9274021227D3121BE87497
:104B63000212278BAA18AB1912181C8A088B09ACDE
:104B730008AD09AA18AB191217EC0255BF8E828F24
:104B830083A3A3A3A3A3A3A3E024D09017C8F012E5
:104B93001A389017C8E0F50875090078081229F843
:104BA3007C2E7D9374021227D3121BE87402122702
:104BB3008BAA18AB1912181C8A088B09AC08AD090B
:104BC300AA18AB191217EC7515010255BF7514001D
:104BD3000255BFC3E508940AE509940040457908E6
:104BE3007C667D94EEFAEFFB121A26E960357508B0
:104BF300C975091778081229F87CBE7D92740212D0
:104C030027D3121BE8740212278BAA18AB191218A8
:104C13001C8A088B09AC08AD09AA18AB191217EC4A
:104C23000255BF740A6508700474006509600302C5
:104C33004CC179087C4B7D94EEFAEFFB121A26E9FE
:104C4300607C121A4AE96401706E9095A474431251
:104C530027DB74041226887E009018677401F09095
:104C630017E3E070047E0180057E00121ADAEEF885
:104C73003395E0F974431227C1E58228F582E58371
:104C830039F583E0F50875090078081229F87C5294
:104C93007D9374021227D3121BE8740212278BAA86
:104CA30018AB1912181C8A088B09AC08AD09AA188D
:104CB300AB191217EC0255BF7514000255BF7414DB
:104CC30065087004740065096003024D7179067C00
:104CD3002D7D95EEFAEFFB121A26E97003024D7152
:104CE30090967274401227DB7403122688750800AD
:104CF300121A4AE9640170709018677402F0750A19
:104D03000C750B00780A1229F8EE2406FCE43FFD2B
:104D13007AD67B17121822740212278BE508F879CA
:104D23000074401227C1E58228F582E58339F583B3
:104D3300E0F50875090078081229F87C527D937410
:104D4300021227D3121BE8740212278BAA18AB197D
:104D530012181C8A088B09AC08AD09AA18AB1912E2
:104D630017EC121ADA0255BF7514000255BF740A04
:104D73006508700474006509705579087C5D7D943D
:104D8300EEFAEFFB121A26E96045121A4AE96401AA
:104D930070377901121A3E7C007D0079007A097B15
:104DA300041215F4E97C757D93AA18AB19121BE85C
:104DB300AA18AB1912181C8A088B09AC08AD09AAEA
:104DC30018AB191217EC0255BF7514000255BF74C6
:104DD3000A65087004740065096003024E9B790834
:104DE3007CF17D93EEFAEFFB121A26E97003024E73
:104DF3009B121A4AE964016003024E9B121A4AE9A4
:104E030064016003024E959017E3E070247CC67D35
:104E130091AA18AB19121BE8AA18AB1912181C8A0D
:104E2300088B09AC08AD09AA18AB191217EC025587
:104E3300BF7E009017E3E0F8EEC39840030255BF2E
:104E4300EEF87900E875F00CA4C8AAF075F000A498
:104E53002AFA75F00CE9A42AF974E628F508741700
:104E630039F50978081229F87CCB7D927402122750
:104E7300D3121BE8740212278BAA18AB1912181C41
:104E83008A088B09AC08AD09AA18AB191217EC0EE6
:104E930080A17514000255BF740A6508700474007C
:104EA3006509704579087C8A7D94EEFAEFFB121A46
:104EB30026E9603575087075099578081229F87C1C
:104EC300757D9574021227D3121BE8740212278B87
:104ED300AA18AB1912181C8A088B09AC08AD09AAC9
:104EE30018AB191217EC0255BF740A6508700474E5
:104EF3000065096003024F9979077CC27D94EEFA3D
:104F0300EFFB121A26E97003024F99121A4AE96459
:104F130001707D8E828F83A3A3A3A3A3A3A3E064C5
:104F23003F703090185E122A0F7C117D9574021227
:104F330027D3121BE8740212278BAA18AB19121875
:104F43001C8A088B09AC08AD09AA18AB191217EC17
:104F53000255BF90185E7410F0A37427F0121A382C
:104F630090185E122A0F7C117D9274021227D312BD
:104F73001BE8740212278BAA18AB1912181C8A0893
:104F83008B09AC08AD09AA18AB191217EC0255BF6F
:104F93007514000255BF740A65087004740065092E
:104FA300704A790A7C1E7D94EEFAEFFB121A26E909
:104FB300603A901860E0F5083395E0F50978081237
:104FC30029F87CD87D9274021227D3121BE874024D
:104FD30012278BAA18AB1912181C8A088B09AC0864
:104FE300AD09AA18AB191217EC0255BF740A65086C
:104FF30070047400650960030250C679077CAA7DBA
:1050030094EEFAEFFB121A26E970030250C68E8261
:105013008F83A3A3A3A3A3A3A3E0643F7038901833
:1050230062E0F50875090078081229F87CE57D929D
:1050330074021227D3121BE8740212278BAA18AB2F
:105043001912181C8A088B09AC08AD09AA18AB19E8
:105053001217EC0255BF8E828F83A3A3A3A3A3A32E
:10506300A3E024D0901862F0901862E0C394044047
:10507300069018627400F0121A38901862E0F5086E
:1050830075090078081229F87C2E7D937402122783
:10509300D3121BE8740212278BAA18AB1912181C1F
:1050A3008A088B09AC08AD09AA18AB191217EC9042
:1050B3001862E0F87403C398F9120BF8E975150147
:1050C3000255BF740A6508700474006509600F74A3
:1050D3000F650870047400650960030251A779071E
:1050E3007C027D95EEFAEFFB121A26E9700302515A
:1050F300A7121A4AE960030251A18E828F83A3A3E8
:10510300A3A3A3A3A3E0643F7030901863122A0FF4
:105113007CD57D9174021227D3121BE874021227E7
:105123008BAA18AB1912181C8A088B09AC08AD0995
:10513300AA18AB191217EC0255BF7906EE2407FA29
:10514300E43FFB121A2C8A088B098C0A8D0B9018EA
:1051530063E508F0A3E509F0901863C3E09410A396
:10516300E0942740030255BF121A38901863122A9D
:105173000F7C117D9274021227D3121BE874021262
:10518300278BAA18AB1912181C8A088B09AC08AD17
:1051930009AA18AB191217EC7515010255BF75143E
:1051A300000255BF740A6508700474006509600342
:1051B30002527279077CA27D94EEFAEFFB121A2653
:1051C300E970030252728E828F83A3A3A3A3A3A3C6
:1051D300A3E0643F7038901865E0F508750900781E
:1051E300081229F87CF27D9274021227D3121BE86D
:1051F300740212278BAA18AB1912181C8A088B0980
:10520300AC08AD09AA18AB191217EC0255BF790106
:10521300EE2407FAE43FFB121A2C8A088B098C0A46
:105223008D0BE508901865F0901865E0C394025063
:1052330038121A38901865E0F508750900780812D5
:1052430029F87C2E7D9374021227D3121BE8740273
:1052530012278BAA18AB1912181C8A088B09AC08E1
:10526300AD09AA18AB191217EC7515010255BF74D5
:105273000A6508700474006509704B790A7C6A7DBD
:1052830093EEFAEFFB121A26E9603B121A4AE9641D
:1052930001702D9018677403F07C967D93AA18AB68
:1052A30019121BE8AA18AB1912181C8A088B09AC2F
:1052B30008AD09AA18AB191217EC121ADA0255BF76
:1052C3007514000255BF740A6508700474006509FB
:1052D300703A79077C937D94EEFAEFFB121A26E974
:1052E300602A121A4AE96401701C9018677404F06A
:1052F3008E828F83A3A3A3A3A3A3A3E024D0F91235
:105303001B10E90255BF7514000255BF74096508E7
:1053130070047400650960030255BC79067C1F7D27
:1053230095EEFAEFFB121A26E970030255BC8E8242
:105333008F83A3A3A3A3A3A3E0F516E51624CC6050
:105343001814601914601A14601B1470030253F6C6
:105353001470030254CA0255B77E04800A7E058086
:10536300067E0680027E0779801217207A04EEF902
:1053730012171A8A088B09AC08AD098C088D09E449
:10538300F50AF50B7808121C9590964C780C1226AA
:105393002D7808790C121EA0909650780C12262DA9
:1053A3007808790C12225F78081229F48C088D0989
:1053B30078081229F8E516F87900E824D0F508E909
:1053C30034FFF50978081229F87CB57D8F7408122B
:1053D30027D3121BE8740812278BAA18AB191218CB
:1053E3001C8A088B09AC08AD09AA18AB191217EC73
:1053F3000255BF7E117F0175089975090179001265
:1054030017207A02790F12171A8A0A8B0BAC0AAD8E
:105413000BC3EC9508ED9509400474648058C3EE02
:105423009CEF9D40047400804DE508C39EF8E50998
:105433009FF9E82401FAE439FB8A088B097402789E
:1054430008122753AA08AB09ECC39EF8ED9FF9E8AD
:1054530075F019A4C8AEF075F000A42EFE75F0190E
:10546300E9A42EF9E82AF8E93BF9E824FFF8E9343E
:10547300FFF91226EAE8F50875090078081229F8F9
:105483008C088D0978081229F8E516F87900E824C4
:10549300D0F508E934FFF50978081229F87C6E7D08
:1054A3009074061227D3121BE8740612278BAA18CE
:1054B300AB1912181C8A088B09AC08AD09AA18ABE2
:1054C300191217EC0255BF750C00750D00750E000F
:1054D300750F0090624B7401F09061A97401F07E26
:1054E30000805779001217207A03790E12171A8A4F
:1054F300088B09AC08AD098C088D09E4F50AF50B96
:105503007808121C95909654781012262D780879F5
:1055130010121EA0909658781012262D7808791034
:10552300122045909644781012262D78087910128F
:10553300225F780C79081220450EEEC3944040A3F5
:10554300850C08850D09850E0A850F0B9095FC784F
:105553000C12262D7808790C12225F90624BE0C260
:10556300E0F09061A9E0C2E0F078081229F48C0819
:105573008D0978081229F8E516F87900E824D0F5A2
:1055830008E934FFF50978081229F87C577D9074EF
:10559300081227D3121BE8740812278BAA18AB1919
:1055A30012181C8A088B09AC08AD09AA18AB19128A
:1055B30017EC80087514008003751400E51560115D
:1055C3007AC87B00121A20C2AF75C9AB75C95B805C
:1055D300FEA914744712278B7F0F0228B7C082C01D
:1055E3008374FD122775909660AC18AD197403127D
:1055F3002688901885E02401F0A3E03400F0901889
:1056030085C3E0940AA3E0940050030256BAA29320
:10561300403F7A007B008025A2934009851882854C
:1056230019837400F008E8700109C3E89464E994ED
:1056330000A2D265D03340E00AEA70010BC3EA94BA
:1056430064EB9400A2D265D03350067800790080D1
:10565300D9A293503F7A007B008025A293500985FD
:1056630018828519837401F008E8700109C3E8946E
:1056730064E99400A2D265D03340E00AEA70010BDA
:10568300C3EA9464EB9400A2D265D0335006780049
:10569300790080D97C037D00AA18AB1912055CE957
:1056A3007A047B009018AAE0F912187CE990188517
:1056B3007400F0A37400F0740312278BD083D0829C
:1056C30002013274F61227E574C8122775E9FF7ECA
:1056D30001EFA2E5400302576A901B28E0C2E5F000
:1056E3007C267D957A877B18121BE87C3A7D937A1A
:1056F300937B18121BE8901B27E07008901B2774FC
:1057030001F08006901B277400F0901B27E06007D0
:10571300790112190C8005790012190C901B27E0EE
:10572300F50875090078081229F87CCA7D93740E70
:105733001227D3121BE8740212278B7906740C12FA
:1057430027D3121792740C1227D3121BFA8A088BD1
:1057530009AC08AD09740C1227D31217F27A017B36
:1057630000121A20025984EFA2E05042901B28E055
:10577300C2E0F07C0A7D957A877B18121BE87C6F68
:105783007D947A937B18121BE8121A4AE96401602C
:10579300030259849018DFE0640270030259847C89
:1057A3000A7D007A6A7B93121ABCE9025984EFA23C
:1057B300E45035901B28E0C2E4F07C787D947A872E
:1057C3007B18121BE87CA87D917A937B18121BE847
:1057D300901866E070099018667401F0025984907D
:1057E30018667400F0025984EFA2E3503B901B2823
:1057F300E0C2E3F07C817D947A877B18121BE87CFE
:10580300817D947A937B18121BE8121A4AE964018A
:1058130060030259849018DFE06402700302598424
:105823007901121AFE025984EFA2E15020901B283D
:10583300E0C2E1F07CDE7D937A877B18121BE87C63
:10584300037D917A937B18121BE8025984EFA2E23D
:105853004003025982901B28E0C2E2F07C8B7D93C7
:105863007A877B18121BE87CE47D917A937B18126C
:105873001BE8121A4AE9640160030259239018DFF6
:10588300E064026039121B04E9F508750900780821
:105893001229F87C5E7D9374021227D3121BE874DD
:1058A3000212278BAA18AB19121BFA8A088B09ACB0
:1058B30008AD09AA18AB19121ABCE9025984121AC5
:1058C30050E970030259849018A7E060089018A764
:1058D3007400F080069018A77401F09018A7E0F503
:1058E3000875090078081229F87C567D9274021213
:1058F30027D3121BE8740212278BAA18AB19121BA9
:10590300FA8A088B09AC08AD09AA18AB1912055C11
:10591300E97A107B009018AAE0F912187CE98061FB
:10592300121A50E9605B9018A8E060089018A874F8
:1059330000F080069018A87401F09018A8E0F5080C
:1059430075090078081229F87C497D9274021227A0
:10595300D3121BE8740212278BAA18AB19121BFA75
:105963008A088B09AC08AD09AA18AB1912055CE9C2
:105973007A107B009018AAE0F912187CE980027E65
:1059830000901B28E070149018A9E0700E9018A9DD
:105993007401F07A0179071217A4E9EE60567508CD
:1059A3009375091878081229F87C417D95740E12B5
:1059B30027D3121BE8740212278B901B28E0600682
:1059C30078007900800478807900E84408F9740C41
:1059D3001227D312179275088775091878081229A8
:1059E300F87C417D95740E1227D3121BE8740212C2
:1059F300278B805475089375091878081229F87C49
:105A0300347D95740E1227D3121BE8740212278B70
:105A1300901B28E060067800790080047880790084
:105A2300E84408F9740C1227D31217927508877586
:105A3300091878081229F87C347D95740E1227D33F
:105A4300121BE8740212278B740C1227CB88088967
:105A53000978081229F87C757D9574261227D312CC
:105A63001BE8740212278B121A50E9702174241256
:105A730027D3121BFA8A088B09AC08AD09742412C8
:105A830027D31217EC7A017B00121A208026742484
:105A93001227D3121BFA8A088B09AC08AD097424A8
:105AA3001227D312055CE97A107B009018AAE0F95B
:105AB30012187CE9743812278B7F020228B774EC22
:105AC3001227E574C0122775EAFEEBFF8C088D09D7
:105AD300C3E5089409E5099400403979087C427DBF
:105AE30094EEFAEFFB121A26E960298E828F83A3C4
:105AF300A3A3A3A3A3A3A3E0F8743068700B7A0055
:105B030079021217A4E9025E6D7A0179021217A4D1
:105B1300E9025E6DC3E5089409E50994004039790B
:105B2300087C397D94EEFAEFFB121A26E960298E80
:105B3300828F83A3A3A3A3A3A3A3A3E0F8743068D2
