:020000040000FA
:0600000002010702314974
:03002B000235BCDF
:03003300023596FD
:03003B000235D9B2
:0300430002354142
:030053000231BFB8
:03006B00023567F4
:10008300022F9FE5C754F84401F5C7790122000008
:100093000080FB120086B900030200F1E4792178A5
:1000A30008B800028004F709D8FCE479297802B87B
:1000B30000028004F709D8FCE490028178417919A1
:1000C3008002F0A3D8FCD9FA7AC17B1A9001377861
:1000D3001679058015E493A3AD82AE838A828B8360
:1000E300F0A3AA82AB838D828E83D8E9D9E7758288
:1000F3000D7583DA74051201197582917583007485
:100103000012011975D00075813F751881751902A8
:10011300759F00020096C09FF59FE473D09F22D085
:1001230083D082C09FE493C0E0740193C0E0740263
:1001330093F59F2211019901F6060207380732074A
:10014300FF0000B4000028002800283075A000A09C
:1001530000A000A00000080008E001F0001000105B
:10016300001000100010001000500050005000104C
:10017300001000D0070000000000000F0001000580
:1001830000307507001000010081FF00000000FF30
:10019300FFFF760894087C08B808FF0202020802F1
:1001A3005000A0000000E80302C296010000A096E0
:1001B30002CA96010000281B02D2960100000A041D
:1001C30002CA96010000291B02D4960100002004F4
:1001D30002CA960100002A1B02E8960100002204CD
:1001E30002CA960100002B1B02BC960800002304E0
:1001F30002CA960100002C1B02BA960100002D1BB7
:10020300FFFF0100FF2002C2960100009A9602CA76
:1002130096010000921B02B896000000000002D075
:100223009603000053041700FE10FE10FE10FE108C
:10023300FE10FE10FE10FE10FE10FE10FE10FE104B
:10024300FE105613741350139A14AC149414020230
:1002530002020202020202010D000000100102C2AA
:10026300960100009D9602CA96010000DB1B02B6B0
:1002730096010000A20E02CA96010000DC1B02B424
:1002830096010000C69202CA96010000DD1B02B06F
:10029300960100006A9202CA96010000DE1B02A6C4
:1002A30096010000FC9002CA96010000DF1B02A821
:1002B30096010000D89002CA96010000E01B02AA32
:1002C30096010000C69002CA96010000E11B02AC31
:1002D30096010000209102CA96010000E21B02AEC3
:1002E300960100005C9202CA96010000E31B02B271
:1002F30096010000E41B01E803057710020A0ABC1B
:1003030016FFFFFF00013075030201060000000025
:1003130000000000000000000000000000000000DA
:100323000000000000000000FFFF0600800CE8034F
:10033300013FFEFF0101010201060302F0FF02017A
:10034300061AFF4C000215E2C56DB5DFFB48D2B0BB
:1003530060D0F5A71096E000010002CD9C1BA21B04
:10036300AE1BB41BA81B0A43686172616374657298
:100373006973746963203100024368617261637455
:10038300657269737469632032000843686172613E
:100393006374657269737469632033001043686121
:1003A3007261637465726973746963203400024314
:1003B300686172616374657269737469632035007F
:1003C300164368617261637465726973746963204B
:1003D300360010436861726163746572697374698E
:1003E3006320370002C296010000949602CA960168
:1003F3000000F31C02D896030000861A02CC960173
:100403000000F41C02CA96010000051D02DA9601E1
:100413000000871A02CC96010000061D02CA96014D
:100423000000171D02DC96020000881A02CC960118
:100433000000181D02CA96010000291D02DE960065
:100443000000891A02D0960300008A1A02CC960192
:1004530000002A1D02CA960100003B1D02E096041B
:1004630000008C1A02CC960100003C1D02CA9601C2
:1004730000004D1D02E296030000911A02D096037C
:100483000000A61A02CC960100004E1D02CA960176
:1004930000005F1D02E496000000A81A02D0960334
:1004A3000000BD1A02CC96010000601D0100B0429D
:1004B3003BAAB83F0000003F8C906339AA0CA33AD3
:1004C30000941E3C8042633DCFFE753E1572313F62
:1004D3000000803FF304353F8096184B30313233B0
:1004E30034353637383941424344454600286E7522
:1004F3006C6C20706F696E74657229003031323311
:10050300343536373839616263646566003F3F3F8F
:10051300000000807FF9021550B743BA5100E7DBB2
:100523002E0000A040000080BF2292D43EDD9B2A13
:100533003F0400004000000000FFFF7F7FFFFF7FBC
:10054300FF010080341872313F120122A1C105124C
:10055300012288C20512012282C305120122CFD8CB
:100563000512012216BD0512012229BD0512012221
:100573004ABD05120122B5BD05120122F6BD0512C1
:10058300012217BE0512012258BE05120122F0BE38
:100593000512012238BF05120122F9A50512012215
:1005A3000CA6051201223DA60512012277A605120B
:1005B3000122D0A60512012217A7051201225FA767
:1005C300051201228EA705120122BDA705120122E1
:1005D300F4A7051201223BA80512012254A8051213
:1005E3000122A9A805120122C2A80512012210A9FD
:1005F300051201224AA905120122008004120122D8
:100603000381041201223081041201228181041228
:100613000122A48104120122B68104120122B981AC
:1006230004120122F781041201226B8204120122B7
:10063300D782041201229F8304120122BB83041276
:100643000122F283041201222C8404120122C384A6
:100653000412012215850412012246850412012287
:10066300778504120122848504120122EE85041287
:100673000122F18504120122FE8504120122018662
:10068300041201225886041201225B8604120122FD
:10069300948604120122978604120122CB86041247
:1006A3000122CE86041201222287041201226B87C3
:1006B300041201227B8704120122AE870412012255
:1006C300BB8704120122BE8704120122268804126A
:1006D3000122288904120122CC8904120122358ABD
:1006E30004120122738A041201227AF602120122F1
:1006F30077F7021201220DF80212012258F80212B2
:100703000122BCF80212012246F902120122FFF96A
:100713000212012221FD021201229EFE0212012277
:10072300C1FE02120122DA91051201227F93051202
:1007330001229F9305120122C094051201221395F1
:1007430005120122239A051201224B9A0512012256
:10075300789A05120122B09A051201220E9B051206
:1007630001225A9B05120122C19B05120122019C01
:10077300051201223E9C051201226C9C05120122E6
:10078300169D05120122209D051201222D9D0512A1
:100793000122609D051201226C9D05120122849D98
:1007A300051201228E9D051201227BD3051201221F
:1007B30089D305120122A1D305120122B9D305124F
:1007C3000122D0D305120122D5E4021201227FE5D2
:1007D3000212012292E6021201220EE70212012204
:1007E3002CE80212012268E80212012203E9021234
:1007F3000122E7E902120122AAEA0212012222EBF4
:1008030002120122B0EC0212012221ED0212012296
:10081300DBED02120122CDEE021201220DEF0212D4
:100823000122C1EF02120122F3EF02120122E9F1C8
:100833000212012230F2021201224EF202120122AE
:10084300B4F20212012283F30212012247F40212CC
:10085300012266F60212012270F602120122E0C1A1
:1008630004120122CAC20412012275C30412012216
:10087300C6C30412012276C404120122E7C404127F
:100883000122CCC50412012200C604120122F9C6BA
:100893000412012236C70412012212C804120122D3
:1008A30051C8041201226DC804120122C5C50512E4
:1008B300012249C60512012274C6051201228EC700
:1008C300051201221C9E05120122329E05120122ED
:1008D300509E05120122619F051201226B9F051292
:1008E300012296A0051201228DA105120122FAA16F
:1008F3000512012204A20512012299CF041201223A
:10090300CFD00412012249D10412012279D1041259
:1009130001228CD104120122E3D104120122F8D363
:10092300041201222E9602120122DF9602120122E4
:10093300FB9602120122C49702120122DE970212D1
:100943000122E99702120122BF98021201229C9907
:10095300021201222C9A02120122E39A02120122AC
:10096300F19D02120122E09F0212012292A00212C3
:1009730001225BA102120122A0A4021201224AA5B4
:100983000212012273A6021201222FA802120122CF
:10099300CFA8021201221DA9021201225CA9021290
:1009A30001222FAA0212012263AA02120122F0AA33
:1009B3000212012241D202120122CDD202120122DD
:1009C30031D4021201223DD40212012278D4021240
:1009D3000122E7D402120122F0D502120122F9D634
:1009E30002120122C0D7021201221DD902120122D2
:1009F3003BD90212012258D90212012205DA02124E
:100A0300012282DA02120122AADA0212012274DD21
:100A13000212012279DD0212012292DF0212012267
:100A2300E0DF0212012250E0021201228EE00212E4
:100A330001226AE1021201222AE20212012276E273
:100A43000212012279E202120122BDE20212012204
:100A530005E30212012244E30212012266E30212B9
:100A630001229AE302120122FDE302120122AEF5F2
:100A730004120122B7F504120122C5F50412012262
:100A830018F60412012237F6041201227CF604122E
:100A93000122C0F7041201225BF8041201229FF81D
:100AA30004120122C9F80412012238F904120122A6
:100AB3007EF904120122F5F904120122A6FA0412A6
:100AC3000122C4B701120122D4B70112012275B861
:100AD30001120122D1B8011201228EB901120122A1
:100AE300AABA01120122DCBA011201220BBB0112C4
:100AF3000122B8BC011201222FBF011201229FC1A2
:100B03000112012291C2011201228AC301120122A0
:100B130091C50112012285C801120122B4C9011233
:100B23000122B8CB01120122C8CC0112012257CEF7
:100B33000112012248CF0112012296CF0112012294
:100B430005D00112012229D0011201227AD001120B
:100B530001221BD5011201221CD6011201227DD6CE
:100B630001120122A8D6011201226ED7011201221D
:100B73007DDB0412012287DB04120122CCDB041289
:100B83000122E0DB0412012270DC04120122A9DC41
:100B930004120122E4DC041201220DDD04120122FD
:100BA3005BDD0412012270DD0412012285DD0412D3
:100BB30001229ADD04120122DDDD04120122F2DD9D
:100BC300041201225DDE0412012271DE04120122ED
:100BD30085DE041201229ADE04120122D4DE0412FD
:100BE3000122F8DE0412012224DF041201225BDF5A
:100BF30004120122BDDF041201222FE0041201229C
:100C030072E0041201229CE004120122C7E00412E4
:100C1300012275D105120122D3C803120122B6C9DC
:100C23000312012231CA031201226CCA03120122E8
:100C3300BDCB0312012246CC031201225ECE031266
:100C43000122F0D003120122A2D103120122AED25B
:100C53000312012221D4031201227AD403120122A6
:100C630070EB04120122B3EB0412012237EC0412DD
:100C730001220AED04120122E1EF0412012217B846
:100C830005120122C4B805120122D1B905120122AD
:100C930010BA051201226ABA05120122B2C905125D
:100CA300012215CA05120122B2CA05120122E7CA9E
:100CB3000512012217CB0512012238CB051201229E
:100CC30073CB0512012293CB05120122B8FA041249
:100CD300012244FB0412012203FC041201221BFD26
:100CE3000412012235FF0412012223D5031201222B
:100CF30048D50312012215D603120122E9D60312A5
:100D0300012256D703120122ACD70312012248D87D
:100D1300031201227CD90312012257DA03120122A2
:100D2300B6DA0312012242DB03120122B0DB031203
:100D330001223CDC031201223FDC0312012289DC85
:100D430003120122FBDC031201228DDD03120122B7
:100D53002EDE031201224EDE0312012296DE03125F
:100D63000122DFDE03120122FBDE0312012221DF57
:100D7300031201229BDF03120122A9DF03120122C6
:100D830038E003120122A1E0031201229784051225
:100D930001221C85051201225E850512012242866D
:100DA30005120122AF8605120122F38605120122E4
:100DB3003787051201226487051201228C870512E9
:100DC3000122C48705120122028805120122298803
:100DD30005120122A38805120122ED8805120122C2
:100DE300DAD701120122D3D901120122BFDC011289
:100DF300012213DD011201223EDD0112012218DE60
:100E03000112012257DE011201229EDE011201228C
:100E1300B1DE01120122F2DE011201221FDF0112F3
:100E230001226DDF01120122ACDF01120122D7DFA3
:100E3300011201222AE001120122B9E0011201226A
:100E430097E301120122B2E501120122F0E501123A
:100E5300012265E701120122AAE7011201229EE89D
:100E630001120122B7EA0112012219EB0112012238
:100E73006AEB0112012285F001120122D4F0011262
:100E830001221AF10112012202F301120122D0F40C
:100E930001120122D5F401120122AFF50112012240
:100EA30028F60112012258F7011201226AF70112F2
:100EB300012271B505120122E3B50512012239B6EB
:100EC300051201227DB6051201229DB605120122EB
:100ED300EAB60512012232B70512012285B70512BF
:100EE3000122D6B7051201226DA804120122ECA833
:100EF30004120122E5AE04120122EBAF0412012217
:100F03005EB104120122F5B1041201223361001211
:100F130001227C6100120122A96100120122DB611E
:100F230000120122E76100120122F3610012012283
:100F33000A6200120122E5620012012243630012D9
:100F43000122786300120122A96400120122F664CF
:100F5300001201223C6500120122A8650012012241
:100F63004C6600120122026700120122616700121F
:100F73000122D26700120122306800120122626945
:100F830000120122CA6A00120122946B001201228C
:100F9300A16B00120122E36B00120122F36B00121A
:100FA3000122176C001201221A6C00120122066D35
:100FB30000120122A26D001201223B6E00120122D7
:100FC300D26E00120122FF6E001201225D6F001229
:100FD3000122A46F00120122F46F00120122447057
:100FE30000120122B6700012012251710012012277
:100FF300FC71001201229B7200120122197300126C
:101003000122607300120122C47300120122F373E0
:10101300001201228A74001201229C76001201221E
:10102300E076001201222B7700120122B177001221
:1010330001223B7800120122547900120122DA794D
:1010430000120122FF7900120122567A00120122B6
:101053006B7A00120122B37A00120122267B00125E
:1010630001226B7B00120122747C00120122257D78
:1010730000120122837D00120122DF7D0012012272
:10108300F87D001201226FF603120122C3F6031248
:101093000122CFF60312012299F703120122C6F7A8
:1010A30003120122F4F70312012260F80312012252
:1010B30096F803120122CFF803120122E7F8031274
:1010C30001223CF90312012255F9031201229AF974
:1010D30003120122ADF903120122C7F903120122FF
:1010E300DDF903120122FBFA0312012226FC03128B
:1010F300012210FD0312012201FE031201225936BF
:101103000012012293F00412012216F404120122A8
:1011130063F50412012257BC031201222ABF0312F2
:10112300012230BF03120122C0C10312012223C4D2
:101133000312012200800512012297800512012269
:101143005581051201227F8105120122598305125F
:1011530001225E84051201220080021201223280E4
:10116300021201224F8C02120122A08D02120122CF
:10117300A98E021201222890021201221391021257
:1011830001226291021201227C9102120122BE917C
:1011930002120122C99102120122109202120122AB
:1011A300199202120122C592021201229E93021287
:1011B3000122E593021201224D94021201228F941F
:1011C30002120122BD9402120122FA940212012298
:1011D3003DBF0212012208C3021201220EC30212F2
:1011E3000122B2C90212012206CE02120122EFD15C
:1011F30002120122B2A90512012228AA0512012214
:101203003EAA05120122CEAA051201220BAB05123A
:10121300012245AB051201227FAB05120122F2AB7D
:101223000512012233AC051201223CAC0512012246
:1012330048AC0512012267AC0512012291AC0512DC
:101243000122A6AC05120122E9AC05120122CEC887
:1012530004120122E1C804120122FBC80412012274
:1012630028C9041201226EC904120122A1C9041261
:101273000122DFC90412012244CA0412012259CAFD
:101283000412012264CA0412012271CA0412012247
:1012930088CA0412012296CA04120122A5CA0412A2
:1012A3000122BACA04120122CFCA04120122DACAE5
:1012B30004120122E6CA04120122F3CA0412012213
:1012C30006CB0412012211CB0412012236CB0412E5
:1012D3000122DACB04120122EACB04120122FFCB52
:1012E3000412012214CC041201222ECC0412012276
:1012F3004BCC0412012268CC0412012273CC0412D9
:1013030001221FCD0412012200CE0412012225CE98
:101313000412012230CE0412012245CE041201220E
:1013230059CE04120122BACE04120122C0CE0412F5
:101333000122C6CE04120122CCCE04120122E4CE35
:101343000412012217CF04120122998A04120122E6
:10135300BB8A04120122838B041201223D8E0412E4
:101363000122538F041201227490041201224E9120
:1013730004120122FD9104120122D4AE03120122B0
:101383006BAF0312012203B003120122F3B0031265
:1013930001222AB1031201223DB103120122ABB192
:1013A3000312012246B3031201226DB30312012279
:1013B3000FB40312012244B40312012255B40312E1
:1013C3000122CEB403120122EFB40312012207B5A6
:1013D300031201225FB60312012268B8031201222D
:1013E300B8BA03120122BBBB031201220ABC0312C7
:1013F300012238A00312012235A10312012220A2E7
:10140300031201222AA20312012234A2031201228F
:1014130056A20312012262A203120122B4A30312F1
:101423000122E3A30312012213A50312012255A5EE
:101433000312012281A60312012257A703120122DC
:10144300A9A70312012208A8031201223FA803122D
:1014530001227AA80312012215AC031201222EAC39
:1014630003120122B0AC03120122BEAC031201220B
:1014730013AD0312012221AD031201228EAD03121B
:10148300012200AE0312012246AE03120122C4E080
:1014930003120122E6E003120122D0E20312012229
:1014A30075E603120122B8E70312012292E8031240
:1014B3000122A1CB05120122C6CB0512012237CC92
:1014C300051201228DF70112012296F70112012262
:1014D3009FF701120122D0F801120122EFFA011243
:1014E300012225FB011201225FFB0112012295FB60
:1014F30001120122CFFB0112012203FC011201227E
:101503002FFC0112012278FC01120122B2FC01120C
:101513000122FAFC0112012250FD0112012285FD74
:1015230001120122E0FD011201221AFE0112012221
:101533006BFE01120122A1FE01120122DBFE011248
:10154300012209FF011201222CFF011201227AD785
:1015530005120122A6D70512012201D80512012284
:101563000BD8051201221BD8051201221FB2041247
:10157300012263B20412012211B30412012289B3BE
:1015830004120122DBB3041201227BB404120122F0
:10159300B7B40412012251B504120122CEB50412CC
:1015A300012227B70412012240B70412012278B89E
:1015B300041201220BB90412012274B9041201228C
:1015C300E0B9041201222D89051201225489051262
:1015D3000122858905120122DADA05120122F1DAE4
:1015E3000512012225D805120122EA9601120122D1
:1015F300069A01120122F79B01120122699C011232
:101603000122279D01120122D29D01120122629E15
:1016130001120122F19E011201221B9F01120122DC
:10162300889F01120122C2A40112012256A50112B0
:10163300012285A601120122E9A6011201229DA71A
:101643000112012250AA011201228AAA01120122C7
:10165300F4AA0112012252AB01120122B0AB011212
:1016630001220DAC01120122FCAC0112012242AD98
:101673000112012287AD01120122A8AD011201223C
:101683000AAF0112012225AF01120122ABB00112F0
:101693000122D8B00112012218B1011201225EB158
:1016A300011201227CB101120122BAB101120122FD
:1016B300E0B30112012219B401120122B0B40112E4
:1016C300012250B501120122E3B5011201224FB6E6
:1016D3000112012290B701120122EFE0041201224C
:1016E30083E104120122C2E2041201224BE3041239
:1016F30001221EE40412012247E404120122AEE493
:101703000412012216E50412012289D205120122D4
:101713009AD2051201226BD30512012217AD0512CD
:101723000122E2AF05120122DF7F0012012260D401
:101733000512012270D4051201228DD40512012253
:1017430021D505120122C6B20512012260B305128A
:10175300012256B505120122287E001201225E7E67
:1017630000120122CE7E00120122317F00120122DB
:10177300A17F00120122E4FF02120122E7FF0212FD
:101783000122209605120122429605120122D496C7
:1017930005120122D29705120122C39905120122D3
:1017A300BFD504120122BCD70412012242D804126D
:1017B30001224DD9041201220DDA0412012282DA28
:1017C30004120122F4DA04120122F7DA04120122CC
:1017D30005DB0412012219DB0412012231DB04129E
:1017E300012249DB0412012257DB041201226FDBC1
:1017F3000412012263BF0512012230C00512012227
:1018030015C1051201225FC105120122B7D60512C7
:10181300012231D70512012241D70512012251D7E6
:10182300051201226AD705120122BDC70512012242
:10183300EEC70512012218C805120122D5C80512E8
:101843000122F5C8051201224DC905120122B99ED4
:1018530004120122C79E041201220D9F04120122C9
:10186300609F04120122A89F0412012202A0041205
:10187300012223A004120122FAA20412012208A3C6
:101883000412012264A30412012297A30412012269
:10189300AAA30412012235A404120122CCA4041227
:1018A300012247A5041201227EA50412012204A6E7
:1018B3000412012259A604120122B4A60412012221
:1018C300C6A604120122F7A60412012200A70412DD
:1018D300012239A80412012257CD05120122B6CDE7
:1018E3000512012251CE05120122B7CE05120122A3
:1018F3008D8D05120122C08D05120122E68E05127F
:1019030001220B8F05120122CC8F05120122A49014
:10191300051201220BCF05120122D4CF0512012299
:101923002CD00512012246D005120122B5BA0512A8
:101933000122FABA0512012238BB05120122D3BCD7
:10194300051201226CFF0412012287FF04120122F7
:1019530097FF04120122F3D5051201222FD5051298
:101963000122F19404120122CD9504120122109652
:10197300041201224A9604120122B696041201228D
:101983000E97041201227E97041201224F9804122B
:101993000122399904120122B09904120122469BB3
:1019A30004120122D19B04120122419C0412012240
:1019B300BB9C04120122D29C04120122FD9D04123D
:1019C3000122509E041201223AE60412012257E634
:1019D3000412012243E7041201228CE704120122BC
:1019E300ACE704120122E8E70412012241E80412E1
:1019F30001227DE804120122C5E8041201225FEBF3
:101A030004120122E6AB0212012201B102120122E9
:101A1300F8B3021201221EB40212012247B40212C9
:101A23000122F5B402120122D6B602120122F1B745
:101A3300021201220AB80212012200BD021201227F
:101A430039BD021201227DBD021201228ABE021299
:101A53000122643600120122983600120122D33685
:101A6300001201224537001201220C380012012214
:101A7300233800120122FF3800120122F43C001225
:101A83000122043D00120122353D00120122083ECD
:101A9300001201226A3E001201226D3E0012012251
:101AA300AE3E00120122153F00120122F140001246
:101AB3000122A84100120122FA410012012201422F
:101AC300001201220F42001201221F4200120122C2
:101AD3005D42001201227642001201228D42001261
:101AE30001221943001201223443001201226A45E4
:101AF300001201229855001201229359001201226B
:101B03004B5D00120122435E00120122F45E0012BB
:101B130001221B6000120122008003120122348182
:101B230003120122618103120122B08403120122F4
:101B3300E98403120122FA84031201221686031296
:101B43000122278603120122B78603120122C786C8
:101B5300031201228E8B03120122328C0312012203
:101B6300408C031201226D8C03120122D28C0312CA
:101B73000122AA8E031201227F8F03120122D4EBCA
:101B83000312012221F003120122A5F20312012202
:101B9300DEF203120122EFF2031201220EF303120B
:101BA300012238F40312012249F403120122A5F49D
:101BB3000312012236F503120122E5F50312012275
:101BC30027BA0412012235BB0412012252BB0412AC
:101BD30001222DBD0412012251BE04120122EDBFC8
:101BE3000412012293DB05120122F0AF0512012238
:101BF30057D00512012279DA051201225A900312F5
:101C03000122669503120122B6C305120122BAFF0F
:101C13000112012220DB051201220EA2051201226C
:101C230077D905120122A1D905120122BBFF0312A4
:101C330001224CDB0512012275DB05E066701008FA
:101C4300A3E066700A08A3E066700408A3E06622B6
:101C5300C008C3E096F50808A3E096420808A3E08D
:101C630096420808A3E0964208A2D265D033E5085D
:101C73007001D3D00822C3E7960809E7960809E75D
:101C8300960809E79622C3E09608A3E09608A3E026
:101C93009608A3E09622C008C3E096F50808A3E0DF
:101CA30096420808A3E096420808A3E09645087008
:101CB30001D3D00822080808E630E7111225721272
:101CC3001CD0080808C64480C6181818221818180B
:101CD300E9799EC608CAC608CBC608CCC6C370201D
:101CE3007996CACBCC7019798ECBCC70137986CC0C
:101CF300700EF9802ACA33CACB33CBCC33CC331919
:101D030030E7F2CCCBCA3350147004EA30E00DE470
:101D1300CA3ACACB3BCBCC3CCC500209C3E913C66D
:101D2300CC182313C6CB18C6CA18C6F922121D70C5
:101D330020F01430E72B74FFFCFBFA747F8022E45D
:101D4300FCFBFA7480801AB48008BC00F2BB00EF7D
:101D5300800F50EBF9E4C39AFAE49BFBE49CFCE4A8
:101D630099C6CC18C6CB18C6CA18C6F922E4C9C688
:101D730008CAC608CBC6D3330308CCC63392F0C314
:101D8300947F402E94184019C9B90704CACBCC22BA
:101D93005025C309CA33CACB33CBCC33CC33D9F4A4
:101DA30022F4600DC9CCC313CB13CBCA13CAD9F623
:101DB300CC22E4FCFBFA2214FCFBFA22E6261846AA
:101DC3001846184622E727194719471947221818B2
:101DD30018E60846087009E626087005E633F4227B
:101DE3000822191919E70947097009E72709700536
:101DF300E733F4220922E6084608C3134608336092
:101E030002E633F422E7094709C3134709336002A3
:101E1300E733F422121DF96025121E086020121DFB
:101E2300BF7003021DC8080808E76670101819E799
:101E330066700A1819E76670041819E76622F42217
:101E4300121DF9601C121E086017121DBF700712C5
:101E53001DC87001D322C0D0121DC87006D0D0B3E4
:101E630022C32233D0D0501430E0F6C3E7960809DA
:101E7300E7960809E7960809E796B32220E0D5E636
:101E8300970809E6970809E6970809E697B3221227
:101E93001DF9601B121E086016121DBF7007121D6C
:101EA300C8600CB322C0D0121DC87005D0D022C3A5
:101EB3002233D0D0501330E0EBC3E7960809E796FE
:101EC3000809E7960809E7962220E0E4E69708095F
:101ED300E6970809E6970809E6972200121DF960BC
:101EE3004F121E086012E7548066F6121DD170115E
:101EF300121DC8703B090909F4F618F618F618F60E
:101F030022121DE57015121DBF08080860EAE64499
:101F13007FF618768018E4F618F622121DBF6016B5
:101F2300121DC87012E4F608F608F608E65480F6A7
:101F330009090918181822EAC0E0EBC0E0ECC0E078
:101F4300EDC0E0E687F0A4FBACF008E687F0A42C34
:101F5300FCE435F0FA1809E687F0A42C4B60027410
:101F630001CA35F0FCE433FB09E687F0D2F7A42C71
:101F7300CB35F0FC1908E687F0A42BCC35F0FBE455
:101F830033FD0819E687F0D2E7A42C4ACB35F0CD10
:101F93003400FC09E687F0D2E7A42DCC35F0FDE44C
:101FA30033FA0918E687F0D2F7A42CCD35F0CA34FA
:101FB30000FC08E687F0D2E7D2F7A42ACC35F07A02
:101FC3007E20E70B0ACB33CBCD33CDCC33CC33CB15
:101FD3003350147004ED30E00ED2F1E4CD3DCDCC9E
:101FE3003CCC3B5005DA05C2F1EB547FC63308E61F
:101FF3003392F0FBE73309E733C39A502D2B701963
:102003000C0D4C4D70151806E608C333700D20F106
:102013000AA2F013F6E418800B4024E4F630F00231
:10202300768018F618F618F68024D33B14501074F3
:10203300FFA2F013F6187680E418F618F6800FA2C4
:10204300F013F618E63303F618ECF618EDF6D0E0C5
:10205300FDD0E0FCD0E0FBD0E0FA22121E0860467F
:10206300121DF9603DE9687008F618F618F618F6BF
:1020730022748067F7122092090909748067F72296
:10208300121DF9601D121E087005191919801A1204
:102093001DD1701F121DE5C37003E66733191919AB
:1020A30040071818182208080874FFF618F618F6DF
:1020B30018F622121DE56017121DC8702192F01246
:1020C3001DBF7019501720F014080808090909E703
:1020D300F61819E7F61819E7F61819E7F622121D8C
:1020E300BF60E6E869701F0808E62480F608E43656
:1020F300F618547FB47F0CE654806007F6E418F6B4
:1021030018F622181822E9C6CC08C6CD08C6CE0890
:10211300C6CFC0E0E8C0E0EAC0E0EBC0E009E9F800
:1021230009E7FA09E7FBE6F918E6F8C3EC98ED9935
:10213300EE9AEBC2E7F5F0EFC2E795F0500E600CB4
:10214300EBCFFBEACEFAE9CDF9E8CCF8EAA2E7D285
:10215300E7FAEB33FB13F5F0EEA2E7D2E7FEEF333A
:10216300FFC5F013A2E730E601B313C5F0C3C0E027
:10217300C0F07F00C39BFB605E9418600F401D148A
:10218300601AD0E023F9D0E0F80222648AF0E9482B
:102193006003D2F0E4AFF0FAF9F8803BEB30E40DE2
:1021A30089F0EA6003D2F0E4AFF0F9CAF8EB30E368
:1021B3000D88F0EF6002D2F0AFF0E4CAC9F8EB5437
:1021C300076014FBC3EA13FAE913F9E813F8EF13F2
:1021D3005002D2E0FFDBEDD0E0C0E030E739C3E4EA
:1021E3009FFFF5F0EC98FC42F0ED99FD42F0EE9A7A
:1021F300FE42F0D0E0F9D0E0F8E5F0607AE923F9A7
:10220300EE20E742D8028067C3EF33FFEC33FCEDE7
:1022130033FDEE33FE80EAEC28FCED39FDEE3AFEA9
:10222300D0E023F9D0E0F84002801BC3EE13FEEDAB
:1022330013FDEC13FCEF135002D2E0FF08B80006C5
:102243007F7F74FF802EEF3350178CF020F00260F5
:10225300100CBC000C0DBD00080EBE000408E860A5
:10226300DFE933E813FFEE2313FE4F4D4C8008E9FB
:102273005480FFE4FEFDFCEE33EF33F47004FCFD09
:102283007E80D0E0FBD0E0FAD0E0F8D0E0CFC618F3
:10229300CEC618CDC618CCC6F922121DF970041883
:1022A300181822121E08700D74FFF61819F6181963
:1022B300F61819F622E7548066F6121DBF700F1246
:1022C3001DC870F014F608F608F608F680D1121D42
:1022D300C8700CF608F608768008E6447F80EC1296
:1022E3001DE8700C121DD460BFE65480F6E480BB79
:1022F300121DD4700519191980A5E869700C763F71
:1023030018768018F618F6E8F922E6CDC0E018EC46
:10231300C0E0E633CD33CDD313F6E719FCE7191943
:1023230033CC33C3947F400ECD9D502408E65480B4
:10233300F6E418F6800FF4043D14501408E6447FC5
:10234300F6187680E418F618F6D0E0FCD0E0FD220B
:10235300CCD313CCFD18E4C6CBC0E018E4C6CAC086
:10236300E00808ED08C633E613F618E433C675F043
:1023730003C3CA97CA09CB97CB199C40047D088035
:102383002EBD000302244616B6FF050606081618DE
:10239300C3CA33CACB33CB33CA27CA09CB37CB190A
:1023A3003CC37D08803E187D0820E75CC633C6CA5F
:1023B30033CACB33CB33DDF1D5F0EB30E77BCA97B0
:1023C300CA09CB974ACB199C406F4B7025E620E096
:1023D300218066187D08C3CA97CA09CB97CB199C7D
:1023E300D3C633C6CA33CACB33CB3350C9DDE7D5E3
:1023F300F0E1D3E4C636C608C636C608C636C608F4
:10240300C636C61818188031C3CA97CA09CB97CBEA
:10241300199CB34097C633C6CA33CACB33CB33DD1B
:1024230034D5F02EC6A2E0C640C8CA27CA09CB37A6
:10243300194A70BECB3CB480B90808E63308E633CA
:10244300601F181818D0E0FAD0E0FBD0E0FCD0E011
:10245300FD22187D08CA27CA09CB37CB193CD38084
:102463008013F618E4B67F11F618B6FF0EF618C6F9
:102473000470D20808768080CAF618F618F680C56C
:10248300080808EAC0E0EBC0E086F0E7A4FA180900
:1024930086F0E7A42AFA180986F0E7A42AFA1809AD
:1024A30086F0E7A42AFA1986F0E7A4FBE5F02AFAF6
:1024B300190886F0E7A42BFBE5F03AFA190886F031
:1024C300E7A42BFBE5F03AFA18180986F0E7A4C550
:1024D300F02BFBE43AFA1908E7C5F0C6A426F6E5A3
:1024E300F03BFBE43AFA1886F0E7A4F6E5F0082699
:1024F300F6E43B08F6E43A08F6D0E0FBD0E0FA2233
:10250300E4CFC0E0E4CEC0E0E4CDC0E0E4CCC0E082
:1025130075F020E626F608E633F608E633F608E615
:1025230033F6181818EC33FCED33FDEE33FEEF33BE
:10253300FFC3EC9709ED9709EE9709EF971919195E
:10254300400FFFEC97FC09ED97FD09EE97FE191973
:1025530006D5F0BFECF709EDF709EEF709EFF71928
:102563001919D0E0FCD0E0FDD0E0FED0E0FF221846
:102573001818E4C396F608E496F608E496F608E419
:1025830096F6226016080808C6C313C618C613C6F3
:1025930018C613C618C613C6D5E0EA227009080880
:1025A30008226016181818C6C333C608C633C608EF
:1025B300C633C608C633C6D5E0EA22E627F60809BD
:1025C300E637F60809E637F60809E637F622E02685
:1025D300F608A3E036F608A3E036F608A3E036F6DD
:1025E30022E026F008A3E036F008A3E036F008A3C3
:1025F300E036F022C3E697F60809E697F60809E6FF
:1026030097F60809E697F622C3E0C696F608A3E014
:10261300C696F608A3E0C696F608A3E0C696F62289
:10262300C3E096F008A3E096F008A3E096F008A3B1
:10263300E096F022E657F60809E657F60809E6574A
:10264300F60809E657F622E056F608A3E056F60820
:10265300A3E056F608A3E056F622E056F008A3E0FE
:1026630056F008A3E056F008A3E056F022E066F621
:1026730008A3E066F608A3E066F608A3E066F62280
:10268300E0F608A3E0F608A3E0F608A3E0F622E6E6
:10269300F008A3E6F008A3E6F008A3E6F022E0FAC8
:1026A300A3E0FBA3E0FCA3E0FD22EAF0A3EBF0A38D
:1026B300ECF0A3EDF022E0F8A3E0F9A3E0FAA3E045
:1026C300FB22E8F0A3E9F0A3EAF0A3EBF022CAC0EF
:1026D300E0E6F0A308DAFAD0E0FA22CAC0E0E0A309
:1026E300C582CCC582C583CDC583F0A3C582CCC5C5
:1026F30082C583CDC583DAE6D0E0CA22C3E498F865
:10270300E499F91227408026C3E49AFAE49BFBE993
:1027130020E7E9122740E498F8E499F922C3E49802
:10272300F8E499F9122740E498F8E499F9C3E49A94
:10273300FAE49BFB22EB20E7CFE920E7E0B90010A6
:10274300BB0008E88AF084F8AAF022E4FBC8FA2266
:10275300EB70227B10C833C8C933C9335007C39AFF
:10276300C3DBF280069A50012ADBEAC833F4C8C9F6
:1027730033F4C9FA2275F008E4C833C8C933C9333E
:10278300C99AC99B5004C92AC93BD5F0ECFBC8338D
:10279300F4C8E4C9FA22600D08C6A2E713C618C636
:1027A30013C6D5E0F322600C08C6C313C618C613BC
:1027B300C6D5E0F422700422600D18C6C333C608E0
:1027C300C633C6D5E0F41822251810AF08F5184013
:1027D3000C15198008F51840021519D2AF2200C054
:1027E300D0251810AF08F518500C05198008F518F6
:1027F30050020519D2AFD0D0222518F58210AF08A8
:10280300F518400C15198008F51840021519D2AFB8
:10281300851983222518F582E43519F583222518B5
:10282300F8E43519F9222518FAE43519FB2225189D
:10283300FCE43519FD22E4732518C582C0E0E519CF
:1028430034FFC583C0E0E518C3958224F810AF08B0
:102853008583198582188008858319858218D2AFEC
:10286300CEF0A3E520F0A37808E608F0A3DEFAEFA4
:10287300F0A3E58124FAF8E608F0A3E608F0A3E65E
:1028830008F0A30808E608F0A3E608F0A3158115ED
:1028930081D0E0FED0E0F8158115811581E8C0E014
:1028A300EEC0E0222518C582C0E0E51934FFC583D8
:1028B300C0E0E518C3958224F910AF088583198514
:1028C30082188008858319858218D2AFCEF0A3E5DC
:1028D30020F0A37808E608F0A3DEFAEFF0A3E58181
:1028E30024FBF8E608F0A3E608F0A30808E608F0DE
:1028F300A3E608F0A315811581D0E0FED0E0F8151A
:10290300811581E8C0E0EEC0E02285198385188235
:10291300E0A3FEE0A3F5207808E0A3F608DFFAE0E1
:10292300A3FFE0A3C0E0E0A3C0E0E0A3C0E0E0A316
:10293300C0E0E0A3C0E010AF08858218858319804A
:1029430008858218858319D2AFD083D08202011FF4
:10295300851983851882E0A3FEE0A3F5207808E0BB
:10296300A3F608DFFAE0A3FFE0A3C0E0E0A3C0E022
:10297300E0A3C0E0E0A3C0E010AF08858218858320
:10298300198008858218858319D2AFD083D082221B
:10299300C0D02518C582C0E0E51934FFC583C0E067
:1029A300E518C3958224F310AF088583198582182F
:1029B3008008858319858218D2AFC8F0A3E9F0A3F4
:1029C300EAF0A3EBF0A37908E709F0A3D8FAECF057
:1029D300A3EDF0A3EEF0A3EFF0A3D0E0F0A3D0E0DB
:1029E300F0A3D0E0F0A3E520F0A3E5F0F0A3228567
:1029F3001983851882E0C0E0A3E0F9A3E0FAA3E01D
:102A0300FBA37808E0F608A3DFFAE0FCA3E0FDA34C
:102A1300E0FEA3E0FFA3E0C0E0A3E0C0E0A3E0F595
:102A2300D0A3E0F520A3E0A3F5F010AF0885831948
:102A33008582188008858319858218D2AFD082D009
:102A430083D0E0F8D0E0327404800674028002740C
:102A530001C0E0F4041227FCD0E01226D122740452
:102A6300800474028000CCC0E0EDC0E0E518C39C94
:102A7300CCAD1950011D10AF068C188D1980068C32
:102A8300188D19D2AF1226DED0E0FDD0E0FC22D0A3
:102A930083D082E9C0E0E493A3C386F0C5F095F048
:102AA300F908E493A386F0C5F095F0700BE493A3C3
:102AB300C3994005E9048002A3E475F002A42582CA
:102AC300F582E5F03583F583D0E0F9E493A3C0E024
:102AD300E493C0E022D083D082ECC0E0EDC0E0E418
:102AE30093A3FCE493A3FDED4C600D122B24EC2483
:102AF300FFFCED34FFFD80EFE493A3FCE493A3FD1F
:102B0300ED4C600D122B63EC24FFFCED34FFFD80D4
:102B1300EFD0E0FDD0E0FCE493A3C0E0E493C0E099
:102B230022C0E0C3E49396087401939618400FE41F
:102B33009366700808740193661870007019A3A354
:102B4300C3E49396087401939618A3A3400DD0E0B1
:102B5300D0E0D0E0022B14A3A3A3A3A3A3D0E0222D
:102B6300C0E0C0F088F0E4936670080874019366CF
:102B7300187000A8F0A3A3700BD0F0D0E0D0E0D081
:0B2B8300E0022B14A3A3D0F0D0E0224E
:102B900074F61228A7EAFEEBFF8C088D09EE2434A8
:102BA000F8E43FF9E8FCE9FD122CC2E0FAEE243724
:102BB000F582E43FF583E0F88508F0A4C885F00AC3
:102BC0008509F0A4250AF9EA28F8E439F97A257B81
:102BD00000122740EA8C828D83F0FA131313541FDE
:102BE000F8EE28F8E43FF9E8245DF582E439F5834E
:102BF000E0C0E074075AF8D0E0B800028004C313C4
:102C0000D8FCA2E05003EA8020EE2436F582E43FAF
:102C1000F583E0F5F0EA84A8F0EE28F8E43FF9E85F
:102C20002438F582E439F583E0F97F0302295374EF
:102C3000F51228A7EAFEEBFFEE2434F582E43FF517
:102C400083E0C0E0122CC2D0E0F08E828F83A3A379
:102C5000A3A3A3E0FAA3E0FB8E828F83A3A3A3A385
:102C6000A3A3A3E0C39AF508A3E09BF509EE247F94
:102C7000F8E43FF9880A890B8882F583E0640170E3
:102C80002CEE2480F582E43FF583EA2401F8E43B4E
:102C9000F9E0687003A3E06970137C1A7D08EEFA0E
:102CA000EFFB12100E850A82850B83E4F0AC08ADB1
:102CB00009EEFAEFFB122B90E9F91235337F04028B
:102CC0002953EE2435F582E43FF58322C082C08388
:102CD000851882851983E0F8A3E0F9C3EA9CEB9D8F
:102CE0005010C3EC98ED99401BC3EA98EB9950142F
:102CF000800EC3EA98EB994007C3EC98ED99400425
:102D0000790180027900D083D08222EAC39CFAEB59
:102D10009DFB2274ED1228A79004C3E064086005AF
:102D2000E06407702C9061C8E060269004F1E0F840
:102D300074FF68601CE875F00DA4C8AAF02AF97445
:102D4000F328FE740439FF8E828F83A3A3A3E0705F
:102D5000057900022EB5EE2468F50EE43FF50F90DC
:102D60006060E0850E82850F83F07510B4751108E0
:102D7000750800750900E5D914F50AE5D95403F57D
:102D80000B601FEE2483F50CE43FF50D7403650B17
:102D90006059E50A6017EE2467F582E43FF583E0A9
:102DA000700B793DEEFAEFFB12103E80A49008AF55
:102DB000E064016023850C82850D83E060047A0461
:102DC00080027A00E50AC39AFA95E0FB120DF28AB6
:102DD000088B09EA4509700612132C022D51850C47
:102DE00082850D83E070048A108B117A008014E5CF
:102DF000D9C0E0EAF8E51028F582E43511F583D072
:102E0000E0F00AEAC3950A40E6850C82850D83E06E
:102E1000602874FC250AF50A7810122A4EAC0AA91B
:102E20000BEEFAEFFB1210F874021227E1E9700AB8
:102E3000AA08AB091218DE022DA27403650B6054B8
:102E4000850A0C750D00780C122A4EAC10AD11AA33
:102E500008AB091210BC74021227E1850E82850F9F
:102E600083E0F87480687005750C7F8002880CE53B
:102E70000CF50D780D122A52780B122A52A90AACC1
:102E800008AD099004F1E0FA7B00120C12740212F2
:102E900027E1801C9004C3E06408AC10AD117009F8
:102EA000EEFAEFFB1211288007EEFAEFFB1211E2A7
:102EB00012133879017F0C02295374F31228A77476
:102EC000FC1227CBEAFEEBFF8909A2AFE433F50839
:102ED000C2AFEE2463F50AE43FF50B8010AA0AABFB
:102EE0000B1210741218DE900821E004F0850A829B
:102EF000850B83E0F8A3E0F9E849602DE82402FAA5
:102F0000E439FBEA2402F50CE43BF50D780C122AB7
:102F10004E8A828B83E0FCA3E0F9EEFAEFFB1210FD
:102F20006874021227E1E960B4900821E0604D90D6
:102F30000822E0F8900821E0C398500C740265095B
:102F4000703A900823E060348E828F83A3A3A3A3FA
:102F5000E0851882851983122F8C7402122817E8D5
:102F6000122F8C900820E028F07402122831AA1841
:102F7000AB197901120C72900821E4F0E508A2E087
:102F800092AF74041227E17F06022953F0A3E4F004
:102F9000900821E0F82200008521878522C622C002
:102FA000E074EB122993A2AFE433F508C2AF759B2E
:102FB00000906182E0A2E05030E591A2E0502A75D5
:102FC00091FE74016521702112313212123C1231CE
:102FD00020122A611232DD74041227E1E9640170C3
:102FE00005790112128A122D13906182E0A2E55038
:102FF0005DE591A2E550577591DF9004C3E0640749
:103000006005E06408702F12313274016521703E52
:1030100012123C123120122A611232DD740412277E
:10302000E1E964017005790112128A7901EEFAEF83
:10303000FB122EBA8018E0640D70139004E5E004D2
:10304000F064287002E4F07A00E0F912133E906117
:1030500082E0A2E640030230F5E591A2E6400302D9
:1030600030F57591BF9004C3E06405700812122416
:10307000121230800312122A7521001212A8E99050
:1030800004C4F0790012128A120F307A017B00908A
:1030900004C2E0F91218AE907803E06442705690D2
:1030A00008B3E014F0704EC2AF1230AC00782AD0F2
:1030B000E0F618D0E0F6E59F5407F87005750DFFAF
:1030C0008003750D7FC4C0E07829E6F50A08E6554F
:1030D0000DF50B740B780A1227A9D0E0250AF89099
:1030E0006270E0A2E740F8E8C333906272F0906249
:1030F00070E0D2E0F0906181E0A2E35009E5E9A23E
:10310000E3500375E9F7A3E0A2E75009E591A2E7D0
:10311000500375917FE508A2E092AF7F080229F283
:103120008E828F83E0F8A3E0C82416F582E438F598
:1031300083229004F1E0F875F00DA4C8AAF02AF9F2
:1031400074F328FE740439FF22C0E0C0D0C082C0EE
:1031500083906183E0A2E05009E5BFA2E0500375CF
:10316000BFFEE0A2E15009E5BFA2E1500375BFFD3B
:10317000E0A2E25009E5BFA2E2500375BFFBE0A266
:10318000E35009E5BFA2E3500375BFF7E0A2E450A6
:1031900009E5BFA2E4500375BFEFE0A2E55009E5E1
:1031A000BFA2E5500375BFDFE0A2E65009E5BFA26C
:1031B000E6500375BFBFD083D082D0D0D0E032C0FC
:1031C000E074F2122993E5A7A2E4500FE5A1A2E46E
:1031D000500953A7EF75A1EF123213E5A7A2E550EE
:1031E0000CE5A1A2E5500653A7DF75A1DFE5A7A274
:1031F000E15009E5A1A2E1500375A1FDE5A7A2E216
:10320000500CE5A1A2E2500653A7FB75A1FB7F017C
:103210000229F274F81228A77521019004C3E06412
:103220000670077A007B0012120CA2AFE433FED2C4
:10323000AF9004C9E0640170187A207B009004C24A
:10324000E0F91219EC7A207B009004C2E0F9121820
:10325000B4906182E0D2E6F09008B0E0602185C6CB
:103260002280169004C8E064017008E5C654F84452
:1032700005F5C653BEFC122F987401652160E4EE7B
:10328000A2E092AF7F010229530000008E238F2419
:10329000858228858327851882851983E0CEA3E05F
:1032A000CF852882852783EBC9EAC8EDCBECCA75A8
:1032B000F010C3E833C8E933C9EA33CAEB33CBC3F0
:1032C000EA9EF526EB9FF525B35004AB25AA26EC24
:1032D00033CCED33CDD5F0DAAE23AF242274F11226
:1032E00028A78A088B098C0A8D0B9095F478081210
:1032F000264A740F122817780C1226839095F478BA
:103300000C12264A7808790C121C7990964C5010B1
:103310007808790C1225F77808121C994014800E51
:10332000780C79081225F7780C121C995004790151
:10333000800279007F0802295374ED1228A78A08B9
:103340008B098C0A8D0B9095F4780812264A741319
:10335000122817780C1226839095F4780C12264ABE
:10336000780C7908121C7940117808790C1225F72D
:10337000AA08AB09AC0AAD0B8022751000751100CC
:103380007512007513017810790C1225F7781079F1
:10339000081225BEAA10AB11AC12AD137F0C022986
:1033A000539095F478081226838A828B83780812CA
:1033B000265D7F0402295374F51228A78C828D8321
:1033C00078081226838A828B837808122623123487
:1033D0000BC3E098F0A3E0991233FD401E9095ECEA
:1033E00078081226838A828B8378081225E48E82DD
:1033F0008F83E02420F0A3E0344EF080A4F08E828E
:103400008F83C3E09420A3E0944E22EA2404F8E4DE
:103410003BF9E8FEE9FF8C828D83A3A3A3A3E0F828
:10342000A3E0F98E828F832274F51228A7E9FE901B
:10343000083CE0FAA3E0FBEE29F8E433F9748728AE
:10344000F582749139F583E02AF508A3E03BF5098C
:103450007808122A4E9096001226A112328C74021D
:103460001227E18A088B098C0A8D0B7410780812D8
:103470002586AA08AB097F0402295374F11228A7F4
:103480008A0C8B0D8C0E8D0F7411122817122A6561
:103490007411122817E02401F508A3E03400F5099F
:1034A000E4F50AF50B780C79081224839096487895
:1034B00008122683780C7908122483AA0CAB0DAC71
:1034C0000EAD0F12328C74021227E18B09EA450906
:1034D00060047A0180027A00EC2AFCE43DFD74135A
:1034E000122817E0F8A3E0F9E8FEE9FFECF8EDF99F
:1034F0007A717B0212274088088909E4F50AF50BE6
:103500008E828F837808122692ECF8EDF97A717B1F
:10351000021227408A088B09740578081227B88E92
:10352000828F83A3A3A3A3E508F0A3E509F07F0896
:10353000022953C082C083E9906000F0D083D0821A
:1035400022C0E074F2122993A2AFE433FED2AFC2DC
:10355000C0E5D1A2E4500675D10F1217EEEEA2E03D
:1035600092AF7F010229F2C0E074F2122993A2AF58
:10357000E433FED2AFE589A2E14006E589A2E2503C
:1035800003121770758900758900C2C5EEA2E0921A
:10359000AF7F010229F2C0E074F2122993A2AFE4D6
:1035A00033FED2AFE58BA2E05003121770758B008B
:1035B000C2E8EEA2E092AF7F010229F2C0E0C0D0E3
:1035C000E8C0E0A2AFE433F8D2AFC2C7E8A2E0920D
:1035D000AFD0E0F8D0D0D0E032C0E0C0D0E8C0E05A
:1035E000E9C0E0EAC0E0EBC0E0C082C083A2AFE483
:1035F00033F9D2AF90113CE0F890113DE068700BC8
:10360000539AFB90113E7401F0802EC2E990113C58
:10361000E0F874012890113CF0E8FA7B0074BC2AB1
:10362000F58274103BF583E0F5C190113CE0C39442
:1036300080400690113C7400F0E9A2E092AFD08384
:10364000D082D0E0FBD0E0FAD0E0F9D0E0F8D0D0E2
:10365000D0E032C2AF0200002202011FFFFFFFFFD5
:10366000FFFFFFFFEAF8EBF9E824FFFAE934FFFB7C
:10367000E84960217800790078DC7905C3E8940195
:10368000E99400A2D265D03340DA00E824FFF8E9DB
:1036900034FFF980E702011F74F712283B8908788C
:1036A00000800108E8C395085022E8FE7F00EA2E5A
:1036B000F582EB3FF583E0F9E8FE7F00EC2EF58222
:1036C000ED3FF583E06960DB7900800279017F01DD
:1036D00002290D74F012283BE9FE7C007508007584
:1036E0000900750A00750B00803A90966C780C12F0
:1036F00026837808790C122483ECF87900EA28F5FF
:1037000082EB39F583E0F87900E824D0F50CE93450
:10371000FFF50DE50D3395E0F50EF50F7808790C02
:103720001225BE0CECC39E500FECF87900EA28F588
:1037300082EB39F583E070B2AA08AB09AC0AAD0B95
:103740007F0802290D74F712283B74EF1227CB90E3
:103750009155AC18AD1974111226DE78F3791988D9
:103760008289837430F088828983A3A882A98388A0
:103770008289837478F088828983A3A882A983EAE6
:103780002406FA50010B7E06806AEA24FFFAEB3425
:10379000FFFB8A828B83E0C4540FFC7D0085188276
:1037A000851983E5822CF582E5833DF583E0C0E051
:1037B00088828983D0E0F088828983A3A882A98344
:1037C0008A828B83E0FC7D00EC540FFCED5400FDFD
:1037D000851882851983E5822CF582E5833DF58382
:1037E000E0C0E088828983D0E0F088828983A3A842
:1037F00082A9831EEE7093888289837400F07AF325
:103800007B1974111227E17F0102290DC082C08348
:103810007C3A7D197AB679801219B6E9D083D082C4
:1038200002011F74F712283BE9FEEE60030238BE66
:1038300090193A7404F090193B7400F090193C749C
:1038400000F090193D7400F07C907D947A3E7B19D5
:10385000121C2690194A7400F07C637D957A4B7B8C
:1038600019121C269019527400F07C0D7D0079000D
:103870007A537B1912186C90196D7400F090196EC0
:103880007400F07C787D0079007A707B1912186CD6
:103890009019E87400F0A37400F09019EA7400F035
:1038A0009019EB7400F09019EC7400F09019ED741D
:1038B000F4F0A37401F09019EF7400F0802B740100
:1038C0006E70267C0D7D0079007A537B1912186C7E
:1038D00090196D7400F090196E7400F07C787D0082
:1038E00079007A707B1912186C7C007D0079007A5F
:1038F000097B041215EAE9121A6A7F0102290D7484
:10390000F412283B74D31227CB90193AE0F50875CE
:1039100009007808122A4E7CD47D8E740212282960
:10392000121C2674021227E1AA18AB1912184E8A2B
:10393000088B09AC08AD09AA18AB191218187A64DB
:103940007B00121A5290193BE0F5087509007808BF
:10395000122A4E7C3C7D8F7402122829121C267478
:10396000021227E1AA18AB1912184E8A088B09AC6B
:1039700008AD09AA18AB191218187A647B00121A3C
:103980005290193CE0F5087509007808122A4E7C1F
:10399000097D8F7402122829121C2674021227E155
:1039A000AA18AB1912184E8A088B09AC08AD09AADF
:1039B00018AB191218187A647B00121A5290193D2C
:1039C000E0F5087509007808122A4E7C597D90743C
:1039D00002122829121C2674021227E1AA18AB1918
:1039E00012184E8A088B09AC08AD09AA18AB191237
:1039F00018187A647B00121A5275083E75091978F6
:103A000008122A4E7C427D907402122829121C262C
:103A100074021227E1AA18AB1912184E8A088B09F2
:103A2000AC08AD09AA18AB191218187A647B0012F9
:103A30001A5290194AE0F5087509007808122A4EC2
:103A40007CFD7D8F7402122829121C267402122715
:103A5000E1AA18AB1912184E8A088B09AC08AD09F7
:103A6000AA18AB191218187A647B00121A5275083A
:103A70004B7509197808122A4E7C877D90740212C2
:103A80002829121C2674021227E1AA18AB19121851
:103A90004E8A088B09AC08AD09AA18AB1912181880
:103AA0007A647B00121A52901952E0F508750900E9
:103AB0007808122A4E7C2B7D907402122829121C41
:103AC0002674021227E1AA18AB1912184E8A088B25
:103AD00009AC08AD09AA18AB191218187A647B0052
:103AE000121A527508537509197808122A4E7C9ECD
:103AF0007D8E7402122829121C2674021227E1AA54
:103B000018AB1912184E8A088B09AC08AD09AA180F
:103B1000AB191218187A647B00121A5275080075D6
:103B20000900023BB49092857420122831740D1262
:103B300026DE750A0C750B00780A122A4EA808A911
:103B400009E875F00CA4C8AAF075F000A42AFA756B
:103B5000F00CE9A42AF9747028FC741939FD742258
:103B600012282912185474021227E17420122821F5
:103B7000880A890B780A122A4E7808122A4E7C5E2F
:103B80007D937404122829121C2674041227E1AABA
:103B900018AB1912184E8A0A8B0BAC0AAD0BAA1877
:103BA000AB191218187AC87B00121A520508E508DA
:103BB0007002050990196DE0F87900C3E50898E5F1
:103BC0000999A2D265D0335003023B259019E8121F
:103BD0002A657C587D8E7402122829121C267402D4
:103BE0001227E1AA18AB1912184E8A088B09AC08E3
:103BF000AD09AA18AB191218187A647B00121A5270
:103C00009019EAE0F5083395E0F5097808122A4E94
:103C10007C707D907402122829121C2674021227CF
:103C2000E1AA18AB1912184E8A088B09AC08AD0925
:103C3000AA18AB191218187A647B00121A5290193C
:103C4000ECE0F5087509007808122A4E7CEF7D8EAD
:103C50007402122829121C2674021227E1AA18AB3A
:103C60001912184E8A088B09AC08AD09AA18AB19AD
:103C70001218187A647B00121A529019ED122A65F4
:103C80007C2E7D8E7402122829121C2674021227A3
:103C9000E1AA18AB1912184E8A088B09AC08AD09B5
:103CA000AA18AB191218187A647B00121A529019CC
:103CB000EFE0F5087509007808122A4E7CB97D8E70
:103CC0007402122829121C2674021227E1AA18ABCA
:103CD0001912184E8A088B09AC08AD09AA18AB193D
:103CE0001218187A647B00121A52742D1227E17F81
:103CF0000402290DC082C08390194AE0F9D083D014
:103D00008202011FC082C083121A7CE96401701014
:103D1000901A73E064027004790180127900800EB9
:103D2000901A7EE064067004790180027900D083E5
:103D3000D08202011F74F412283B74F41227CBEADC
:103D4000FEEBFF121A7CE964016003023DFE750878
:103D5000008002050890196DE0F8E508C39850331B
:103D6000AA18AB19A908121A8EE96027750A0C75F2
:103D70000B00780A122A4EEEFCEFFD74021228297D
:103D800012186674021227E1E960C8E50890196FFD
:103D9000F0806B75080C7509007808122A4EEEFC4D
:103DA000EFFD90196EE0F87900E875F00CA4C8AA50
:103DB000F075F000A42AFA75F00CE9A42AF97470E1
:103DC00028FA741939FB12185474021227E1901959
:103DD0006EE090196FF090196EE02401F090196E6A
:103DE000E075F00A84E5F090196EF090196DE0C36B
:103DF000940A500790196DE02401F0121A6A740CAD
:103E00001227E17F0402290D74F412283B8908EA85
:103E1000FEEBFF121A7CE96401704890196DE0F81E
:103E2000E508C398503D750A0C750B00780A122AF4
:103E30004EE508F87900E875F00CA4C8AAF075F012
:103E400000A42AFA75F00CE9A42AF9747028FC740D
:103E50001939FDEEFAEFFB12185474021227E179BA
:103E600001800279007F0402290D02011FC082C077
:103E70008390193CE0FD90193BE0FC90193AE0F981
:103E80007AE87B1A12180C121A7CE96401700D7C16
:103E9000157D007A9E7B90121818800B7C187D008F
:103EA0007A557B8F121818D083D08202011F74ECD0
:103EB00012283B7E31750C00750D00750E40750F94
:103EC00040121BE48A088B09A808A909EEFA7B00B6
:103ED000E8C39AF508E99BF509E5093395E0F50A89
:103EE000F50B7808121CB89096707810122683781B
:103EF0000C7910121EDE7808790C12229D780812B7
:103F00002A4A9096701226A1121C1A74041227E1F4
:103F10007F0C02290D74F512283B780079007C0093
:103F20007D007E007F007508E8750903901A0CE09B
:103F3000640560030240B6901A0DE0F8A3E0F9E8CA
:103F400075F002A4C885F00A75F000A4250AF50AE8
:103F500075F002E9A4250AF9740228F582741A3969
:103F6000F583EAF0A3EBF0901A0DE02401F0A3E052
:103F70003400F0901A0DE0F8A3E0F97A057B001206
:103F80002738901A0DEAF0A3EBF078007900024090
:103F900088E8FAE9FBEA75F002A4CA85F00A75F030
:103FA00000A4250AF50A75F002EBA4250AFB7402A9
:103FB0002AF582741A3BF583E0FAA3E0FBC3EE9A7C
:103FC000EF9BA2D265D0335028E8FAE9FBEA75F0FE
:103FD00002A4CAAEF075F000A42EFE75F002EBA4A8
:103FE0002EFB74022AF582741A3BF583E0FEA3E0EF
:103FF000FFE8FAE9FBEA75F002A4CA85F00A75F059
:1040000000A4250AF50A75F002EBA4250AFB740248
:104010002AF582741A3BF583C3E09508A3E095095D
:10402000A2D265D033502EE8FAE9FBEA75F002A47B
:10403000CA85F00875F000A42508F50875F002EBB4
:10404000A42508FB74022AF582741A3BF583E0F577
:1040500008A3E0F509E8FAE9FBEA75F002A4CA85CD
:10406000F00A75F000A4250AF50A75F002EBA42504
:104070000AFB74022AF582741A3BF583E02CFCA338
:10408000E03DFD08E8700109C3E89405E99400A249
:10409000D265D0335003023F91ECC39EF8ED9FF9F7
:1040A000E8C39508F8E99509F97A037B00122738E7
:1040B000E8FAE9FB8036901A0CE0F87900E875F030
:1040C00002A4C8ACF075F000A42CFC75F002E9A4C1
:1040D0002CF9740228F582741A39F583EAF0A3EBFF
:1040E000F0901A0CE02401F07A007B007F03022993
:1040F0000D74F012283B74E01227CBE9FEEE901904
:10410000EAF0121A82E9700302419EEEFA3395E05A
:10411000FB121AA08A088B098C0A8D0B9096747872
:104120000C1226837808790C121EDE7808121D30D6
:10413000AA08AB09121AA68A088B097808122A4E17
:10414000EEF404F5087509007808122A4E7C447DC7
:10415000917404122829121C2674041227E1901964
:10416000F1E0603AAA18AB19121C388A088B09AC26
:1041700008AD09AA18AB19121818AA18AB19121C05
:10418000388A088B09AC08AD09AA18AB1912054C7E
:10419000E97A107B00901A3EE0F91218AEE974201B
:1041A0001227E17F0802290D74F612283B74E812E9
:1041B00027CB908F86AC18AD1974181226DE7508BF
:1041C0004B7509197808122A4E7C4E7D92740212A2
:1041D0002829121C2674021227E1AA18AB191218FA
:1041E0004E8A088B09AC08AD09AA18AB1912181829
:1041F00074181227E17F0202290D7A3E7B19020111
:104200001FC082C083121B12D083D08202011FC044
:1042100082C083901952E0F9D083D08202011F74CA
:10422000F012283B79067A4B7B19121A5E8A0C8BA6
:104230000D8C0E8D0F850C08850D09850E0A850FD6
:104240000B909600780C1226837808790C122503BF
:10425000AA0CAB0DAC0EAD0F7F0802290DC082C0B9
:104260008390193DE064027004790180027900D0E6
:1042700083D08202011FC082C08390193DE0700488
:10428000790180027900D083D08202011F74F61276
:10429000283B9019F2E0640370047900807690194D
:1042A000F2E0640160089019F2E064047041901932
:1042B0006DE0605E75080C7509007808122A4E9052
:1042C000196FE0F87900E875F00CA4C8ACF075F04F
:1042D00000A42CFC75F00CE9A42CF9747028FC7473
:1042E0001939FD12185474021227E17901802590C2
:1042F00019F2E06402701B75080C75090078081249
:104300002A4E7C607D1912185474021227E179013B
:10431000800279007F0202290D74F612283B901961
:10432000EDE0F508A3E0F509AA08AB09E4FCFD7F80
:104330000202290D74EB12283B74F41227CB8A1465
:10434000750B147405551470030245607E007F00E0
:104350009019F07400F0901CBDE0640170421218D6
:10436000248A088B09AE08AF09EE4F6030C3EE9483
:1043700015EF940040047E147F00EEFAEFFB121953
:10438000388A0A8B0B850A08850B09EEFCEFFDAA1B
:1043900008AB09121812AA08AB0912193E024560AF
:1043A0001218248A088B09AE08AF09EE4F701590D9
:1043B0001A137400F0A37400F0A37400F0A3740047
:1043C000F0024560901A131226B9E8494A4B702949
:1043D0001219FEEAF8EBF9ECFAEDFB901A0F12262F
:1043E000C5EEFCEFFDE4FEFF901A13ECF0A3EDF038
:1043F000A3EEF0A3EFF0024560121A82E970057592
:104400000B168003750B141219FE8A0C8B0D8C0E83
:104410008D0FE50BF87900C3EE98EF99502990962F
:1044200078C082C083850C10850D11850E12850F12
:1044300013901A0F781012260BD083D082781012A6
:104440001C994003024560750A00E50BFA7B0012D7
:1044500019388A108B11851008851109E50845095E
:10446000700E7C047D007ACF7B951218180245608F
:10447000E50BF87900C3E89EE99F5005850B0A809B
:1044800003EEF50A121A82E9600302450EE50AFC02
:104490007D00AA08AB09121812E50AC3940340472D
:1044A000E50AF87900E50828F8E50939F9E824FE75
:1044B000F582E934FFF583E0640D702BE50AF879A5
:1044C00000E50828F8E50939F9E824FFF582E93420
:1044D000FFF583E0640A700FE50AFC7D00AA08ABD3
:1044E00009121AEEE98002740070497CD77D94AA03
:1044F00018AB19121C26AA18AB1912184E8A108B69
:1045000011AC10AD11AA18AB191218188026E50AC3
:10451000FC7D00AA08AB09121812E50AFC7D00AA6E
:1045200008AB0912054CE97A107B00901A3EE0F9BD
:104530001218AEE9901A0F780C122692E50AF87953
:1045400000EEC398FCEF99FDE4FEFF901A13ECF027
:10455000A3EDF0A3EEF0A3EFF0AA08AB0912193E09
:10456000740C1227E17F0D02290D74E912283B74A7
:10457000B91227CBEAFEEBFF8C088D097514017583
:1045800015007404650870047400650970347904BA
:104590007CBB7D95EEFAEFFB121A58E960247CB6DD
:1045A0007D95AA18AB19121C26AA18AB1912184E21
:1045B0008A088B09AC08AD09AA18AB1912181802A1
:1045C00055777408650870047400650970167908D9
:1045D0007CBD7D94EEFAEFFB121A58E96006121AC0
:1045E00076025577740A65087004740065096003E3
:1045F0000246B779077CF67D94EEFAEFFB121A5863
:10460000E970030246B78E828F83A3A3A3A3A3A35B
:10461000A3E024D0604B1460481460451460421439
:10462000603F24F560030246B190193AE0F5087541
:1046300009007808122A4E7C6A7D93740212282998
:10464000121C2674021227E1AA18AB1912184E8AFE
:10465000088B09AC08AD09AA18AB19121818025535
:10466000778E828F83A3A3A3A3A3A3A3E024D090D8
:10467000193AF0121A6A90193AE0F50875090078AB
:1046800008122A4E7C527D937402122829121C268D
:1046900074021227E1AA18AB1912184E8A088B0966
:1046A000AC08AD09AA18AB191218187515010255F6
:1046B00077751400025577740A65087004740065F4
:1046C00009701679077C0E7D95EEFAEFFB121A58E9
:1046D000E96006751400025577740A650870047461
:1046E000006509701679077C167D95EEFAEFFB12CE
:1046F0001A58E96006751400025577740A65087047
:10470000047400650960030247C879077C1E7D9523
:10471000EEFAEFFB121A58E970030247C88E828F37
:1047200083A3A3A3A3A3A3A3E024D0604514604262
:1047300014603F24F360030247C290193DE0F5087E
:104740007509007808122A4E7C6A7D93740212283B
:1047500029121C2674021227E1AA18AB1912184E4E
:104760008A088B09AC08AD09AA18AB1912181802EF
:1047700055778E828F83A3A3A3A3A3A3A3E024D002
:1047800090193DF0121A6A90193DE0F5087509007C
:104790007808122A4E7C527D937402122829121C2A
:1047A0002674021227E1AA18AB1912184E8A088B38
:1047B00009AC08AD09AA18AB191218187515010231
:1047C0005577751400025577E508C3940AF8E50992
:1047D0009400F9C3E8940BE9940040030248A379DC
:1047E000077C267D95EEFAEFFB121A58E97003025A
:1047F00048A38E828F83A3A3A3A3A3A3A3E0643FB4
:10480000703575083E7509197808122A4E7C467D68
:10481000937402122829121C2674021227E1AA1886
:10482000AB1912184E8A088B09AC08AD09AA18AB4F
:10483000191218180255777C0C7D0079007A3E7B9E
:104840001912186CE50824F9F508E50934FFF50993
:104850007808122A4EEE2407FCE43FFD7A3E7B19CD
:1048600012185474021227E1121A6A75083E75096B
:10487000197808122A4E7C3A7D9374021228291264
:104880001C2674021227E1AA18AB1912184E8A08C6
:104890008B09AC08AD09AA18AB19121818751501C7
:1048A000025577740A6508700474006509703C79D4
:1048B000087C5A7D94EEFAEFFB121A58E9602C7CC2
:1048C000A67D93AA18AB19121C26AA18AB191218A8
:1048D0004E8A088B09AC08AD09AA18AB1912181832
:1048E0007900121A70751501025577740A650870FF
:1048F0000474006509701679087C637D94EEFAEF04
:10490000FB121A58E96006751501025577740A659D
:104910000870047400650960030249E579077CDFCB
:104920007D94EEFAEFFB121A58E970030249E58E06
:10493000828F83A3A3A3A3A3A3A3E024D0604214E4
:10494000603F24F260030249DF90194AE0F50875E0
:1049500009007808122A4E7C6A7D93740212282975
:10496000121C2674021227E1AA18AB1912184E8ADB
:10497000088B09AC08AD09AA18AB19121818025512
:10498000778E828F83A3A3A3A3A3A3A3E024D0F94C
:10499000E9700890194A7400F0800690194A740171
:1049A000F0121A6A90194AE0F508750900780812A1
:1049B0002A4E7C527D937402122829121C267402FE
:1049C0001227E1AA18AB1912184E8A088B09AC08F5
:1049D000AD09AA18AB19121818751501025577758B
:1049E0001400025577740A65087004740065097034
:1049F0001079087CB47D94EEFAEFFB121A58E97036
:104A000022740F65087004740065096003024AC4CB
:104A100079077C3E7D95EEFAEFFB121A58E9700398
:104A2000024AC48E828F83A3A3A3A3A3A3A3E0649B
:104A30003F703575084B7509197808122A4E7C9F0E
:104A40007D927402122829121C2674021227E1AAF0
:104A500018AB1912184E8A088B09AC08AD09AA18B0
:104A6000AB191218180255777508067509007808F1
:104A7000122A4EEE2407FCE43FFD7A4B7B191218F4
:104A80005474021227E19019517400F0121A6A75D9
:104A9000084B7509197808122A4E7C3A7D937402E6
:104AA000122829121C2674021227E1AA18AB191227
:104AB000184E8A088B09AC08AD09AA18AB19121850
:104AC00018025577740A650870047400650960035C
:104AD000024B8E79077C467D95EEFAEFFB121A5851
:104AE000E97003024B8E8E828F83A3A3A3A3A3A39B
:104AF000A3E024D0604214603F24F26003024B889C
:104B0000901952E0F5087509007808122A4E7C6A5F
:104B10007D937402122829121C2674021227E1AA1E
:104B200018AB1912184E8A088B09AC08AD09AA18DF
:104B3000AB191218180255778E828F83A3A3A3A3F3
:104B4000A3A3A3E024D0901952F0121A6A9019522C
:104B5000E0F5087509007808122A4E7C527D93749E
:104B600002122829121C2674021227E1AA18AB1976
:104B700012184E8A088B09AC08AD09AA18AB191295
:104B80001818751501025577751400025577C3E59D
:104B900008940AE5099400404579087CAB7D94EEC1
:104BA000FAEFFB121A58E960357508537509197840
:104BB00008122A4E7CED7D927402122829121C26BE
:104BC00074021227E1AA18AB1912184E8A088B0931
:104BD000AC08AD09AA18AB19121818025577740A57
:104BE00065087004740065096003024C7979087CDB
:104BF0006C7D94EEFAEFFB121A58E9607C121A7C75
:104C0000E96401706E90965874431228317404124E
:104C100026DE7E009019F27401F090196DE07004A8
:104C20007E0180057E00121B1EEEF83395E0F974BC
:104C300043122817E58228F582E58339F583E0F5EC
:104C4000087509007808122A4E7C9A7D9374021226
:104C50002829121C2674021227E1AA18AB1912186F
:104C60004E8A088B09AC08AD09AA18AB191218189E
:104C70000255777514000255777414650870047432
:104C80000065096003024D2979067C4E7D95EEFA98
:104C9000EFFB121A58E97003024D29909697744061
:104CA00012283174031226DE750800121A7CE9649A
:104CB0000170709019F27402F0750A0C750B00788F
:104CC0000A122A4EEE2406FCE43FFD7A607B19129C
:104CD000185474021227E1E508F87900744012288C
:104CE00017E58228F582E58339F583E0F508750933
:104CF000007808122A4E7C9A7D9374021228291299
:104D00001C2674021227E1AA18AB1912184E8A0841
:104D10008B09AC08AD09AA18AB19121818121B1E82
:104D2000025577751400025577740A65087004748B
:104D3000006509705579087C517D94EEFAEFFB12FD
:104D40001A58E96045121A7CE9640170377901123A
:104D50001A707C007D0079007A097B041215EAE95B
:104D60007CC77D93AA18AB19121C26AA18AB19127E
:104D7000184E8A088B09AC08AD09AA18AB1912188D
:104D800018025577751400025577740A6508700487
:104D9000740065096003024E5379087C247D94EE0B
:104DA000FAEFFB121A58E97003024E53121A7CE90B
:104DB00064016003024E53121A7CE964016003022D
:104DC0004E4D90196DE070247CF57D91AA18AB19B9
:104DD000121C26AA18AB1912184E8A088B09AC08A7
:104DE000AD09AA18AB191218180255777E00901950
:104DF0006DE0F8EEC3984003025577EEF87900E8CD
:104E000075F00CA4C8AAF075F000A42AFA75F00C8D
:104E1000E9A42AF9747028F508741939F509780895
:104E2000122A4E7C217D937402122829121C2674AA
:104E3000021227E1AA18AB1912184E8A088B09AC86
:104E400008AD09AA18AB191218180E80A175140024
:104E5000025577740A650870047400650970457915
:104E6000087CA27D94EEFAEFFB121A58E9603575C2
:104E700008C57509957808122A4E7CC07D95740284
:104E8000122829121C2674021227E1AA18AB191243
:104E9000184E8A088B09AC08AD09AA18AB1912186C
:104EA00018025577740A6508700474006509600378
:104EB000024F5179077C367D95EEFAEFFB121A58B6
:104EC000E97003024F51121A7CE96401707D8E82F1
:104ED0008F83A3A3A3A3A3A3A3E0643F703090197F
:104EE000E8122A657C717D957402122829121C260D
:104EF00074021227E1AA18AB1912184E8A088B09FE
:104F0000AC08AD09AA18AB191218180255779019F8
:104F1000E87410F0A37427F0121A6A9019E8122AA4
:104F2000657C407D927402122829121C267402129C
:104F300027E1AA18AB1912184E8A088B09AC08ADE4
:104F400009AA18AB191218180255777514000255E2
:104F500077740A6508700474006509704A790A7CE0
:104F6000487D94EEFAEFFB121A58E9603A9019EA7C
:104F7000E0F5083395E0F5097808122A4E7CFA7DB1
:104F8000927402122829121C2674021227E1AA1810
:104F9000AB1912184E8A088B09AC08AD09AA18ABD8
:104FA00019121818025577740A65087004740065A0
:104FB00009600302507E79077CEE7D94EEFAEFFBE8
:104FC000121A58E9700302507E8E828F83A3A3A326
:104FD000A3A3A3A3E0643F70389019ECE0F5087533
:104FE00009007808122A4E7CE07D9274021228296A
:104FF000121C2674021227E1AA18AB1912184E8A45
:10500000088B09AC08AD09AA18AB1912181802557B
:10501000778E828F83A3A3A3A3A3A3A3E024D0901E
:1050200019ECF09019ECE0C3940440069019EC746C
:1050300000F0121A6A9019ECE0F50875090078087A
:10504000122A4E7C527D937402122829121C267457
:10505000021227E1AA18AB1912184E8A088B09AC64
:1050600008AD09AA18AB191218189019ECE0F874D9
:1050700003C398F9120BEEE9751501025577740A0E
:105080006508700474006509600F740F650870048A
:1050900074006509600302515F79077CFE7D94EE20
:1050A000FAEFFB121A58E9700302515F121A7CE9F9
:1050B00060030251598E828F83A3A3A3A3A3A3A34A
:1050C000E0643F70309019ED122A657C047D927483
:1050D00002122829121C2674021227E1AA18AB1901
:1050E00012184E8A088B09AC08AD09AA18AB191220
:1050F00018180255777906EE2407FAE43FFB121AD6
:105100005E8A088B098C0A8D0B9019EDE508F0A3D7
:10511000E509F09019EDC3E09410A3E09427400353
:10512000025577121A6A9019ED122A657C407D9219
:105130007402122829121C2674021227E1AA18AB45
:105140001912184E8A088B09AC08AD09AA18AB19B8
:1051500012181875150102557775140002557774E9
:105160000A6508700474006509600302522A790711
:105170007C067D95EEFAEFFB121A58E97003025295
:105180002A8E828F83A3A3A3A3A3A3A3E0643F706B
:10519000389019EFE0F5087509007808122A4E7C5E
:1051A0006A7D937402122829121C2674021227E1C8
:1051B000AA18AB1912184E8A088B09AC08AD09AAB7
:1051C00018AB191218180255777901EE2407FAE482
:1051D0003FFB121A5E8A088B098C0A8D0BE508903A
:1051E00019EFF09019EFE0C394025038121A6A9048
:1051F00019EFE0F5087509007808122A4E7C527DF7
:10520000937402122829121C2674021227E1AA188C
:10521000AB1912184E8A088B09AC08AD09AA18AB55
:1052200019121818751501025577740A650870046B
:1052300074006509704B790A7CDD7D93EEFAEFFB13
:10524000121A58E9603B121A7CE96401702D90191A
:10525000F27403F07CD27D93AA18AB19121C26AA13
:1052600018AB1912184E8A088B09AC08AD09AA1898
:10527000AB19121818121B1E02557775140002552F
:1052800077740A6508700474006509703A79077CC0
:105290002E7D95EEFAEFFB121A58E9602A121A7C5D
:1052A000E96401701C9019F27404F08E828F83A35C
:1052B000A3A3A3A3A3A3E024D0F9121B54E902558E
:1052C00077751400025577740965087004740065D9
:1052D00009600302557479067C557D95EEFAEFFB63
:1052E000121A58E970030255748E828F83A3A3A308
:1052F000A3A3A3E0F516E51624CC601814601914D6
:10530000601A14601B1470030253AE14700302542D
:105310008202556F7E04800A7E0580067E0680022A
:105320007E0779801217167A04EEF91217108A0890
:105330008B09AC08AD098C088D09E4F50AF50B78EA
:1053400008121CD390967C780C1226837808790C6E
:10535000121EDE909680780C1226837808790C1243
:10536000229D7808122A4A8C088D097808122A4E44
:10537000E516F87900E824D0F508E934FFF5097856
:1053800008122A4E7CCE7D8F7408122829121C2602
:1053900074081227E1AA18AB1912184E8A088B0953
:1053A000AC08AD09AA18AB191218180255777E116E
:1053B0007F0175089975090179001217167A02792B
:1053C0000F1217108A0A8B0BAC0AAD0BC3EC9508B1
:1053D000ED9509400474648058C3EE9CEF9D400431
:1053E0007400804DE508C39EF8E5099FF9E82401A3
:1053F000FAE439FB8A088B09740278081227A9AAF3
:1054000008AB09ECC39EF8ED9FF9E875F019A4C844
:10541000AEF075F000A42EFE75F019E9A42EF9E89F
:105420002AF8E93BF9E824FFF8E934FFF9122740AC
:10543000E8F5087509007808122A4E8C088D09785D
:1054400008122A4EE516F87900E824D0F508E93468
:10545000FFF5097808122A4E7C147D9074061228F4
:1054600029121C2674061227E1AA18AB1912184E2D
:105470008A088B09AC08AD09AA18AB1912181802D2
:105480005577750C00750D00750E00750F00906254
:105490004B7401F09061A97401F07E00805779008F
:1054A0001217167A03790E1217108A088B09AC08A6
:1054B000AD098C088D09E4F50AF50B7808121CD3A8
:1054C0009095D4781012268378087910121EDE90F9
:1054D0009688781012268378087910122083909687
:1054E0008C78101226837808791012229D780C7916
:1054F000081220830EEEC3944040A3850C08850D4E
:1055000009850E0A850F0B909690780C12268378E9
:1055100008790C12229D90624BE0C2E0F09061A9E4
:10552000E0C2E0F07808122A4A8C088D0978081247
:105530002A4EE516F87900E824D0F508E934FFF59D
:10554000097808122A4E7CE67D8F740812282912E9
:105550001C2674081227E1AA18AB1912184E8A08E3
:105560008B09AC08AD09AA18AB1912181880087578
:1055700014008003751400E51560117AC87B0012D1
:105580001A52C2AF75C9AB75C95B80FEA9147447C6
:105590001227E17F0F02290D74F612283B74C812FE
:1055A00027CBE9FF7E01EFA2E5400302563C901CA9
:1055B000BEE0C2E5F07C5C7D957A177B1A121C2652
:1055C0007C827D937A237B1A121C26901CBDE0708E
:1055D00008901CBD7401F08006901CBD7400F09012
:1055E0001CBDE06007790112194A80057900121983
:1055F0004A901CBDE0F5087509007808122A4E7C17
:105600001A7D94740E122829121C2674021227E1A6
:105610007906740C122829121776740C1228291294
:105620001C388A088B09AC08AD09740C12282912A1
:10563000181E7A017B00121A52025856EFA2E0504F
:1056400042901CBEE0C2E0F07C6A7D957A177B1A1E
:10565000121C267C2D7D947A237B1A121C26121A8A
:105660007CE964016003025856901A73E06402708A
:10567000030258567C0A7D007ADD7B93121AEEE90C
:10568000025856EFA2E45035901CBEE0C2E4F07C14
:10569000367D947A177B1A121C267CD77D917A234B
:1056A0007B1A121C269019F1E070099019F174010F
:1056B000F00258569019F17400F0025856EFA2E328
:1056C000503B901CBEE0C2E3F07C3F7D947A177B98
:1056D0001A121C267C3F7D947A237B1A121C2612F8
:1056E0001A7CE964016003025856901A73E0640260
:1056F00070030258567901121B42025856EFA2E17C
:105700005020901CBEE0C2E1F07C107D947A177BA3
:105710001A121C267CEA7D907A237B1A121C260220
:105720005856EFA2E24003025854901CBEE0C2E279
:10573000F07CB17D937A177B1A121C267CE67D9152
:105740007A237B1A121C26121A7CE9640160030278
:1057500057F5901A73E064026039121B48E9F508A6
:105760007509007808122A4E7C2E7D937402122847
:1057700029121C2674021227E1AA18AB19121C3830
:105780008A088B09AC08AD09AA18AB19121AEEE900
:10579000025856121A82E97003025856901A37E0DE
:1057A0006008901A377400F08006901A377401F080
:1057B000901A37E0F5087509007808122A4E7C0720
:1057C0007D937402122829121C2674021227E1AA62
:1057D00018AB19121C388A088B09AC08AD09AA1835
:1057E000AB1912054CE97A107B00901A3EE0F912D1
:1057F00018AEE98061121A82E9605B901A38E060A5
:1058000008901A387400F08006901A387401F090ED
:105810001A38E0F5087509007808122A4E7CAC7D2C
:10582000927402122829121C2674021227E1AA1867
:10583000AB19121C388A088B09AC08AD09AA18AB41
:105840001912054CE97A107B00901A3EE0F9121803
:10585000AEE980027E00901CBEE07014901A39E020
:10586000700E901A397401F07A017907121788E9DD
:10587000EE605675082375091A7808122A4E7C9E28
:105880007D95740E122829121C2674021227E190AD
:105890001CBEE0600678007900800478807900E81A
:1058A0004408F9740C12282912177675081775091F
:1058B0001A7808122A4E7C9E7D95740E12282912A1
:1058C0001C2674021227E1805475082375091A7882
:1058D00008122A4E7C787D95740E122829121C26F7
:1058E00074021227E1901CBEE06006780079008007
:1058F0000478807900E84408F9740C1228291217FA
:105900007675081775091A7808122A4E7C787D95E5
:10591000740E122829121C2674021227E1740C122C
:105920002821880889097808122A4E7CC07D957440
:1059300026122829121C2674021227E1121A82E963
:1059400070217424122829121C388A088B09AC088B
:10595000AD0974241228291218187A017B00121A32
:105960005280267424122829121C388A088B09AC0C
:1059700008AD09742412282912054CE97A107B001D
:10598000901A3EE0F91218AEE974381227E17F024E
:1059900002290D74EC12283B74C01227CBEAFEEBEF
:1059A000FF8C088D09C3E5089409E5099400403986
:1059B00079087C757D94EEFAEFFB121A58E960299C
:1059C0008E828F83A3A3A3A3A3A3A3A3E0F8743021
:1059D00068700B7A007902121788E9025D3F7A013C
:1059E0007902121788E9025D3FC3E5089409E509C9
:1059F0009400403979087C7E7D94EEFAEFFB121A10
:105A000058E960298E828F83A3A3A3A3A3A3A3A392
:105A1000E0F8743068700B7A007904121788E90294
:105A20005D3F7A017904121788E9025D3FC3E508FA
:105A30009409E5099400403579087C877D94EEFA55
:105A4000EFFB121A58E960258E828F83A3A3A3A3CC
:105A5000A3A3A3A3E0F874306870099019F174004F
:105A6000F0025D3F9019F17401F0025D3FC3E5085B
:105A70009407E50994005003025D3F79067C557D4B
:105A800095EEFAEFFB121A58E97003025D3F8E8221
:105A90008F83A3A3A3A3A3A3E0FEEE24CC601814DA
:105AA000601914601A14601B147003025B5E14709A
:105AB00003025C47025D3F7F04800A7F0580067F0A
:105AC0000680027F0779801217167A04EFF9121701
:105AD000108A088B09AC08AD098C088D09E4F50A19
:105AE000F50B7808121CD390967C780C12268378DC
:105AF00008790C121EDE909680780C1226837808A6
:105B0000790C12229D7808122A4A8C088D0978088F
:105B1000122A4EEEF87900E824D0F508E934FFF5B2
:105B2000097808122A4E7CCE7D8F7408122829121B
