:020000040000FA
:0600000002011A0230F9B2
:03002B000237C6D3
:0300330002379DF4
:0300530002316F08
:03006B000237EC6D
:10008300022F4FE5C754F84401F5C7790122000058
:100093000080FB120086B90003020104E479217891
:1000A30008B800028004F709D8FCE479297802B87B
:1000B30000028004F709D8FCE490028178B2791732
:1000C3008002F0A3D8FCD9FA781A90014A7A01BACF
:1000D30000028007E493A3F608DAF97A327B1990D9
:1000E300014B781279058015E493A3AD82AE838A20
:1000F300828B83F0A3AA82AB838D828E83D8E9D9C6
:10010300E775829A7583D2740512012C75829175F5
:100113008300740012012C75D00075813F7518811E
:10012300751902759F00020096C09FF59FE473D076
:100133009F22D083D082C09FE493C0E0740193C018
:10014300E0740293F59F220100070C0742073C0766
:10015300FF0000B4000028002800283075A000A08C
:1001630000A000A00000080008E001F0001000104B
:10017300001000100010001000500050005000103C
:10018300001000D0070000000000000F0001000570
:1001930000307507001000010081FF00000000FF20
:1001A300FFFF80089E088608C208FF0202020802B9
:1001B3005000A0000000E803028F9601000069963A
:1001C3000295960100009519029B960100000A040E
:1001D3000295960100009619029D960100002004E5
:1001E3000295960100009719029F960100002204D0
:1001F300029596010000981902A1960800002304B5
:10020300029596010000991902A3960100009A191C
:10021300FFFF0100FF20028F960100006696029502
:1002230096010000FF1902B5960000000000029934
:100233009603000053041700081108110811081150
:1002430008110811081108110811081108110811E3
:1002530008116C138A136613B014C214AA14020291
:1002630002020202020202010D0000001001028FCD
:10027300960100006396029596010000481A0277E2
:1002830096010000A20E029596010000491A027918
:100293009601000097920295960100004A1A027B8C
:1002A300960100002D920295960100004B1A027DE3
:1002B30096010000DF900295960100004C1A027F20
:1002C30096010000CD900295960100004D1A02811F
:1002D30096010000BB900295960100004E1A02851C
:1002E3009601000097900295960100004F1A02872D
:1002F300960100003B92029596010000501A028974
:1003030096010000511A01E803057710020A0AD288
:1003130016FFFFFF00013075030201060000000015
:1003230000000000000000000000000000000000CA
:100333000000000000000000FFFF0600800CE8033F
:10034300013FFEFF0101010201060302F0FF02016A
:10035300061AFF4C000215E2C56DB5DFFB48D2B0AB
:1003630060D0F5A71096E000010002CD6A1B701B58
:100373007C1B821B761B0A4368617261637465721E
:100383006973746963203100024368617261637445
:10039300657269737469632032000843686172612E
:1003A3006374657269737469632033001043686111
:1003B3007261637465726973746963203400024304
:1003C300686172616374657269737469632035006F
:1003D300164368617261637465726973746963203B
:1003E300360010436861726163746572697374697E
:1003F30063203700028F960100006C9602959601E8
:100403000000601B02A796030000F51802979601EF
:100413000000611B029596010000721B02A9960160
:100423000000F618029796010000731B02959601CF
:100433000000841B02AB96020000F7180297960196
:100443000000851B029596010000961B02AD9600E5
:100453000000F818029996030000F9180297960114
:100463000000971B029596010000A81B02AF96049B
:100473000000FB18029796010000A91B0295960144
:100483000000BA1B02B196030000001902999603FB
:1004930000001519029796010000BB1B02959601F7
:1004A3000000CC1B02B396000000171902999603B3
:1004B30000002C19029796010000CD1B0100B042E9
:1004C3003BAAB83F0000003F8C906339AA0CA33AC3
:1004D30000941E3C8042633DCFFE753E1572313F52
:1004E3000000803FF304353F8096184B30313233A0
:1004F30034353637383941424344454600286E7512
:100503006C6C20706F696E74657229003031323300
:10051300343536373839616263646566003F3F3F7F
:10052300000000807FF9021550B743BA5100E7DBA2
:100533002E0000A040000080BF2292D43EDD9B2A03
:100543003F0400004000000000FFFF7F7FFFFF7FAC
:10055300FF010080341872313F12013546B905128C
:1005630001352DBA0512013527BB05120135DEB45D
:1005730005120135F1B40512013512B50512013525
:100583007DB505120135BEB505120135DFB505127E
:10059300013520B605120135B8B60512013500B78D
:1005A3000512013526A10512013539A105120135C0
:1005B3006AA105120135A4A105120135FDA1051299
:1005C300013544A2051201358CA205120135BBA2E7
:1005D30005120135EAA20512013521A305120135E1
:1005E30068A30512013581A305120135D6A30512AF
:1005F3000135EFA3051201353DA40512013577A49A
:100603000512013558DF031201355BE00312013592
:1006130088E003120135D9E003120135FCE003122F
:1006230001350EE10312013511E1031201354FE1EA
:1006330003120135C3E1031201352FE20312013521
:10064300F7E20312013513E3031201354AE3031200
:10065300013584E3031201351BE4031201356DE414
:10066300031201359EE403120135CFE40312013571
:10067300DCE40312013546E50312013549E50312B3
:10068300013556E50312013559E503120135B0E58D
:1006930003120135B3E503120135ECE5031201350D
:1006A300EFE50312013523E60312013526E60312B3
:1006B30001357AE603120135C3E603120135D3E6A9
:1006C3000312013506E70312013513E7031201355F
:1006D30016E7031201357EE70312013580E80312A2
:1006E300013524E9031201358DE903120135CBE904
:1006F300031201357AF60212013577F7021201353A
:100703000DF80212013558F802120135BCF8021235
:10071300013546F902120135FFF90212013521FDB7
:10072300021201359EFE02120135C1FE021201358D
:10073300378D05120135DC8E05120135FC8E05124D
:1007430001351D90051201357090051201357D911B
:1007530005120135A59105120135D2910512013516
:100763000A9205120135689205120135B4920512F9
:1007730001351B93051201355B93051201359893DF
:1007830005120135C6930512013570940512013522
:100793007A9405120135879405120135BA9405122E
:1007A3000135C69405120135DE9405120135E8942E
:1007B3000512013576CD0512013584CD05120135BB
:1007C3009CCD05120135B4CD05120135CBCD0512F3
:1007D3000135D5E4021201357FE50212013592E6B7
:1007E300021201350EE7021201352CE8021201351F
:1007F30068E80212013503E902120135E7E9021242
:100803000135AAEA0212013522EB02120135B0ECDE
:100813000212013521ED02120135DBED0212013521
:10082300CDEE021201350DEF02120135C1EF0212B6
:100833000135F3EF02120135E9F10212013530F20D
:10084300021201354EF202120135B4F202120135E1
:1008530083F30212013547F40212013566F60212E0
:10086300013570F6021201356DBE0412013557BF12
:100873000412013502C00412013553C004120135BC
:1008830003C10412013574C10412013559C20412A3
:1008930001358DC20412013586C304120135C3C369
:1008A300041201359FC404120135DEC4041201355C
:1008B300FAC4041201356ABD05120135EEBD0512F5
:1008C300013519BE0512013533BF05120135769581
:1008D300051201358C9505120135AA9505120135CE
:1008E300BB9605120135C59605120135F097051221
:1008F3000135E798051201355499051201355E99C2
:100903000512013526CC041201355CCD04120135E4
:10091300D6CD0412013506CE0412013519CE0412C8
:10092300013570CE0412013585D0041201352E969F
:1009330002120135DF9602120135FB9602120135D0
:10094300C49702120135DE9702120135E9970212AC
:100953000135BF98021201359C99021201352C9A78
:1009630002120135E39A02120135F19D021201359B
:10097300E09F0212013592A0021201355BA102121F
:100983000135A0A4021201354AA50212013573A64E
:10099300021201352FA802120135CFA80212013528
:1009A3001DA9021201355CA9021201352FAA0212F8
:1009B300013563AA02120135F0AA0212013541D2B0
:1009C30002120135CDD20212013531D402120135A2
:1009D3003DD40212013578D402120135E7D4021254
:1009E3000135F0D502120135F9D602120135C0D70F
:1009F300021201351DD9021201353BD9021201350C
:100A030058D90212013505DA0212013582DA0212CF
:100A13000135AADA0212013574DD0212013579DDDE
:100A23000212013592DF02120135E0DF02120135B5
:100A330050E0021201358EE0021201356AE1021222
:100A430001352AE20212013576E20212013579E21A
:100A530002120135BDE20212013505E3021201352E
:100A630044E30212013566E3021201359AE30212EE
:100A73000135FDE302120135E6EC04120135EFEC1A
:100A830004120135FDEC0412013550ED0412013559
:100A93006FED04120135B4ED04120135F8EE0412C2
:100AA300013593EF04120135D7EF0412013501F03C
:100AB3000412013570F004120135B6F00412013549
:100AC3002DF104120135DEF104120135B99601123C
:100AD3000135C996011201356A9701120135C6978E
:100AE300011201358398011201359F9901120135D5
:100AF300D19901120135009A01120135AD9B011202
:100B03000135249E0112013594A00112013586A1FD
:100B1300011201357FA20112013586A401120135AC
:100B23007AA701120135A9A801120135ADAA011254
:100B33000135BDAB011201354CAD011201353DAE9E
:100B4300011201358BAE01120135FAAE01120135E6
:100B53001EAF011201356FAF0112013510B401123E
:100B6300013511B50112013572B5011201359DB57B
:100B73000112013563B601120135EBD704120135B9
:100B8300F5D7041201353AD8041201354ED80412B0
:100B93000135DED80412013517D90412013552D9B3
:100BA300041201357BD904120135C9D90412013568
:100BB300DED904120135F3D90412013508DA04121F
:100BC30001354BDA0412013560DA04120135CBDA50
:100BD30004120135DFDA04120135F3DA04120135A8
:100BE30008DB0412013542DB0412013566DB041213
:100BF300013592DB04120135C9DB041201352BDC0C
:100C0300041201359DDC04120135E0DC04120135C8
:100C13000ADD0412013535DD0412013570CB0512EE
:100C2300013557BC031201353ABD03120135B5BD79
:100C330003120135F0BD0312013541BF0312013523
:100C4300CABF03120135E2C10312013574C4031292
:100C5300013526C50312013532C603120135A5C776
:100C630003120135FEC703120135A8E20412013550
:100C7300EBE2041201356FE30412013542E404127E
:100C8300013519E704120135DFAF051201358CB0C8
:100C93000512013599B105120135D8B10512013597
:100CA30032B2051201354AC305120135ADC305122F
:100CB30001354AC4051201357FC405120135AFC49D
:100CC30005120135D0C4051201350BC505120135D6
:100CD3002BC505120135F0F1041201357CF2041223
:100CE30001353BF30412013553F4041201356DF65B
:100CF30004120135A7C803120135CCC8031201350C
:100D030099C9031201356DCA03120135DACA0312F8
:100D1300013530CB03120135CCCB0312013500CDA5
:100D230003120135DBCD031201353ACE031201352F
:100D3300C6CE0312013534CF03120135C0CF0312DF
:100D43000135C3CF031201350DD0031201357FD016
:100D53000312013511D103120135B2D1031201354A
:100D6300D2D1031201351AD20312013563D2031211
:100D730001357FD203120135A5D2031201351FD3EA
:100D8300031201352DD303120135BCD303120135F0
:100D930025D4031201353BFB04120135C0FB0412B9
:100DA300013502FC04120135E6FC0412013553FD42
:100DB3000412013597FD04120135DBFD04120135E0
:100DC30008FE0412013530FE0412013568FE0412D8
:100DD3000135A6FE04120135CDFE0412013547FF8D
:100DE3000412013591FF04120135CFB6011201350A
:100DF300C8B801120135B4BB0112013508BC011298
:100E0300013533BC011201350DBD011201354CBD55
:100E13000112013593BD01120135A6BD0112013541
:100E2300E7BD0112013514BE0112013562BE011284
:100E33000135A1BE01120135CCBE011201351FBF20
:100E430001120135AEBF011201358CC20112013509
:100E5300A7C401120135E5C4011201355AC60112B6
:100E630001359FC60112013593C701120135ACC983
:100E7300011201350ECA011201355FCA0112013593
:100E83007ACF01120135C9CF011201350FD00112FA
:100E93000135F7D101120135C5D301120135CAD38A
:100EA30001120135A4D4011201351DD501120135FA
:100EB3004DD6011201355FD60112013539AD051248
:100EC3000135ABAD0512013501AE0512013545AE55
:100ED3000512013565AE05120135B2AE05120135B5
:100EE300FAAE051201354DAF051201359EAF05125D
:100EF3000135819304120135009404120135F999E7
:100F030004120135FF9A04120135729C0412013553
:100F1300099D0412013582D601120135CBD6011287
:100F23000135F8D6011201352AD70112013536D71A
:100F33000112013542D70112013559D7011201358A
:100F430034D80112013592D801120135C7D80112E4
:100F53000135F8D90112013545DA011201358BDA71
:100F630001120135F7DA011201359BDB011201355C
:100F730051DC01120135B0DC0112013521DD011212
:100F830001357FDD01120135B1DE0112013519E0B2
:100F930001120135E3E001120135F0E001120135E0
:100FA30032E10112013542E10112013566E101121C
:100FB300013569E10112013555E201120135F1E212
:100FC300011201358AE30112013521E401120135D1
:100FD3004EE401120135ACE401120135F3E40112D0
:100FE300013543E50112013593E50112013505E6AB
:100FF30001120135A0E6011201354BE7011201355B
:10100300EAE70112013568E801120135AFE8011280
:10101300013513E90112013542E901120135D9E91C
:1010230001120135EBEB011201352FEC01120135F1
:101033007AEC0112013500ED011201358AED01123E
:101043000135A3EE0112013529EF011201354EEFEF
:1010530001120135A5EF01120135BAEF0112013575
:1010630002F00112013575F001120135BAF00112D7
:101073000135C3F10112013574F201120135D2F2C7
:10108300011201352EF30112013547F30112013527
:10109300339D04120135879D04120135939D04127B
:1010A30001355D9E041201358A9E04120135B89EF6
:1010B30004120135249F041201355A9F041201358D
:1010C300939F04120135AB9F0412013500A0041253
:1010D300013519A0041201355EA00412013571A077
:1010E300041201358BA004120135A1A004120135AD
:1010F300BFA104120135EAA204120135D4A30412DC
:101103000135C5A404120135EF7F00120135CBE789
:10111300041201354EEB041201359BEC0412013528
:1011230077F3011201354AF60112013550F6011227
:101133000135E0F80112013543FB01120135A4F634
:10114300041201353BF704120135F9F70412013596
:1011530023F804120135FDF90412013502FB0412D0
:1011630001350080021201353280021201354F8CA5
:1011730002120135A08D02120135A98E021201352A
:101183002890021201351391021201356291021265
:1011930001357C9102120135BE9102120135C991CC
:1011A3000212013510920212013519920212013511
:1011B300C592021201359E9302120135E593021284
:1011C30001354D94021201358F9402120135BD94FD
:1011D30002120135FA94021201353DBF02120135A4
:1011E30008C3021201350EC302120135B2C902123D
:1011F300013506CE02120135EFD102120135539D9E
:1012030005120135C99D05120135DF9D0512013512
:101213006F9E05120135AC9E05120135E69E05123F
:101223000135209F05120135939F05120135D49F87
:1012330005120135DD9F05120135E99F05120135C0
:1012430008A00512013532A00512013547A0051289
:1012530001356FA005120135D1A005120135F8A0A3
:10126300051201355BC5041201356EC50412013543
:1012730088C504120135B5C504120135FBC5041236
:1012830001352EC6041201356CC604120135D1C6D0
:1012930004120135E6C604120135F1C60412013504
:1012A300FEC60412013515C70412013523C7041203
:1012B300013532C70412013547C7041201355CC733
:1012C3000412013567C70412013573C704120135CF
:1012D30080C70412013593C7041201359EC7041257
:1012E3000135C3C70412013567C80412013577C835
:1012F300041201358CC804120135A1C8041201354A
:10130300BBC804120135D8C804120135F5C804124C
:10131300013500C904120135ACC9041201358DCA67
:1013230004120135B2CA04120135BDCA04120135D3
:10133300D2CA04120135E6CA0412013547CB04129E
:1013430001354DCB0412013553CB0412013559CB72
:101353000412013571CB04120135A4CB04120135FB
:10136300F1E90312013513EA03120135DBEA031233
:10137300013595ED03120135ABEE03120135CCEFC8
:1013830003120135A6F00312013555F1031201359D
:10139300D4AE031201356BAF0312013503B0031250
:1013A3000135F3B0031201352AB1031201353DB102
:1013B30003120135ABB10312013546B303120135F4
:1013C3006DB3031201350FB40312013544B4031294
:1013D300013555B403120135CEB403120135EFB410
:1013E3000312013507B5031201355FB60312013548
:1013F30068B803120135B8BA03120135BBBB031237
:1014030001350ABC0312013538A00312013535A199
:101413000312013520A2031201352AA2031201355A
:1014230034A20312013556A20312013562A203123C
:101433000135B4A303120135E3A30312013513A548
:101443000312013555A50312013581A60312013597
:1014530057A703120135A9A70312013508A80312E0
:1014630001353FA8031201357AA80312013515ACE3
:10147300031201352EAC03120135B0AC0312013552
:10148300BEAC0312013513AD0312013521AD0312B6
:1014930001358EAD0312013500AE0312013546AEA0
:1014A3000312013548D4031201356AD403120135FE
:1014B30054D603120135F9D9031201353CDB03126B
:1014C300013516DC0312013539C5051201355EC538
:1014D30005120135CFC5051201357FA6041201356A
:1014E30088A60412013591A604120135C2A704127D
:1014F3000135E1A90412013517AA0412013551AAD5
:101503000412013587AA04120135C1AA0412013558
:10151300F5AA0412013521AB041201356AAB04129A
:101523000135A4AB04120135ECAB0412013542AC16
:101533000412013577AC04120135D2AC0412013523
:101543000CAD041201355DAD0412013593AD0412E7
:101553000135CDAD04120135FBAD041201351EAECC
:1015630004120135AFD005120135DBD00512013568
:1015730036D10512013540D10512013550D105127E
:101583000135ACAE04120135F0AE041201359EAF45
:101593000412013516B00412013568B00412013586
:1015A30008B10412013544B104120135DEB104124D
:1015B30001355BB204120135B4B304120135CDB366
:1015C3000412013505B50412013598B5041201352D
:1015D30001B6041201356DB6041201358A84051271
:1015E3000135B18405120135E28405120135A7FFE7
:1015F30003120135BEFF031201355AD1051201351D
:10160300965D00120135B26000120135A36200122B
:101613000135156300120135D363001201357E6471
:10162300001201350E65001201359D65001201356A
:10163300C765001201353466001201356E6B001266
:101643000135026C00120135316D00120135956DC3
:1016530000120135496E00120135FC70001201358C
:10166300367100120135A07100120135FE710012AE
:1016730001355C7200120135B97200120135A8738D
:1016830000120135EE730012013533740012013577
:10169300547400120135B67500120135D17500126C
:1016A3000135577700120135847700120135C4776D
:1016B300001201350A78001201352878001201352D
:1016C3006678001201358C7A00120135C57A001252
:1016D30001355C7B00120135FC7B001201358F7CE8
:1016E30000120135FB7C001201353C7E00120135EE
:1016F3005DDD04120135F1DD0412013530DF041222
:101703000135B9DF041201358CE004120135B5E06F
:10171300041201351CE10412013584E10412013580
:1017230084CC0512013595CC0512013566CD051221
:101733000135DFA405120135AAA7051201352ED400
:1017430005120135707E00120135807E00120135CD
:101753009A7E00120135967F001201358EAA05127A
:10176300013528AB051201351EAD0512013557C1F0
:10177300051201358DC105120135FDC10512013573
:1017830028C2051201358BC205120135FBC20512B1
:10179300013539C3051201353CC305120135E97F13
:1017A30000120135EC7F001201350080051201356E
:1017B300228005120135B48005120135B28105126C
:1017C3000135A383051201350384051201356C84A9
:1017D30005120135F87F001201352BB705120135CB
:1017E300D7B80512013543B905120135E27F00125E
:1017F3000135A3C805120135E1C805120135C6C973
:101803000512013510CA05120135C9D30512013578
:10181300D9D30512013562BF0512013593BF0512F5
:101823000135BDBF051201357AC0051201359AC0D5
:1018330005120135F2C005120135C88904120135BC
:10184300D689041201351C8A041201356F8A0412E9
:101853000135B78A04120135118B04120135328B1D
:1018630004120135098E04120135178E0412013555
:10187300738E04120135A68E04120135B98E04123B
:101883000135448F04120135DB8F04120135569064
:10189300041201358D9004120135139104120135A0
:1018A300689104120135C39104120135D5910412D4
:1018B30001350692041201350F92041201354D933E
:1018C30004120135EFC6051201354EC70512013565
:1018D300E9C7051201354FC805120135EA8805121B
:1018E30001351D8905120135438A05120135688AC0
:1018F30005120135298B05120135018C05120135BD
:1019030086FE031201354FFF031201357DB2051226
:101913000135C2B20512013500B3051201359BB47E
:10192300051201355BCE0512013576CE0512013560
:1019330086CE05120135E9CE05120135EBCF05122E
:10194300013527CF05120135008004120135DC80F3
:10195300041201351F810412013559810412013526
:10196300C581041201351D82041201358D820412D2
:1019730001355E8304120135488404120135BF84A6
:1019830004120135558604120135E086041201352F
:10199300508704120135CA8704120135E187041206
:1019A30001350C89041201355F89041201354CD2CB
:1019B3000412013569D20412013555D304120135DD
:1019C3009ED304120135BED304120135FAD3041297
:1019D300013553D4041201358FD404120135D7D401
:1019E3000412013571D704120135DAD70412013517
:1019F300E6AB0212013501B102120135F8B302124E
:101A030001351EB40212013547B402120135F5B493
:101A130002120135D6B602120135F1B702120135B1
:101A23000AB80212013500BD0212013539BD021296
:101A330001357DBD021201358ABE021201353438EB
:101A430000120135683800120135A3380012013540
:101A5300153900120135DC3900120135F339001252
:101A63000135CF3A00120135C43E00120135D43E90
:101A730000120135053F00120135D83F0012013530
:101A83003A40001201353D4000120135A4400012D6
:101A93000135804200120135374300120135894375
:101AA30000120135904300120135F3430012013552
:101AB3000344001201354144001201355A44001217
:101AC3000135714400120135FD44001201351845FA
:101AD30000120135465500120135E3550012013558
:101AE300DE590012013500800312013534810312DF
:101AF3000135618103120135B08403120135E98494
:101B030003120135FA8403120135168603120135D7
:101B1300278603120135B78603120135C7860312E0
:101B230001358E8B03120135328C03120135408C43
:101B3300031201356D8C03120135D28C031201356A
:101B4300AA8E031201357F8F0312013549F4031264
:101B5300013596F8031201351AFB0312013553FBC5
:101B63000312013564FB0312013583FB03120135B4
:101B7300ADFC03120135BEFC0312013546FD031211
:101B83000135D7FD03120135B4B604120135C2B7CE
:101B930004120135DFB704120135BAB90412013555
:101BA300DEBA041201357ABC0412013510D40512D1
:101BB3000135B8A70512013552CA0512013508D3FC
:101BC300051201355A90031201356695031201354A
:101BD3005BBB051201359C7F00120135D1FF041256
:101BE300013568990512013504D2051201352ED24B
:101BF3000512013569D305120135A0D3051201354C
:101C0300F2D305E066701008A3E066700A08A3E04B
:101C130066700408A3E06622C008C3E096F50808CE
:101C2300A3E096420808A3E096420808A3E0964280
:101C330008A2D265D033E5087001D3D00822C3E7E8
:101C4300960809E7960809E7960809E79622C3E08C
:101C53009608A3E09608A3E09608A3E09622C0089E
:101C6300C3E096F50808A3E096420808A3E096426D
:101C73000808A3E09645087001D3D0082208080895
:101C8300E630E71112253A121C98080808C644806A
:101C9300C618181822181818E9799EC608CAC60863
:101CA300CBC608CCC6C370207996CACBCC70197941
:101CB3008ECBCC70137986CC700EF9802ACA33CAC6
:101CC300CB33CBCC33CC331930E7F2CCCBCA335044
:101CD300147004EA30E00DE4CA3ACACB3BCBCC3CE7
:101CE300CC500209C3E913C6CC182313C6CB18C6BC
:101CF300CA18C6F922121D3820F01430E72B74FFDE
:101D0300FCFBFA747F8022E4FCFBFA7480801AB433
:101D13008008BC00F2BB00EF800F50EBF9E4C39ADC
:101D2300FAE49BFBE49CFCE499C6CC18C6CB18C62A
:101D3300CA18C6F922E4C9C608CAC608CBC6D33333
:101D43000308CCC63392F0C3947F402E94184019F5
:101D5300C9B90704CACBCC225025C309CA33CACB9D
:101D630033CBCC33CC33D9F422F4600DC9CCC313B9
:101D7300CB13CBCA13CAD9F6CC22E4FCFBFA221448
:101D8300FCFBFA22E62618461846184622E72719CE
:101D9300471947194722181818E60846087009E634
:101DA30026087005E633F4220822191919E70947B2
:101DB300097009E727097005E733F4220922E608C9
:101DC3004608C3134608336002E633F422E70947A3
:101DD30009C3134709336002E733F422121DC160BC
:101DE30025121DD06020121D877003021D90080864
:101DF30008E76670101819E766700A1819E7667025
:101E0300041819E76622F422121DC1601C121DD0AA
:101E13006017121D877007121D907001D322C0D066
:101E2300121D907006D0D0B322C32233D0D05014E9
:101E330030E0F6C3E7960809E7960809E79608092C
:101E4300E796B32220E0D5E6970809E6970809E666
:101E5300970809E697B322121DC1601B121DD060BB
:101E630016121D877007121D90600CB322C0D0128A
:101E73001D907005D0D022C32233D0D0501330E050
:101E8300EBC3E7960809E7960809E7960809E7967A
:101E93002220E0E4E6970809E6970809E69708098F
:101EA300E6972200121DC1604F121DD06012E75445
:101EB3008066F6121D997011121D90703B09090975
:101EC300F4F618F618F618F622121DAD7015121D49
:101ED3008708080860EAE6447FF618768018E4F677
:101EE30018F622121D876016121D907012E4F60870
:101EF300F608F608E65480F609090918181822EAC4
:101F0300C0E0EBC0E0ECC0E0EDC0E0E687F0A4FB8E
:101F1300ACF008E687F0A42CFCE435F0FA1809E6E7
:101F230087F0A42C4B60027401CA35F0FCE433FB48
:101F330009E687F0D2F7A42CCB35F0FC1908E68725
:101F4300F0A42BCC35F0FBE433FD0819E687F0D27F
:101F5300E7A42C4ACB35F0CD3400FC09E687F0D258
:101F6300E7A42DCC35F0FDE433FA0918E687F0D267
:101F7300F7A42CCD35F0CA3400FC08E687F0D2E78D
:101F8300D2F7A42ACC35F07A7E20E70B0ACB33CBE9
:101F9300CD33CDCC33CC33CB3350147004ED30E0A0
:101FA3000ED2F1E4CD3DCDCC3CCC3B5005DA05C29D
:101FB300F1EB547FC63308E63392F0FBE73309E7CE
:101FC30033C39A502D2B70190C0D4C4D70151806F8
:101FD300E608C333700D20F10AA2F013F6E418806B
:101FE3000B4024E4F630F002768018F618F618F663
:101FF3008024D33B14501074FFA2F013F61876809C
:10200300E418F618F6800FA2F013F618E63303F679
:1020130018ECF618EDF6D0E0FDD0E0FCD0E0FBD0F4
:10202300E0FA22121DD06046121DC1603DE96870BE
:1020330008F618F618F618F622748067F712205A75
:10204300090909748067F722121DC1601D121DD092
:102053007005191919801A121D99701F121DADC32D
:102063007003E6673319191940071818182208086E
:102073000874FFF618F618F618F622121DAD60174D
:10208300121D90702192F0121D877019501720F0C5
:1020930014080808090909E7F61819E7F61819E7F3
:1020A300F61819E7F622121D8760E6E869701F0823
:1020B30008E62480F608E436F618547FB47F0CE66D
:1020C30054806007F6E418F618F622181822E9C6B9
:1020D300CC08C6CD08C6CE08C6CFC0E0E8C0E0EA4B
:1020E300C0E0EBC0E009E9F809E7FA09E7FBE6F924
:1020F30018E6F8C3EC98ED99EE9AEBC2E7F5F0EF2A
:10210300C2E795F0500E600CEBCFFBEACEFAE9CDB7
:10211300F9E8CCF8EAA2E7D2E7FAEB33FB13F5F0E0
:10212300EEA2E7D2E7FEEF33FFC5F013A2E730E6F6
:1021330001B313C5F0C3C0E0C0F07F00C39BFB60D5
:102143005E9418600F401D14601AD0E023F9D0E0AC
:10215300F802222C8AF0E9486003D2F0E4AFF0FAE7
:10216300F9F8803BEB30E40D89F0EA6003D2F0E448
:10217300AFF0F9CAF8EB30E30D88F0EF6002D2F06C
:10218300AFF0E4CAC9F8EB54076014FBC3EA13FACF
:10219300E913F9E813F8EF135002D2E0FFDBEDD0B7
:1021A300E0C0E030E739C3E49FFFF5F0EC98FC4270
:1021B300F0ED99FD42F0EE9AFE42F0D0E0F9D0E066
:1021C300F8E5F0607AE923F9EE20E742D802806768
:1021D300C3EF33FFEC33FCED33FDEE33FE80EAEC6B
:1021E30028FCED39FDEE3AFED0E023F9D0E0F840CB
:1021F30002801BC3EE13FEED13FDEC13FCEF135033
:1022030002D2E0FF08B800067F7F74FF802EEF3311
:1022130050178CF020F00260100CBC000C0DBD00B8
:10222300080EBE000408E860DFE933E813FFEE237D
:1022330013FE4F4D4C8008E95480FFE4FEFDFCEE95
:1022430033EF33F47004FCFD7E80D0E0FBD0E0FA82
:10225300D0E0F8D0E0CFC618CEC618CDC618CCC68D
:10226300F922121DC1700418181822121DD0700D06
:1022730074FFF61819F61819F61819F622E75480A0
:1022830066F6121D87700F121D9070F014F608F693
:1022930008F608F680D1121D90700CF608F6087641
:1022A3008008E6447F80EC121DB0700C121D9C6008
:1022B300BFE65480F6E480BB121D9C700519191902
:1022C30080A5E869700C763F18768018F618F6E852
:1022D300F922E6CDC0E018ECC0E0E633CD33CDD330
:1022E30013F6E719FCE7191933CC33C3947F400E77
:1022F300CD9D502408E65480F6E418F6800FF404CC
:102303003D14501408E6447FF6187680E418F61856
:10231300F6D0E0FCD0E0FD22CCD313CCFD18E4C60C
:10232300CBC0E018E4C6CAC0E00808ED08C633E62F
:1023330013F618E433C675F003C3CA97CA09CB97DB
:10234300CB199C40047D08802EBD000302240E1689
:10235300B6FF050606081618C3CA33CACB33CB33F8
:10236300CA27CA09CB37CB193CC37D08803E187DE9
:102373000820E75CC633C6CA33CACB33CB33DDF19F
:10238300D5F0EB30E77BCA97CA09CB974ACB199CA8
:10239300406F4B7025E620E0218066187D08C3CA94
:1023A30097CA09CB97CB199CD3C633C6CA33CACBBA
:1023B30033CB3350C9DDE7D5F0E1D3E4C636C608E5
:1023C300C636C608C636C608C636C61818188031BB
:1023D300C3CA97CA09CB97CB199CB34097C633C6D8
:1023E300CA33CACB33CB33DD34D5F02EC6A2E0C615
:1023F30040C8CA27CA09CB37194A70BECB3CB48040
:10240300B90808E63308E633601F181818D0E0FA55
:10241300D0E0FBD0E0FCD0E0FD22187D08CA27CA3B
:1024230009CB37CB193CD3808013F618E4B67F1160
:10243300F618B6FF0EF618C60470D2080876808028
:10244300CAF618F618F680C5080808EAC0E0EBC01B
:10245300E086F0E7A4FA180986F0E7A42AFA180937
:1024630086F0E7A42AFA180986F0E7A42AFA19865F
:10247300F0E7A4FBE5F02AFA190886F0E7A42BFBA2
:10248300E5F03AFA190886F0E7A42BFBE5F03AFAEF
:1024930018180986F0E7A4C5F02BFBE43AFA1908EB
:1024A300E7C5F0C6A426F6E5F03BFBE43AFA188646
:1024B300F0E7A4F6E5F00826F6E43B08F6E43A086C
:1024C300F6D0E0FBD0E0FA22E4CFC0E0E4CEC0E0F7
:1024D300E4CDC0E0E4CCC0E075F020E626F608E6E3
:1024E30033F608E633F608E633F6181818EC33FC2F
:1024F300ED33FDEE33FEEF33FFC3EC9709ED9709A0
:10250300EE9709EF97191919400FFFEC97FC09EDA6
:1025130097FD09EE97FE191906D5F0BFECF709ED03
:10252300F709EEF709EFF7191919D0E0FCD0E0FD30
:10253300D0E0FED0E0FF22181818E4C396F608E4B2
:1025430096F608E496F608E496F62260160808085C
:10255300C6C313C618C613C618C613C618C613C6F1
:10256300D5E0EA227009080808226016181818C670
:10257300C333C608C633C608C633C608C633C6D572
:10258300E0EA22E627F60809E637F60809E637F611
:102593000809E637F622E026F608A3E036F608A394
:1025A300E036F608A3E036F622E026F008A3E0368C
:1025B300F008A3E036F008A3E036F022C3E697F66E
:1025C3000809E697F60809E697F60809E697F6225A
:1025D300C3E096F008A3E096F008A3E096F008A302
:1025E300E096F022E657F60809E657F60809E6579B
:1025F300F60809E657F622E056F608A3E056F60871
:10260300A3E056F608A3E056F622E056F008A3E04E
:1026130056F008A3E056F008A3E056F022E066F671
:1026230008A3E066F608A3E066F608A3E066F622D0
:10263300E0F608A3E0F608A3E0F608A3E0F622E636
:10264300F008A3E6F008A3E6F008A3E6F022E0FA18
:10265300A3E0FBA3E0FCA3E0FD22EAF0A3EBF0A3DD
:10266300ECF0A3EDF022E0F8A3E0F9A3E0FAA3E095
:10267300FB22E8F0A3E9F0A3EAF0A3EBF022CAC03F
:10268300E0E6F0A308DAFAD0E0FA22CAC0E0E0A359
:10269300C582CCC582C583CDC583F0A3C582CCC515
:1026A30082C583CDC583DAE6D0E0CA22C3E498F8B5
:1026B300E499F91226F08026C3E49AFAE49BFBE935
:1026C30020E7E91226F0E498F8E499F922C3E498A4
:1026D300F8E499F91226F0E498F8E499F9C3E49A36
:1026E300FAE49BFB22EB20E7CFE920E7E0B90010F7
:1026F300BB0008E88AF084F8AAF022E4FBC8FA22B7
:10270300EB70227B10C833C8C933C9335007C39A4F
:10271300C3DBF280069A50012ADBEAC833F4C8C946
:1027230033F4C9FA2275F008E4C833C8C933C9338E
:10273300C99AC99B5004C92AC93BD5F0ECFBC833DD
:10274300F4C8E4C9FA22600D08C6A2E713C618C686
:1027530013C6D5E0F322600C08C6C313C618C6130C
:10276300C6D5E0F422700422600D18C6C333C60830
:10277300C633C6D5E0F41822251810AF08F5184063
:102783000C15198008F51840021519D2AF2200C0A4
:10279300D0251810AF08F518500C05198008F51846
:1027A30050020519D2AFD0D0222518F58210AF08F8
:1027B300F518400C15198008F51840021519D2AF09
:1027C300851983222518F582E43519F58322251806
:1027D300F8E43519F9222518FAE43519FB222518EE
:1027E300FCE43519FD22E4732518C582C0E0E51920
:1027F30034FFC583C0E0E518C3958224F810AF0801
:102803008583198582188008858319858218D2AF3C
:10281300CEF0A3E520F0A37808E608F0A3DEFAEFF4
:10282300F0A3E58124FAF8E608F0A3E608F0A3E6AE
:1028330008F0A30808E608F0A3E608F0A31581153D
:1028430081D0E0FED0E0F8158115811581E8C0E064
:10285300EEC0E0222518C582C0E0E51934FFC58328
:10286300C0E0E518C3958224F910AF088583198564
:1028730082188008858319858218D2AFCEF0A3E52C
:1028830020F0A37808E608F0A3DEFAEFF0A3E581D1
:1028930024FBF8E608F0A3E608F0A30808E608F02E
:1028A300A3E608F0A315811581D0E0FED0E0F8156A
:1028B300811581E8C0E0EEC0E02285198385188286
:1028C300E0A3FEE0A3F5207808E0A3F608DFFAE032
:1028D300A3FFE0A3C0E0E0A3C0E0E0A3C0E0E0A367
:1028E300C0E0E0A3C0E010AF08858218858319809B
:1028F30008858218858319D2AFD083D08202013232
:10290300851983851882E0A3FEE0A3F5207808E00B
:10291300A3F608DFFAE0A3FFE0A3C0E0E0A3C0E072
:10292300E0A3C0E0E0A3C0E010AF08858218858370
:10293300198008858218858319D2AFD083D082226B
:10294300C0D02518C582C0E0E51934FFC583C0E0B7
:10295300E518C3958224F310AF088583198582187F
:102963008008858319858218D2AFC8F0A3E9F0A344
:10297300EAF0A3EBF0A37908E709F0A3D8FAECF0A7
:10298300A3EDF0A3EEF0A3EFF0A3D0E0F0A3D0E02B
:10299300F0A3D0E0F0A3E520F0A3E5F0F0A32285B7
:1029A3001983851882E0C0E0A3E0F9A3E0FAA3E06D
:1029B300FBA37808E0F608A3DFFAE0FCA3E0FDA39D
:1029C300E0FEA3E0FFA3E0C0E0A3E0C0E0A3E0F5E6
:1029D300D0A3E0F520A3E0A3F5F010AF0885831999
:1029E3008582188008858319858218D2AFD082D05A
:1029F30083D0E0F8D0E0327404800674028002745D
:102A030001C0E0F4041227ACD0E012268122740442
:102A1300800474028000CCC0E0EDC0E0E518C39CE4
:102A2300CCAD1950011D10AF068C188D1980068C82
:102A3300188D19D2AF12268ED0E0FDD0E0FC22D043
:102A430083D082E9C0E0E493A3C386F0C5F095F098
:102A5300F908E493A386F0C5F095F0700BE493A313
:102A6300C3994005E9048002A3E475F002A425821A
:102A7300F582E5F03583F583D0E0F9E493A3C0E074
:102A8300E493C0E022D083D082ECC0E0EDC0E0E468
:102A930093A3FCE493A3FDED4C600D122AD4EC2424
:102AA300FFFCED34FFFD80EFE493A3FCE493A3FD6F
:102AB300ED4C600D122B13EC24FFFCED34FFFD8075
:102AC300EFD0E0FDD0E0FCE493A3C0E0E493C0E0EA
:102AD30022C0E0C3E49396087401939618400FE470
:102AE3009366700808740193661870007019A3A3A5
:102AF300C3E49396087401939618A3A3400DD0E002
:102B0300D0E0D0E0022AC4A3A3A3A3A3A3D0E022CE
:102B1300C0E0C0F088F0E49366700808740193661F
:102B2300187000A8F0A3A3700BD0F0D0E0D0E0D0D1
:0B2B3300E0022AC4A3A3D0F0D0E022EF
:102B400074F6122857EAFEEBFF8C088D09EE243448
:102B5000F8E43FF9E8FCE9FD122C72E0FAEE2437C4
:102B6000F582E43FF583E0F88508F0A4C885F00A13
:102B70008509F0A4250AF9EA28F8E439F97A257BD1
:102B8000001226F0EA8C828D83F0FA131313541F7F
:102B9000F8EE28F8E43FF9E8245DF582E439F5839E
:102BA000E0C0E074075AF8D0E0B800028004C31314
:102BB000D8FCA2E05003EA8020EE2436F582E43F00
:102BC000F583E0F5F0EA84A8F0EE28F8E43FF9E8B0
:102BD0002438F582E439F583E0F97F030229037490
:102BE000F5122857EAFEEBFFEE2434F582E43FF5B8
:102BF00083E0C0E0122C72D0E0F08E828F83A3A31A
:102C0000A3A3A3E0FAA3E0FB8E828F83A3A3A3A3D5
:102C1000A3A3A3E0C39AF508A3E09BF509EE247FE4
:102C2000F8E43FF9880A890B8882F583E064017033
:102C30002CEE2480F582E43FF583EA2401F8E43B9E
:102C4000F9E0687003A3E06970137C1A7D08EEFA5E
:102C5000EFFB121018850A82850B83E4F0AC08ADF7
:102C600009EEFAEFFB122B40E9F912375D7F0402FF
:102C70002903EE2435F582E43FF58322C082C08328
:102C8000851882851983E0F8A3E0F9C3EA9CEB9DDF
:102C90005010C3EC98ED99401BC3EA98EB9950147F
:102CA000800EC3EA98EB994007C3EC98ED99400475
:102CB000790180027900D083D08222EAC39CFAEBAA
:102CC0009DFB2274ED1228579004C3E06408600550
:102CD000E06407702C9061C8E060269004F1E0F891
:102CE00074FF68601CE875F00DA4C8AAF02AF97496
:102CF000F328FE740439FF8E828F83A3A3A3E070B0
:102D0000057900022E65EE2468F50EE43FF50F907C
:102D10006060E0850E82850F83F07510B475110830
:102D2000750800750900E5D914F50AE5D95403F5CD
:102D30000B601FEE2483F50CE43FF50D7403650B67
:102D40006059E50A6017EE2467F582E43FF583E0F9
:102D5000700B793DEEFAEFFB12104880A49008AF9B
:102D6000E064016023850C82850D83E060047A04B1
:102D700080027A00E50AC39AFA95E0FB120DFC8AFC
:102D8000088B09EA45097006121342022D01850CD1
:102D900082850D83E070048A108B117A008014E51F
:102DA000D9C0E0EAF8E51028F582E43511F583D0C2
:102DB000E0F00AEAC3950A40E6850C82850D83E0BF
:102DC000602874FC250AF50A78101229FEAC0AA9BD
:102DD0000BEEFAEFFB1211027402122791E9700A4E
:102DE000AA08AB091218CA022D527403650B60546D
:102DF000850A0C750D00780C1229FEAC10AD11AAD5
:102E000008AB091210C67402122791850E82850F35
:102E100083E0F87480687005750C7F8002880CE58B
:102E20000CF50D780D122A02780B122A02A90AACB1
:102E300008AD099004F1E0FA7B00120C1C74021238
:102E40002791801C9004C3E06408AC10AD11700998
:102E5000EEFAEFFB1211328007EEFAEFFB1211ECE3
:102E600012134E79017F0C02290374F31228577450
:102E7000FC12277BEAFEEBFF8909A2AFE433F508D9
:102E8000C2AFEE2463F50AE43FF50B8010AA0AAB4B
:102E90000B12107E1218CA900821E004F0850A82F5
:102EA000850B83E0F8A3E0F9E849602DE82402FAF5
:102EB000E439FBEA2402F50CE43BF50D780C122909
:102EC000FE8A828B83E0FCA3E0F9EEFAEFFB12109E
:102ED000727402122791E960B4900821E0604D906D
:102EE0000822E0F8900821E0C398500C74026509AC
:102EF000703A900823E060348E828F83A3A3A3A34B
:102F0000E0851882851983122F3C74021227C7E8C6
:102F1000122F3C900820E028F074021227E1AA1832
:102F2000AB197901120C7C900821E4F0E508A2E0CD
:102F300092AF74041227917F06022903F0A3E4F0F4
:102F4000900821E0F82200008521878522C622C052
:102F5000E074EB122943A2AFE433F508C2AF759BCE
:102F600000906182E0A2E05030E591A2E0502A7525
:102F700091FE7401652170211230E2121246123066
:102F8000D0122A111235077404122791E9640170D6
:102F90000579011212A0122CC3906182E0A2E550C3
:102FA0005DE591A2E550577591DF9004C3E0640799
:102FB0006005E06408702F1230E274016521703EF4
:102FC0001212461230D0122A111235077404122739
:102FD00091E96401700579011212A07901EEFAEF0E
:102FE000FB122E6A8018E0640D70139004E5E00473
:102FF000F064287002E4F07A00E0F9121354906152
:1030000082E0A2E640030230A5E591A2E640030279
:1030100030A57591BF9004C3E06405700812122EAC
:1030200012123A80031212347521001212BEE99076
:1030300004C4F079001212A0120F3A7A017B0090BA
:1030400004C2E0F912189A907803E0644270569036
:1030500008B3E014F0704EC2AF12305C00782AD092
:10306000E0F618D0E0F6E59F5407F87005750DFFFF
:103070008003750D7FC4C0E07829E6F50A08E6559F
:103080000DF50B740B780A122759D0E0250AF89039
:103090006270E0A2E740F8E8C333906272F0906299
:1030A00070E0D2E0F0906181E0A2E35009E5E9A28E
:1030B000E3500375E9F7A3E0A2E75009E591A2E721
:1030C000500375917FE508A2E092AF7F080229A224
:1030D0008E828F83E0F8A3E0C82416F582E438F5E9
:1030E00083229004F1E0F875F00DA4C8AAF02AF943
:1030F00074F328FE740439FF22C0E0C0D0C082C03F
:1031000083906183E0A2E05009E5BFA2E05003751F
:10311000BFFEE0A2E15009E5BFA2E1500375BFFD8B
:10312000E0A2E25009E5BFA2E2500375BFFBE0A2B6
:10313000E35009E5BFA2E3500375BFF7E0A2E450F6
:1031400009E5BFA2E4500375BFEFE0A2E55009E531
:10315000BFA2E5500375BFDFE0A2E65009E5BFA2BC
:10316000E6500375BFBFD083D082D0D0D0E032C04C
:10317000E074F2122943E5A7A2E4500FE5A1A2E40E
:10318000500953A7EF75A1EF1231C3E5A7A2E5508F
:103190000CE5A1A2E5500653A7DF75A1DFE5A7A2C4
:1031A000E15009E5A1A2E1500375A1FDE5A7A2E266
:1031B000500CE5A1A2E2500653A7FB75A1FB7F01CD
:1031C0000229A274F81228577521019004C3E06403
:1031D0000670077A007B00121216A2AFE433FED20B
:1031E000AF9004C9E0640170187A207B009004C29B
:1031F000E0F91219D27A207B009004C2E0F912188B
:10320000A0906182E0D2E6F09008B0E0602185C62F
:103210002280169004C8E064017008E5C654F844A2
:1032200005F5C653BEFC122F487401652160E4EE1B
:10323000A2E092AF7F010229030000008E238F24B9
:10324000858228858327851882851983E0CEA3E0AF
:10325000CF852882852783EBC9EAC8EDCBECCA75F8
:10326000F010C3E833C8E933C9EA33CAEB33CBC340
:10327000EA9EF526EB9FF525B35004AB25AA26EC74
:1032800033CCED33CDD5F0DAAE23AF242274E9127E
:10329000285774FA12277BEAFEEBFF8C088D09127F
:1032A0001258EAF8EBF9ECFAEDFB8E828F831226C6
:1032B000759004C3E024F7C394055006751001020D
:1032C00033C412118C8A0A8B0BEA450B700302334C
:1032D000C112124C8A0C8B0D12124CEA650C700351
:1032E000EB650D60ECEEFCEFFDAA18AB1912125263
:1032F000850A82850B83A3A3780C1226339095C090
:10330000780C1225FA8518828519837814122633D1
:103310009095C078141225FA780C7914121C41503B
:103320001F780C79141225BF909628780C121C6116
:103330004047850C10850D11850E12850F138045B1
:103340009096288514108515118516128517137807
:1033500010790C1225BF7810121C61501C751000DA
:10336000751100751200751301781079141225BFBC
:103370007810790C122586800C7510017511007576
:1033800012007513007409781012256790958878DB
:103390000C1226337810790C1224CB9004C3E0640D
:1033A00008600AE064066005E0640570209095946A
:1033B0007810121C6150169096247810122599806E
:1033C0000C751000751100751200751300850882C8
:1033D000850983781012264274061227917F100205
:1033E000290374F712285712126A9008AEE064019C
:1033F0007010906245E4F0A3F053F4F343FE0C53D5
:1034000090F3121204E5C654B84441F5C6E59E5443
:1034100047644170F8906185740FF09008ACE0F457
:103420007002A3E0602C7508017509009008ACE0FB
:103430007808122768E508F4FAA3E0600814600A27
:1034400014600C800DEA52808008EA52908003EAF2
:1034500052A079007F0202290374F7122857E9FE6F
:10346000EAFF74016E700C7A807B009004C2E0F970
:1034700012189A90382CE493F46008E493F9120F30
:103480001C800953C6B8E59E544770FA12120A9080
:1034900008AEE064017003120F529008ACE0F470C3
:1034A00002A3E0602B7508017509009008ACE07874
:1034B00008122768E508FAA3E0600814600A14609F
:1034C0000C800DEA42808008EA42908003EA42A024
:1034D00012118C8A088B09A808A909E8496016E529
:1034E000E170FCE82414F582E439F583E0F874FF18
:1034F00068600288E174016F700A7A019004C2E08A
:10350000F912193002345474F11228578A088B09C1
:103510008C0A8D0B9095C078081225FA740F12272B
:10352000C7780C1226339095C0780C1225FA7808CB
:10353000790C121C4190962850107808790C1225AD
:10354000BF7808121C614014800E780C790812258F
:10355000BF780C121C6150047901800279007F0849
:1035600002290374ED1228578A088B098C0A8D0BE7
:103570009095C078081225FA74131227C7780C1298
:1035800026339095C0780C1225FA780C7908121C15
:103590004140117808790C1225BFAA08AB09AC0A82
:1035A000AD0B8022751000751100751200751301A6
:1035B0007810790C1225BF78107908122586AA1088
:1035C000AB11AC12AD137F0C0229039095C07808A3
:1035D0001226338A828B83780812260D7F040229F3
:1035E0000374F51228578C828D8378081226338A4B
:1035F000828B8378081225D3123635C3E098F0A366
:10360000E099123627401E9095C878081226338A12
:10361000828B8378081225AC8E828F83E02420F081
:10362000A3E0344EF080A4F08E828F83C3E0942018
:10363000A3E0944E22EA2404F8E43BF9E8FEE9FF13
:103640008C828D83A3A3A3A3E0F8A3E0F98E828FDD
:10365000832274F5122857E9FE90083CE0FAA3E0B3
:10366000FBEE29F8E433F9749828F582749139F562
:1036700083E02AF508A3E03BF50978081229FE90BB
:1036800095D412265112323C74021227918A088B6B
:10369000098C0A8D0B7410780812254EAA08AB0904
:1036A0007F0402290374F11228578A0C8B0D8C0EAB
:1036B0008D0F74111227C7122A1574111227C7E033
:1036C0002401F508A3E03400F509E4F50AF50B78C8
:1036D0000C790812244B9096207808122633780C27
:1036E000790812244BAA0CAB0DAC0EAD0F12323C74
:1036F00074021227918B09EA450960047A0180025D
:103700007A00EC2AFCE43DFD74131227C7E0F8A30D
:10371000E0F9E8FEE9FFECF8EDF97A717B02122698
:10372000F088088909E4F50AF50B8E828F83780802
:10373000122642ECF8EDF97A717B021226F08A0823
:103740008B09740578081227688E828F83A3A3A340
:10375000A3E508F0A3E509F07F08022903C082C0B1
:1037600083E9906000F0D083D08222C0E074F2122E
:103770002943A2AFE433FED2AFE589A2E14006E5DA
:1037800089A2E2500312178C758900758900C2C5A1
:10379000751A00EEA2E092AF7F010229A2C0E07488
:1037A000F2122943A2AFE433FED2AFE58BA2E05080
:1037B0000312178C758B00C2E8751A00EEA2E09216
:1037C000AF7F010229A2C0E0C0D0E8C0E0A2AFE410
:1037D00033F8D2AFC2C7751A00E8A2E092AFD0E0CA
:1037E000F8D0D0D0E032C2AF02000022C0E074F2C4
:1037F00012294390192E74FFF090192F74FFF07C5A
:10380000027D007A2E7B1912055CE97A047B009018
:1038100018ADE0F912189AE9D2F0A29130F001B394
:103820009291758900C2C57F010229A2FFFFFFFFA7
:10383000FFFFFFFFEAF8EBF9E824FFFAE934FFFBAA
:10384000E84960217800790078DC7905C3E89401C3
:10385000E99400A2D265D03340DA00E824FFF8E909
:1038600034FFF980E702013274F71227EB890878F8
:1038700000800108E8C395085022E8FE7F00EA2E88
:10388000F582EB3FF583E0F9E8FE7F00EC2EF58250
:10389000ED3FF583E06960DB7900800279017F010B
:1038A0000228BD74F01227EBE9FE7C007508007554
:1038B0000900750A00750B00803A909640780C124A
:1038C00026337808790C12244BECF87900EA28F5B5
:1038D00082EB39F583E0F87900E824D0F50CE9347F
:1038E000FFF50DE50D3395E0F50EF50F7808790C31
:1038F0001225860CECC39E500FECF87900EA28F5EF
:1039000082EB39F583E070B2AA08AB09AC0AAD0BC3
:103910007F080228BD74F71227EB74EF12277B9003
:103920009126AC18AD19741112268E786B7918880F
:103930008289837430F088828983A3A882A98388CE
:103940008289837478F088828983A3A882A983EA14
:103950002406FA50010B7E06806AEA24FFFAEB3453
:10396000FFFB8A828B83E0C4540FFC7D00851882A4
:10397000851983E5822CF582E5833DF583E0C0E07F
:1039800088828983D0E0F088828983A3A882A98372
:103990008A828B83E0FC7D00EC540FFCED5400FD2B
:1039A000851882851983E5822CF582E5833DF583B0
:1039B000E0C0E088828983D0E0F088828983A3A870
:1039C00082A9831EEE7093888289837400F07A6BDB
:1039D0007B1874111227917F010228BDC082C08319
:1039E0007CB37D177AB6798012199CE9D083D08296
:1039F00002013274F71227EBE9FEEE6003023A8E01
:103A00009017B37404F09017B47400F09017B57465
:103A100000F09017B67400F07C277D947AB77B177E
:103A2000121BEE9017C37400F07C187D957AC47B4E
:103A300017121BEE9017CB7400F07C0D7D007900FF
:103A40007ACC7B171218589017E67400F09017E79D
:103A50007400F07C787D0079007AE97B17121858A1
:103A60009018617400F0A37400F09018637400F073
:103A70009018647400F09018657400F090186674E3
:103A8000F4F0A37401F09018687400F0802B7401B6
:103A90006E70267C0D7D0079007ACC7B1712185849
:103AA0009017E67400F09017E77400F07C787D00C2
:103AB00079007AE97B171218587C007D0079007A2A
:103AC000097B04121600E9121A567F010228BD7400
:103AD000F41227EB74D312277B9017B3E0F5087527
:103AE000090078081229FE7C9E7D8E74021227D967
:103AF000121BEE7402122791AA18AB1912183A8AF7
:103B0000088B09AC08AD09AA18AB1912180A7A6417
:103B10007B00121A3E9017B4E0F50875090078088A
:103B20001229FE7C3C7D8F74021227D9121BEE7481
:103B300002122791AA18AB1912183A8A088B09ACFD
:103B400008AD09AA18AB1912180A7A647B00121A78
:103B50003E9017B5E0F50875090078081229FE7C3B
:103B6000EF7D8E74021227D9121BEE740212279178
:103B7000AA18AB1912183A8A088B09AC08AD09AA21
:103B800018AB1912180A7A647B00121A3E9017B605
:103B9000E0F50875090078081229FE7C407D9074D4
:103BA000021227D9121BEE7402122791AA18AB1920
:103BB00012183A8A088B09AC08AD09AA18AB191279
:103BC000180A7A647B00121A3E7508B775091778CF
:103BD000081229FE7CCD7D8F74021227D9121BEEAC
:103BE0007402122791AA18AB1912183A8A088B0985
:103BF000AC08AD09AA18AB1912180A7A647B001236
:103C00001A3E9017C3E0F50875090078081229FEDE
:103C10007CFB7D8F74021227D9121BEE74021227CF
:103C200091AA18AB1912183A8A088B09AC08AD0989
:103C3000AA18AB1912180A7A647B00121A3E75088A
:103C4000C475091778081229FE7C297D9074021228
:103C500027D9121BEE7402122791AA18AB19121859
:103C60003A8A088B09AC08AD09AA18AB1912180AD0
:103C70007A647B00121A3E9017CBE0F508750900B4
:103C800078081229FE7C127D9074021227D9121B2B
:103C9000EE7402122791AA18AB1912183A8A088BEF
:103CA00009AC08AD09AA18AB1912180A7A647B008E
:103CB000121A3E7508CC75091778081229FE7CB9CE
:103CC0007D8E74021227D9121BEE7402122791AA5C
:103CD00018AB1912183A8A088B09AC08AD09AA1852
:103CE000AB1912180A7A647B00121A3E7508007527
:103CF0000900023D849092B174201227E1740D12E4
:103D0000268E750A0C750B00780A1229FEA808A9E0
:103D100009E875F00CA4C8AAF075F000A42AFA7599
:103D2000F00CE9A42AF974E928FC741739FD74220F
:103D30001227D9121840740212279174201227D129
:103D4000880A890B780A1229FE78081229FE7C223B
:103D50007D9374041227D9121BEE7404122791AAC2
:103D600018AB1912183A8A0A8B0BAC0AAD0BAA18B9
:103D7000AB1912180A7AC87B00121A3E0508E5082A
:103D8000700205099017E6E0F87900C3E50898E5A8
:103D90000999A2D265D0335003023CF59018611204
:103DA0002A157C587D8E74021227D9121BEE7402DC
:103DB000122791AA18AB1912183A8A088B09AC0875
:103DC000AD09AA18AB1912180A7A647B00121A3EC0
:103DD000901863E0F5083395E0F50978081229FE9C
:103DE0007CE47D8F74021227D9121BEE7402122715
:103DF00091AA18AB1912183A8A088B09AC08AD09B8
:103E0000AA18AB1912180A7A647B00121A3E90188D
:103E100065E0F50875090078081229FE7C097D8F98
:103E200074021227D9121BEE7402122791AA18AB42
:103E30001912183A8A088B09AC08AD09AA18AB19EF
:103E400012180A7A647B00121A3E901866122A151C
:103E50007C2E7D8E74021227D9121BEE740212275B
:103E600091AA18AB1912183A8A088B09AC08AD0947
:103E7000AA18AB1912180A7A647B00121A3E90181D
:103E800068E0F50875090078081229FE7CD47D8E5B
:103E900074021227D9121BEE7402122791AA18ABD2
:103EA0001912183A8A088B09AC08AD09AA18AB197F
:103EB00012180A7A647B00121A3E742D1227917F21
:103EC000040228BDC082C0839017C3E0F9D083D01C
:103ED00082020132C082C083121A68E96401701044
:103EE0009018E2E064027004790180127900800E7B
:103EF0009018EDE064067004790180027900D083A7
:103F0000D08202013274F41227EB74F412277BEA98
:103F1000FEEBFF121A68E964016003023FCE7508E8
:103F200000800205089017E6E0F8E508C3985033D2
:103F3000AA18AB19A908121A7AE96027750A0C7534
:103F40000B00780A1229FEEEFCEFFD74021227D94D
:103F50001218527402122791E960C8E5089017E818
:103F6000F0806B75080C75090078081229FEEEFCCC
:103F7000EFFD9017E7E0F87900E875F00CA4C8AA07
:103F8000F075F000A42AFA75F00CE9A42AF974E996
:103F900028FA741739FB12184074021227919017EF
:103FA000E7E09017E8F09017E7E02401F09017E7BA
:103FB000E075F00A84E5F09017E7F09017E6E0C3AB
:103FC000940A50079017E6E02401F0121A56740C78
:103FD0001227917F040228BD74F41227EB8908EAA6
:103FE000FEEBFF121A68E9640170489017E6E0F8EA
:103FF000E508C398503D750A0C750B00780A122924
:10400000FEE508F87900E875F00CA4C8AAF075F090
:1040100000A42AFA75F00CE9A42AF974E928FC74C2
:104020001739FDEEFAEFFB1218407402122791794E
:1040300001800279007F040228BD02013274EC1273
:1040400027EB7E31750C00750D00750E40750F4025
:10405000121BAC8A088B09A808A909EEFA7B00E8B4
:10406000C39AF508E99BF509E5093395E0F50AF5EA
:104070000B7808121C809095847810122633780CE7
:104080007910121EA67808790C1222657808122978
:10409000FA909584122651121BE274041227917F24
:1040A0000C0228BD74F51227EB780079007C007DA6
:1040B000007E007F007508E8750903901884E064AD
:1040C000056003024245901885E0F8A3E0F9E87521
:1040D000F002A4C885F00A75F000A4250AF50A7557
:1040E000F002E9A4250AF9747A28F582741839F5E2
:1040F00083EAF0A3EBF0901885E02401F0A3E0340C
:1041000000F0901885E0F8A3E0F97A057B0012260C
:10411000E8901885EAF0A3EBF078007900024217E6
:10412000E8FAE9FBEA75F002A4CA85F00A75F00026
:10413000A4250AF50A75F002EBA4250AFB747A2A75
:10414000F58274183BF583E0FAA3E0FBC3EE9AEF27
:104150009BA2D265D0335028E8FAE9FBEA75F00259
:10416000A4CAAEF075F000A42EFE75F002EBA42EEA
:10417000FB747A2AF58274183BF583E0FEA3E0FF16
:10418000E8FAE9FBEA75F002A4CA85F00A75F000C6
:10419000A4250AF50A75F002EBA4250AFB747A2A15
:1041A000F58274183BF583C3E09508A3E09509A256
:1041B000D265D033502EE8FAE9FBEA75F002A4CAC2
:1041C00085F00875F000A42508F50875F002EBA449
:1041D0002508FB747A2AF58274183BF583E0F5080C
:1041E000A3E0F509E8FAE9FBEA75F002A4CA85F054
:1041F0000A75F000A4250AF50A75F002EBA4250A59
:10420000FB747A2AF58274183BF583E02CFCA3E05A
:104210003DFD08E8700109C3E89405E99400A2D2C5
:1042200065D0335003024120ECC39EF8ED9FF9E8BE
:10423000C39508F8E99509F97A037B001226E8E8A6
:10424000FAE9FB8036901884E0F87900E875F0020E
:10425000A4C8ACF075F000A42CFC75F002E9A42C05
:10426000F9747A28F582741839F583EAF0A3EBF033
:10427000901884E02401F07A007B007F030228BDBF
:1042800074F01227EB74E012277BE9FEEE901863BE
:10429000F0121A6EE9700302432DEEFA3395E0FB3B
:1042A000121A868A088B098C0A8D0B909648780C16
:1042B0001226337808790C121EA67808121CF8AA68
:1042C00008AB09121A8C8A088B0978081229FEEEAD
:1042D000F404F50875090078081229FE7C377D91F1
:1042E00074041227D9121BEE7404122791901869D6
:1042F000E0603AAA18AB19121C008A088B09AC08B6
:10430000AD09AA18AB1912180AAA18AB19121C0089
:104310008A088B09AC08AD09AA18AB1912055CE92B
:104320007A107B009018ADE0F912189AE974201207
:1043300027917F080228BD74F61227EB74E8122734
:104340007B908F55AC18AD19741812268E7508C461
:1043500075091778081229FE7C1F7D9274021227B6
:10436000D9121BEE7402122791AA18AB1912183A2F
:104370008A088B09AC08AD09AA18AB1912180A747F
:10438000181227917F020228BD7AB77B17020132EB
:10439000C082C083121A6EE97036121A68E964018D
:1043A0007017901887E02401F0901887E075F00AE4
:1043B00084E5F0901887F08033901887E02401F0AE
:1043C000901887E075F01484E5F0901887F0801C51
:1043D000901887E0901887E02401F0901887E07526
:1043E000F03284E5F0901887F0121AD4D083D0828E
:1043F000020132C082C0839017CBE0F9D083D08213
:1044000002013274F01227EB79067AC47B17121A74
:104410004A8A0C8B0D8C0E8D0F850C08850D098535
:104420000E0A850F0B9095D4780C122633780879F4
:104430000C1224CBAA0CAB0DAC0EAD0F7F080228DA
:10444000BDC082C0839017B6E06402700479018019
:10445000027900D083D082020132C082C0839017DB
:10446000B6E07004790180027900D083D082020125
:104470003274F61227EB90186AE064037004790036
:10448000807690186AE06401600890186AE064041D
:1044900070419017E6E0605E75080C7509007808B9
:1044A0001229FE9017E8E0F87900E875F00CA4C82E
:1044B000ACF075F000A42CFC75F00CE9A42CF97498
:1044C000E928FC741739FD121840740212279179FB
:1044D00001802590186AE06402701B75080C75094C
:1044E0000078081229FE7CD97D1712184074021238
:1044F00027917901800279007F020228BD74F612AB
:1045000027EB901866E0F508A3E0F509AA08AB09C7
:10451000E4FCFD7F020228BD74E91227EB74B91296
:10452000277BEAFEEBFF8C088D09751401751500D9
:1045300074046508700474006509703479047C6B38
:104540007D95EEFAEFFB121A44E960247C7A7D95A2
:10455000AA18AB19121BEEAA18AB1912183A8A083E
:104560008B09AC08AD09AA18AB1912180A02552517
:1045700074086508700474006509701679087C5425
:104580007D94EEFAEFFB121A44E96006121A6202F9
:104590005525740A650870047400650960030246B5
:1045A0006579077CF27D94EEFAEFFB121A44E9700C
:1045B000030246658E828F83A3A3A3A3A3A3A3E0D4
:1045C00024D0604B14604814604514604214603F6E
:1045D00024F5600302465F9017B3E0F50875090003
:1045E00078081229FE7CF27D9274021227D9121BE0
:1045F000EE7402122791AA18AB1912183A8A088B86
:1046000009AC08AD09AA18AB1912180A0255258E73
:10461000828F83A3A3A3A3A3A3A3E024D09017B363
:10462000F0121A569017B3E0F508750900780812D1
:1046300029FE7C2E7D9374021227D9121BEE740280
:10464000122791AA18AB1912183A8A088B09AC08DC
:10465000AD09AA18AB1912180A751501025525756E
:104660001400025525740A65087004740065097009
:104670001679077CE27D94EEFAEFFB121A44E960AA
:1046800006751400025525740A65087004740065E7
:1046900009701679077CDA7D94EEFAEFFB121A4462
:1046A000E96006751400025525740A6508700474E3
:1046B000006509600302477679077CB27D94EEFAC3
:1046C000EFFB121A44E970030247768E828F83A3B0
:1046D000A3A3A3A3A3A3E024D06045146042146065
:1046E0003F24F360030247709017B6E0F5087509A0
:1046F0000078081229FE7CF27D9274021227D912EA
:104700001BEE7402122791AA18AB1912183A8A08E4
:104710008B09AC08AD09AA18AB1912180A02552565
:104720008E828F83A3A3A3A3A3A3A3E024D0901777
:10473000B6F0121A569017B6E0F508750900780819
:104740001229FE7C2E7D9374021227D9121BEE745F
:1047500002122791AA18AB1912183A8A088B09ACD1
:1047600008AD09AA18AB1912180A751501025525CA
:10477000751400025525E508C3940AF8E50994006C
:10478000F9C3E8940BE99400400302485179077C8F
:10479000BA7D94EEFAEFFB121A44E9700302485115
:1047A0008E828F83A3A3A3A3A3A3A3E0643F70354A
:1047B0007508B775091778081229FE7CFE7D92747A
:1047C000021227D9121BEE7402122791AA18AB19F4
:1047D00012183A8A088B09AC08AD09AA18AB19124D
:1047E000180A0255257C0C7D0079007AB77B1712D8
:1047F0001858E50824F9F508E50934FFF5097808A3
:104800001229FEEE2407FCE43FFD7AB77B1712184D
:10481000407402122791121A567508B77509177855
:10482000081229FE7C0A7D9374021227D9121BEE0E
:104830007402122791AA18AB1912183A8A088B0928
:10484000AC08AD09AA18AB1912180A751501025562
:1048500025740A6508700474006509703C79087C49
:10486000FA7D93EEFAEFFB121A44E9602C7CA17DED
:1048700093AA18AB19121BEEAA18AB1912183A8A90
:10488000088B09AC08AD09AA18AB1912180A7900EF
:10489000121A5C751501025525740A6508700474B6
:1048A000006509701679087CE87D93EEFAEFFB123B
:1048B0001A44E96006751501025525740A650870E9
:1048C0000474006509600302499379077CCA7D94EA
:1048D000EEFAEFFB121A44E970030249938E828FBD
:1048E00083A3A3A3A3A3A3A3E024D0604214603FA7
:1048F00024F2600302498D9017C3E0F508750900A2
:1049000078081229FE7CF27D9274021227D9121BBC
:10491000EE7402122791AA18AB1912183A8A088B62
:1049200009AC08AD09AA18AB1912180A0255258E50
:10493000828F83A3A3A3A3A3A3A3E024D0F9E97048
:10494000089017C37400F080069017C37401F0122A
:104950001A569017C3E0F50875090078081229FE69
:104960007C2E7D9374021227D9121BEE740212273B
:1049700091AA18AB1912183A8A088B09AC08AD092C
:10498000AA18AB1912180A751501025525751400DD
:10499000025525740A650870047400650970107961
:1049A000087C037D94EEFAEFFB121A44E97022743E
:1049B0000F65087004740065096003024A72790784
:1049C0007CEA7D94EEFAEFFB121A44E97003024A86
:1049D000728E828F83A3A3A3A3A3A3A3E0643F70DB
:1049E000357508C475091778081229FE7C8A7D92EE
:1049F00074021227D9121BEE7402122791AA18AB67
:104A00001912183A8A088B09AC08AD09AA18AB1913
:104A100012180A025525750806750900780812292A
:104A2000FEEE2407FCE43FFD7AC47B1712184074A5
:104A3000021227919017CA7400F0121A567508C412
:104A400075091778081229FE7C0A7D9374021227D3
:104A5000D9121BEE7402122791AA18AB1912183A38
:104A60008A088B09AC08AD09AA18AB1912180A02FA
:104A70005525740A65087004740065096003024BCB
:104A80003C79077CFA7D94EEFAEFFB121A44E97048
:104A900003024B3C8E828F83A3A3A3A3A3A3A3E013
:104AA00024D0604214603F24F26003024B3690171A
:104AB000CBE0F50875090078081229FE7CF27D929A
:104AC00074021227D9121BEE7402122791AA18AB96
:104AD0001912183A8A088B09AC08AD09AA18AB1943
:104AE00012180A0255258E828F83A3A3A3A3A3A322
:104AF000A3E024D09017CBF0121A569017CBE0F514
:104B00000875090078081229FE7C2E7D9374021224
:104B100027D9121BEE7402122791AA18AB1912188A
:104B20003A8A088B09AC08AD09AA18AB1912180A01
:104B3000751501025525751400025525C3E5089425
:104B40000AE5099400404579087C667D94EEFAEF09
:104B5000FB121A44E960357508CC750917780812FC
:104B600029FE7CBE7D9274021227D9121BEE7402BC
:104B7000122791AA18AB1912183A8A088B09AC08A7
:104B8000AD09AA18AB1912180A025525740A65084E
:104B90007004740065096003024C2779087C4B7D22
:104BA00094EEFAEFFB121A44E9607C121A68E96489
:104BB00001706E9095A474431227E1740412268E3E
:104BC0007E0090186A7401F09017E6E070047E0190
:104BD00080057E00121AECEEF83395E0F97443126A
:104BE00027C7E58228F582E58339F583E0F5087566
:104BF000090078081229FE7C527D9374021227D98D
:104C0000121BEE7402122791AA18AB1912183A8AD5
:104C1000088B09AC08AD09AA18AB1912180A02557D
:104C20002575140002552574146508700474006518
:104C3000096003024CD779067C2D7D95EEFAEFFBD7
:104C4000121A44E97003024CD790967274401227EE
:104C5000E1740312268E750800121A68E964017067
:104C60007090186A7402F0750A0C750B00780A12BD
:104C700029FEEE2406FCE43FFD7AD97B171218408A
:104C80007402122791E508F8790074401227C7E5ED
:104C90008228F582E58339F583E0F5087509007807
:104CA000081229FE7C527D9374021227D9121BEE42
:104CB0007402122791AA18AB1912183A8A088B09A4
:104CC000AC08AD09AA18AB1912180A121AEC025551
:104CD00025751400025525740A6508700474006572
:104CE00009705579087C5D7D94EEFAEFFB121A4449
:104CF000E96045121A68E9640170377901121A5C9B
:104D00007C007D0079007A097B04121600E97C752D
:104D10007D93AA18AB19121BEEAA18AB1912183AF8
:104D20008A088B09AC08AD09AA18AB1912180A0237
:104D30005525751400025525740A65087004740021
:104D400065096003024E0179087CF17D93EEFAEF6C
:104D5000FB121A44E97003024E01121A68E9640159
:104D60006003024E01121A68E964016003024DFB00
:104D70009017E6E070247CC67D91AA18AB19121B2F
:104D8000EEAA18AB1912183A8A088B09AC08AD09BB
:104D9000AA18AB1912180A0255257E009017E6E0F2
:104DA000F8EEC3984003025525EEF87900E875F057
:104DB0000CA4C8AAF075F000A42AFA75F00CE9A4B6
:104DC0002AF974E928F508741739F50978081229C1
:104DD000FE7CCB7D9274021227D9121BEE74021254
:104DE0002791AA18AB1912183A8A088B09AC08AD9A
:104DF00009AA18AB1912180A0E80A17514000255E1
:104E000025740A6508700474006509704579087C8A
:104E10008A7D94EEFAEFFB121A44E960357508704A
:104E200075099578081229FE7C757D957402122704
:104E3000D9121BEE7402122791AA18AB1912183A54
:104E40008A088B09AC08AD09AA18AB1912180A0216
:104E50005525740A65087004740065096003024EE4
:104E6000FF79077CC27D94EEFAEFFB121A44E970D9
:104E700003024EFF121A68E96401707D8E828F83EF
:104E8000A3A3A3A3A3A3A3E0643F7030901861126F
:104E90002A157C117D9574021227D9121BEE74021B
:104EA000122791AA18AB1912183A8A088B09AC0874
:104EB000AD09AA18AB1912180A0255259018617489
:104EC00010F0A37427F0121A56901861122A157C5C
:104ED000117D9274021227D9121BEE7402122791CF
:104EE000AA18AB1912183A8A088B09AC08AD09AA9E
:104EF00018AB1912180A02552575140002552574AD
:104F00000A6508700474006509704A790A7C1E7D80
:104F100094EEFAEFFB121A44E9603A901863E0F558
:104F2000083395E0F50978081229FE7CD87D927443
:104F3000021227D9121BEE7402122791AA18AB197C
:104F400012183A8A088B09AC08AD09AA18AB1912D5
:104F5000180A025525740A65087004740065096012
:104F60000302502C79077CAA7D94EEFAEFFB121A0B
:104F700044E9700302502C8E828F83A3A3A3A3A3C2
:104F8000A3A3E0643F7038901865E0F50875090048
:104F900078081229FE7CE57D9274021227D9121B33
:104FA000EE7402122791AA18AB1912183A8A088BCC
:104FB00009AC08AD09AA18AB1912180A0255258EBA
:104FC000828F83A3A3A3A3A3A3A3E024D0901865F7
:104FD000F0901865E0C3940440069018657400F0E2
:104FE000121A56901865E0F508750900780812291C
:104FF000FE7C2E7D9374021227D9121BEE740212CE
:105000002791AA18AB1912183A8A088B09AC08AD77
:1050100009AA18AB1912180A901865E0F87403C3AE
:1050200098F9120BF8E9751501025525740A6508FF
:10503000700474006509600F740F650870047400D3
:105040006509600302510D79077C027D95EEFAEF48
:10505000FB121A44E9700302510D121A68E9600349
:105060000251078E828F83A3A3A3A3A3A3A3E0640B
:105070003F7030901866122A157CD57D917402120B
:1050800027D9121BEE7402122791AA18AB19121815
:105090003A8A088B09AC08AD09AA18AB1912180A8C
:1050A0000255257906EE2407FAE43FFB121A4A8AD4
:1050B000088B098C0A8D0B901866E508F0A3E509AA
:1050C000F0901866C3E09410A3E0942740030255C3
:1050D00025121A56901866122A157C117D927402B8
:1050E0001227D9121BEE7402122791AA18AB1912BB
:1050F000183A8A088B09AC08AD09AA18AB1912181E
:105100000A751501025525751400025525740A65A6
:105110000870047400650960030251D879077CA205
:105120007D94EEFAEFFB121A44E970030251D88E17
:10513000828F83A3A3A3A3A3A3A3E0643F703890AB
:105140001868E0F50875090078081229FE7CF27DE0
:105150009274021227D9121BEE7402122791AA1818
:10516000AB1912183A8A088B09AC08AD09AA18AB1A
:105170001912180A0255257901EE2407FAE43FFBBB
:10518000121A4A8A088B098C0A8D0BE50890186858
:10519000F0901868E0C394025038121A56901868BC
:1051A000E0F50875090078081229FE7C2E7D9374BD
:1051B000021227D9121BEE7402122791AA18AB19FA
:1051C00012183A8A088B09AC08AD09AA18AB191253
:1051D000180A751501025525740A650870047400D3
:1051E0006509704B790A7C6A7D93EEFAEFFB121A1F
:1051F00044E9603B121A68E96401702D90186A74E2
:1052000003F07C967D93AA18AB19121BEEAA18AB7B
:105210001912183A8A088B09AC08AD09AA18AB19FB
:1052200012180A121AEC025525751400025525743D
:105230000A6508700474006509703A79077C937DEB
:1052400094EEFAEFFB121A44E9602A121A68E96434
:1052500001701C90186A7404F08E828F83A3A3A33C
:10526000A3A3A3A3E024D0F9121B22E902552575BC
:1052700014000255257409650870047400650960FE
:105280000302552279067C1F7D95EEFAEFFB121A78
:1052900044E970030255228E828F83A3A3A3A3A3A4
:1052A000A3E0F516E51624CC601814601914601AF2
:1052B00014601B14700302535C1470030254300218
:1052C000551D7E04800A7E0580067E0680027E07CC
:1052D000798012172C7A04EEF91217268A088B09A6
:1052E000AC08AD098C088D09E4F50AF50B780812B5
:1052F0001C9B90964C780C1226337808790C121E61
:10530000A6909650780C1226337808790C122265F4
:1053100078081229FA8C088D0978081229FEE516FA
:10532000F87900E824D0F508E934FFF50978081287
:1053300029FE7CB57D8F74081227D9121BEE7408E4
:10534000122791AA18AB1912183A8A088B09AC08CF
:10535000AD09AA18AB1912180A0255257E117F0152
:10536000750899750901790012172C7A02790F12C4
:1053700017268A0A8B0BAC0AAD0BC3EC9508ED958A
:1053800009400474648058C3EE9CEF9D400474008F
:10539000804DE508C39EF8E5099FF9E82401FAE489
:1053A00039FB8A088B0974027808122759AA08ABBE
:1053B00009ECC39EF8ED9FF9E875F019A4C8AEF0AA
:1053C00075F000A42EFE75F019E9A42EF9E82AF86C
:1053D000E93BF9E824FFF8E934FFF91226F0E8F593
:1053E0000875090078081229FE8C088D09780812C2
:1053F00029FEE516F87900E824D0F508E934FFF530
:105400000978081229FE7C6E7D9074061227D91245
:105410001BEE7406122791AA18AB1912183A8A08C3
:105420008B09AC08AD09AA18AB1912180A02552548
:10543000750C00750D00750E00750F0090624B74B1
:1054400001F09061A97401F07E0080577900121775
:105450002C7A03790E1217268A088B09AC08AD093D
:105460008C088D09E4F50AF50B7808121C9B9096C0
:1054700054781012263378087910121EA690965888
:1054800078101226337808791012204B90964478C1
:105490001012263378087910122265780C790812D8
:1054A000204B0EEEC3944040A3850C08850D098562
:1054B0000E0A850F0B9095FC780C1226337808792C
:1054C0000C12226590624BE0C2E0F09061A9E0C24C
:1054D000E0F078081229FA8C088D0978081229FE64
:1054E000E516F87900E824D0F508E934FFF50978E5
:1054F000081229FE7C577D9074081227D9121BEEE2
:105500007408122791AA18AB1912183A8A088B0945
:10551000AC08AD09AA18AB1912180A800875140056
:105520008003751400E51560117AC87B00121A3EDD
:10553000C2AF75C9AB75C95B80FEA9147447122749
:10554000917F0F0228BD74F61227EB74FD12277BA2
:10555000909660AC18AD19740312268E901888E0EE
:105560002401F0A3E03400F0901888C3E09405A370
:10557000E0940040641217F81217FE8A088B09E5C0
:105580000845096047900FBDE0F4C0E085188285AA
:105590001983D0E0F0900FBEE0F4C0E07401122750
:1055A000C7D0E0F0900FBFE0F4C0E074021227C74C
:1055B000D0E0F07C037D00AA18AB1912055CE97AF3
:1055C000047B009018ADE0F912189AE912180490C3
:1055D00018887400F0A37400F074031227917F02FE
:1055E0000228BD74F61227EB74C812277BE9FF7EF0
:1055F00001EFA2E54003025687901B2BE0C2E5F0C5
:105600007C267D957A8A7B18121BEE7C3A7D937AF4
:10561000967B18121BEE901B2AE07008901B2A74D0
:1056200001F08006901B2A7400F0901B2AE06007AE
:10563000790112192A8005790012192A901B2AE093
:10564000F50875090078081229FE7CCA7D93740E4E
:105650001227D9121BEE74021227917906740C12CC
:1056600027D912179E740C1227D9121C008A088B96
:1056700009AC08AD09740C1227D91218107A017BF5
:1056800000121A3E0258A1EFA2E05042901B2BE0FC
:10569000C2E0F07C0A7D957A8A7B18121BEE7C6F43
:1056A0007D947A967B18121BEE121A68E9640160E9
:1056B000030258A19018E2E0640270030258A17C32
:1056C0000A7D007A6A7B93121ACEE90258A1EFA2F2
:1056D000E45035901B2BE0C2E4F07C787D947A8A0C
:1056E0007B18121BEE7CA87D917A967B18121BEE1C
:1056F000901869E070099018697401F00258A1903F
:1057000018697400F00258A1EFA2E3503B901B2BE4
:10571000E0C2E3F07C817D947A8A7B18121BEE7CD8
:10572000817D947A967B18121BEE121A68E9640147
:1057300060030258A19018E2E0640270030258A1CD
:105740007901121B100258A1EFA2E15020901B2BEF
:10575000E0C2E1F07CDE7D937A8A7B18121BEE7C3E
:10576000037D917A967B18121BEE0258A1EFA2E2FC
:10577000400302589F901B2BE0C2E2F07C8B7D938C
:105780007A8A7B18121BEE7CE47D917A967B181244
:105790001BEE121A68E9640160030258409018E297
:1057A000E064026039121B16E9F5087509007808F3
:1057B0001229FE7C5E7D9374021227D9121BEE74AF
:1057C00002122791AA18AB19121C008A088B09AC87
:1057D00008AD09AA18AB19121ACEE90258A1121A7B
:1057E0006EE970030258A19018AAE060089018AA08
:1057F0007400F080069018AA7401F09018AAE0F5E1
:105800000875090078081229FE7C567D92740212F0
:1058100027D9121BEE7402122791AA18AB19121C79
:10582000008A088B09AC08AD09AA18AB1912055CEF
:10583000E97A107B009018ADE0F912189AE98061BE
:10584000121A6EE9605B9018ABE060089018AB74B8
:1058500000F080069018AB7401F09018ABE0F508EA
:1058600075090078081229FE7C497D92740212277E
:10587000D9121BEE7402122791AA18AB19121C0040
:105880008A088B09AC08AD09AA18AB1912055CE9A6
:105890007A107B009018ADE0F912189AE980027E28
:1058A00000901B2BE070149018ACE0700E9018ACB8
:1058B0007401F07A0179071217B0E9EE60567508A5
:1058C0009675091878081229FE7C417D95740E1290
:1058D00027D9121BEE7402122791901B2BE0600651
:1058E00078007900800478807900E84408F9740C25
:1058F0001227D912179E75088A7509187808122977
:10590000FE7C417D95740E1227D9121BEE74021293
:105910002791805475089675091878081229FE7C1D
:10592000347D95740E1227D9121BEE740212279142
:10593000901B2BE060067800790080047880790065
:10594000E84408F9740C1227D912179E75088A7555
:10595000091878081229FE7C347D95740E1227D917
:10596000121BEE7402122791740C1227D188088939
:105970000978081229FE7C757D9574261227D912A4
:105980001BEE7402122791121A6EE9702174241210
:1059900027D9121C008A088B09AC08AD097424129F
:1059A00027D912180A7A017B00121A3E8026742425
:1059B0001227D9121C008A088B09AC08AD0974247F
:1059C0001227D912055CE97A107B009018ADE0F936
:1059D00012189AE974381227917F020228BD74ECDC
:1059E0001227EB74C012277BEAFEEBFF8C088D09AF
:1059F000C3E5089409E5099400403979087C427DA3
:105A000094EEFAEFFB121A44E960298E828F83A389
:105A1000A3A3A3A3A3A3A3E0F8743068700B7A0038
:105A200079021217B0E9025D8A7A0179021217B081
:105A3000E9025D8AC3E5089409E5099400403979D3
:105A4000087C397D94EEFAEFFB121A44E960298E46
:105A5000828F83A3A3A3A3A3A3A3A3E0F8743068B6
:105A6000700B7A0079041217B0E9025D8A7A017925
:105A7000041217B0E9025D8AC3E5089409E50994A8
:105A800000403579087C307D94EEFAEFFB121A4421
:105A9000E960258E828F83A3A3A3A3A3A3A3A3E07E
:105AA000F874306870099018697400F0025D8A908B
:105AB00018697401F0025D8AC3E5089407E509944A
:105AC000005003025D8A79067C1F7D95EEFAEFFB9C
:105AD000121A44E97003025D8A8E828F83A3A3A306
:105AE000A3A3A3E0FEEE24CC601814601914601A7E
:105AF00014601B147003025BA9147003025C920211
:105B00005D8A7F04800A7F0580067F0680027F070A
:105B1000798012172C7A04EFF91217268A088B095C
:105B2000AC08AD098C088D09E4F50AF50B7808126C
:105B30001C9B90964C780C1226337808790C121E18
