:020000040000FA
:0600000002011A0230E1CA
:03002B000237AEEB
:030033000237850C
:0300530002315720
:03006B0002375306
:10008300022F37E5C754F84401F5C7790122000070
:100093000080FB120086B90003020104E479217891
:1000A30008B800028004F709D8FCE479297802B87B
:1000B30000028004F709D8FCE490028178AC791738
:1000C3008002F0A3D8FCD9FA781A90014A7A01BACF
:1000D30000028007E493A3F608DAF97A2C7B1990DF
:1000E300014B781279058015E493A3AD82AE838A20
:1000F300828B83F0A3AA82AB838D828E83D8E9D9C6
:10010300E77582FC7583CF740512012C7582917596
:100113008300740012012C75D00075813F7518811E
:10012300751902759F00020096C09FF59FE473D076
:100133009F22D083D082C09FE493C0E0740193C018
:10014300E0740293F59F220100070C0742073C0766
:10015300FF0000B4000028002800283075A000A08C
:1001630000A000A00000080008E001F0001000104B
:10017300001000100010001000500050005000103C
:10018300001000D0070000000000000F0001000570
:1001930000307507001000010081FF00000000FF20
:1001A300FFFF80089E088608C208FF0202020802B9
:1001B3005000A0000000E803028696010000699643
:1001C300028E960100008F190294960100000A0422
:1001D300028E960100009019029E960100002004F1
:1001E300028E96010000911902A0960100002204DC
:1001F300028E96010000921902B2960800002304B1
:10020300028E960100009319029A96010000941938
:10021300FFFF0100FF200286960100006696028E12
:1002230096010000F919028896000000000002926E
:100233009603000053041700081108110811081150
:1002430008110811081108110811081108110811E3
:1002530008116C138A136613B014C214AA14020291
:1002630002020202020202010D00000010010286D6
:10027300960100006C96028E96010000421A0282DB
:1002830096010000A20E028E96010000431A027E20
:10029300960100004992028E96010000441A0274EE
:1002A300960100003B92028E96010000451A0272ED
:1002B300960100000391028E96010000461A02B4D3
:1002C300960100009790028E96010000471A02766D
:1002D30096010000DF90028E96010000481A027812
:1002E300960100008590028E96010000491A027A59
:1002F300960100002D92028E960100004A1A027C9C
:10030300960100004B1A01E803057710020A0AC69A
:1003130016FFFFFF00013075030201060000000015
:1003230000000000000000000000000000000000CA
:100333000000000000000000FFFF0600800CE8033F
:10034300013FFEFF0101010201060302F0FF02016A
:10035300061AFF4C000215E2C56DB5DFFB48D2B0AB
:1003630060D0F5A71096E000010002CD521B581B88
:10037300641B6A1B5E1B0A43686172616374657266
:100383006973746963203100024368617261637445
:10039300657269737469632032000843686172612E
:1003A3006374657269737469632033001043686111
:1003B3007261637465726973746963203400024304
:1003C300686172616374657269737469632035006F
:1003D300164368617261637465726973746963203B
:1003E300360010436861726163746572697374697E
:1003F300632037000286960100006096028E960104
:1004030000005A1B02A496030000F1180290960103
:1004130000005B1B028E960100006C1B02A6960176
:100423000000F2180290960100006D1B028E9601E7
:1004330000007E1B02A896020000F31802909601AA
:1004430000007F1B028E96010000901B02AA9600FB
:100453000000F418029296030000F518029096012A
:100463000000911B028E96010000A21B02AC9604B1
:100473000000F718029096010000A31B028E96015C
:100483000000B41B02AE96030000FC180292960310
:1004930000001119029096010000B51B028E96010F
:1004A3000000C61B02B096000000131902929603C7
:1004B30000002819029096010000C71B0100B042FA
:1004C3003BAAB83F0000003F8C906339AA0CA33AC3
:1004D30000941E3C8042633DCFFE753E1572313F52
:1004E3000000803FF304353F8096184B30313233A0
:1004F30034353637383941424344454600286E7512
:100503006C6C20706F696E74657229003031323300
:10051300343536373839616263646566003F3F3F7F
:10052300000000807FF9021550B743BA5100E7DBA2
:100533002E0000A040000080BF2292D43EDD9B2A03
:100543003F0400004000000000FFFF7F7FFFFF7FAC
:10055300FF010080341872313F1201352BB70512A9
:10056300013512B8051201350CB905120135DEB497
:1005730005120135F1B40512013512B50512013525
:100583007DB505120135BEB505120135DFB505127E
:10059300013520B605120135B8B60512013500B78D
:1005A3000512013526A10512013539A105120135C0
:1005B3006AA105120135A4A105120135FDA1051299
:1005C300013544A2051201358CA205120135BBA2E7
:1005D30005120135EAA20512013521A305120135E1
:1005E30068A30512013581A305120135D6A30512AF
:1005F3000135EFA3051201353DA40512013577A49A
:100603000512013558DF031201355BE00312013592
:1006130088E003120135D9E003120135FCE003122F
:1006230001350EE10312013511E1031201354FE1EA
:1006330003120135C3E1031201352FE20312013521
:10064300F7E20312013513E3031201354AE3031200
:10065300013584E3031201351BE4031201356DE414
:10066300031201359EE403120135CFE40312013571
:10067300DCE40312013546E50312013549E50312B3
:10068300013556E50312013559E503120135B0E58D
:1006930003120135B3E503120135ECE5031201350D
:1006A300EFE50312013523E60312013526E60312B3
:1006B30001357AE603120135C3E603120135D3E6A9
:1006C3000312013506E70312013513E7031201355F
:1006D30016E7031201357EE70312013580E80312A2
:1006E300013524E9031201358DE903120135CBE904
:1006F300031201357AF60212013577F7021201353A
:100703000DF80212013558F802120135BCF8021235
:10071300013546F902120135FFF90212013521FDB7
:10072300021201359EFE02120135C1FE021201358D
:10073300378D05120135DC8E05120135FC8E05124D
:1007430001351D90051201357090051201357D911B
:1007530005120135A59105120135D2910512013516
:100763000A9205120135689205120135B4920512F9
:1007730001351B93051201355B93051201359893DF
:1007830005120135C6930512013570940512013522
:100793007A9405120135879405120135BA9405122E
:1007A3000135C69405120135DE9405120135E8942E
:1007B30005120135D8CA05120135E6CA05120135FD
:1007C300FECA0512013516CB051201352DCB0512D4
:1007D3000135D5E4021201357FE50212013592E6B7
:1007E300021201350EE7021201352CE8021201351F
:1007F30068E80212013503E902120135E7E9021242
:100803000135AAEA0212013522EB02120135B0ECDE
:100813000212013521ED02120135DBED0212013521
:10082300CDEE021201350DEF02120135C1EF0212B6
:100833000135F3EF02120135E9F10212013530F20D
:10084300021201354EF202120135B4F202120135E1
:1008530083F30212013547F40212013566F60212E0
:10086300013570F6021201356DBE0412013557BF12
:100873000412013502C00412013553C004120135BC
:1008830003C10412013574C10412013559C20412A3
:1008930001358DC20412013586C304120135C3C369
:1008A300041201359FC404120135DEC4041201355C
:1008B300FAC4041201354FBB05120135D3BB05122F
:1008C3000135FEBB0512013518BD051201357695BC
:1008D300051201358C9505120135AA9505120135CE
:1008E300BB9605120135C59605120135F097051221
:1008F3000135E798051201355499051201355E99C2
:100903000512013526CC041201355CCD04120135E4
:10091300D6CD0412013506CE0412013519CE0412C8
:10092300013570CE0412013585D0041201352E969F
:1009330002120135DF9602120135FB9602120135D0
:10094300C49702120135DE9702120135E9970212AC
:100953000135BF98021201359C99021201352C9A78
:1009630002120135E39A02120135F19D021201359B
:10097300E09F0212013592A0021201355BA102121F
:100983000135A0A4021201354AA50212013573A64E
:10099300021201352FA802120135CFA80212013528
:1009A3001DA9021201355CA9021201352FAA0212F8
:1009B300013563AA02120135F0AA0212013541D2B0
:1009C30002120135CDD20212013531D402120135A2
:1009D3003DD40212013578D402120135E7D4021254
:1009E3000135F0D502120135F9D602120135C0D70F
:1009F300021201351DD9021201353BD9021201350C
:100A030058D90212013505DA0212013582DA0212CF
:100A13000135AADA0212013574DD0212013579DDDE
:100A23000212013592DF02120135E0DF02120135B5
:100A330050E0021201358EE0021201356AE1021222
:100A430001352AE20212013576E20212013579E21A
:100A530002120135BDE20212013505E3021201352E
:100A630044E30212013566E3021201359AE30212EE
:100A73000135FDE302120135E6EC04120135EFEC1A
:100A830004120135FDEC0412013550ED0412013559
:100A93006FED04120135B4ED04120135F8EE0412C2
:100AA300013593EF04120135D7EF0412013501F03C
:100AB3000412013570F004120135B6F00412013549
:100AC3002DF104120135DEF104120135B69601123F
:100AD3000135C69601120135679701120135C39797
:100AE300011201358098011201359C9901120135DB
:100AF300CE9901120135FD9901120135AA9B01120C
:100B03000135219E0112013591A00112013583A106
:100B1300011201357CA20112013583A401120135B2
:100B230077A701120135A6A801120135AAAA01125D
:100B33000135BAAB0112013549AD011201353AAEA7
:100B43000112013588AE01120135F7AE01120135EC
:100B53001BAF011201356CAF011201350DB4011247
:100B630001350EB5011201356FB5011201359AB584
:100B73000112013560B601120135EBD704120135BC
:100B8300F5D7041201353AD8041201354ED80412B0
:100B93000135DED80412013517D90412013552D9B3
:100BA300041201357BD904120135C9D90412013568
:100BB300DED904120135F3D90412013508DA04121F
:100BC30001354BDA0412013560DA04120135CBDA50
:100BD30004120135DFDA04120135F3DA04120135A8
:100BE30008DB0412013542DB0412013566DB041213
:100BF300013592DB04120135C9DB041201352BDC0C
:100C0300041201359DDC04120135E0DC04120135C8
:100C13000ADD0412013535DD04120135D2C805128F
:100C2300013557BC031201353ABD03120135B5BD79
:100C330003120135F0BD0312013541BF0312013523
:100C4300CABF03120135E2C10312013574C4031292
:100C5300013526C50312013532C603120135A5C776
:100C630003120135FEC703120135A8E20412013550
:100C7300EBE2041201356FE30412013542E404127E
:100C8300013519E704120135DFAF051201358CB0C8
:100C93000512013599B105120135D8B10512013597
:100CA30032B2051201352FC10512013592C1051269
:100CB30001352FC20512013564C20512013594C2F4
:100CC30005120135B5C205120135F0C20512013511
:100CD30010C305120135F0F1041201357CF2041240
:100CE30001353BF30412013553F4041201356DF65B
:100CF30004120135A7C803120135CCC8031201350C
:100D030099C9031201356DCA03120135DACA0312F8
:100D1300013530CB03120135CCCB0312013500CDA5
:100D230003120135DBCD031201353ACE031201352F
:100D3300C6CE0312013534CF03120135C0CF0312DF
:100D43000135C3CF031201350DD0031201357FD016
:100D53000312013511D103120135B2D1031201354A
:100D6300D2D1031201351AD20312013563D2031211
:100D730001357FD203120135A5D2031201351FD3EA
:100D8300031201352DD303120135BCD303120135F0
:100D930025D4031201353BFB04120135C0FB0412B9
:100DA300013502FC04120135E6FC0412013553FD42
:100DB3000412013597FD04120135DBFD04120135E0
:100DC30008FE0412013530FE0412013568FE0412D8
:100DD3000135A6FE04120135CDFE0412013547FF8D
:100DE3000412013591FF04120135CCB6011201350D
:100DF300C5B801120135B1BB0112013505BC0112A1
:100E0300013530BC011201350ABD0112013549BD5E
:100E13000112013590BD01120135A3BD0112013547
:100E2300E4BD0112013511BE011201355FBE01128D
:100E330001359EBE01120135C9BE011201351CBF29
:100E430001120135ABBF0112013589C2011201350F
:100E5300A4C401120135E2C40112013557C60112BF
:100E630001359CC60112013590C701120135A9C98C
:100E7300011201350BCA011201355CCA0112013599
:100E830077CF01120135C6CF011201350CD0011203
:100E93000135F4D101120135C2D301120135C7D393
:100EA30001120135A1D4011201351AD50112013500
:100EB3004AD6011201355CD60112013539AD05124E
:100EC3000135ABAD0512013501AE0512013545AE55
:100ED3000512013565AE05120135B2AE05120135B5
:100EE300FAAE051201354DAF051201359EAF05125D
:100EF3000135819304120135009404120135F999E7
:100F030004120135FF9A04120135729C0412013553
:100F1300099D041201357FD601120135C8D601128D
:100F23000135F5D60112013527D70112013533D723
:100F3300011201353FD70112013556D70112013590
:100F430031D8011201358FD801120135C4D80112ED
:100F53000135F5D90112013542DA0112013588DA7A
:100F630001120135F4DA0112013598DB0112013562
:100F73004EDC01120135ADDC011201351EDD01121B
:100F830001357CDD01120135AEDE0112013516E0BB
:100F930001120135E0E001120135EDE001120135E6
:100FA3002FE1011201353FE10112013563E1011225
:100FB300013566E10112013552E201120135EEE21B
:100FC3000112013587E3011201351EE401120135D7
:100FD3004BE401120135A9E401120135F0E40112D9
:100FE300013540E50112013590E50112013502E6B4
:100FF300011201359DE60112013548E70112013561
:10100300E7E70112013565E801120135ACE8011289
:10101300013510E9011201353FE901120135D6E925
:1010230001120135E8EB011201352CEC01120135F7
:1010330077EC01120135FDEC0112013587ED011248
:101043000135A0EE0112013526EF011201354BEFF8
:1010530001120135A2EF01120135B7EF011201357B
:10106300FFEF0112013572F001120135B7F00112E1
:101073000135C0F10112013571F201120135CFF2D0
:10108300011201352BF30112013544F3011201352D
:10109300339D04120135879D04120135939D04127B
:1010A30001355D9E041201358A9E04120135B89EF6
:1010B30004120135249F041201355A9F041201358D
:1010C300939F04120135AB9F0412013500A0041253
:1010D300013519A0041201355EA00412013571A077
:1010E300041201358BA004120135A1A004120135AD
:1010F300BFA104120135EAA204120135D4A30412DC
:101103000135C5A404120135FDFF01120135CBE7FA
:10111300041201354EEB041201359BEC0412013528
:1011230074F30112013547F6011201354DF6011230
:101133000135DDF80112013540FB01120135A4F63A
:10114300041201353BF704120135F9F70412013596
:1011530023F804120135FDF90412013502FB0412D0
:1011630001350080021201353280021201354F8CA5
:1011730002120135A08D02120135A98E021201352A
:101183002890021201351391021201356291021265
:1011930001357C9102120135BE9102120135C991CC
:1011A3000212013510920212013519920212013511
:1011B300C592021201359E9302120135E593021284
:1011C30001354D94021201358F9402120135BD94FD
:1011D30002120135FA94021201353DBF02120135A4
:1011E30008C3021201350EC302120135B2C902123D
:1011F300013506CE02120135EFD102120135539D9E
:1012030005120135C99D05120135DF9D0512013512
:101213006F9E05120135AC9E05120135E69E05123F
:101223000135209F05120135939F05120135D49F87
:1012330005120135DD9F05120135E99F05120135C0
:1012430008A00512013532A00512013547A0051289
:1012530001356FA005120135D1A005120135F8A0A3
:10126300051201355BC5041201356EC50412013543
:1012730088C504120135B5C504120135FBC5041236
:1012830001352EC6041201356CC604120135D1C6D0
:1012930004120135E6C604120135F1C60412013504
:1012A300FEC60412013515C70412013523C7041203
:1012B300013532C70412013547C7041201355CC733
:1012C3000412013567C70412013573C704120135CF
:1012D30080C70412013593C7041201359EC7041257
:1012E3000135C3C70412013567C80412013577C835
:1012F300041201358CC804120135A1C8041201354A
:10130300BBC804120135D8C804120135F5C804124C
:10131300013500C904120135ACC9041201358DCA67
:1013230004120135B2CA04120135BDCA04120135D3
:10133300D2CA04120135E6CA0412013547CB04129E
:1013430001354DCB0412013553CB0412013559CB72
:101353000412013571CB04120135A4CB04120135FB
:1013630050F40312013572F4031201353AF50312F6
:101373000135F4F7031201350AF9031201352BFA8B
:101383000312013505FB03120135B4FB03120135CA
:10139300D4AE031201356BAF0312013503B0031250
:1013A3000135F3B0031201352AB1031201353DB102
:1013B30003120135ABB10312013546B303120135F4
:1013C3006DB3031201350FB40312013544B4031294
:1013D300013555B403120135CEB403120135EFB410
:1013E3000312013507B5031201355FB60312013548
:1013F30068B803120135B8BA03120135BBBB031237
:1014030001350ABC0312013538A00312013535A199
:101413000312013520A2031201352AA2031201355A
:1014230034A20312013556A20312013562A203123C
:101433000135B4A303120135E3A30312013513A548
:101443000312013555A50312013581A60312013597
:1014530057A703120135A9A70312013508A80312E0
:1014630001353FA8031201357AA80312013515ACE3
:10147300031201352EAC03120135B0AC0312013552
:10148300BEAC0312013513AD0312013521AD0312B6
:1014930001358EAD0312013500AE0312013546AEA0
:1014A3000312013548D4031201356AD403120135FE
:1014B30054D603120135F9D9031201353CDB03126B
:1014C300013516DC031201351EC30512013543C372
:1014D30005120135B4C3051201357FA60412013587
:1014E30088A60412013591A604120135C2A704127D
:1014F3000135E1A90412013517AA0412013551AAD5
:101503000412013587AA04120135C1AA0412013558
:10151300F5AA0412013521AB041201356AAB04129A
:101523000135A4AB04120135ECAB0412013542AC16
:101533000412013577AC04120135D2AC0412013523
:101543000CAD041201355DAD0412013593AD0412E7
:101553000135CDAD04120135FBAD041201351EAECC
:101563000412013511CE051201353DCE05120135A8
:1015730098CE05120135A2CE05120135B2CE051261
:101583000135ACAE04120135F0AE041201359EAF45
:101593000412013516B00412013568B00412013586
:1015A30008B10412013544B104120135DEB104124D
:1015B30001355BB204120135B4B304120135CDB366
:1015C3000412013505B50412013598B5041201352D
:1015D30001B6041201356DB6041201358A84051271
:1015E3000135B18405120135E28405120135BCCE03
:1015F30005120135E45C001201350060001201356B
:10160300F16100120135636200120135216300129A
:101613000135CC63001201355C6400120135EB64C3
:10162300001201351565001201358265001201357E
:10163300BC6A00120135506B001201357F6C001239
:101643000135E36C00120135976D001201354A70C4
:1016530000120135847000120135EE70001201355D
:101663004C7100120135AA71001201350772001284
:101673000135F672001201353C7300120135817396
:1016830000120135A27300120135047500120135F1
:101693001F7500120135A57600120135D2760012AE
:1016A300013512770012013558770012013576772C
:1016B30000120135B47700120135DA7900120135D1
:1016C300137A00120135AA7A001201354A7B0012FF
:1016D3000135DD7B00120135497C001201358A7D1D
:1016E300001201355DDD04120135F1DD041201350F
:1016F30030DF04120135B9DF041201358CE0041226
:101703000135B5E0041201351CE10412013584E111
:1017130004120135E6C905120135F7C90512013571
:10172300C8CA05120135DFA405120135AAA705129F
:101733000135F6D10512013588C60512013598C663
:1017430005120135B2C605120135AEC705120135C2
:101753008EAA0512013528AB051201351EAD0512FF
:1017630001353CBF0512013572BF05120135E2BFD9
:10177300051201350DC00512013570C00512013582
:10178300E0C0051201351EC10512013521C1051244
:101793000135F7FF01120135FAFF0112013500800F
:1017A30005120135228005120135B4800512013579
:1017B300B28105120135A383051201350384051295
:1017C30001356C8405120135F87F00120135BE7DA9
:1017D300001201356A7F00120135D67F00120135F0
:1017E300F0FF0112013511D105120135AFD10512F8
:1017F3000135BFD10512013547BD0512013578BD4D
:1018030005120135A2BD051201355FBE0512013572
:101813007FBE05120135D7BE05120135C8890412F2
:101823000135D689041201351C8A041201356F8AE9
:1018330004120135B78A04120135118B04120135E4
:10184300328B04120135098E04120135178E0412EE
:101853000135738E04120135A68E04120135B98E3B
:1018630004120135448F04120135DB8F0412013554
:101873005690041201358D90041201351391041210
:101883000135689104120135C39104120135D591D4
:10189300041201350692041201350F920412013528
:1018A3004D9304120135D4C40512013533C5051215
:1018B3000135CEC50512013534C605120135EA8856
:1018C300051201351D8905120135438A05120135BB
:1018D300688A05120135298B05120135018C051221
:1018E3000135A8FE0312013571FF03120135C9FF4B
:1018F30003120135E3FF031201357DB205120135F1
:10190300C2B20512013500B3051201359BB40512AD
:101913000135BDCB05120135D8CB05120135E8CB16
:10192300051201354BCC0512013589CC0512013561
:101933004DCD05120135008004120135DC800412FF
:1019430001351F8104120135598104120135C58106
:10195300041201351D82041201358D8204120135F2
:101963005E8304120135488404120135BF840412D6
:101973000135558604120135E0860412013550877E
:1019830004120135CA8704120135E18704120135B7
:101993000C89041201355F89041201354CD20412FB
:1019A300013569D20412013555D3041201359ED392
:1019B30004120135BED304120135FAD304120135E2
:1019C30053D4041201358FD404120135D7D4041231
:1019D300013571D704120135DAD704120135E6ABAC
:1019E3000212013501B102120135F8B302120135B9
:1019F3001EB40212013547B402120135F5B40212C6
:101A03000135D6B602120135F1B7021201350AB813
:101A13000212013500BD0212013539BD0212013532
:101A23007DBD021201358ABE02120135DC37001278
:101A330001351038001201354B3800120135BD381D
:101A4300001201358439001201359B39001201352A
:101A5300773A001201356C3E001201357C3E0012CC
:101A63000135AD3E00120135803F00120135E23FE2
:101A730000120135E53F001201354C4000120135DB
:101A8300284200120135DF420012013531430012B2
:101A93000135384300120135DE4300120135EE43B0
:101AA300001201352C440012013545440012013562
:101AB3005C4400120135E84400120135034500126D
:101AC30001353155001201352C59001201350080C2
:101AD300031201353481031201356181031201358B
:101AE300B08403120135E98403120135FA84031229
:101AF3000135168603120135278603120135B78691
:101B030003120135C786031201358E8B031201358B
:101B1300328C03120135408C031201356D8C031294
:101B23000135D28C03120135AA8E031201357F8F42
:101B330003120135F1E9031201353EEE03120135BB
:101B4300C2F003120135FBF0031201350CF103124D
:101B530001352BF10312013555F20312013566F2FB
:101B63000312013510F303120135A1F303120135FA
:101B7300B4B604120135C2B704120135DFB704123B
:101B83000135BAB904120135DEBA041201357ABC43
:101B930004120135D8D105120135B8A70512013554
:101BA300B4C7051201356AD0051201355A900312E4
:101BB300013566950312013540B905120135CBD0C5
:101BC30005120135D1FF041201356899051201355B
:101BD30066CF0512013590CF051201354FD105129D
:101BE300013586D105120135D97F00E066701008F2
:101BF300A3E066700A08A3E066700408A3E0662207
:101C0300C008C3E096F50808A3E096420808A3E0DD
:101C130096420808A3E0964208A2D265D033E508AD
:101C23007001D3D00822C3E7960809E7960809E7AD
:101C3300960809E79622C3E09608A3E09608A3E076
:101C43009608A3E09622C008C3E096F50808A3E02F
:101C530096420808A3E096420808A3E09645087058
:101C630001D3D00822080808E630E7111225221212
:101C73001C80080808C64480C618181822181818AB
:101C8300E9799EC608CAC608CBC608CCC6C370206D
:101C93007996CACBCC7019798ECBCC70137986CC5C
:101CA300700EF9802ACA33CACB33CBCC33CC331969
:101CB30030E7F2CCCBCA3350147004EA30E00DE4C1
:101CC300CA3ACACB3BCBCC3CCC500209C3E913C6BE
:101CD300CC182313C6CB18C6CA18C6F922121D2066
:101CE30020F01430E72B74FFFCFBFA747F8022E4AE
:101CF300FCFBFA7480801AB48008BC00F2BB00EFCE
:101D0300800F50EBF9E4C39AFAE49BFBE49CFCE4F8
:101D130099C6CC18C6CB18C6CA18C6F922E4C9C6D8
:101D230008CAC608CBC6D3330308CCC63392F0C364
:101D3300947F402E94184019C9B90704CACBCC220A
:101D43005025C309CA33CACB33CBCC33CC33D9F4F4
:101D530022F4600DC9CCC313CB13CBCA13CAD9F673
:101D6300CC22E4FCFBFA2214FCFBFA22E6261846FA
:101D73001846184622E72719471947194722181802
:101D830018E60846087009E626087005E633F422CB
:101D93000822191919E70947097009E72709700586
:101DA300E733F4220922E6084608C31346083360E2
:101DB30002E633F422E7094709C3134709336002F4
:101DC300E733F422121DA96025121DB86020121DED
:101DD3006F7003021D78080808E76670101819E78A
:101DE30066700A1819E76670041819E76622F42268
:101DF300121DA9601C121DB86017121D6F70071207
:101E03001D787001D322C0D0121D787006D0D0B3D4
:101E130022C32233D0D0501430E0F6C3E79608092A
:101E2300E7960809E7960809E796B32220E0D5E686
:101E3300970809E6970809E6970809E697B3221277
:101E43001DA9601B121DB86016121D6F7007121DAD
:101E530078600CB322C0D0121D787005D0D022C395
:101E63002233D0D0501330E0EBC3E7960809E7964E
:101E73000809E7960809E7962220E0E4E6970809AF
:101E8300E6970809E6970809E6972200121DA9605C
:101E93004F121DB86012E7548066F6121D8170114F
:101EA300121D78703B090909F4F618F618F618F6AE
:101EB30022121D957015121D6F08080860EAE6448A
:101EC3007FF618768018E4F618F622121D6F601656
:101ED300121D787012E4F608F608F608E65480F648
:101EE30009090918181822EAC0E0EBC0E0ECC0E0C9
:101EF300EDC0E0E687F0A4FBACF008E687F0A42C85
:101F0300FCE435F0FA1809E687F0A42C4B60027460
:101F130001CA35F0FCE433FB09E687F0D2F7A42CC1
:101F2300CB35F0FC1908E687F0A42BCC35F0FBE4A5
:101F330033FD0819E687F0D2E7A42C4ACB35F0CD60
:101F43003400FC09E687F0D2E7A42DCC35F0FDE49C
:101F530033FA0918E687F0D2F7A42CCD35F0CA344A
:101F630000FC08E687F0D2E7D2F7A42ACC35F07A52
:101F73007E20E70B0ACB33CBCD33CDCC33CC33CB65
:101F83003350147004ED30E00ED2F1E4CD3DCDCCEE
:101F93003CCC3B5005DA05C2F1EB547FC63308E66F
:101FA3003392F0FBE73309E733C39A502D2B7019B3
:101FB3000C0D4C4D70151806E608C333700D20F157
:101FC3000AA2F013F6E418800B4024E4F630F00282
:101FD300768018F618F618F68024D33B1450107444
:101FE300FFA2F013F6187680E418F618F6800FA215
:101FF300F013F618E63303F618ECF618EDF6D0E016
:10200300FDD0E0FCD0E0FBD0E0FA22121DB8604620
:10201300121DA9603DE9687008F618F618F618F65F
:1020230022748067F7122042090909748067F72236
:10203300121DA9601D121DB87005191919801A12F5
:102043001D81701F121D95C37003E667331919199B
:1020530040071818182208080874FFF618F618F62F
:1020630018F622121D956017121D78702192F01236
:102073001D6F7019501720F014080808090909E7A3
:10208300F61819E7F61819E7F61819E7F622121DDC
:102093006F60E6E869701F0808E62480F608E436F6
:1020A300F618547FB47F0CE654806007F6E418F604
:1020B30018F622181822E9C6CC08C6CD08C6CE08E1
:1020C300C6CFC0E0E8C0E0EAC0E0EBC0E009E9F851
:1020D30009E7FA09E7FBE6F918E6F8C3EC98ED9986
:1020E300EE9AEBC2E7F5F0EFC2E795F0500E600C05
:1020F300EBCFFBEACEFAE9CDF9E8CCF8EAA2E7D2D6
:10210300E7FAEB33FB13F5F0EEA2E7D2E7FEEF338A
:10211300FFC5F013A2E730E601B313C5F0C3C0E077
:10212300C0F07F00C39BFB605E9418600F401D14DA
:10213300601AD0E023F9D0E0F80222148AF0E948CB
:102143006003D2F0E4AFF0FAF9F8803BEB30E40D32
:1021530089F0EA6003D2F0E4AFF0F9CAF8EB30E3B8
:102163000D88F0EF6002D2F0AFF0E4CAC9F8EB5487
:10217300076014FBC3EA13FAE913F9E813F8EF1342
:102183005002D2E0FFDBEDD0E0C0E030E739C3E43A
:102193009FFFF5F0EC98FC42F0ED99FD42F0EE9ACA
:1021A300FE42F0D0E0F9D0E0F8E5F0607AE923F9F7
:1021B300EE20E742D8028067C3EF33FFEC33FCED38
:1021C30033FDEE33FE80EAEC28FCED39FDEE3AFEFA
:1021D300D0E023F9D0E0F84002801BC3EE13FEEDFC
:1021E30013FDEC13FCEF135002D2E0FF08B8000616
:1021F3007F7F74FF802EEF3350178CF020F0026046
:10220300100CBC000C0DBD00080EBE000408E860F5
:10221300DFE933E813FFEE2313FE4F4D4C8008E94B
:102223005480FFE4FEFDFCEE33EF33F47004FCFD59
:102233007E80D0E0FBD0E0FAD0E0F8D0E0CFC61843
:10224300CEC618CDC618CCC6F922121DA970041823
:10225300181822121DB8700D74FFF61819F6181904
:10226300F61819F622E7548066F6121D6F700F12E6
:102273001D7870F014F608F608F608F680D1121DE2
:1022830078700CF608F608768008E6447F80EC1236
:102293001D98700C121D8460BFE65480F6E480BB69
:1022A300121D84700519191980A5E869700C763F11
:1022B30018768018F618F6E8F922E6CDC0E018EC97
:1022C300C0E0E633CD33CDD313F6E719FCE7191994
:1022D30033CC33C3947F400ECD9D502408E6548005
:1022E300F6E418F6800FF4043D14501408E6447F16
:1022F300F6187680E418F618F6D0E0FCD0E0FD225C
:10230300CCD313CCFD18E4C6CBC0E018E4C6CAC0D6
:10231300E00808ED08C633E613F618E433C675F093
:1023230003C3CA97CA09CB97CB199C40047D088085
:102333002EBD00030223F616B6FF0506060816187F
:10234300C3CA33CACB33CB33CA27CA09CB37CB195A
:102353003CC37D08803E187D0820E75CC633C6CAAF
:1023630033CACB33CB33DDF1D5F0EB30E77BCA9700
:10237300CA09CB974ACB199C406F4B7025E620E0E6
:10238300218066187D08C3CA97CA09CB97CB199CCD
:10239300D3C633C6CA33CACB33CB3350C9DDE7D533
:1023A300F0E1D3E4C636C608C636C608C636C60844
:1023B300C636C61818188031C3CA97CA09CB97CB3B
:1023C300199CB34097C633C6CA33CACB33CB33DD6C
:1023D30034D5F02EC6A2E0C640C8CA27CA09CB37F7
:1023E300194A70BECB3CB480B90808E63308E6331B
:1023F300601F181818D0E0FAD0E0FBD0E0FCD0E062
:10240300FD22187D08CA27CA09CB37CB193CD380D4
:102413008013F618E4B67F11F618B6FF0EF618C649
:102423000470D20808768080CAF618F618F680C5BC
:10243300080808EAC0E0EBC0E086F0E7A4FA180950
:1024430086F0E7A42AFA180986F0E7A42AFA1809FD
:1024530086F0E7A42AFA1986F0E7A4FBE5F02AFA46
:10246300190886F0E7A42BFBE5F03AFA190886F081
:10247300E7A42BFBE5F03AFA18180986F0E7A4C5A0
:10248300F02BFBE43AFA1908E7C5F0C6A426F6E5F3
:10249300F03BFBE43AFA1886F0E7A4F6E5F00826E9
:1024A300F6E43B08F6E43A08F6D0E0FBD0E0FA2283
:1024B300E4CFC0E0E4CEC0E0E4CDC0E0E4CCC0E0D3
:1024C30075F020E626F608E633F608E633F608E666
:1024D30033F6181818EC33FCED33FDEE33FEEF330F
:1024E300FFC3EC9709ED9709EE9709EF97191919AF
:1024F300400FFFEC97FC09ED97FD09EE97FE1919C4
:1025030006D5F0BFECF709EDF709EEF709EFF71978
:102513001919D0E0FCD0E0FDD0E0FED0E0FF221896
:102523001818E4C396F608E496F608E496F608E469
:1025330096F6226016080808C6C313C618C613C643
:1025430018C613C618C613C6D5E0EA2270090808D0
:1025530008226016181818C6C333C608C633C6083F
:10256300C633C608C633C6D5E0EA22E627F608090D
:10257300E637F60809E637F60809E637F622E026D5
:10258300F608A3E036F608A3E036F608A3E036F62D
:1025930022E026F008A3E036F008A3E036F008A313
:1025A300E036F022C3E697F60809E697F60809E64F
:1025B30097F60809E697F622C3E096F008A3E0969B
:1025C300F008A3E096F008A3E096F022E657F60899
:1025D30009E657F60809E657F60809E657F622E032
:1025E30056F608A3E056F608A3E056F608A3E0560D
:1025F300F622E056F008A3E056F008A3E056F008F0
:10260300A3E056F022E066F608A3E066F608A3E02E
:1026130066F608A3E066F622E0F608A3E0F608A350
:10262300E0F608A3E0F622E6F008A3E6F008A3E646
:10263300F008A3E6F022E0FAA3E0FBA3E0FCA3E0AA
:10264300FD22EAF0A3EBF0A3ECF0A3EDF022E0F817
:10265300A3E0F9A3E0FAA3E0FB22E8F0A3E9F0A3E7
:10266300EAF0A3EBF022CAC0E0E6F0A308DAFAD05E
:10267300E0FA22CAC0E0E0A3C582CCC582C583CDFF
:10268300C583F0A3C582CCC582C583CDC583DAE6F5
:10269300D0E0CA22C3E498F8E499F91226D8802638
:1026A300C3E49AFAE49BFBE920E7E91226D8E4980D
:1026B300F8E499F922C3E498F8E499F91226D8E4E6
:1026C30098F8E499F9C3E49AFAE49BFB22EB20E738
:1026D300CFE920E7E0B90010BB0008E88AF084F8EE
:1026E300AAF022E4FBC8FA22EB70227B10C833C89D
:1026F300C933C9335007C39AC3DBF280069A50012A
:102703002ADBEAC833F4C8C933F4C9FA2275F008DE
:10271300E4C833C8C933C933C99AC99B5004C92A09
:10272300C93BD5F0ECFBC833F4C8E4C9FA22600D09
:1027330008C6A2E713C618C613C6D5E0F322600C79
:1027430008C6C313C618C613C6D5E0F42270042204
:10275300600D18C6C333C608C633C6D5E0F41822C5
:10276300251810AF08F518400C15198008F5184006
:10277300021519D2AF2200C0D0251810AF08F518E2
:10278300500C05198008F51850020519D2AFD0D0A6
:10279300222518F58210AF08F518400C151980088A
:1027A300F51840021519D2AF851983222518F58231
:1027B300E43519F583222518F8E43519F92225188B
:1027C300FAE43519FB222518FCE43519FD22E473DC
:1027D3002518C582C0E0E51934FFC583C0E0E518BC
:1027E300C3958224F810AF08858319858218800861
:1027F300858319858218D2AFCEF0A3E520F0A378A4
:1028030008E608F0A3DEFAEFF0A3E58124FAF8E680
:1028130008F0A3E608F0A3E608F0A30808E608F02A
:10282300A3E608F0A315811581D0E0FED0E0F815EA
:102833008115811581E8C0E0EEC0E0222518C5822C
:10284300C0E0E51934FFC583C0E0E518C3958224D1
:10285300F910AF0885831985821880088583198547
:102863008218D2AFCEF0A3E520F0A37808E608F0F3
:10287300A3DEFAEFF0A3E58124FBF8E608F0A3E674
:1028830008F0A30808E608F0A3E608F0A3158115ED
:1028930081D0E0FED0E0F815811581E8C0E0EEC0FC
:1028A300E022851983851882E0A3FEE0A3F5207852
:1028B30008E0A3F608DFFAE0A3FFE0A3C0E0E0A38B
:1028C300C0E0E0A3C0E0E0A3C0E0E0A3C0E010AF3D
:1028D300088582188583198008858218858319D213
:1028E300AFD083D082020132851983851882E0A399
:1028F300FEE0A3F5207808E0A3F608DFFAE0A3FFE3
:10290300E0A3C0E0E0A3C0E0E0A3C0E0E0A3C0E038
:1029130010AF0885821885831980088582188583FE
:1029230019D2AFD083D08222C0D02518C582C0E08F
:10293300E51934FFC583C0E0E518C3958224F3107D
:10294300AF088583198582188008858319858218C5
:10295300D2AFC8F0A3E9F0A3EAF0A3EBF0A37908A0
:10296300E709F0A3D8FAECF0A3EDF0A3EEF0A3EFA0
:10297300F0A3D0E0F0A3D0E0F0A3D0E0F0A3E520F3
:10298300F0A3E5F0F0A322851983851882E0C0E067
:10299300A3E0F9A3E0FAA3E0FBA37808E0F608A319
:1029A300DFFAE0FCA3E0FDA3E0FEA3E0FFA3E0C0A9
:1029B300E0A3E0C0E0A3E0F5D0A3E0F520A3E0A30B
:1029C300F5F010AF0885831985821880088583196F
:1029D300858218D2AFD082D083D0E0F8D0E03274B1
:1029E300048006740280027401C0E0F40412279488
:1029F300D0E0122669227404800474028000CCC0E3
:102A0300E0EDC0E0E518C39CCCAD1950011D10AF3B
:102A1300068C188D1980068C188D19D2AF12267664
:102A2300D0E0FDD0E0FC22D083D082E9C0E0E49383
:102A3300A3C386F0C5F095F0F908E493A386F0C527
:102A4300F095F0700BE493A3C3994005E904800269
:102A5300A3E475F002A42582F582E5F03583F583BE
:102A6300D0E0F9E493A3C0E0E493C0E022D083D0A4
:102A730082ECC0E0EDC0E0E493A3FCE493A3FDED9E
:102A83004C600D122ABCEC24FFFCED34FFFD80EFFB
:102A9300E493A3FCE493A3FDED4C600D122AFBEC3D
:102AA30024FFFCED34FFFD80EFD0E0FDD0E0FCE43B
:102AB30093A3C0E0E493C0E022C0E0C3E49396088C
:102AC3007401939618400FE4936670080874019399
:102AD300661870007019A3A3C3E493960874019356
:102AE3009618A3A3400DD0E0D0E0D0E0022AACA317
:102AF300A3A3A3A3A3D0E022C0E0C0F088F0E49393
:102B03006670080874019366187000A8F0A3A37098
:102B13000BD0F0D0E0D0E0D0E0022AACA3A3D0F0F9
:032B2300D0E022DD
:102B280074F612283FEAFEEBFF8C088D09EE243478
:102B3800F8E43FF9E8FCE9FD122C5AE0FAEE2437F4
:102B4800F582E43FF583E0F88508F0A4C885F00A2B
:102B58008509F0A4250AF9EA28F8E439F97A257BE9
:102B6800001226D8EA8C828D83F0FA131313541FAF
:102B7800F8EE28F8E43FF9E8245DF582E439F583B6
:102B8800E0C0E074075AF8D0E0B800028004C3132C
:102B9800D8FCA2E05003EA8020EE2436F582E43F18
:102BA800F583E0F5F0EA84A8F0EE28F8E43FF9E8C8
:102BB8002438F582E439F583E0F97F030228EB74C1
:102BC800F512283FEAFEEBFFEE2434F582E43FF5E8
:102BD80083E0C0E0122C5AD0E0F08E828F83A3A34A
:102BE800A3A3A3E0FAA3E0FB8E828F83A3A3A3A3EE
:102BF800A3A3A3E0C39AF508A3E09BF509EE247FFD
:102C0800F8E43FF9880A890B8882F583E06401704B
:102C18002CEE2480F582E43FF583EA2401F8E43BB6
:102C2800F9E0687003A3E06970137C1A7D08EEFA76
:102C3800EFFB121018850A82850B83E4F0AC08AD0F
:102C480009EEFAEFFB122B28E9F91237457F040247
:102C580028EBEE2435F582E43FF58322C082C08359
:102C6800851882851983E0F8A3E0F9C3EA9CEB9DF7
:102C78005010C3EC98ED99401BC3EA98EB99501497
:102C8800800EC3EA98EB994007C3EC98ED9940048D
:102C9800790180027900D083D08222EAC39CFAEBC2
:102CA8009DFB2274ED12283F9004C3E06408600580
:102CB800E06407702C9061C8E060269004F1E0F8A9
:102CC80074FF68601CE875F00DA4C8AAF02AF974AE
:102CD800F328FE740439FF8E828F83A3A3A3E070C8
:102CE800057900022E4DEE2468F50EE43FF50F90AD
:102CF8006060E0850E82850F83F07510B475110849
:102D0800750800750900E5D914F50AE5D95403F5E5
:102D18000B601FEE2483F50CE43FF50D7403650B7F
:102D28006059E50A6017EE2467F582E43FF583E011
:102D3800700B793DEEFAEFFB12104880A49008AFB3
:102D4800E064016023850C82850D83E060047A04C9
:102D580080027A00E50AC39AFA95E0FB120DFC8A14
:102D6800088B09EA45097006121342022CE9850C02
:102D780082850D83E070048A108B117A008014E537
:102D8800D9C0E0EAF8E51028F582E43511F583D0DA
:102D9800E0F00AEAC3950A40E6850C82850D83E0D7
:102DA800602874FC250AF50A78101229E6AC0AA9ED
:102DB8000BEEFAEFFB1211027402122779E9700A7E
:102DC800AA08AB091218AC022D3A7403650B6054BB
:102DD800850A0C750D00780C1229E6AC10AD11AA05
:102DE80008AB091210C67402122779850E82850F66
:102DF80083E0F87480687005750C7F8002880CE5A4
:102E08000CF50D780D1229EA780B1229EAA90AACFB
:102E180008AD099004F1E0FA7B00120C1C74021250
:102E28002779801C9004C3E06408AC10AD117009C8
:102E3800EEFAEFFB1211328007EEFAEFFB1211ECFB
:102E480012134E79017F0C0228EB74F312283F7499
:102E5800FC122763EAFEEBFF8909A2AFE433F50809
:102E6800C2AFEE2463F50AE43FF50B8010AA0AAB63
:102E78000B12107E1218AC900821E004F0850A822B
:102E8800850B83E0F8A3E0F9E849602DE82402FA0D
:102E9800E439FBEA2402F50CE43BF50D780C122921
:102EA800E68A828B83E0FCA3E0F9EEFAEFFB1210CE
:102EB800727402122779E960B4900821E0604D909D
:102EC8000822E0F8900821E0C398500C74026509C4
:102ED800703A900823E060348E828F83A3A3A3A363
:102EE800E0851882851983122F2474021227AFE80F
:102EF800122F24900820E028F074021227C9AA187B
:102F0800AB197901120C7C900821E4F0E508A2E0E5
:102F180092AF74041227797F060228EBF0A3E4F03D
:102F2800900821E0F82200008521878522C622C06A
:102F3800E074EB12292BA2AFE433F508C2AF759BFE
:102F480000906182E0A2E05030E591A2E0502A753D
:102F580091FE7401652170211230CA121246123096
:102F6800B81229F91234EF7404122779E964017050
:102F78000579011212A0122CAB906182E0A2E550F3
:102F88005DE591A2E550577591DF9004C3E06407B1
:102F98006005E06408702F1230CA74016521703E24
:102FA8001212461230B81229F91234EF740412279B
:102FB80079E96401700579011212A07901EEFAEF3E
:102FC800FB122E528018E0640D70139004E5E004A3
:102FD800F064287002E4F07A00E0F912135490616A
:102FE80082E0A2E6400302308DE591A2E6400302AA
:102FF800308D7591BF9004C3E06405700812122EDD
:1030080012123A80031212347521001212BEE9908E
:1030180004C4F079001212A0120F3A7A017B0090D2
:1030280004C2E0F912187C907803E064427056906C
:1030380008B3E014F0704EC2AF12304400782AD0C2
:10304800E0F618D0E0F6E59F5407F87005750DFF17
:103058008003750D7FC4C0E07829E6F50A08E655B7
:103068000DF50B740B780A122741D0E0250AF89069
:103078006270E0A2E740F8E8C333906272F09062B1
:1030880070E0D2E0F0906181E0A2E35009E5E9A2A6
:10309800E3500375E9F7A3E0A2E75009E591A2E739
:1030A800500375917FE508A2E092AF7F0802298A54
:1030B8008E828F83E0F8A3E0C82416F582E438F501
:1030C80083229004F1E0F875F00DA4C8AAF02AF95B
:1030D80074F328FE740439FF22C0E0C0D0C082C057
:1030E80083906183E0A2E05009E5BFA2E050037538
:1030F800BFFEE0A2E15009E5BFA2E1500375BFFDA4
:10310800E0A2E25009E5BFA2E2500375BFFBE0A2CE
:10311800E35009E5BFA2E3500375BFF7E0A2E4500E
:1031280009E5BFA2E4500375BFEFE0A2E55009E549
:10313800BFA2E5500375BFDFE0A2E65009E5BFA2D4
:10314800E6500375BFBFD083D082D0D0D0E032C064
:10315800E074F212292BE5A7A2E4500FE5A1A2E43E
:10316800500953A7EF75A1EF1231ABE5A7A2E550BF
:103178000CE5A1A2E5500653A7DF75A1DFE5A7A2DC
:10318800E15009E5A1A2E1500375A1FDE5A7A2E27E
:10319800500CE5A1A2E2500653A7FB75A1FB7F01E5
:1031A80002298A74F812283F7521019004C3E0644B
:1031B8000670077A007B00121216A2AFE433FED223
:1031C800AF9004C9E0640170187A207B009004C2B3
:1031D800E0F91219C07A207B009004C2E0F91218B5
:1031E80082906182E0D2E6F09008B0E0602185C666
:1031F8002280169004C8E064017008E5C654F844BB
:1032080005F5C653BEFC122F307401652160E4EE4B
:10321800A2E092AF7F010228EB0000008E238F24EA
:10322800858228858327851882851983E0CEA3E0C7
:10323800CF852882852783EBC9EAC8EDCBECCA7510
:10324800F010C3E833C8E933C9EA33CAEB33CBC358
:10325800EA9EF526EB9FF525B35004AB25AA26EC8C
:1032680033CCED33CDD5F0DAAE23AF242274E91296
:10327800283F74FA122763EAFEEBFF8C088D0912C7
:103288001258EAF8EBF9ECFAEDFB8E828F831226DE
:103298005D9004C3E024F7C394055006751001023D
:1032A80033AC12118C8A0A8B0BEA450B700302337C
:1032B800A912124C8A0C8B0D12124CEA650C700381
:1032C800EB650D60ECEEFCEFFDAA18AB191212527B
:1032D800850A82850B83A3A3780C12261B909590F0
:1032E800780C1225E2851882851983781412261B1A
:1032F80090959078141225E2780C7914121C2950B4
:103308001F780C79141225A7909620780C121C4966
:103318004047850C10850D11850E12850F138045C9
:103328009096208514108515118516128517137827
:1033380010790C1225A77810121C49501C75100022
:10334800751100751200751301781079141225A7EC
:103358007810790C12256E800C75100175110075A6
:1033680012007513007409781012254F9095BC78D7
:103378000C12261B7810790C1224B39004C3E06455
:1033880008600AE064066005E0640570209095B066
:103398007810121C49501690961C781012258180BE
:1033A8000C751000751100751200751300850882E0
:1033B800850983781012262A74061227797F10024D
:1033C80028EB74F712283F12126A9008AEE06401E5
:1033D8007010906245E4F0A3F053F4F343FE0C53ED
:1033E80090F3121204E5C654B84441F5C6E59E545C
:1033F80047644170F8906185740FF09008ACE0F470
:103408007002A3E0602C7508017509009008ACE013
:103418007808122750E508F4FAA3E0600814600A57
:1034280014600C800DEA52808008EA52908003EA0A
:1034380052A079007F020228EB74F712283FE9FEB8
:10344800EAFF74016E700C7A807B009004C2E0F988
:1034580012187C9037D4E493F46008E493F9120FBF
:103468001C800953C6B8E59E544770FA12120A9098
:1034780008AEE064017003120F529008ACE0F470DB
:1034880002A3E0602B7508017509009008ACE0788C
:1034980008122750E508FAA3E0600814600A1460CF
:1034A8000C800DEA42808008EA42908003EA42A03C
:1034B80012118C8A088B09A808A909E8496016E541
:1034C800E170FCE82414F582E439F583E0F874FF30
:1034D80068600288E174016F700A7A019004C2E0A2
:1034E800F912191E02343C74F112283F8A088B091C
:1034F8008C0A8D0B90959078081225E2740F12278C
:10350800AF780C12261B909590780C1225E278085B
:10351800790C121C2990962050107808790C1225E5
:10352800A77808121C494014800E780C79081225D7
:10353800A7780C121C4950047901800279007F0891
:103548000228EB74ED12283F8A088B098C0A8D0B30
:1035580090959078081225E274131227AF780C1210
:10356800261B909590780C1225E2780C7908121C8D
:103578002940117808790C1225A7AA08AB09AC0ACA
:10358800AD0B8022751000751100751200751301BE
:103598007810790C1225A77810790812256EAA10D0
:1035A800AB11AC12AD137F0C0228EB909590780804
:1035B80012261B8A828B8378081225F57F0402283D
:1035C800EB74F512283F8C828D83780812261B8AAB
:1035D800828B8378081225BB12361DC3E098F0A3AE
:1035E800E09912360F401E9095F4780812261B8A2F
:1035F800828B8378081225948E828F83E02420F0B2
:10360800A3E0344EF080A4F08E828F83C3E0942030
:10361800A3E0944E22EA2404F8E43BF9E8FEE9FF2B
:103628008C828D83A3A3A3A3E0F8A3E0F98E828FF5
:10363800832274F512283FE9FE90083CE0FAA3E0E3
:10364800FBEE29F8E433F9744828F582749139F5CA
:1036580083E02AF508A3E03BF50978081229E690EB
:1036680095C012263912322474021227798A088BDF
:10367800098C0A8D0B74107808122536AA08AB0934
:103688007F040228EB74F112283F8A0C8B0D8C0EF4
:103698008D0F74111227AF1229FD74111227AFE094
:1036A8002401F508A3E03400F509E4F50AF50B78E0
:1036B8000C7908122433909614780812261B780C7B
:1036C8007908122433AA0CAB0DAC0EAD0F123224BC
:1036D80074021227798B09EA450960047A0180028D
:1036E8007A00EC2AFCE43DFD74131227AFE0F8A33E
:1036F800E0F9E8FEE9FFECF8EDF97A717B021226B1
:10370800D888088909E4F50AF50B8E828F83780832
:1037180012262AECF8EDF97A717B021226D88A086B
:103728008B09740578081227508E828F83A3A3A370
:10373800A3E508F0A3E509F07F080228EBC082C0E2
:1037480083E9906000F0D083D08222C0E074F21246
:10375800292BA2AFE433FED2AFE589A2E14006E50A
:1037680089A2E25003121780758900758900C2C5C5
:10377800751A00EEA2E092AF7F0102298AC0E074B8
:10378800F212292BA2AFE433FED2AFE58BA2E050B0
:1037980003121780758B00C2E8751A00EEA2E0923A
:1037A800AF7F0102298AC0E0C0D0E8C0E0A2AFE440
:1037B80033F8D2AFC2C7751A00E8A2E092AFD0E0E2
:1037C800F8D0D0D0E032C2AF02000022FFFFFFFFE6
:1037D800FFFFFFFFEAF8EBF9E824FFFAE934FFFB03
:1037E800E84960217800790078DC7905C3E894011C
:1037F800E99400A2D265D03340DA00E824FFF8E962
:1038080034FFF980E702013274F71227D389087868
:1038180000800108E8C395085022E8FE7F00EA2EE0
:10382800F582EB3FF583E0F9E8FE7F00EC2EF582A8
:10383800ED3FF583E06960DB7900800279017F0163
:103848000228A574F01227D3E9FE7C0075080075DC
:103858000900750A00750B00803A90963C780C12A6
:10386800261B7808790C122433ECF87900EA28F53D
:1038780082EB39F583E0F87900E824D0F50CE934D7
:10388800FFF50DE50D3395E0F50EF50F7808790C89
:1038980012256E0CECC39E500FECF87900EA28F55F
:1038A80082EB39F583E070B2AA08AB09AC0AAD0B1C
:1038B8007F080228A574F71227D374EF12276390A4
:1038C8009126AC18AD197411122676786879188883
:1038D8008289837430F088828983A3A882A9838827
:1038E8008289837478F088828983A3A882A983EA6D
:1038F8002406FA50010B7E06806AEA24FFFAEB34AC
:10390800FFFB8A828B83E0C4540FFC7D00851882FC
:10391800851983E5822CF582E5833DF583E0C0E0D7
:1039280088828983D0E0F088828983A3A882A983CA
:103938008A828B83E0FC7D00EC540FFCED5400FD83
:10394800851882851983E5822CF582E5833DF58308
:10395800E0C0E088828983D0E0F088828983A3A8C8
:1039680082A9831EEE7093888289837400F07A6836
:103978007B1874111227797F010228A5C082C083A1
:103988007CB07D177AB6798012198AE9D083D08203
:1039980002013274F71227D3E9FEEE6003023A36C9
:1039A8009017B07404F09017B17400F09017B274C7
:1039B80000F09017B37400F07C277D947AB47B17DD
:1039C800121BD69017C07400F07C2D7D957AC17BB0
:1039D80017121BD69017C87400F07C0D7D00790073
:1039E8007AC97B1712183A9017E37400F09017E41D
:1039F8007400F07C787D0079007AE67B1712183A1B
:103A080090185E7400F0A37400F09018607400F0D1
:103A18009018617400F09018627400F09018637444
:103A2800F4F0A37401F09018657400F0802B740111
:103A38006E70267C0D7D0079007AC97B1712183AC2
:103A48009017E37400F09017E47400F07C787D0020
:103A580079007AE67B1712183A7C007D0079007AA3
:103A6800097B041215F4E9121A447F010228A5748F
:103A7800F41227D374D31227639017B0E0F50875B2
:103A8800090078081229E67C9E7D8E74021227C1EF
:103A9800121BD67402122779AA18AB1912181C8A9D
:103AA800088B09AC08AD09AA18AB191217EC7A648F
:103AB8007B00121A2C9017B1E0F5087509007808F8
:103AC8001229E67C3C7D8F74021227C1121BD67422
:103AD80002122779AA18AB1912181C8A088B09AC8C
:103AE80008AD09AA18AB191217EC7A647B00121AF0
:103AF8002C9017B2E0F50875090078081229E67CC1
:103B0800EF7D8E74021227C1121BD6740212277918
:103B1800AA18AB1912181C8A088B09AC08AD09AA97
:103B280018AB191217EC7A647B00121A2C9017B391
:103B3800E0F50875090078081229E67C127D907472
:103B4800021227C1121BD67402122779AA18AB19C0
:103B580012181C8A088B09AC08AD09AA18AB1912EF
:103B680017EC7A647B00121A2C7508B4750917785B
:103B7800081229E67CCD7D8F74021227C1121BD64C
:103B88007402122779AA18AB1912181C8A088B0913
:103B9800AC08AD09AA18AB191217EC7A647B0012AD
:103BA8001A2C9017C0E0F50875090078081229E664
:103BB8007CE47D8F74021227C1121BD6740212276F
:103BC80079AA18AB1912181C8A088B09AC08AD0918
:103BD800AA18AB191217EC7A647B00121A2C750814
:103BE800C175091778081229E67C577D907402126E
:103BF80027C1121BD67402122779AA18AB191218FA
:103C08001C8A088B09AC08AD09AA18AB191217EC65
:103C18007A647B00121A2C9017C8E0F50875090021
:103C280078081229E67C407D9074021227C1121B85
:103C3800D67402122779AA18AB1912181C8A088B95
:103C480009AC08AD09AA18AB191217EC7A647B0005
:103C5800121A2C7508C975091778081229E67CB953
:103C68007D8E74021227C1121BD67402122779AAFC
:103C780018AB1912181C8A088B09AC08AD09AA18C8
:103C8800AB191217EC7A647B00121A2C75080075B0
:103C98000900023D2C9092CB74201227C9740D1292
:103CA8002676750A0C750B00780A1229E6A808A969
:103CB80009E875F00CA4C8AAF075F000A42AFA75F2
:103CC800F00CE9A42AF974E628FC741739FD74226B
:103CD8001227C1121822740212277974201227B9E8
:103CE800880A890B780A1229E678081229E67C5E88
:103CF8007D9374041227C1121BD67404122779AA63
:103D080018AB1912181C8A0A8B0BAC0AAD0BAA182F
:103D1800AB191217EC7AC87B00121A2C0508E508B3
:103D2800700205099017E3E0F87900C3E50898E503
:103D38000999A2D265D0335003023C9D90185E12B7
:103D480029FD7C587D8E74021227C1121BD674027D
:103D5800122779AA18AB1912181C8A088B09AC0803
:103D6800AD09AA18AB191217EC7A647B00121A2C49
:103D7800901860E0F5083395E0F50978081229E60F
:103D88007C6E7D9074021227C1121BD67402122712
:103D980079AA18AB1912181C8A088B09AC08AD0946
:103DA800AA18AB191217EC7A647B00121A2C901817
:103DB80062E0F50875090078081229E67C097D8F0C
:103DC80074021227C1121BD67402122779AA18ABE3
:103DD8001912181C8A088B09AC08AD09AA18AB1966
:103DE8001217EC7A647B00121A2C9018631229FDC2
:103DF8007C2E7D8E74021227C1121BD674021227E4
:103E080079AA18AB1912181C8A088B09AC08AD09D5
:103E1800AA18AB191217EC7A647B00121A2C9018A6
:103E280065E0F50875090078081229E67CD47D8ECE
:103E380074021227C1121BD67402122779AA18AB72
:103E48001912181C8A088B09AC08AD09AA18AB19F5
:103E58001217EC7A647B00121A2C742D1227797FC2
:103E6800040228A5C082C0839017C0E0F9D083D08F
:103E780082020132C082C083121A56E964017010AE
:103E88009018DEE064027004790180127900800ED7
:103E98009018E9E064067004790180027900D08303
:103EA800D08202013274F41227D374F4122763EA21
:103EB800FEEBFF121A56E964016003023F767508AB
:103EC80000800205089017E3E0F8E508C39850332E
:103ED800AA18AB19A908121A68E96027750A0C759F
:103EE8000B00780A1229E6EEFCEFFD74021227C1D6
:103EF8001218347402122779E960C8E5089017E5AA
:103F0800F0806B75080C75090078081229E6EEFC3C
:103F1800EFFD9017E4E0F87900E875F00CA4C8AA62
:103F2800F075F000A42AFA75F00CE9A42AF974E6F1
:103F380028FA741739FB121822740212277990177D
:103F4800E4E09017E5F09017E4E02401F09017E41E
:103F5800E075F00A84E5F09017E4F09017E3E0C309
:103F6800940A50079017E3E02401F0121A44740CE5
:103F78001227797F040228A574F41227D38908EA46
:103F8800FEEBFF121A56E9640170489017E3E0F857
:103F9800E508C398503D750A0C750B00780A12297C
:103FA800E6E508F87900E875F00CA4C8AAF075F001
:103FB80000A42AFA75F00CE9A42AF974E628FC741E
:103FC8001739FDEEFAEFFB121822740212277979DD
:103FD80001800279007F040228A502013274EC12E4
:103FE80027D37E31750C00750D00750E40750F4096
:103FF800121B948A088B09A808A909EEFA7B00E825
:10400800C39AF508E99BF509E5093395E0F50AF542
:104018000B7808121C68909640781012261B780CB2
:104028007910121E8E7808790C12224D7808122900
:10403800E2909640122639121BCA74041227797F1F
:104048000C0228A574F51227D3780079007C007D2E
:10405800007E007F007508E8750903901881E06408
:104068000560030241ED901882E0F8A3E0F9E875D5
:10407800F002A4C885F00A75F000A4250AF50A75AF
:10408800F002E9A4250AF9747728F582741839F53D
:1040980083EAF0A3EBF0901882E02401F0A3E03467
:1040A80000F0901882E0F8A3E0F97A057B00122668
:1040B800D0901882EAF0A3EBF0780079000241BFB3
:1040C800E8FAE9FBEA75F002A4CA85F00A75F0007F
:1040D800A4250AF50A75F002EBA4250AFB74772AD1
:1040E800F58274183BF583E0FAA3E0FBC3EE9AEF80
:1040F8009BA2D265D0335028E8FAE9FBEA75F002B2
:10410800A4CAAEF075F000A42EFE75F002EBA42E42
:10411800FB74772AF58274183BF583E0FEA3E0FF71
:10412800E8FAE9FBEA75F002A4CA85F00A75F0001E
:10413800A4250AF50A75F002EBA4250AFB74772A70
:10414800F58274183BF583C3E09508A3E09509A2AE
:10415800D265D033502EE8FAE9FBEA75F002A4CA1A
:1041680085F00875F000A42508F50875F002EBA4A1
:104178002508FB74772AF58274183BF583E0F50867
:10418800A3E0F509E8FAE9FBEA75F002A4CA85F0AC
:104198000A75F000A4250AF50A75F002EBA4250AB1
:1041A800FB74772AF58274183BF583E02CFCA3E0B6
:1041B8003DFD08E8700109C3E89405E99400A2D21E
:1041C80065D03350030240C8ECC39EF8ED9FF9E870
:1041D800C39508F8E99509F97A037B001226D0E817
:1041E800FAE9FB8036901881E0F87900E875F0026A
:1041F800A4C8ACF075F000A42CFC75F002E9A42C5E
:10420800F9747728F582741839F583EAF0A3EBF08E
:10421800901881E02401F07A007B007F030228A532
:1042280074F01227D374E0122763E9FEEE90186049
:10423800F0121A5CE970030242D5EEFA3395E0FBFE
:10424800121A748A088B098C0A8D0B909644780C84
:1042580012261B7808790C121E8E7808121CE0AA08
:1042680008AB09121A7A8A088B0978081229E6EE2F
:10427800F404F50875090078081229E67C157D9183
:1042880074041227C1121BD6740412277990186679
:10429800E0603AAA18AB19121BE88A088B09AC0827
:1042A800AD09AA18AB191217ECAA18AB19121BE81A
:1042B8008A088B09AC08AD09AA18AB1912055CE984
:1042C8007A107B009018A9E0F912187CE974201282
:1042D80027797F080228A574F61227D374E81227D5
:1042E80063908F55AC18AD1974181226767508C1ED
:1042F80075091778081229E67C1F7D927402122727
:10430800C1121BD67402122779AA18AB1912181CED
:104318008A088B09AC08AD09AA18AB191217EC74F6
:10432800181227797F020228A57AB47B1702013276
:1043380074F41227D374F8122763901884E02401C8
:10434800F0A3E03400F0901884C3E0940AA3E0944A
:104358000040791218F48A088B098C0A8D0B7404B2
:104368001227AF780812262A74071227AFE0C0E098
:10437800851882851983D0E0F074061227AFE0C053
:10438800E074011227AFD0E0F074051227AFE0C047
:10439800E074021227AFD0E0F074041227AFE0C037
:1043A800E074031227AFD0E0F07C047D00AA18ABBC
:1043B8001912055CE97A047B009018A9E0F9121833
:1043C8007CE99018847400F0A37400F07408122734
:1043D800797F040228A5C082C0839017C8E0F9D06D
:1043E80083D08202013274F01227D379067AC17B16
:1043F80017121A388A0C8B0D8C0E8D0F850C0885B8
:104408000D09850E0A850F0B9095C0780C12261B96
:104418007808790C1224B3AA0CAB0DAC0EAD0F7F43
:10442800080228A5C082C0839017B3E06402700414
:10443800790180027900D083D082020132C082C023
:10444800839017B3E07004790180027900D083D09B
:104458008202013274F61227D3901867E064037061
:104468000479008076901867E06401600890186706
:10447800E0640470419017E3E0605E75080C75090C
:104488000078081229E69017E5E0F87900E875F059
:104498000CA4C8ACF075F000A42CFC75F00CE9A4D1
:1044A8002CF974E628FC741739FD121822740212CC
:1044B800277979018025901867E06402701B7508D8
:1044C8000C75090078081229E67CD67D1712182287
:1044D80074021227797901800279007F020228A5E7
:1044E80074F61227D3901863E0F508A3E0F509AA3B
:1044F80008AB09E4FCFD7F020228A574E91227D362
:1045080074B9122763EAFEEBFF8C088D0975140154
:1045180075150074046508700474006509703479B1
:10452800047C6B7D95EEFAEFFB121A32E960247C6D
:10453800707D95AA18AB19121BD6AA18AB191218B8
:104548001C8A088B09AC08AD09AA18AB191217EC1C
:1045580002551074086508700474006509701679AE
:10456800087C8A7D94EEFAEFFB121A32E960061293
:104578001A50025510740A650870047400650960C1
:104588000302465079077CF27D94EEFAEFFB121A8B
:1045980032E970030246508E828F83A3A3A3A3A39C
:1045A800A3A3E024D0604B14604814604514604213
:1045B80014603F24F5600302464A9017B0E0F508FE
:1045C80075090078081229E67C167D937402122773
:1045D800C1121BD67402122779AA18AB1912181C1B
:1045E8008A088B09AC08AD09AA18AB191217EC0296
:1045F80055108E828F83A3A3A3A3A3A3A3E024D0E3
:104608009017B0F0121A449017B0E0F50875090039
:1046180078081229E67C2E7D9374021227C1121B9A
:10462800D67402122779AA18AB1912181C8A088B9B
:1046380009AC08AD09AA18AB191217EC75150102D7
:104648005510751400025510740A6508700474003A
:104658006509701679077C937D94EEFAEFFB121AC0
:1046680032E96006751400025510740A6508700472
:1046780074006509701679077CEA7D94EEFAEFFB01
:10468800121A32E96006751400025510740A65089A
:10469800700474006509600302476179077CDA7D5C
:1046A80094EEFAEFFB121A32E970030247618E8228
:1046B8008F83A3A3A3A3A3A3A3E024D0604514607E
:1046C8004214603F24F3600302475B9017B3E0F5A0
:1046D8000875090078081229E67C167D9374021281
:1046E80027C1121BD67402122779AA18AB191218FF
:1046F8001C8A088B09AC08AD09AA18AB191217EC6B
:104708000255108E828F83A3A3A3A3A3A3A3E0249F
:10471800D09017B3F0121A449017B3E0F508750952
:104728000078081229E67C2E7D9374021227C112A4
:104738001BD67402122779AA18AB1912181C8A08FA
:104748008B09AC08AD09AA18AB191217EC7515013D
:10475800025510751400025510E508C3940AF8E5CF
:10476800099400F9C3E8940BE99400400302483C1B
:1047780079077CC37D94EEFAEFFB121A32E97003D5
:1047880002483C8E828F83A3A3A3A3A3A3A3E064C0
:104798003F70357508B475091778081229E67CF258
:1047A8007D9274021227C1121BD67402122779AAAD
:1047B80018AB1912181C8A088B09AC08AD09AA187D
:1047C800AB191217EC0255107C0C7D0079007AB4F5
:1047D8007B1712183AE50824F9F508E50934FFF5BE
:1047E8000978081229E6EE2407FCE43FFD7AB47B39
:1047F800171218227402122779121A447508B47510
:10480800091778081229E67C527D9374021227C191
:10481800121BD67402122779AA18AB1912181C8A0F
:10482800088B09AC08AD09AA18AB191217EC751555
:1048380001025510740A6508700474006509703C1B
:1048480079087C307D94EEFAEFFB121A32E9602C7D
:104858007C967D93AA18AB19121BD6AA18AB19120D
:10486800181C8A088B09AC08AD09AA18AB191217CD
:10487800EC7900121A4A751501025510740A650878
:10488800700474006509701679087C4B7D94EEFA03
:10489800EFFB121A32E96006751501025510740A09
:1048A8006508700474006509600302497E79077C15
:1048B800D27D94EEFAEFFB121A32E9700302497EB8
:1048C8008E828F83A3A3A3A3A3A3A3E024D06042D3
:1048D80014603F24F260030249789017C0E0F5089D
:1048E80075090078081229E67C167D937402122750
:1048F800C1121BD67402122779AA18AB1912181CF8
:104908008A088B09AC08AD09AA18AB191217EC0272
:1049180055108E828F83A3A3A3A3A3A3A3E024D0BF
:10492800F9E970089017C07400F080069017C074F9
:1049380001F0121A449017C0E0F5087509007808CC
:104948001229E67C2E7D9374021227C1121BD6749D
:1049580002122779AA18AB1912181C8A088B09ACFD
:1049680008AD09AA18AB191217EC751501025510F4
:10497800751400025510740A6508700474006509FE
:10498800701079087C5D7D94EEFAEFFB121A32E91B
:104998007022740F65087004740065096003024A88
:1049A8005D79077CB37D94EEFAEFFB121A32E97059
:1049B80003024A5D8E828F83A3A3A3A3A3A3A3E0CC
:1049C800643F70357508C175091778081229E67CA7
:1049D800D87D9274021227C1121BD674021227794D
:1049E800AA18AB1912181C8A088B09AC08AD09AAB9
:1049F80018AB191217EC02551075080675090078DE
:104A0800081229E6EE2407FCE43FFD7AC17B171261
:104A1800182274021227799017C77400F0121A44EA
:104A28007508C175091778081229E67C527D9374B8
:104A3800021227C1121BD67402122779AA18AB19C1
:104A480012181C8A088B09AC08AD09AA18AB1912F0
:104A580017EC025510740A65087004740065096043
:104A680003024B2779077C9B7D94EEFAEFFB121A21
:104A780032E97003024B278E828F83A3A3A3A3A3DB
:104A8800A3A3E024D0604214603F24F26003024BE9
:104A9800219017C8E0F50875090078081229E67C06
:104AA800167D9374021227C1121BD674021227793D
:104AB800AA18AB1912181C8A088B09AC08AD09AAE8
:104AC80018AB191217EC0255108E828F83A3A3A37B
:104AD800A3A3A3A3E024D09017C8F0121A449017F8
:104AE800C8E0F50875090078081229E67C2E7D9340
:104AF80074021227C1121BD67402122779AA18ABA6
:104B08001912181C8A088B09AC08AD09AA18AB1928
:104B18001217EC751501025510751400025510C3D3
:104B2800E508940AE5099400404579087C6F7D946E
:104B3800EEFAEFFB121A32E960357508C9750917E4
:104B480078081229E67CE57D9274021227C1121BAF
:104B5800D67402122779AA18AB1912181C8A088B66
:104B680009AC08AD09AA18AB191217EC0255107454
:104B78000A65087004740065096003024C1279081C
:104B88007C787D94EEFAEFFB121A32E9607C121AF7
:104B980056E96401706E9095A474431227C9740491
:104BA8001226767E009018677401F09017E3E07083
:104BB800047E0180057E00121AD4EEF83395E0F9E0
:104BC80074431227AFE58228F582E58339F583E03F
:104BD800F50875090078081229E67CFE7D927402B2
:104BE8001227C1121BD67402122779AA18AB191200
:104BF800181C8A088B09AC08AD09AA18AB1912173A
:104C0800EC025510751400025510741465087004F0
:104C1800740065096003024CC279067C347D95EE08
:104C2800FAEFFB121A32E97003024CC290966374D1
:104C3800401227C97403122676750800121A56E91D
:104C4800640170709018677402F0750A0C750B0097
:104C5800780A1229E6EE2406FCE43FFD7AD67B1793
:104C68001218227402122779E508F87900744012A4
:104C780027AFE58228F582E58339F583E0F50875E5
:104C8800090078081229E67CFE7D9274021227C179
:104C9800121BD67402122779AA18AB1912181C8A8B
:104CA800088B09AC08AD09AA18AB191217EC121A2F
:104CB800D4025510751400025510740A6508700462
:104CC80074006509705579087C817D94EEFAEFFBD4
:104CD800121A32E96045121A56E9640170377901EF
:104CE800121A4A7C007D0079007A097B041215F4B7
:104CF800E97C807D93AA18AB19121BD6AA18AB19A8
:104D080012181C8A088B09AC08AD09AA18AB19122D
:104D180017EC025510751400025510740A650870D6
:104D280004740065096003024DEC79087C667D9483
:104D3800EEFAEFFB121A32E97003024DEC121A5622
:104D4800E964016003024DEC121A56E9640160033C
:104D5800024DE69017E3E070247CF37D91AA18AB2E
:104D680019121BD6AA18AB1912181C8A088B09AC81
:104D780008AD09AA18AB191217EC0255107E00905D
:104D880017E3E0F8EEC3984003025510EEF87900F7
:104D9800E875F00CA4C8AAF075F000A42AFA75F01A
:104DA8000CE9A42AF974E628F508741739F5097886
:104DB800081229E67CBE7D9274021227C1121BD606
:104DC8007402122779AA18AB1912181C8A088B09C1
:104DD800AC08AD09AA18AB191217EC0E80A175140E
:104DE80000025510740A650870047400650970455E
:104DF80079087CF17D93EEFAEFFB121A32E96035FF
:104E080075087575099578081229E67C7A7D957478
:104E1800021227C1121BD67402122779AA18AB19DD
:104E280012181C8A088B09AC08AD09AA18AB19120C
:104E380017EC025510740A6508700474006509605F
:104E480003024EEA79077CA37D94EEFAEFFB121A6F
:104E580032E97003024EEA121A56E96401707D8E37
:104E6800828F83A3A3A3A3A3A3A3E0643F7030907E
:104E7800185E1229FD7C187D9574021227C1121B39
:104E8800D67402122779AA18AB1912181C8A088B33
:104E980009AC08AD09AA18AB191217EC0255109005
:104EA800185E7410F0A37427F0121A4490185E125A
:104EB80029FD7C117D9274021227C1121BD674023F
:104EC800122779AA18AB1912181C8A088B09AC0882
:104ED800AD09AA18AB191217EC0255107514000287
:104EE8005510740A6508700474006509704A790AD7
:104EF8007C547D94EEFAEFFB121A32E9603A90186E
:104F080060E0F5083395E0F50978081229E67C8A0F
:104F18007D9274021227C1121BD67402122779AA35
:104F280018AB1912181C8A088B09AC08AD09AA1805
:104F3800AB191217EC025510740A65087004740056
:104F48006509600302501779077C027D95EEFAEF38
:104F5800FB121A32E970030250178E828F83A3A3C3
:104F6800A3A3A3A3A3E0643F7038901862E0F508F8
:104F780075090078081229E67C7D7D927402122753
:104F8800C1121BD67402122779AA18AB1912181C61
:104F98008A088B09AC08AD09AA18AB191217EC02DC
:104FA80055108E828F83A3A3A3A3A3A3A3E024D029
:104FB800901862F0901862E0C3940440069018625A
:104FC8007400F0121A44901862E0F5087509007828
:104FD800081229E67C2E7D9374021227C1121BD673
:104FE8007402122779AA18AB1912181C8A088B099F
:104FF800AC08AD09AA18AB191217EC901862E0F8C2
:105008007403C398F9120BF8E97515010255107469
:105018000A6508700474006509600F740F650870EC
:10502800047400650960030250F879077CBB7D941D
:10503800EEFAEFFB121A32E970030250F8121A5610
:10504800E960030250F28E828F83A3A3A3A3A3A3D4
:10505800A3E0643F70309018631229FD7CA87D910D
:1050680074021227C1121BD67402122779AA18AB30
:105078001912181C8A088B09AC08AD09AA18AB19B3
:105088001217EC0255107906EE2407FAE43FFB12DA
:105098001A388A088B098C0A8D0B901863E508F07A
:1050A800A3E509F0901863C3E09410A3E0942740A7
:1050B80003025510121A449018631229FD7C117DC1
:1050C8009274021227C1121BD67402122779AA18E9
:1050D800AB1912181C8A088B09AC08AD09AA18ABC1
:1050E800191217EC751501025510751400025510A8
:1050F800740A650870047400650960030251C37975
:10510800077CE27D94EEFAEFFB121A32E970030293
:1051180051C38E828F83A3A3A3A3A3A3A3E0643F59
:105128007038901865E0F50875090078081229E6C6
:105138007C167D9374021227C1121BD674021227A3
:1051480079AA18AB1912181C8A088B09AC08AD0982
:10515800AA18AB191217EC0255107901EE2407FAB8
:10516800E43FFB121A388A088B098C0A8D0BE50874
:10517800901865F0901865E0C394025038121A44EC
:10518800901865E0F50875090078081229E67C2E64
:105198007D9374021227C1121BD67402122779AAB2
:1051A80018AB1912181C8A088B09AC08AD09AA1883
:1051B800AB191217EC751501025510740A650870C1
:1051C8000474006509704B790A7C757D93EEFAEFDB
:1051D800FB121A32E9603B121A56E96401702D90ED
:1051E80018677403F07C6A7D93AA18AB19121BD652
:1051F800AA18AB1912181C8A088B09AC08AD09AAA1
:1052080018AB191217EC121AD402551075140002B3
:105218005510740A6508700474006509703A7907B6
:105228007CFA7D94EEFAEFFB121A32E9602A121A20
:1052380056E96401701C9018677404F08E828F839D
:10524800A3A3A3A3A3A3A3E024D0F9121B0AE902F2
:10525800551075140002551074096508700474001F
:105268006509600302550D79067C0A7D95EEFAEF13
:10527800FB121A32E9700302550D8E828F83A3A3A5
:10528800A3A3A3A3E0F516E51624CC6018146019AF
:1052980014601A14601B147003025347147003023D
:1052A800541B0255087E04800A7E0580067E06800F
:1052B800027E0779801217207A04EEF912171A8AEB
:1052C800088B09AC08AD098C088D09E4F50AF50BC3
:1052D8007808121C83909648780C12261B78087957
:1052E8000C121E8E90964C780C12261B7808790C9E
:1052F80012224D78081229E28C088D0978081229A3
:10530800E6E516F87900E824D0F508E934FFF50950
:1053180078081229E67C9D7D8F74081227C1121B1C
:10532800D67408122779AA18AB1912181C8A088B88
:1053380009AC08AD09AA18AB191217EC0255107E72
:10534800117F0175089975090179001217207A02F1
:10535800790F12171A8A0A8B0BAC0AAD0BC3EC959E
:1053680008ED9509400474648058C3EE9CEF9D4095
:10537800047400804DE508C39EF8E5099FF9E82408
:1053880001FAE439FB8A088B09740278081227416C
:10539800AA08AB09ECC39EF8ED9FF9E875F019A4CB
:1053A800C8AEF075F000A42EFE75F019E9A42EF928
:1053B800E82AF8E93BF9E824FFF8E934FFF912266E
:1053C800D8E8F50875090078081229E68C088D09CF
:1053D80078081229E6E516F87900E824D0F508E9F6
:1053E80034FFF50978081229E67CFB7D8F740612D4
:1053F80027C1121BD67406122779AA18AB191218DE
:105408001C8A088B09AC08AD09AA18AB191217EC4D
:10541800025510750C00750D00750E00750F009083
:10542800624B7401F09061A97401F07E0080577995
:10543800001217207A03790E12171A8A088B09AC02
:1054480008AD098C088D09E4F50AF50B7808121CDB
:1054580083909650781012261B78087910121E8EA9
:10546800909654781012261B7808791012203390E1
:105478009658781012261B7808791012224D780C4D
:1054880079081220330EEEC3944040A3850C08859A
:105498000D09850E0A850F0B90965C780C12261B59
:1054A8007808790C12224D90624BE0C2E0F09061CE
:1054B800A9E0C2E0F078081229E28C088D09780882
:1054C8001229E6E516F87900E824D0F508E934FF52
:1054D800F50978081229E67C297D9074081227C1FD
:1054E800121BD67408122779AA18AB1912181C8A2D
:1054F800088B09AC08AD09AA18AB191217EC80087B
:105508007514008003751400E51560117AC87B00D6
:10551800121A2CC2AF75C9AB75C95B80FEA9147489
:10552800471227797F0F0228A574F61227D374C86B
:10553800122763E9FF7E01EFA2E540030255D590EB
:105548001B25E0C2E5F07C267D957A867B18121B28
:10555800D67C3A7D937A927B18121BD6901B24E056
:105568007008901B247401F08006901B247400F0CE
:10557800901B24E060077901121918800579001240
:105588001918901B24E0F50875090078081229E617
:105598007CDE7D93740E1227C1121BD6740212276B
:1055A800797906740C1227C1121792740C1227C14C
:1055B800121BE88A088B09AC08AD09740C1227C1C4
:1055C8001217F27A017B00121A2C0257EFEFA2E0B1
:1055D8005042901B25E0C2E0F07C117D957A867BD5
:1055E80018121BD67C1E7D947A927B18121BD61239
:1055F8001A56E9640160030257EF9018DEE064026E
:1056080070030257EF7C0A7D007A757B93121ABCEF
:10561800E90257EFEFA2E45035901B25E0C2E4F011
:105628007CFA7D937A867B18121BD67CE47D917A6E
:10563800927B18121BD6901866E070099018667451
:1056480001F00257EF9018667400F00257EFEFA2CE
:10565800E3503B901B25E0C2E3F07CE87D937A861B
:105668007B18121BD67CE87D937A927B18121BD686
:10567800121A56E9640160030257EF9018DEE064DD
:105688000270030257EF7901121AF80257EFEFA2DE
:10569800E15020901B25E0C2E1F07CCA7D937A8618
:1056A8007B18121BD67CBB7D907A927B18121BD676
:1056B8000257EFEFA2E240030257ED901B25E0C22C
:1056C800E2F07CA17D937A867B18121BD67C027D42
:1056D800927A927B18121BD6121A56E9640160035B
:1056E80002578E9018DEE064026039121AFEE9F55E
:1056F8000875090078081229E67C0A7D937402125D
:1057080027C1121BD67402122779AA18AB19121BCB
:10571800E88A088B09AC08AD09AA18AB19121ABC9B
:10572800E90257EF121A5CE970030257EF9018A6C6
:10573800E060089018A67400F080069018A674011E
:10574800F09018A6E0F50875090078081229E67C9B
:10575800B17D9274021227C1121BD67402122779E6
:10576800AA18AB19121BE88A088B09AC08AD09AA5C
:1057780018AB1912055CE97A107B009018A9E0F9BA
:1057880012187CE98061121A5CE9605B9018A7E046
:1057980060089018A77400F080069018A77401F0AC
:1057A8009018A7E0F50875090078081229E67CA486
:1057B8007D9274021227C1121BD67402122779AA8D
:1057C80018AB19121BE88A088B09AC08AD09AA188E
:1057D800AB1912055CE97A107B009018A9E0F91260
:1057E800187CE980027E00901B25E070149018A8B0
:1057F800E0700E9018A87401F07A0179071217A4C6
:10580800E9EE605675089275091878081229E67C41
:105818004D7D95740E1227C1121BD674021227797A
:10582800901B25E060067800790080047880790074
:10583800E84408F9740C1227C11217927508867586
:10584800091878081229E67C4D7D95740E1227C137
:10585800121BD6740212277980547508927509189C
:1058680078081229E67C1F7D95740E1227C1121B39
:10587800D67402122779901B25E06006780079001B
:10588800800478807900E84408F9740C1227C11262
:10589800179275088675091878081229E67C1F7D05
:1058A80095740E1227C1121BD67402122779740C34
:1058B8001227B98808890978081229E67C7A7D9523
:1058C80074261227C1121BD67402122779121A5C89
:1058D800E9702174241227C1121BE88A088B09ACCD
:1058E80008AD0974241227C11217EC7A017B001243
:1058F8001A2C802674241227C1121BE88A088B09E7
:10590800AC08AD0974241227C112055CE97A107B32
:10591800009018A9E0F912187CE974381227797FE9
:10592800020228A574EC1227D374C0122763EAFE7A
:10593800EBFF8C088D09C3E5089409E5099400403C
:105948003979087C037D94EEFAEFFB121A32E9608C
:10595800298E828F83A3A3A3A3A3A3A3A3E0F87490
:105968003068700B7A0079021217A4E9025CD87AC1
:105978000179021217A4E9025CD8C3E5089409E585
:10598800099400403979087C0C7D94EEFAEFFB12FB
:105998001A32E960298E828F83A3A3A3A3A3A3A3AA
:1059A800A3E0F8743068700B7A0079041217A4E940
:1059B800025CD87A0179041217A4E9025CD8C3E51D
:1059C800089409E5099400403579087C157D94EE22
:1059D800FAEFFB121A32E960258E828F83A3A3A304
:1059E800A3A3A3A3A3E0F8743068700990186674A1
:1059F80000F0025CD89018667401F0025CD8C3E528
:105A0800089407E50994005003025CD879067C0ADB
:105A18007D95EEFAEFFB121A32E97003025CD88E1C
:105A2800828F83A3A3A3A3A3A3E0FEEE24CC6018D4
:105A380014601914601A14601B147003025AF714C6
:105A48007003025BE0025CD87F04800A7F05800651
:105A58007F0680027F0779801217207A04EFF912F7
:105A6800171A8A088B09AC08AD098C088D09E4F56A
:105A78000AF50B7808121C83909648780C12261B9E
:105A88007808790C121E8E90964C780C12261B788A
:105A980008790C12224D78081229E28C088D0978B1
:105AA800081229E6EEF87900E824D0F508E934FF71
:105AB800F50978081229E67C9D7D8F74081227C1A4
:105AC800121BD67408122779AA18AB19121BE88A78
:105AD800088B09AC08AD09AA18AB1912055CE97A5C
:105AE800107B009018A9E0F912187CE9025CD875BF
:105AF8000811750901750A99750B017900121720AB
:105B08007A02790F12171A8A0C8B0DAC0CAD0DC3E3
:105B1800EC950AED950B40047464805EC3E5089C1F
:105B2800E5099D400474008051E50AC39508F8E52D
