:020000040000FA
:0600000002011A0230E5C6
:03002B000237B2E7
:0300330002378908
:0300530002315B1C
:03006B0002375702
:10008300022F3BE5C754F84401F5C779012200006C
:100093000080FB120086B90003020104E479217891
:1000A30008B800028004F709D8FCE479297802B87B
:1000B30000028004F709D8FCE490028178AC791738
:1000C3008002F0A3D8FCD9FA781A90014A7A01BACF
:1000D30000028007E493A3F608DAF97A2C7B1990DF
:1000E300014B781279058015E493A3AD82AE838A20
:1000F300828B83F0A3AA82AB838D828E83D8E9D9C6
:10010300E77582EF7583D2740512012C75829175A0
:100113008300740012012C75D00075813F7518811E
:10012300751902759F00020096C09FF59FE473D076
:100133009F22D083D082C09FE493C0E0740193C018
:10014300E0740293F59F220100070C0742073C0766
:10015300FF0000B4000028002800283075A000A08C
:1001630000A000A00000080008E001F0001000104B
:10017300001000100010001000500050005000103C
:10018300001000D0070000000000000F0001000570
:1001930000307507001000010081FF00000000FF20
:1001A300FFFF80089E088608C208FF0202020802B9
:1001B3005000A0000000E803028B96010000729635
:1001C3000293960100008F190299960100000A0418
:1001D3000293960100009019029D960100002004ED
:1001E3000293960100009119029F960100002204D8
:1001F300029396010000921902A1960800002304BD
:10020300029396010000931902A39601000094192A
:10021300FFFF0100FF20028B9601000078960293F6
:1002230096010000F91902A596000000000002974C
:100233009603000053041700081108110811081150
:1002430008110811081108110811081108110811E3
:1002530008116C138A136613B014C214AA14020291
:1002630002020202020202010D0000001001028BD1
:10027300960100007E96029396010000421A02C185
:1002830096010000A20E029396010000431A02AFEA
:10029300960100004992029396010000441A02ABB2
:1002A300960100001192029396010000451A02A9DB
:1002B30096010000CD90029396010000461A02A712
:1002C30096010000F190029396010000471A029BE9
:1002D30096010000DF90029396010000481A028500
:1002E300960100000391029396010000491A0281CE
:1002F300960100002D920293960100004A1A028390
:10030300960100004B1A01E803057710020A0AC69A
:1003130016FFFFFF00013075030201060000000015
:1003230000000000000000000000000000000000CA
:100333000000000000000000FFFF0600800CE8033F
:10034300013FFEFF0101010201060302F0FF02016A
:10035300061AFF4C000215E2C56DB5DFFB48D2B0AB
:1003630060D0F5A71096E000010002CD581B5E1B7C
:100373006A1B701B641B0A43686172616374657254
:100383006973746963203100024368617261637445
:10039300657269737469632032000843686172612E
:1003A3006374657269737469632033001043686111
:1003B3007261637465726973746963203400024304
:1003C300686172616374657269737469632035006F
:1003D300164368617261637465726973746963203B
:1003E300360010436861726163746572697374697E
:1003F30063203700028B960100006C9602939601EE
:1004030000005A1B02B396030000F11802959601EF
:1004130000005B1B0293960100006C1B02B5960162
:100423000000F2180295960100006D1B02939601DD
:1004330000007E1B02B796020000F3180295960196
:1004430000007F1B029396010000901B02B99600E7
:100453000000F418029796030000F5180295960120
:100463000000911B029396010000A21B02BB96049D
:100473000000F718029596010000A31B0293960152
:100483000000B41B02BD96030000FC1802979603FC
:1004930000001119029596010000B51B0293960105
:1004A3000000C61B02BF96000000131902979603B3
:1004B30000002819029596010000C71B0100B042F5
:1004C3003BAAB83F0000003F8C906339AA0CA33AC3
:1004D30000941E3C8042633DCFFE753E1572313F52
:1004E3000000803FF304353F8096184B30313233A0
:1004F30034353637383941424344454600286E7512
:100503006C6C20706F696E74657229003031323300
:10051300343536373839616263646566003F3F3F7F
:10052300000000807FF9021550B743BA5100E7DBA2
:100533002E0000A040000080BF2292D43EDD9B2A03
:100543003F0400004000000000FFFF7F7FFFFF7FAC
:10055300FF010080341872313F120135DE7D001235
:100563000135C57E00120135BF7F00120135F7B892
:10057300051201350AB9051201352BB905120135EA
:1005830096B905120135D7B905120135F8B9051227
:10059300013539BA05120135D1BA0512013519BB36
:1005A300051201353FA50512013552A50512013586
:1005B30083A505120135BDA50512013516A6051241
:1005C30001355DA605120135A5A605120135D4A690
:1005D3000512013503A7051201353AA705120135A6
:1005E30081A7051201359AA705120135EFA7051258
:1005F300013508A80512013556A80512013590A842
:100603000512013558DF031201355BE00312013592
:1006130088E003120135D9E003120135FCE003122F
:1006230001350EE10312013511E1031201354FE1EA
:1006330003120135C3E1031201352FE20312013521
:10064300F7E20312013513E3031201354AE3031200
:10065300013584E3031201351BE4031201356DE414
:10066300031201359EE403120135CFE40312013571
:10067300DCE40312013546E50312013549E50312B3
:10068300013556E50312013559E503120135B0E58D
:1006930003120135B3E503120135ECE5031201350D
:1006A300EFE50312013523E60312013526E60312B3
:1006B30001357AE603120135C3E603120135D3E6A9
:1006C3000312013506E70312013513E7031201355F
:1006D30016E7031201357EE70312013580E80312A2
:1006E300013524E9031201358DE903120135CBE904
:1006F300031201357AF60212013577F7021201353A
:100703000DF80212013558F802120135BCF8021235
:10071300013546F902120135FFF90212013521FDB7
:10072300021201359EFE02120135C1FE021201358D
:10073300378D05120135DC8E05120135FC8E05124D
:1007430001351D90051201357090051201359695FE
:1007530005120135BE9505120135EB9505120135DC
:10076300239605120135819605120135CD960512A2
:100773000135349705120135749705120135B19788
:1007830005120135DF9705120135899805120135E8
:10079300939805120135A09805120135D3980512D7
:1007A3000135DF9805120135F798051201350199D6
:1007B30005120135CBCD05120135D9CD0512013511
:1007C300F1CD0512013509CE0512013520CE0512F2
:1007D3000135D5E4021201357FE50212013592E6B7
:1007E300021201350EE7021201352CE8021201351F
:1007F30068E80212013503E902120135E7E9021242
:100803000135AAEA0212013522EB02120135B0ECDE
:100813000212013521ED02120135DBED0212013521
:10082300CDEE021201350DEF02120135C1EF0212B6
:100833000135F3EF02120135E9F10212013530F20D
:10084300021201354EF202120135B4F202120135E1
:1008530083F30212013547F40212013566F60212E0
:10086300013570F6021201356DBE0412013557BF12
:100873000412013502C00412013553C004120135BC
:1008830003C10412013574C10412013559C20412A3
:1008930001358DC20412013586C304120135C3C369
:1008A300041201359FC404120135DEC4041201355C
:1008B300FAC4041201356EBF05120135F2BF0512E9
:1008C30001351DC00512013537C1051201358F9958
:1008D30005120135A59905120135C3990512013594
:1008E300D49A05120135DE9A05120135099C0512C9
:1008F3000135009D051201356D9D05120135779D6A
:100903000512013526CC041201355CCD04120135E4
:10091300D6CD0412013506CE0412013519CE0412C8
:10092300013570CE0412013585D0041201352E969F
:1009330002120135DF9602120135FB9602120135D0
:10094300C49702120135DE9702120135E9970212AC
:100953000135BF98021201359C99021201352C9A78
:1009630002120135E39A02120135F19D021201359B
:10097300E09F0212013592A0021201355BA102121F
:100983000135A0A4021201354AA50212013573A64E
:10099300021201352FA802120135CFA80212013528
:1009A3001DA9021201355CA9021201352FAA0212F8
:1009B300013563AA02120135F0AA0212013541D2B0
:1009C30002120135CDD20212013531D402120135A2
:1009D3003DD40212013578D402120135E7D4021254
:1009E3000135F0D502120135F9D602120135C0D70F
:1009F300021201351DD9021201353BD9021201350C
:100A030058D90212013505DA0212013582DA0212CF
:100A13000135AADA0212013574DD0212013579DDDE
:100A23000212013592DF02120135E0DF02120135B5
:100A330050E0021201358EE0021201356AE1021222
:100A430001352AE20212013576E20212013579E21A
:100A530002120135BDE20212013505E3021201352E
:100A630044E30212013566E3021201359AE30212EE
:100A73000135FDE302120135E6EC04120135EFEC1A
:100A830004120135FDEC0412013550ED0412013559
:100A93006FED04120135B4ED04120135F8EE0412C2
:100AA300013593EF04120135D7EF0412013501F03C
:100AB3000412013570F004120135B6F00412013549
:100AC3002DF104120135DEF104120135C596011230
:100AD3000135D59601120135769701120135D2976A
:100AE300011201358F9801120135AB9901120135BD
:100AF300DD99011201350C9A01120135B99B0112DE
:100B03000135309E01120135A0A00112013592A1D9
:100B1300011201358BA20112013592A40112013594
:100B230086A701120135B5A801120135B9AA011230
:100B33000135C9AB0112013558AD0112013549AE7A
:100B43000112013597AE0112013506AF01120135CD
:100B53002AAF011201357BAF011201351CB401121A
:100B630001351DB5011201357EB501120135A9B557
:100B7300011201356FB601120135EBD704120135AD
:100B8300F5D7041201353AD8041201354ED80412B0
:100B93000135DED80412013517D90412013552D9B3
:100BA300041201357BD904120135C9D90412013568
:100BB300DED904120135F3D90412013508DA04121F
:100BC30001354BDA0412013560DA04120135CBDA50
:100BD30004120135DFDA04120135F3DA04120135A8
:100BE30008DB0412013542DB0412013566DB041213
:100BF300013592DB04120135C9DB041201352BDC0C
:100C0300041201359DDC04120135E0DC04120135C8
:100C13000ADD0412013535DD04120135C5CB051299
:100C2300013557BC031201353ABD03120135B5BD79
:100C330003120135F0BD0312013541BF0312013523
:100C4300CABF03120135E2C10312013574C4031292
:100C5300013526C50312013532C603120135A5C776
:100C630003120135FEC703120135A8E20412013550
:100C7300EBE2041201356FE30412013542E404127E
:100C8300013519E704120135F8B305120135A5B48E
:100C930005120135B2B505120135F1B5051201355D
:100CA3004BB6051201354EC505120135B1C5051206
:100CB30001354EC60512013583C605120135B3C68B
:100CC30005120135D4C6051201350FC705120135CA
:100CD3002FC705120135F0F1041201357CF204121D
:100CE30001353BF30412013553F4041201356DF65B
:100CF30004120135A7C803120135CCC8031201350C
:100D030099C9031201356DCA03120135DACA0312F8
:100D1300013530CB03120135CCCB0312013500CDA5
:100D230003120135DBCD031201353ACE031201352F
:100D3300C6CE0312013534CF03120135C0CF0312DF
:100D43000135C3CF031201350DD0031201357FD016
:100D53000312013511D103120135B2D1031201354A
:100D6300D2D1031201351AD20312013563D2031211
:100D730001357FD203120135A5D2031201351FD3EA
:100D8300031201352DD303120135BCD303120135F0
:100D930025D4031201353BFB04120135C0FB0412B9
:100DA300013502FC04120135E6FC0412013553FD42
:100DB3000412013597FD04120135DBFD04120135E0
:100DC30008FE0412013530FE0412013568FE0412D8
:100DD3000135A6FE04120135CDFE0412013547FF8D
:100DE3000412013591FF04120135DBB601120135FE
:100DF300D4B801120135C0BB0112013514BC011274
:100E030001353FBC0112013519BD0112013558BD31
:100E1300011201359FBD01120135B2BD0112013529
:100E2300F3BD0112013520BE011201356EBE011260
:100E33000135ADBE01120135D8BE011201352BBFFC
:100E430001120135BABF0112013598C201120135F1
:100E5300B3C401120135F1C40112013566C6011292
:100E63000135ABC6011201359FC701120135B8C95F
:100E7300011201351ACA011201356BCA011201357B
:100E830086CF01120135D5CF011201351BD00112D6
:100E9300013503D201120135D1D301120135D6D365
:100EA30001120135B0D40112013529D501120135E2
:100EB30059D6011201356BD60112013552B1051213
:100EC3000135C4B1051201351AB2051201355EB2FE
:100ED300051201357EB205120135CBB2051201357B
:100EE30013B30512013566B305120135B7B3051205
:100EF3000135819304120135009404120135F999E7
:100F030004120135FF9A04120135729C0412013553
:100F1300099D041201358ED601120135D7D601126F
:100F2300013504D70112013536D70112013542D7F5
:100F3300011201354ED70112013565D70112013572
:100F430040D8011201359ED801120135D3D80112C0
:100F5300013504DA0112013551DA0112013597DA4C
:100F63000112013503DB01120135A7DB0112013543
:100F73005DDC01120135BCDC011201352DDD0112EE
:100F830001358BDD01120135BDDE0112013525E08E
:100F930001120135EFE001120135FCE001120135C8
:100FA3003EE1011201354EE10112013572E10112F8
:100FB300013575E10112013561E201120135FDE2EE
:100FC3000112013596E3011201352DE401120135B9
:100FD3005AE401120135B8E401120135FFE40112AC
:100FE30001354FE5011201359FE50112013511E687
:100FF30001120135ACE60112013557E70112013543
:10100300F6E70112013574E801120135BBE801125C
:1010130001351FE9011201354EE901120135E5E9F8
:1010230001120135F7EB011201353BEC01120135D9
:1010330086EC011201350CED0112013596ED01121A
:101043000135AFEE0112013535EF011201355AEFCB
:1010530001120135B1EF01120135C6EF011201355D
:101063000EF00112013581F001120135C6F00112B3
:101073000135CFF10112013580F201120135DEF2A3
:10108300011201353AF30112013553F3011201350F
:10109300339D04120135879D04120135939D04127B
:1010A30001355D9E041201358A9E04120135B89EF6
:1010B30004120135249F041201355A9F041201358D
:1010C300939F04120135AB9F0412013500A0041253
:1010D300013519A0041201355EA00412013571A077
:1010E300041201358BA004120135A1A004120135AD
:1010F300BFA104120135EAA204120135D4A30412DC
:101103000135C5A404120135F37F00120135CBE785
:10111300041201354EEB041201359BEC0412013528
:1011230083F30112013556F6011201355CF6011203
:101133000135ECF8011201354FFB01120135A4F61C
:10114300041201353BF704120135F9F70412013596
:1011530023F804120135FDF90412013502FB0412D0
:1011630001350080021201353280021201354F8CA5
:1011730002120135A08D02120135A98E021201352A
:101183002890021201351391021201356291021265
:1011930001357C9102120135BE9102120135C991CC
:1011A3000212013510920212013519920212013511
:1011B300C592021201359E9302120135E593021284
:1011C30001354D94021201358F9402120135BD94FD
:1011D30002120135FA94021201353DBF02120135A4
:1011E30008C3021201350EC302120135B2C902123D
:1011F300013506CE02120135EFD1021201356CA181
:1012030005120135E2A105120135F8A105120135D8
:1012130088A205120135C5A205120135FFA20512E8
:10122300013539A305120135ACA305120135EDA330
:1012330005120135F6A30512013502A40512013585
:1012430021A4051201354BA40512013560A4051232
:10125300013588A405120135EAA40512013511A54B
:10126300051201355BC5041201356EC50412013543
:1012730088C504120135B5C504120135FBC5041236
:1012830001352EC6041201356CC604120135D1C6D0
:1012930004120135E6C604120135F1C60412013504
:1012A300FEC60412013515C70412013523C7041203
:1012B300013532C70412013547C7041201355CC733
:1012C3000412013567C70412013573C704120135CF
:1012D30080C70412013593C7041201359EC7041257
:1012E3000135C3C70412013567C80412013577C835
:1012F300041201358CC804120135A1C8041201354A
:10130300BBC804120135D8C804120135F5C804124C
:10131300013500C904120135ACC9041201358DCA67
:1013230004120135B2CA04120135BDCA04120135D3
:10133300D2CA04120135E6CA0412013547CB04129E
:1013430001354DCB0412013553CB0412013559CB72
:101353000412013571CB04120135A4CB04120135FB
:10136300F1E90312013513EA03120135DBEA031233
:10137300013595ED03120135ABEE03120135CCEFC8
:1013830003120135A6F00312013555F1031201359D
:10139300D4AE031201356BAF0312013503B0031250
:1013A3000135F3B0031201352AB1031201353DB102
:1013B30003120135ABB10312013546B303120135F4
:1013C3006DB3031201350FB40312013544B4031294
:1013D300013555B403120135CEB403120135EFB410
:1013E3000312013507B5031201355FB60312013548
:1013F30068B803120135B8BA03120135BBBB031237
:1014030001350ABC0312013538A00312013535A199
:101413000312013520A2031201352AA2031201355A
:1014230034A20312013556A20312013562A203123C
:101433000135B4A303120135E3A30312013513A548
:101443000312013555A50312013581A60312013597
:1014530057A703120135A9A70312013508A80312E0
:1014630001353FA8031201357AA80312013515ACE3
:10147300031201352EAC03120135B0AC0312013552
:10148300BEAC0312013513AD0312013521AD0312B6
:1014930001358EAD0312013500AE0312013546AEA0
:1014A3000312013548D4031201356AD403120135FE
:1014B30054D603120135F9D9031201353CDB03126B
:1014C300013516DC031201353DC70512013562C72C
:1014D30005120135D3C7051201357FA60412013564
:1014E30088A60412013591A604120135C2A704127D
:1014F3000135E1A90412013517AA0412013551AAD5
:101503000412013587AA04120135C1AA0412013558
:10151300F5AA0412013521AB041201356AAB04129A
:101523000135A4AB04120135ECAB0412013542AC16
:101533000412013577AC04120135D2AC0412013523
:101543000CAD041201355DAD0412013593AD0412E7
:101553000135CDAD04120135FBAD041201351EAECC
:101563000412013504D10512013530D105120135BC
:101573008BD10512013595D105120135A5D105127F
:101583000135ACAE04120135F0AE041201359EAF45
:101593000412013516B00412013568B00412013586
:1015A30008B10412013544B104120135DEB104124D
:1015B30001355BB204120135B4B304120135CDB366
:1015C3000412013505B50412013598B5041201352D
:1015D30001B6041201356DB6041201358A84051271
:1015E3000135B18405120135E28405120135AFD10D
:1015F30005120135045D001201352060001201352A
:101603001162001201358362001201354163001239
:101613000135EC63001201357C64001201350B6562
:1016230000120135356500120135A265001201353E
:10163300DC6A00120135706B001201359F6C0012D9
:101643000135036D00120135B76D001201356A7063
:1016530000120135A470001201350E71001201351C
:101663006C7100120135CA71001201352772001224
:1016730001351673001201355C7300120135A17335
:1016830000120135C27300120135247500120135B1
:101693003F7500120135C57600120135F27600124E
:1016A30001353277001201357877001201359677CC
:1016B30000120135D47700120135FA790012013591
:1016C300337A00120135CA7A001201356A7B00129F
:1016D3000135FD7B00120135697C00120135AA7DBD
:1016E300001201355DDD04120135F1DD041201350F
:1016F30030DF04120135B9DF041201358CE0041226
:101703000135B5E0041201351CE10412013584E111
:1017130004120135D9CC05120135EACC0512013585
:10172300BBCD05120135F8A805120135C3AB05126F
:101733000135C1D40512013586FE0312013596FE2B
:1017430003120135B0FE03120135ACFF031201355C
:10175300A7AE0512013541AF0512013537B10512A8
:1017630001355BC30512013591C30512013501C46F
:10177300051201352CC4051201358FC4051201353C
:10178300FFC4051201353DC50512013540C50512DB
:101793000135EBFF02120135EEFF02120135008025
:1017A30005120135228005120135B4800512013579
:1017B300B28105120135A383051201350384051295
:1017C30001356C8405120135F87F0012013544BBE5
:1017D30005120135F0BC051201355CBD051201355A
:1017E300E4FF02120135BED30512013533D40512CD
:1017F300013543D40512013566C10512013597C180
:1018030005120135C1C1051201357EC2051201352C
:101813009EC205120135F6C205120135C8890412AC
:101823000135D689041201351C8A041201356F8AE9
:1018330004120135B78A04120135118B04120135E4
:10184300328B04120135098E04120135178E0412EE
:101853000135738E04120135A68E04120135B98E3B
:1018630004120135448F04120135DB8F0412013554
:101873005690041201358D90041201351391041210
:101883000135689104120135C39104120135D591D4
:10189300041201350692041201350F920412013528
:1018A3004D9304120135F3C80512013552C90512CF
:1018B3000135EDC90512013553CA05120135EA8810
:1018C300051201351D8905120135438A05120135BB
:1018D300688A05120135298B05120135018C051221
:1018E30001357D91051201354692051201359E920F
:1018F30005120135AF9205120135769505120135B2
:1019030096B605120135DBB60512013519B7051276
:101913000135B4B805120135B0CE05120135CBCE71
:1019230005120135DBCE051201353ECF0512013517
:1019330040D0051201357CCF051201350080041219
:101943000135DC80041201351F81041201355981F0
:1019530004120135C581041201351D8204120135BB
:101963008D82041201355E8304120135488404120A
:101973000135BF8404120135558604120135E08612
:1019830004120135508704120135CA870412013548
:10199300E187041201350C89041201355F890412B1
:1019A30001354CD20412013569D20412013555D3E5
:1019B300041201359ED304120135BED3041201353E
:1019C300FAD30412013553D4041201358FD404120F
:1019D3000135D7D40412013571D704120135DAD792
:1019E30004120135E6AB0212013501B102120135D1
:1019F300F8B3021201351EB40212013547B40212C4
:101A03000135F5B402120135D6B602120135F1B72C
:101A1300021201350AB80212013500BD0212013566
:101A230039BD021201357DBD021201358ABE021293
:101A33000135E037001201351438001201354F38F3
:101A430000120135C1380012013588390012013501
:101A53009F39001201357B3A00120135703E0012A6
:101A63000135803E00120135B13E00120135843F3D
:101A730000120135E63F00120135E93F001201353E
:101A83005040001201352C4200120135E34200128E
:101A930001353543001201353C4300120135FE4345
:101AA300001201350E44001201354C440012013579
:101AB3006544001201357C440012013508450012CB
:101AC30001352345001201355155001201354C599A
:101AD30000120135008003120135348103120135F0
:101AE300618103120135B08403120135E9840312C5
:101AF3000135FA8403120135168603120135278650
:101B030003120135B78603120135C7860312013567
:101B13008E8B03120135328C03120135408C031274
:101B230001356D8C03120135D28C03120135AA8E57
:101B3300031201357F8F0312013549F40312013576
:101B430096F8031201351AFB0312013553FB0312F6
:101B5300013564FB0312013583FB03120135ADFC30
:101B630003120135BEFC0312013546FD0312013594
:101B7300D7FD03120135B4B604120135C2B70412FE
:101B83000135DFB704120135BAB904120135DEBAE3
:101B9300041201357ABC0412013585D405120135CE
:101BA300D1AB05120135A7CA051201355DD3051264
:101BB30001355A90031201356695031201355FBD55
:101BC30005120135B2FF03120135D1FF04120135AD
:101BD300819D0512013559D20512013583D20512B3
:101BE3000135FCD3051201355CD405120135A3D4AC
:101BF30005E066701008A3E066700A08A3E066704B
:101C03000408A3E06622C008C3E096F50808A3E031
:101C130096420808A3E096420808A3E0964208A269
:101C2300D265D033E5087001D3D00822C3E7960804
:101C330009E7960809E7960809E79622C3E096089C
:101C4300A3E09608A3E09608A3E09622C008C3E0A9
:101C530096F50808A3E096420808A3E09642080810
:101C6300A3E09645087001D3D00822080808E6309F
:101C7300E711122528121C86080808C64480C618D6
:101C8300181822181818E9799EC608CAC608CBC6C0
:101C930008CCC6C370207996CACBCC7019798ECB89
:101CA300CC70137986CC700EF9802ACA33CACB3331
:101CB300CBCC33CC331930E7F2CCCBCA33501470CE
:101CC30004EA30E00DE4CA3ACACB3BCBCC3CCC505F
:101CD3000209C3E913C6CC182313C6CB18C6CA1806
:101CE300C6F922121D2620F01430E72B74FFFCFBEB
:101CF300FA747F8022E4FCFBFA7480801AB48008B3
:101D0300BC00F2BB00EF800F50EBF9E4C39AFAE496
:101D13009BFBE49CFCE499C6CC18C6CB18C6CA1836
:101D2300C6F922E4C9C608CAC608CBC6D33303081A
:101D3300CCC63392F0C3947F402E94184019C9B98E
:101D43000704CACBCC225025C309CA33CACB33CB31
:101D5300CC33CC33D9F422F4600DC9CCC313CB13E9
:101D6300CBCA13CAD9F6CC22E4FCFBFA2214FCFB3F
:101D7300FA22E62618461846184622E72719471975
:101D830047194722181818E60846087009E6260876
:101D93007005E633F4220822191919E70947097077
:101DA30009E727097005E733F4220922E608460804
:101DB300C3134608336002E633F422E7094709C335
:101DC300134709336002E733F422121DAF60251273
:101DD3001DBE6020121D757003021D7E080808E7F2
:101DE3006670101819E766700A1819E76670041808
:101DF30019E76622F422121DAF601C121DBE601784
:101E0300121D757007121D7E7001D322C0D0121DE2
:101E13007E7006D0D0B322C32233D0D0501430E02A
:101E2300F6C3E7960809E7960809E7960809E796CF
:101E3300B32220E0D5E6970809E6970809E6970854
:101E430009E697B322121DAF601B121DBE60161266
:101E53001D757007121D7E600CB322C0D0121D7E4B
:101E63007005D0D022C32233D0D0501330E0EBC35F
:101E7300E7960809E7960809E7960809E7962220F6
:101E8300E0E4E6970809E6970809E6970809E69764
:101E93002200121DAF604F121DBE6012E754806610
:101EA300F6121D877011121D7E703B090909F4F6A5
:101EB30018F618F618F622121D9B7015121D7508D8
:101EC300080860EAE6447FF618768018E4F618F608
:101ED30022121D756016121D7E7012E4F608F608B4
:101EE300F608E65480F609090918181822EAC0E032
:101EF300EBC0E0ECC0E0EDC0E0E687F0A4FBACF0A3
:101F030008E687F0A42CFCE435F0FA1809E687F01C
:101F1300A42C4B60027401CA35F0FCE433FB09E6E0
:101F230087F0D2F7A42CCB35F0FC1908E687F0A490
:101F33002BCC35F0FBE433FD0819E687F0D2E7A498
:101F43002C4ACB35F0CD3400FC09E687F0D2E7A468
:101F53002DCC35F0FDE433FA0918E687F0D2F7A467
:101F63002CCD35F0CA3400FC08E687F0D2E7D2F76F
:101F7300A42ACC35F07A7E20E70B0ACB33CBCD33C2
:101F8300CDCC33CC33CB3350147004ED30E00ED2D0
:101F9300F1E4CD3DCDCC3CCC3B5005DA05C2F1EBB1
:101FA300547FC63308E63392F0FBE73309E733C3C4
:101FB3009A502D2B70190C0D4C4D70151806E60810
:101FC300C333700D20F10AA2F013F6E418800B401E
:101FD30024E4F630F002768018F618F618F680241A
:101FE300D33B14501074FFA2F013F6187680E41854
:101FF300F618F6800FA2F013F618E63303F618EC82
:10200300F618EDF6D0E0FDD0E0FCD0E0FBD0E0FA2E
:1020130022121DBE6046121DAF603DE9687008F6CE
:1020230018F618F618F622748067F7122048090983
:1020330009748067F722121DAF601D121DBE700563
:10204300191919801A121D87701F121D9BC3700363
:10205300E667331919194007181818220808087475
:10206300FFF618F618F618F622121D9B6017121DBC
:102073007E702192F0121D757019501720F014080C
:102083000808090909E7F61819E7F61819E7F61811
:1020930019E7F622121D7560E6E869701F0808E665
:1020A3002480F608E436F618547FB47F0CE6548097
:1020B3006007F6E418F618F622181822E9C6CC08C9
:1020C300C6CD08C6CE08C6CFC0E0E8C0E0EAC0E08F
:1020D300EBC0E009E9F809E7FA09E7FBE6F918E6D6
:1020E300F8C3EC98ED99EE9AEBC2E7F5F0EFC2E78F
:1020F30095F0500E600CEBCFFBEACEFAE9CDF9E890
:10210300CCF8EAA2E7D2E7FAEB33FB13F5F0EEA241
:10211300E7D2E7FEEF33FFC5F013A2E730E601B3E2
:1021230013C5F0C3C0E0C0F07F00C39BFB605E94A7
:1021330018600F401D14601AD0E023F9D0E0F802B4
:10214300221A8AF0E9486003D2F0E4AFF0FAF9F812
:10215300803BEB30E40D89F0EA6003D2F0E4AFF0AA
:10216300F9CAF8EB30E30D88F0EF6002D2F0AFF07C
:10217300E4CAC9F8EB54076014FBC3EA13FAE91382
:10218300F9E813F8EF135002D2E0FFDBEDD0E0C023
:10219300E030E739C3E49FFFF5F0EC98FC42F0ED43
:1021A30099FD42F0EE9AFE42F0D0E0F9D0E0F8E576
:1021B300F0607AE923F9EE20E742D8028067C3EFA3
:1021C30033FFEC33FCED33FDEE33FE80EAEC28FC09
:1021D300ED39FDEE3AFED0E023F9D0E0F84002807D
:1021E3001BC3EE13FEED13FDEC13FCEF135002D2F1
:1021F300E0FF08B800067F7F74FF802EEF3350178F
:102203008CF020F00260100CBC000C0DBD00080E19
:10221300BE000408E860DFE933E813FFEE2313FE92
:102223004F4D4C8008E95480FFE4FEFDFCEE33EF94
:1022330033F47004FCFD7E80D0E0FBD0E0FAD0E004
:10224300F8D0E0CFC618CEC618CDC618CCC6F92232
:10225300121DAF700418181822121DBE700D74FFE2
:10226300F61819F61819F61819F622E7548066F6C7
:10227300121D75700F121D7E70F014F608F608F625
:1022830008F680D1121D7E700CF608F608768008D9
:10229300E6447F80EC121D9E700C121D8A60BFE61F
:1022A3005480F6E480BB121D8A700519191980A5A4
:1022B300E869700C763F18768018F618F6E8F9226C
:1022C300E6CDC0E018ECC0E0E633CD33CDD313F652
:1022D300E719FCE7191933CC33C3947F400ECD9D26
:1022E300502408E65480F6E418F6800FF4043D14F5
:1022F300501408E6447FF6187680E418F618F6D0F2
:10230300E0FCD0E0FD22CCD313CCFD18E4C6CBC057
:10231300E018E4C6CAC0E00808ED08C633E613F6C1
:1023230018E433C675F003C3CA97CA09CB97CB1910
:102333009C40047D08802EBD00030223FC16B6FFDB
:10234300050606081618C3CA33CACB33CB33CA27CC
:10235300CA09CB37CB193CC37D08803E187D0820C2
:10236300E75CC633C6CA33CACB33CB33DDF1D5F012
:10237300EB30E77BCA97CA09CB974ACB199C406FCE
:102383004B7025E620E0218066187D08C3CA97CAF2
:1023930009CB97CB199CD3C633C6CA33CACB33CB2D
:1023A3003350C9DDE7D5F0E1D3E4C636C608C636F7
:1023B300C608C636C608C636C61818188031C3CA3A
:1023C30097CA09CB97CB199CB34097C633C6CA3378
:1023D300CACB33CB33DD34D5F02EC6A2E0C640C81A
:1023E300CA27CA09CB37194A70BECB3CB480B90897
:1023F30008E63308E633601F181818D0E0FAD0E077
:10240300FBD0E0FCD0E0FD22187D08CA27CA09CB27
:1024130037CB193CD3808013F618E4B67F11F61836
:10242300B6FF0EF618C60470D20808768080CAF686
:1024330018F618F680C5080808EAC0E0EBC0E08685
:10244300F0E7A4FA180986F0E7A42AFA180986F037
:10245300E7A42AFA180986F0E7A42AFA1986F0E70E
:10246300A4FBE5F02AFA190886F0E7A42BFBE5F0B4
:102473003AFA190886F0E7A42BFBE5F03AFA1818A4
:102483000986F0E7A4C5F02BFBE43AFA1908E7C57F
:10249300F0C6A426F6E5F03BFBE43AFA1886F0E72B
:1024A300A4F6E5F00826F6E43B08F6E43A08F6D08D
:1024B300E0FBD0E0FA22E4CFC0E0E4CEC0E0E4CD1C
:1024C300C0E0E4CCC0E075F020E626F608E633F67B
:1024D30008E633F608E633F6181818EC33FCED3348
:1024E300FDEE33FEEF33FFC3EC9709ED9709EE974B
:1024F30009EF97191919400FFFEC97FC09ED97FDA8
:1025030009EE97FE191906D5F0BFECF709EDF709A7
:10251300EEF709EFF7191919D0E0FCD0E0FDD0E090
:10252300FED0E0FF22181818E4C396F608E496F6E6
:1025330008E496F608E496F6226016080808C6C36F
:1025430013C618C613C618C613C618C613C6D5E0D5
:10255300EA227009080808226016181818C6C3333F
:10256300C608C633C608C633C608C633C6D5E0EAAE
:1025730022E627F60809E637F60809E637F60809DA
:10258300E637F622E026F608A3E036F608A3E0369F
:10259300F608A3E036F622E026F008A3E036F008BA
:1025A300A3E036F008A3E036F022C3E697F6080965
:1025B300E697F60809E697F60809E697F622C3E0D8
:1025C30096F008A3E096F008A3E096F008A3E0963F
:1025D300F022E657F60809E657F60809E657F60823
:1025E30009E657F622E056F608A3E056F608A3E0FC
:1025F30056F608A3E056F622E056F008A3E056F09C
:1026030008A3E056F008A3E056F022E066F608A31C
:10261300E066F608A3E066F608A3E066F622E0F6B5
:1026230008A3E0F608A3E0F608A3E0F622E6F00824
:10263300A3E6F008A3E6F008A3E6F022E0FAA3E09D
:10264300FBA3E0FCA3E0FD22EAF0A3EBF0A3ECF094
:10265300A3EDF022E0F8A3E0F9A3E0FAA3E0FB2264
:10266300E8F0A3E9F0A3EAF0A3EBF022CAC0E0E6A6
:10267300F0A308DAFAD0E0FA22CAC0E0E0A3C582E8
:10268300CCC582C583CDC583F0A3C582CCC582C525
:1026930083CDC583DAE6D0E0CA22C3E498F8E4998F
:1026A300F91226DE8026C3E49AFAE49BFBE920E7CD
:1026B300E91226DEE498F8E499F922C3E498F8E4F1
:1026C30099F91226DEE498F8E499F9C3E49AFAE456
:1026D3009BFB22EB20E7CFE920E7E0B90010BB002A
:1026E30008E88AF084F8AAF022E4FBC8FA22EB7027
:1026F300227B10C833C8C933C9335007C39AC3DB1D
:10270300F280069A50012ADBEAC833F4C8C933F4CD
:10271300C9FA2275F008E4C833C8C933C933C99A62
:10272300C99B5004C92AC93BD5F0ECFBC833F4C894
:10273300E4C9FA22600D08C6A2E713C618C613C679
:10274300D5E0F322600C08C6C313C618C613C6D55A
:10275300E0F422700422600D18C6C333C608C633E2
:10276300C6D5E0F41822251810AF08F518400C154B
:10277300198008F51840021519D2AF2200C0D025E0
:102783001810AF08F518500C05198008F5185002F9
:102793000519D2AFD0D0222518F58210AF08F5184D
:1027A300400C15198008F51840021519D2AF851988
:1027B30083222518F582E43519F583222518F8E4D8
:1027C3003519F9222518FAE43519FB222518FCE4FA
:1027D3003519FD22E4732518C582C0E0E51934FFDD
:1027E300C583C0E0E518C3958224F810AF0885833C
:1027F300198582188008858319858218D2AFCEF097
:10280300A3E520F0A37808E608F0A3DEFAEFF0A32F
:10281300E58124FAF8E608F0A3E608F0A3E608F059
:10282300A30808E608F0A3E608F0A315811581D0F4
:10283300E0FED0E0F8158115811581E8C0E0EEC017
:10284300E0222518C582C0E0E51934FFC583C0E046
:10285300E518C3958224F910AF088583198582187A
:102863008008858319858218D2AFCEF0A3E520F0C6
:10287300A37808E608F0A3DEFAEFF0A3E58124FBD2
:10288300F8E608F0A3E608F0A30808E608F0A3E6D4
:1028930008F0A315811581D0E0FED0E0F81581156D
:1028A30081E8C0E0EEC0E022851983851882E0A3A9
:1028B300FEE0A3F5207808E0A3F608DFFAE0A3FF23
:1028C300E0A3C0E0E0A3C0E0E0A3C0E0E0A3C0E079
:1028D300E0A3C0E010AF08858218858319800885BE
:1028E3008218858319D2AFD083D082020132851931
:1028F30083851882E0A3FEE0A3F5207808E0A3F621
:1029030008DFFAE0A3FFE0A3C0E0E0A3C0E0E0A398
:10291300C0E0E0A3C0E010AF08858218858319806A
:1029230008858218858319D2AFD083D08222C0D084
:102933002518C582C0E0E51934FFC583C0E0E5185A
:10294300C3958224F310AF08858319858218800804
:10295300858319858218D2AFC8F0A3E9F0A3EAF002
:10296300A3EBF0A37908E709F0A3D8FAECF0A3ED01
:10297300F0A3EEF0A3EFF0A3D0E0F0A3D0E0F0A338
:10298300D0E0F0A3E520F0A3E5F0F0A322851983BE
:10299300851882E0C0E0A3E0F9A3E0FAA3E0FBA37B
:1029A3007808E0F608A3DFFAE0FCA3E0FDA3E0FE6D
:1029B300A3E0FFA3E0C0E0A3E0C0E0A3E0F5D0A361
:1029C300E0F520A3E0A3F5F010AF08858319858215
:1029D300188008858319858218D2AFD082D083D01E
:1029E300E0F8D0E03274048006740280027401C0FF
:1029F300E0F40412279AD0E012266F2274048004B4
:102A030074028000CCC0E0EDC0E0E518C39CCCADFF
:102A13001950011D10AF068C188D1980068C188D66
:102A230019D2AF12267CD0E0FDD0E0FC22D083D0B7
:102A330082E9C0E0E493A3C386F0C5F095F0F908FA
:102A4300E493A386F0C5F095F0700BE493A3C399C8
:102A53004005E9048002A3E475F002A42582F5820F
:102A6300E5F03583F583D0E0F9E493A3C0E0E49384
:102A7300C0E022D083D082ECC0E0EDC0E0E493A3B9
:102A8300FCE493A3FDED4C600D122AC2EC24FFFC81
:102A9300ED34FFFD80EFE493A3FCE493A3FDED4C41
:102AA300600D122B01EC24FFFCED34FFFD80EFD011
:102AB300E0FDD0E0FCE493A3C0E0E493C0E022C0D7
:102AC300E0C3E49396087401939618400FE4936669
:102AD300700808740193661870007019A3A3C3E407
:102AE3009396087401939618A3A3400DD0E0D0E009
:102AF300D0E0022AB2A3A3A3A3A3A3D0E022C0E001
:102B0300C0F088F0E4936670080874019366187047
:102B130000A8F0A3A3700BD0F0D0E0D0E0D0E00287
:102B23002AB2A3A3D0F0D0E02274F6122845EAFE1D
:102B3300EBFF8C088D09EE2434F8E43FF9E8FCE957
:102B4300FD122C5EE0FAEE2437F582E43FF583E0D4
:102B5300F88508F0A4C885F00A8509F0A4250AF9C8
:102B6300EA28F8E439F97A257B001226DEEA8C821A
:102B73008D83F0FA131313541FF8EE28F8E43FF98A
:102B8300E8245DF582E439F583E0C0E074075AF880
:102B9300D0E0B800028004C313D8FCA2E05003EADB
:102BA3008020EE2436F582E43FF583E0F5F0EA84F5
:102BB300A8F0EE28F8E43FF9E82438F582E439F583
:102BC30083E0F97F030228F174F5122845EAFEEB4E
:102BD300FFEE2434F582E43FF583E0C0E0122C5E7F
:102BE300D0E0F08E828F83A3A3A3A3A3E0FAA3E094
:102BF300FB8E828F83A3A3A3A3A3A3A3E0C39AF50E
:102C030008A3E09BF509EE247FF8E43FF9880A89DD
:102C13000B8882F583E06401702CEE2480F582E456
:102C23003FF583EA2401F8E43BF9E0687003A3E08D
:102C33006970137C1A7D08EEFAEFFB121018850AEF
:102C430082850B83E4F0AC08AD09EEFAEFFB122B9F
:102C53002CE9F91237497F040228F1EE2435F58275
:102C6300E43FF58322C082C083851882851983E0FF
:102C7300F8A3E0F9C3EA9CEB9D5010C3EC98ED99DF
:102C8300401BC3EA98EB995014800EC3EA98EB9962
:102C93004007C3EC98ED994004790180027900D094
:102CA30083D08222EAC39CFAEB9DFB2274ED1228A7
:102CB300459004C3E064086005E06407702C9061EC
:102CC300C8E060269004F1E0F874FF68601CE875C2
:102CD300F00DA4C8AAF02AF974F328FE740439FF8E
:102CE3008E828F83A3A3A3E070057900022E51EE99
:102CF3002468F50EE43FF50F906060E0850E828551
:102D03000F83F07510B4751108750800750900E597
:102D1300D914F50AE5D95403F50B601FEE2483F5A6
:102D23000CE43FF50D7403650B6059E50A6017EE7B
:102D33002467F582E43FF583E0700B793DEEFAEF0B
:102D4300FB12104880A49008AFE064016023850C57
:102D530082850D83E060047A0480027A00E50AC369
:102D63009AFA95E0FB120DFC8A088B09EA45097073
:102D730006121342022CED850C82850D83E070044C
:102D83008A108B117A008014E5D9C0E0EAF8E510C7
:102D930028F582E43511F583D0E0F00AEAC3950AF9
:102DA30040E6850C82850D83E0602874FC250AF5D6
:102DB3000A78101229ECAC0AA90BEEFAEFFB1211F8
:102DC30002740212277FE9700AAA08AB091218AC31
:102DD300022D3E7403650B6054850A0C750D007853
:102DE3000C1229ECAC10AD11AA08AB091210C67471
:102DF3000212277F850E82850F83E0F87480687046
:102E030005750C7F8002880CE50CF50D780D1229F1
:102E1300F0780B1229F0A90AAC08AD099004F1E08F
:102E2300FA7B00120C1C740212277F801C9004C3CF
:102E3300E06408AC10AD117009EEFAEFFB12113229
:102E43008007EEFAEFFB1211EC12134E79017F0C9F
:102E53000228F174F312284574FC122769EAFEEB89
:102E6300FF8909A2AFE433F508C2AFEE2463F50A84
:102E7300E43FF50B8010AA0AAB0B12107E1218ACBC
:102E8300900821E004F0850A82850B83E0F8A3E033
:102E9300F9E849602DE82402FAE439FBEA2402F553
:102EA3000CE43BF50D780C1229EC8A828B83E0FC51
:102EB300A3E0F9EEFAEFFB121072740212277FE916
:102EC30060B4900821E0604D900822E0F89008215A
:102ED300E0C398500C74026509703A900823E060CF
:102EE300348E828F83A3A3A3A3E0851882851983DD
:102EF300122F2874021227B5E8122F28900820E019
:102F030028F074021227CFAA18AB197901120C7C8E
:102F1300900821E4F0E508A2E092AF740412277F41
:102F23007F060228F1F0A3E4F0900821E0F82200E4
:102F3300008521878522C622C0E074EB122931A2C5
:102F4300AFE433F508C2AF759B00906182E0A2E065
:102F53005030E591A2E0502A7591FE74016521700D
:102F6300211230CE1212461230BC1229FF1234F352
:102F7300740412277FE96401700579011212A0120B
:102F83002CAF906182E0A2E5505DE591A2E5505738
:102F93007591DF9004C3E064076005E06408702F57
:102FA3001230CE74016521703E1212461230BC12EB
:102FB30029FF1234F3740412277FE9640170057941
:102FC300011212A07901EEFAEFFB122E568018E0DF
:102FD300640D70139004E5E004F064287002E4F0DB
:102FE3007A00E0F9121354906182E0A2E6400302F2
:102FF3003091E591A2E640030230917591BF9004B0
:10300300C3E06405700812122E12123A80031212E2
:10301300347521001212BEE99004C4F07900121233
:10302300A0120F3A7A017B009004C2E0F912187CD7
:10303300907803E0644270569008B3E014F0704E49
:10304300C2AF12304800782AD0E0F618D0E0F6E597
:103053009F5407F87005750DFF8003750D7FC4C07D
:10306300E07829E6F50A08E6550DF50B740B780AA6
:10307300122747D0E0250AF8906270E0A2E740F8F3
:10308300E8C333906272F0906270E0D2E0F0906136
:1030930081E0A2E35009E5E9A2E3500375E9F7A350
:1030A300E0A2E75009E591A2E7500375917FE50897
:1030B300A2E092AF7F080229908E828F83E0F8A36B
:1030C300E0C82416F582E438F583229004F1E0F891
:1030D30075F00DA4C8AAF02AF974F328FE74043914
:1030E300FF22C0E0C0D0C082C083906183E0A2E031
:1030F3005009E5BFA2E0500375BFFEE0A2E150090D
:10310300E5BFA2E1500375BFFDE0A2E25009E5BFB0
:10311300A2E2500375BFFBE0A2E35009E5BFA2E3BF
:10312300500375BFF7E0A2E45009E5BFA2E45003E2
:1031330075BFEFE0A2E55009E5BFA2E5500375BFF7
:10314300DFE0A2E65009E5BFA2E6500375BFBFD09A
:1031530083D082D0D0D0E032C0E074F2122931E5BE
:10316300A7A2E4500FE5A1A2E4500953A7EF75A16C
:10317300EF1231AFE5A7A2E5500CE5A1A2E5500699
:1031830053A7DF75A1DFE5A7A2E15009E5A1A2E1FD
:10319300500375A1FDE5A7A2E2500CE5A1A2E25000
:1031A3000653A7FB75A1FB7F0102299074F812282F
:1031B300457521019004C3E0640670077A007B0023
:1031C300121216A2AFE433FED2AF9004C9E0640139
:1031D30070187A207B009004C2E0F91219C67A2095
:1031E3007B009004C2E0F9121882906182E0D2E67B
:1031F300F09008B0E0602185C62280169004C8E0F4
:1032030064017008E5C654F84405F5C653BEFC12C4
:103213002F347401652160E4EEA2E092AF7F0102D6
:1032230028F10000008E238F24858228858327853B
:103233001882851983E0CEA3E0CF85288285278372
:10324300EBC9EAC8EDCBECCA75F010C3E833C8E9A3
:1032530033C9EA33CAEB33CBC3EA9EF526EB9FF5BA
:1032630025B35004AB25AA26EC33CCED33CDD5F0F2
:10327300DAAE23AF242274E912284574FA122769BF
:10328300EAFEEBFF8C088D09121258EAF8EBF9EC11
:10329300FAEDFB8E828F831226639004C3E024F73A
:1032A300C3940550067510010233B012118C8A0ABB
:1032B3008B0BEA450B70030233AD12124C8A0C8B55
:1032C3000D12124CEA650C7003EB650D60ECEEFC1D
:1032D300EFFDAA18AB19121252850A82850B83A33C
:1032E300A3780C1226219095DC780C1225E885181A
:1032F3008285198378141226219095DC781412257F
:10330300E8780C7914121C2F501F780C79141225AD
:10331300AD909648780C121C4F4047850C10850DD4
:1033230011850E12850F13804590964885141085DC
:1033330015118516128517137810790C1225AD789F
:1033430010121C4F501C751000751100751200757A
:103353001301781079141225AD7810790C122574A5
:10336300800C751001751100751200751300740936
:1033730078101225559095D0780C12262178107963
:103383000C1224B99004C3E06408600AE064066088
:1033930005E0640570209095947810121C4F501628
:1033A3009096447810122587800C751000751100D3
:1033B300751200751300850882850983781012261B
:1033C30030740612277F7F100228F174F712284504
:1033D30012126A9008AEE064017010906245E4F046
:1033E300A3F053F4F343FE0C5390F3121204E5C617
:1033F30054B84441F5C6E59E5447644170F8906162
:1034030085740FF09008ACE0F47002A3E0602C75B3
:1034130008017509009008ACE07808122756E50802
:10342300F4FAA3E0600814600A14600C800DEA52F9
:10343300808008EA52908003EA52A079007F02025A
:1034430028F174F7122845E9FEEAFF74016E700C47
:103453007A807B009004C2E0F912187C9037D8E49C
:1034630093F46008E493F9120F1C800953C6B8E57E
:103473009E544770FA12120A9008AEE0640170037A
:10348300120F529008ACE0F47002A3E0602B7508B1
:10349300017509009008ACE07808122756E508FA90
:1034A300A3E0600814600A14600C800DEA42808077
:1034B30008EA42908003EA42A012118C8A088B0921
:1034C300A808A909E8496016E5E170FCE82414F5A9
:1034D30082E439F583E0F874FF68600288E17401DF
:1034E3006F700A7A019004C2E0F912192402344081
:1034F30074F11228458A088B098C0A8D0B9095DC90
:1035030078081225E8740F1227B5780C122621903B
:1035130095DC780C1225E87808790C121C2F90960C
:103523004850107808790C1225AD7808121C4F40CA
:1035330014800E780C79081225AD780C121C4F50AC
:10354300047901800279007F080228F174ED1228C2
:10355300458A088B098C0A8D0B9095DC7808122517
:10356300E874131227B5780C1226219095DC780C99
:103573001225E8780C7908121C2F40117808790C71
:103583001225ADAA08AB09AC0AAD0B802275100059
:103593007511007512007513017810790C1225ADA1
:1035A30078107908122574AA10AB11AC12AD137FF1
:1035B3000C0228F19095DC78081226218A828B83ED
:1035C30078081225FB7F040228F174F51228458C34
:1035D300828D8378081226218A828B8378081225AC
:1035E300C1123621C3E098F0A3E099123613401EAE
:1035F3009095B078081226218A828B837808122549
:103603009A8E828F83E02420F0A3E0344EF080A4CE
:10361300F08E828F83C3E09420A3E0944E22EA24A9
:1036230004F8E43BF9E8FEE9FF8C828D83A3A3A3AE
:10363300A3E0F8A3E0F98E828F832274F512284564
:10364300E9FE90083CE0FAA3E0FBEE29F8E433F945
:10365300748828F582749139F583E02AF508A3E08C
:103663003BF50978081229EC90961012263F123286
:1036730028740212277F8A088B098C0A8D0B741019
:10368300780812253CAA08AB097F040228F174F1DB
:103693001228458A0C8B0D8C0E8D0F74111227B5D1
:1036A300122A0374111227B5E02401F508A3E034AC
:1036B30000F509E4F50AF50B780C79081224399022
:1036C30096687808122621780C7908122439AA0CF6
:1036D300AB0DAC0EAD0F123228740212277F8B098B
:1036E300EA450960047A0180027A00EC2AFCE43D91
:1036F300FD74131227B5E0F8A3E0F9E8FEE9FFEC47
:10370300F8EDF97A717B021226DE88088909E4F55F
:103713000AF50B8E828F837808122630ECF8EDF9C8
:103723007A717B021226DE8A088B097405780812E7
:1037330027568E828F83A3A3A3A3E508F0A3E509ED
:10374300F07F080228F1C082C083E9906000F0D0C6
:1037530083D08222C0E074F2122931A2AFE433FE97
:10376300D2AFE589A2E14006E589A2E25003121730
:1037730080758900758900C2C5751A00EEA2E092B2
:10378300AF7F01022990C0E074F2122931A2AFE4A5
:1037930033FED2AFE58BA2E05003121780758B0086
:1037A300C2E8751A00EEA2E092AF7F01022990C031
:1037B300E0C0D0E8C0E0A2AFE433F8D2AFC2C7752F
:1037C3001A00E8A2E092AFD0E0F8D0D0D0E032C245
:1037D300AF02000022FFFFFFFFFFFFFFFFEAF8EB4E
:1037E300F9E824FFFAE934FFFBE84960217800791E
:1037F3000078DC7905C3E89401E99400A2D265D08E
:103803003340DA00E824FFF8E934FFF980E70201E6
:103813003274F71227D989087800800108E8C39524
:10382300085022E8FE7F00EA2EF582EB3FF583E0A5
:10383300F9E8FE7F00EC2EF582ED3FF583E0696049
:10384300DB7900800279017F010228AB74F0122733
:10385300D9E9FE7C00750800750900750A00750B2F
:1038630000803A90964C780C1226217808790C1235
:103873002439ECF87900EA28F582EB39F583E0F88E
:103883007900E824D0F50CE934FFF50DE50D339507
:10389300E0F50EF50F7808790C1225740CECC39E35
:1038A300500FECF87900EA28F582EB39F583E070E4
:1038B300B2AA08AB09AC0AAD0B7F080228AB74F7B8
:1038C3001227D974EF122769909115AC18AD1974AA
:1038D3001112267C78687918888289837430F0887D
:1038E300828983A3A882A983888289837478F088D4
:1038F300828983A3A882A983EA2406FA50010B7E56
:1039030006806AEA24FFFAEB34FFFB8A828B83E0AA
:10391300C4540FFC7D00851882851983E5822CF53C
:1039230082E5833DF583E0C0E088828983D0E0F0BF
:1039330088828983A3A882A9838A828B83E0FC7D02
:1039430000EC540FFCED5400FD851882851983E5C6
:10395300822CF582E5833DF583E0C0E0888289838C
:10396300D0E0F088828983A3A882A9831EEE709396
:10397300888289837400F07A687B18741112277F18
:103983007F010228ABC082C0837CB07D177AB679F1
:1039930080121990E9D083D08202013274F7122782
:1039A300D9E9FEEE6003023A3A9017B07404F0903E
:1039B30017B17400F09017B27400F09017B374004D
:1039C300F07C427D947AB47B17121BDC9017C07491
:1039D30000F07C117D957AC17B17121BDC9017C810
:1039E3007400F07C0D7D0079007AC97B1712183AB8
:1039F3009017E37400F09017E47400F07C787D0076
:103A030079007AE67B1712183A90185E7400F0A3D7
:103A13007400F09018607400F09018617400F090D6
:103A230018627400F090186374F4F0A37401F090BA
:103A330018657400F0802B74016E70267C0D7D0078
:103A430079007AC97B1712183A9017E37400F09043
:103A530017E47400F07C787D0079007AE67B171216
:103A6300183A7C007D0079007A097B041215F4E989
:103A7300121A4A7F010228AB74F41227D974D312A5
:103A830027699017B0E0F50875090078081229EC4A
:103A93007CB97D8E74021227C7121BDC74021227B5
:103AA3007FAA18AB1912181C8A088B09AC08AD0938
:103AB300AA18AB191217EC7A647B00121A3290170A
:103AC300B1E0F50875090078081229EC7C3C7D8F7C
:103AD30074021227C7121BDC740212277FAA18ABC9
:103AE3001912181C8A088B09AC08AD09AA18AB195E
:103AF3001217EC7A647B00121A329017B2E0F508C1
:103B030075090078081229EC7C097D8F740212274D
:103B1300C7121BDC740212277FAA18AB1912181CD8
:103B23008A088B09AC08AD09AA18AB191217EC7AED
:103B3300647B00121A329017B3E0F5087509007818
:103B4300081229EC7C577D9074021227C7121BDCE4
:103B5300740212277FAA18AB1912181C8A088B0942
:103B6300AC08AD09AA18AB191217EC7A647B0012E2
:103B73001A327508B475091778081229EC7CCD7DC3
:103B83008F74021227C7121BDC740212277FAA1834
:103B9300AB1912181C8A088B09AC08AD09AA18AB1B
:103BA300191217EC7A647B00121A329017C0E0F5F1
:103BB3000875090078081229EC7C407D9074021284
:103BC30027C7121BDC740212277FAA18AB1912181D
:103BD3001C8A088B09AC08AD09AA18AB191217EC9B
:103BE3007A647B00121A327508C1750917780812B6
:103BF30029EC7C127D9074021227C7121BDC74021D
:103C030012277FAA18AB1912181C8A088B09AC0853
:103C1300AD09AA18AB191217EC7A647B00121A3299
:103C23009017C8E0F50875090078081229EC7C6E36
:103C33007D9074021227C7121BDC740212277FAA1D
:103C430018AB1912181C8A088B09AC08AD09AA18FD
:103C5300AB191217EC7A647B00121A327508C97516
:103C6300091778081229EC7CD47D8E74021227C7B9
:103C7300121BDC740212277FAA18AB1912181C8AB4
:103C8300088B09AC08AD09AA18AB191217EC7A64B2
:103C93007B00121A32750800750900023D309092BC
:103CA3008A74201227CF740D12267C750A0C750BAB
:103CB30000780A1229ECA808A909E875F00CA4C831
:103CC300AAF075F000A42AFA75F00CE9A42AF97495
:103CD300E628FC741739FD74221227C712182274C0
:103CE3000212277F74201227BF880A890B780A12D1
:103CF30029EC78081229EC7C0A7D9374041227C7F7
:103D0300121BDC740412277FAA18AB1912181C8A21
:103D13000A8B0BAC0AAD0BAA18AB191217EC7AC8B5
:103D23007B00121A320508E508700205099017E3B3
:103D3300E0F87900C3E50898E50999A2D265D03384
:103D43005003023CA190185E122A037C587D8E74A6
:103D5300021227C7121BDC740212277FAA18AB19A1
:103D630012181C8A088B09AC08AD09AA18AB1912E2
:103D730017EC7A647B00121A32901860E0F508336E
:103D830095E0F50978081229EC7CE47D8F74021222
:103D930027C7121BDC740212277FAA18AB1912184B
:103DA3001C8A088B09AC08AD09AA18AB191217ECC9
:103DB3007A647B00121A32901862E0F508750900E4
:103DC30078081229EC7CEF7D8E74021227C7121B30
:103DD300DC740212277FAA18AB1912181C8A088BED
:103DE30009AC08AD09AA18AB191217EC7A647B0069
:103DF300121A32901863122A037C2E7D8E740212DB
:103E030027C7121BDC740212277FAA18AB191218DA
:103E13001C8A088B09AC08AD09AA18AB191217EC58
:103E23007A647B00121A32901865E0F50875090070
:103E330078081229EC7C9E7D8E74021227C7121B10
:103E4300DC740212277FAA18AB1912181C8A088B7C
:103E530009AC08AD09AA18AB191217EC7A647B00F8
:103E6300121A32742D12277F7F040228ABC082C03E
:103E7300839017C0E0F9D083D082020132C082C0A0
:103E830083121A5CE9640170109018DEE06402701A
:103E930004790180127900800E9018E9E0640670BD
:103EA30004790180027900D083D08202013274F454
:103EB3001227D974F4122769EAFEEBFF121A5CE9A0
:103EC30064016003023F7A750800800205089017B9
:103ED300E3E0F8E508C3985033AA18AB19A9081210
:103EE3001A6EE96027750A0C750B00780A1229EC23
:103EF300EEFCEFFD74021227C71218347402122766
:103F03007FE960C8E5089017E5F0806B75080C75CC
:103F1300090078081229ECEEFCEFFD9017E4E0F8B5
:103F23007900E875F00CA4C8AAF075F000A42AFA89
:103F330075F00CE9A42AF974E628FA741739FB1210
:103F43001822740212277F9017E4E09017E5F0908F
:103F530017E4E02401F09017E4E075F00A84E5F03B
:103F63009017E4F09017E3E0C3940A50079017E327
:103F7300E02401F0121A4A740C12277F7F040228EE
:103F8300AB74F41227D98908EAFEEBFF121A5CE935
:103F9300640170489017E3E0F8E508C398503D7555
:103FA3000A0C750B00780A1229ECE508F87900E889
:103FB30075F00CA4C8AAF075F000A42AFA75F00CE9
:103FC300E9A42AF974E628FC741739FDEEFAEFFB2D
:103FD300121822740212277F7901800279007F046C
:103FE3000228AB02013274EC1227D97E31750C0022
:103FF300750D00750E40750F40121B9A8A088B09C8
:10400300A808A909EEFA7B00E8C39AF508E99BF52D
:1040130009E5093395E0F50AF50B7808121C6E9053
:1040230096507810122621780C7910121E94780875
:10403300790C12225378081229E890965012263FE1
:10404300121BD0740412277F7F0C0228AB74F51265
:1040530027D9780079007C007D007E007F007508F9
:10406300E8750903901881E0640560030241F1904B
:104073001882E0F8A3E0F9E875F002A4C885F00A15
:1040830075F000A4250AF50A75F002E9A4250AF9DA
:10409300747728F582741839F583EAF0A3EBF0906E
:1040A3001882E02401F0A3E03400F0901882E0F8D5
:1040B300A3E0F97A057B001226D6901882EAF0A3D2
:1040C300EBF0780079000241C3E8FAE9FBEA75F006
:1040D30002A4CA85F00A75F000A4250AF50A75F052
:1040E30002EBA4250AFB74772AF58274183BF58347
:1040F300E0FAA3E0FBC3EE9AEF9BA2D265D0335064
:1041030028E8FAE9FBEA75F002A4CAAEF075F000FC
:10411300A42EFE75F002EBA42EFB74772AF58274AD
:10412300183BF583E0FEA3E0FFE8FAE9FBEA75F04C
:1041330002A4CA85F00A75F000A4250AF50A75F0F1
:1041430002EBA4250AFB74772AF58274183BF583E6
:10415300C3E09508A3E09509A2D265D033502EE8B9
:10416300FAE9FBEA75F002A4CA85F00875F000A429
:104173002508F50875F002EBA42508FB74772AF5EA
:104183008274183BF583E0F508A3E0F509E8FAE942
:10419300FBEA75F002A4CA85F00A75F000A4250AAB
:1041A300F50A75F002EBA4250AFB74772AF58274ED
:1041B300183BF583E02CFCA3E03DFD08E870010902
:1041C300C3E89405E99400A2D265D03350030240BA
:1041D300CCECC39EF8ED9FF9E8C39508F8E995097F
:1041E300F97A037B001226D6E8FAE9FB80369018A9
:1041F30081E0F87900E875F002A4C8ACF075F0002E
:10420300A42CFC75F002E9A42CF9747728F58274C8
:104213001839F583EAF0A3EBF0901881E02401F05C
:104223007A007B007F030228AB74F01227D974E075
:10423300122769E9FEEE901860F0121A62E9700322
:104243000242D9EEFA3395E0FB121A7A8A088B09F7
:104253008C0A8D0B909654780C1226217808790CD1
:10426300121E947808121CE6AA08AB09121A808A57
:10427300088B0978081229ECEEF404F50875090097
:1042830078081229EC7C267D9174041227C7121B2F
:10429300DC740412277F901866E0603AAA18AB1901
:1042A300121BEE8A088B09AC08AD09AA18AB1912C8
:1042B30017ECAA18AB19121BEE8A088B09AC08ADD0
:1042C30009AA18AB1912055CE97A107B009018A9AA
:1042D300E0F912187CE9742012277F7F080228ABCB
:1042E30074F61227D974E8122769908FB5AC18AD0C
:1042F30019741812267C7508C175091778081229D4
:10430300EC7C1F7D9274021227C7121BDC7402120D
:10431300277FAA18AB1912181C8A088B09AC08ADA1
:1043230009AA18AB191217EC741812277F7F02021F
:1043330028AB7AB47B1702013274F41227D974F6CE
:10434300122769901884E02401F0A3E03400F09070
:104353001884C3E0940AA3E0940050030243F4904A
:10436300967BAC18AD19740312267CA818A919887A
:10437300088909AE08AF091218EE8A088B098C0A5E
:104383008D0B78081229E874071227C71218F474E2
:104393000412277F75F00A74031227B5E084C0E086
:1043A3008E828F83D0E0F08E828F83A3AE82AF8321
:1043B30074031227B5E075F00A84E5F0C0E08E823D
:1043C3008F83D0E0F08E828F83A3AE82AF837C0392
:1043D3007D00AA18AB1912055CE97A047B009018DA
:1043E300A9E0F912187CE99018847400F0A3740012
:1043F300F0740A12277F7F040228ABC082C0839027
:1044030017C8E0F9D083D08202013274F01227D9A1
:1044130079067AC17B17121A3E8A0C8B0D8C0E8D8E
:104423000F850C08850D09850E0A850F0B909610D4
:10443300780C1226217808790C1224B9AA0CAB0D3A
:10444300AC0EAD0F7F080228ABC082C0839017B3B8
:10445300E064027004790180027900D083D0820283
:104463000132C082C0839017B3E0700479018002E7
:104473007900D083D08202013274F61227D99018C2
:1044830067E06403700479008076901867E0640144
:104493006008901867E0640470419017E3E0605E81
:1044A30075080C75090078081229EC9017E5E0F8F7
:1044B3007900E875F00CA4C8ACF075F000A42CFCEE
:1044C30075F00CE9A42CF974E628FC741739FD1275
:1044D3001822740212277F79018025901867E064FF
:1044E30002701B75080C75090078081229EC7CD63C
:1044F3007D17121822740212277F79018002790036
:104503007F020228AB74F61227D9901863E0F508EE
:10451300A3E0F509AA08AB09E4FCFD7F020228AB7E
:1045230074E91227D974B9122769EAFEEBFF8C08E4
:104533008D09751401751500740465087004740001
:104543006509703479047C757D95EEFAEFFB121AD8
:1045530038E960247C6B7D95AA18AB19121BDCAA81
:1045630018AB1912181C8A088B09AC08AD09AA18D4
:10457300AB191217EC025530740865087004740007
:104583006509701679087C0C7D94EEFAEFFB121A1C
:1045930038E96006121A56025530740A6508700429
:1045A30074006509600302467079077CDA7D94EE36
:1045B300FAEFFB121A38E970030246708E828F837A
:1045C300A3A3A3A3A3A3A3E024D0604B1460481424
:1045D300604514604214603F24F5600302466A900C
:1045E30017B0E0F50875090078081229EC7CF27D14
:1045F3009274021227C7121BDC740212277FAA18B7
:10460300AB1912181C8A088B09AC08AD09AA18ABA0
:10461300191217EC0255308E828F83A3A3A3A3A391
:10462300A3A3E024D09017B0F0121A4A9017B0E079
:10463300F50875090078081229EC7CFE7D92740256
:104643001227C7121BDC740212277FAA18AB191298
:10465300181C8A088B09AC08AD09AA18AB191217E4
:10466300EC751501025530751400025530740A6556
:1046730008700474006509701679077CBB7D94EE9D
:10468300FAEFFB121A38E96006751400025530740C
:104693000A6508700474006509701679077CB37D98
:1046A30094EEFAEFFB121A38E9600675140002550E
:1046B30030740A6508700474006509600302478159
:1046C30079077CAB7D94EEFAEFFB121A38E970039D
:1046D3000247818E828F83A3A3A3A3A3A3A3E02472
:1046E300D0604514604214603F24F3600302477BAB
:1046F3009017B3E0F50875090078081229EC7CF2ED
:104703007D9274021227C7121BDC740212277FAA40
:1047130018AB1912181C8A088B09AC08AD09AA1822
:10472300AB191217EC0255308E828F83A3A3A3A378
:10473300A3A3A3E024D09017B3F0121A4A9017B39F
:10474300E0F50875090078081229EC7CFE7D927467
:10475300021227C7121BDC740212277FAA18AB1997
:1047630012181C8A088B09AC08AD09AA18AB1912D8
:1047730017EC751501025530751400025530E50824
:10478300C3940AF8E5099400F9C3E8940BE994008B
:10479300400302485C79077CA37D94EEFAEFFB1299
:1047A3001A38E9700302485C8E828F83A3A3A3A304
:1047B300A3A3A3E0643F70357508B475091778089F
:1047C3001229EC7C2E7D9374021227C7121BDC7412
:1047D3000212277FAA18AB1912181C8A088B09AC7E
:1047E30008AD09AA18AB191217EC0255307C0C7DE1
:1047F3000079007AB47B1712183AE50824F9F50812
:10480300E50934FFF50978081229ECEE2407FCE4E6
:104813003FFD7AB47B17121822740212277F121AF3
:104823004A7508B475091778081229EC7C527D93F0
:1048330074021227C7121BDC740212277FAA18AB5B
:104843001912181C8A088B09AC08AD09AA18AB19F0
:104853001217EC751501025530740A65087004745B
:10486300006509703C79087CF17D93EEFAEFFB1249
:104873001A38E9602C7CA17D93AA18AB19121BDCB2
:10488300AA18AB1912181C8A088B09AC08AD09AA1F
:1048930018AB191217EC7900121A5075150102554D
:1048A30030740A6508700474006509701679087C11
:1048B300FA7D93EEFAEFFB121A38E96006751501DB
:1048C300025530740A6508700474006509600302B8
:1048D300499E79077C027D95EEFAEFFB121A38E9BF
:1048E300700302499E8E828F83A3A3A3A3A3A3A3D2
:1048F300E024D0604214603F24F2600302499890A0
:1049030017C0E0F50875090078081229EC7CF27DE0
:104913009274021227C7121BDC740212277FAA1893
:10492300AB1912181C8A088B09AC08AD09AA18AB7D
:10493300191217EC0255308E828F83A3A3A3A3A36E
:10494300A3A3E024D0F9E970089017C07400F080A5
:10495300069017C07401F0121A4A9017C0E0F508C8
:1049630075090078081229EC7CFE7D9274021227E7
:10497300C7121BDC740212277FAA18AB1912181C6A
:104983008A088B09AC08AD09AA18AB191217EC7584
:104993001501025530751400025530740A6508700C
:1049A3000474006509701079087C787D94EEFAEF41
:1049B300FB121A38E97022740F65087004740065DD
:1049C300096003024A7D79077CFA7D94EEFAEFFBD6
:1049D300121A38E97003024A7D8E828F83A3A3A340
:1049E300A3A3A3A3E0643F70357508C175091778C5
:1049F300081229EC7CA47D9274021227C7121BDCD7
:104A0300740212277FAA18AB1912181C8A088B0983
:104A1300AC08AD09AA18AB191217EC02553075088A
:104A23000675090078081229ECEE2407FCE43FFD23
:104A33007AC17B17121822740212277F9017C7744A
:104A430000F0121A4A7508C175091778081229EC83
:104A53007C527D9374021227C7121BDC7402122747
:104A63007FAA18AB1912181C8A088B09AC08AD0968
:104A7300AA18AB191217EC025530740A65087004B2
:104A8300740065096003024B4779077CEA7D94EE65
:104A9300FAEFFB121A38E97003024B478E828F83B9
:104AA300A3A3A3A3A3A3A3E024D0604214603F2441
:104AB300F26003024B419017C8E0F50875090078CE
:104AC300081229EC7CF27D9274021227C7121BDCB8
:104AD300740212277FAA18AB1912181C8A088B09B3
:104AE300AC08AD09AA18AB191217EC0255308E8227
:104AF3008F83A3A3A3A3A3A3A3E024D09017C8F0F9
:104B0300121A4A9017C8E0F50875090078081229A7
:104B1300EC7CFE7D9274021227C7121BDC74021216
:104B2300277FAA18AB1912181C8A088B09AC08AD89
:104B330009AA18AB191217EC751501025530751433
:104B430000025530C3E508940AE50994004045790D
:104B5300087C277D94EEFAEFFB121A38E96035756D
:104B630008C975091778081229EC7CB17D92740283
:104B73001227C7121BDC740212277FAA18AB191263
:104B8300181C8A088B09AC08AD09AA18AB191217AF
:104B9300EC025530740A65087004740065096003FB
:104BA300024C3279087C6F7D94EEFAEFFB121A38CF
:104BB300E9607C121A5CE96401706E909588744315
:104BC3001227CF740412267C7E009018677401F0BC
:104BD3009017E3E070047E0180057E00121ADAEE7E
:104BE300F83395E0F974431227B5E58228F582E599
:104BF3008339F583E0F50875090078081229EC7C00
:104C0300167D9374021227C7121BDC740212277FCE
:104C1300AA18AB1912181C8A088B09AC08AD09AA8B
:104C230018AB191217EC0255307514000255307485
:104C33001465087004740065096003024CE2790688
:104C43007C0A7D95EEFAEFFB121A38E97003024CE9
:104C5300E290966F74401227CF740312267C750876
:104C630000121A5CE9640170709018677402F075A1
:104C73000A0C750B00780A1229ECEE2406FCE43FBB
:104C8300FD7AD67B17121822740212277FE508F8E3
:104C9300790074401227B5E58228F582E58339F55A
:104CA30083E0F50875090078081229EC7C167D93DA
:104CB30074021227C7121BDC740212277FAA18ABD7
:104CC3001912181C8A088B09AC08AD09AA18AB196C
:104CD3001217EC121ADA02553075140002553074AB
:104CE3000A6508700474006509705579087CE87DCD
:104CF30093EEFAEFFB121A38E96045121A5CE96485
:104D03000170377901121A507C007D0079007A090D
:104D13007B041215F4E97C807D93AA18AB19121B4E
:104D2300DCAA18AB1912181C8A088B09AC08AD0948
:104D3300AA18AB191217EC0255307514000255303E
:104D4300740A65087004740065096003024E0C79E7
:104D5300087C157D94EEFAEFFB121A38E970030212
:104D63004E0C121A5CE964016003024E0C121A5CC9
:104D7300E964016003024E069017E3E070247CC6E9
:104D83007D91AA18AB19121BDCAA18AB1912181CB7
:104D93008A088B09AC08AD09AA18AB191217EC02E3
:104DA30055307E009017E3E0F8EEC39840030255B8
:104DB30030EEF87900E875F00CA4C8AAF075F0009D
:104DC300A42AFA75F00CE9A42AF974E628F5087404
:104DD3001739F50978081229EC7CE57D92740212E3
:104DE30027C7121BDC740212277FAA18AB191218EB
:104DF3001C8A088B09AC08AD09AA18AB191217EC69
:104E03000E80A1751400025530740A65087004748D
:104E1300006509704579087C5D7D94EEFAEFFB121D
:104E23001A38E9603575087A75099578081229ECFE
:104E33007C7F7D9574021227C7121BDC7402122734
:104E43007FAA18AB1912181C8A088B09AC08AD0984
:104E5300AA18AB191217EC025530740A65087004CE
:104E6300740065096003024F0A79077C9B7D94EE09
:104E7300FAEFFB121A38E97003024F0A121A5CE9BF
:104E83006401707D8E828F83A3A3A3A3A3A3A3E056
:104E9300643F703090185E122A037C187D9574026B
:104EA3001227C7121BDC740212277FAA18AB191230
:104EB300181C8A088B09AC08AD09AA18AB1912177C
:104EC300EC02553090185E7410F0A37427F0121A98
:104ED3004A90185E122A037C3B7D9274021227C704
:104EE300121BDC740212277FAA18AB1912181C8A32
:104EF300088B09AC08AD09AA18AB191217EC0255B7
:104F030030751400025530740A6508700474006526
:104F130009704A790A7C037D94EEFAEFFB121A3882
:104F2300E9603A901860E0F5083395E0F5097808F0
:104F33001229EC7C567D9274021227C7121BDC7473
:104F43000212277FAA18AB1912181C8A088B09AC06
:104F530008AD09AA18AB191217EC025530740A658B
:104F630008700474006509600302503779077C9365
:104F73007D94EEFAEFFB121A38E970030250378E74
:104F8300828F83A3A3A3A3A3A3A3E0643F7038905A
:104F93001862E0F50875090078081229EC7C7D7D1C
:104FA3009274021227C7121BDC740212277FAA18FD
:104FB300AB1912181C8A088B09AC08AD09AA18ABE7
:104FC300191217EC0255308E828F83A3A3A3A3A3D8
:104FD300A3A3E024D0901862F0901862E0C3940475
:104FE30040069018627400F0121A4A901862E0F5B5
:104FF3000875090078081229EC7CFE7D9274021270
:1050030027C7121BDC740212277FAA18AB191218C8
:105013001C8A088B09AC08AD09AA18AB191217EC46
:10502300901862E0F87403C398F9120BF8E9751548
:1050330001025530740A6508700474006509600F35
:10504300740F6508700474006509600302511879D0
:10505300077CF27D94EEFAEFFB121A38E970030233
:105063005118121A5CE960030251128E828F83A3D6
:10507300A3A3A3A3A3A3E0643F7030901863122AF1
:10508300037CA87D9174021227C7121BDC740212E1
:10509300277FAA18AB1912181C8A088B09AC08AD14
:1050A30009AA18AB191217EC0255307906EE24073A
:1050B300FAE43FFB121A3E8A088B098C0A8D0B9087
:1050C3001863E508F0A3E509F0901863C3E09410B2
:1050D300A3E094274003025530121A4A9018631232
:1050E3002A037C3B7D9274021227C7121BDC7402D5
:1050F30012277FAA18AB1912181C8A088B09AC084F
:10510300AD09AA18AB191217EC75150102553075C4
:105113001400025530740A65087004740065096050
:10512300030251E379077CE27D94EEFAEFFB121A56
:1051330038E970030251E38E828F83A3A3A3A3A351
:10514300A3A3E0643F7038901865E0F50875090083
:1051530078081229EC7CF27D9274021227C7121B85
:10516300DC740212277FAA18AB1912181C8A088B49
:1051730009AC08AD09AA18AB191217EC025530791E
:1051830001EE2407FAE43FFB121A3E8A088B098CCE
:105193000A8D0BE508901865F0901865E0C394023A
:1051A3005038121A4A901865E0F508750900780816
:1051B3001229EC7CFE7D9274021227C7121BDC7449
:1051C3000212277FAA18AB1912181C8A088B09AC84
:1051D30008AD09AA18AB191217EC75150102553061
:1051E300740A6508700474006509704B790A7C754C
:1051F3007D93EEFAEFFB121A38E9603B121A5CE971
:105203006401702D9018677403F07C8B7D93AA184A
:10521300AB19121BDCAA18AB1912181C8A088B09CC
:10522300AC08AD09AA18AB191217EC121ADA025519
:1052330030751400025530740A65087004740065F3
:1052430009703A79077CCB7D94EEFAEFFB121A389A
:10525300E9602A121A5CE96401701C9018677404EF
:10526300F08E828F83A3A3A3A3A3A3A3E024D0F9E7
:10527300121B10E90255307514000255307409658C
:1052830008700474006509600302552D79067C2DAE
:105293007D95EEFAEFFB121A38E9700302552D8E55
:1052A300828F83A3A3A3A3A3A3E0F516E51624CCBF
:1052B300601814601914601A14601B1470030253ED
:1052C3006714700302543B0255287E04800A7E054E
:1052D30080067E0680027E0779801217207A04EE0C
:1052E300F912171A8A088B09AC08AD098C088D09C5
:1052F300E4F50AF50B7808121C89909658780C127D
:1053030026217808790C121E9490965C780C12264C
:10531300217808790C12225378081229E88C088D19
:105323000978081229ECE516F87900E824D0F50885
:10533300E934FFF50978081229EC7C6D7D8F740838
:105343001227C7121BDC740812277FAA18AB191285
:10535300181C8A088B09AC08AD09AA18AB191217D7
:10536300EC0255307E117F017508997509017900AA
:105373001217207A02790F12171A8A0A8B0BAC0ABA
:10538300AD0BC3EC9508ED9509400474648058C3D4
:10539300EE9CEF9D40047400804DE508C39EF8E544
:1053A300099FF9E82401FAE439FB8A088B0974029E
:1053B3007808122747AA08AB09ECC39EF8ED9FF9BA
:1053C300E875F019A4C8AEF075F000A42EFE75F0D0
:1053D30019E9A42EF9E82AF8E93BF9E824FFF8E9EA
:1053E30034FFF91226DEE8F508750900780812295A
:1053F300EC8C088D0978081229ECE516F87900E899
:1054030024D0F508E934FFF50978081229EC7CFB70
:105413007D8F74061227C7121BDC740612277FAA1E
:1054230018AB1912181C8A088B09AC08AD09AA1805
:10543300AB191217EC025530750C00750D00750E83
:1054430000750F0090624B7401F09061A97401F034
:105453007E00805779001217207A03790E12171AEB
:105463008A088B09AC08AD098C088D09E4F50AF5A7
:105473000B7808121C899096607810122621780800
:105483007910121E94909664781012262178087968
:105493001012203990963C78101226217808791042
:1054A300122253780C79081220390EEEC39440402F
:1054B300A3850C08850D09850E0A850F0B90963878
:1054C300780C1226217808790C12225390624BE053
:1054D300C2E0F09061A9E0C2E0F078081229E88CFC
:1054E300088D0978081229ECE516F87900E824D02C
:1054F300F508E934FFF50978081229EC7C297D9039
:1055030074081227C7121BDC740812277FAA18AB72
:105513001912181C8A088B09AC08AD09AA18AB1913
:105523001217EC80087514008003751400E51560EC
:10553300117AC87B00121A32C2AF75C9AB75C95B49
:1055430080FEA914744712277F7F0F0228AB74F6DD
:105553001227D974C8122769E9FF7E01EFA2E5403B
:10556300030255F5901B25E0C2E5F07C347D957A66
:10557300867B18121BDC7C3A7D937A927B18121B74
:10558300DC901B24E07008901B247401F0800690CB
:105593001B247400F0901B24E06007790112191E8C
:1055A3008005790012191E901B24E0F50875090087
:1055B30078081229EC7CD47D93740E1227C7121B32
:1055C300DC740212277F7906740C1227C712179214
:1055D300740C1227C7121BEE8A088B09AC08AD099D
:1055E300740C1227C71217F27A017B00121A3202C7
:1055F300580FEFA2E05042901B25E0C2E0F07C265A
:105603007D957A867B18121BDC7C817D947A927B54
:1056130018121BDC121A5CE96401600302580F9034
:1056230018DEE06402700302580F7C0A7D007A756D
:105633007B93121AC2E902580FEFA2E45035901B74
:1056430025E0C2E4F07C8A7D947A867B18121BDC09
:105653007CD57D917A927B18121BDC901866E070E2
:10566300099018667401F002580F9018667400F0E0
:1056730002580FEFA2E3503B901B25E0C2E3F07CFE
:10568300667D947A867B18121BDC7C667D947A9205
:105693007B18121BDC121A5CE96401600302580FC9
:1056A3009018DEE06402700302580F7901121AFEAB
:1056B30002580FEFA2E15020901B25E0C2E1F07CDD
:1056C300CA7D937A867B18121BDC7CBB7D907A9211
:1056D3007B18121BDC02580FEFA2E2400302580DA5
:1056E300901B25E0C2E2F07C6A7D937A867B1812D8
:1056F3001BDC7CF37D917A927B18121BDC121A5C03
:10570300E9640160030257AE9018DEE06402603979
:10571300121B04E9F50875090078081229EC7C5E70
:105723007D9374021227C7121BDC740212277FAA0F
:1057330018AB19121BEE8A088B09AC08AD09AA181D
:10574300AB19121AC2E902580F121A62E970030266
:10575300580F9018A6E060089018A67400F0800611
:105763009018A67401F09018A6E0F5087509007862
:10577300081229EC7C637D9274021227C7121BDC8A
:10578300740212277FAA18AB19121BEE8A088B0921
:10579300AC08AD09AA18AB1912055CE97A107B00B5
:1057A3009018A9E0F912187CE98061121A62E96085
:1057B3005B9018A7E060089018A77400F08006902B
:1057C30018A77401F09018A7E0F508750900780888
:1057D3001229EC7C707D9274021227C7121BDC74B1
:1057E3000212277FAA18AB19121BEE8A088B09AC89
:1057F30008AD09AA18AB1912055CE97A107B009071
:1058030018A9E0F912187CE980027E00901B25E0BC
:1058130070149018A8E0700E9018A87401F07A0123
:1058230079071217A4E9EE6056750892750918787E
:10583300081229EC7C5F7D95740E1227C7121BDCBE
:10584300740212277F901B25E060067800790080A0
:105853000478807900E84408F9740C1227C71217FA
:105863009275088675091878081229EC7C5F7D9576
:10587300740E1227C7121BDC740212277F80547523
:10588300089275091878081229EC7C1F7D95740E0F
:105893001227C7121BDC740212277F901B25E060BE
:1058A3000678007900800478807900E84408F97468
:1058B3000C1227C7121792750886750918780812F3
:1058C30029EC7C1F7D95740E1227C7121BDC740212
:1058D30012277F740C1227BF8808890978081229B8
:1058E300EC7C7F7D9574261227C7121BDC74021291
:1058F300277F121A62E9702174241227C7121BEE44
:105903008A088B09AC08AD0974241227C71217EC57
:105913007A017B00121A32802674241227C7121BC5
:10592300EE8A088B09AC08AD0974241227C7120547
:105933005CE97A107B009018A9E0F912187CE974ED
:105943003812277F7F020228AB74EC1227D974C068
:10595300122769EAFEEBFF8C088D09C3E508940959
:10596300E5099400403979087C547D94EEFAEFFB05
:10597300121A38E960298E828F83A3A3A3A3A3A35A
:10598300A3A3E0F8743068700B7A0079021217A4AD
:10599300E9025CF87A0179021217A4E9025CF8C300
:1059A300E5089409E5099400403979087C4B7D9416
:1059B300EEFAEFFB121A38E960298E828F83A3A3D4
:1059C300A3A3A3A3A3A3E0F8743068700B7A0079B0
:1059D300041217A4E9025CF87A0179041217A4E906
:1059E300025CF8C3E5089409E50994004035790899
:1059F3007C397D94EEFAEFFB121A38E960258E822A
:105A03008F83A3A3A3A3A3A3A3A3E0F87430687015
:105A1300099018667400F0025CF89018667401F03F
:105A2300025CF8C3E5089407E50994005003025C9F
:105A3300F879067C2D7D95EEFAEFFB121A38E970A2
:105A430003025CF88E828F83A3A3A3A3A3A3E0FE28
:105A5300EE24CC601814601914601A14601B1470BF
:105A630003025B17147003025C00025CF87F04807E
:105A73000A7F0580067F0680027F07798012172040
:105A83007A04EFF912171A8A088B09AC08AD098C4E
:105A9300088D09E4F50AF50B7808121C89909658CD
:105AA300780C1226217808790C121E9490965C7853
:105AB3000C1226217808790C12225378081229E84F
:105AC3008C088D0978081229ECEEF87900E824D0C7
:105AD300F508E934FFF50978081229EC7C6D7D8F10
:105AE30074081227C7121BDC740812277FAA18AB8D
:105AF30019121BEE8A088B09AC08AD09AA18AB1959
:105B030012055CE97A107B009018A9E0F912187C61
:105B1300E9025CF8750811750901750A99750B019D
:105B230079001217207A02790F12171A8A0C8B0D3B
:105B3300AC0CAD0DC3EC950AED950B400474648079
