:020000040000FA
:0600000002010702313D80
:03002B000235B0EB
:0300330002358A09
:03003B000235CDBE
:030043000235354E
:030053000231B3C4
:03006B0002355B00
:10008300022F93E5C754F84401F5C7790122000014
:100093000080FB120086B900030200F1E4792178A5
:1000A30008B800028004F709D8FCE479297802B87B
:1000B30000028004F709D8FCE490028178417919A1
:1000C3008002F0A3D8FCD9FA7AC17B1A9001377861
:1000D3001279058015E493A3AD82AE838A828B8364
:1000E300F0A3AA82AB838D828E83D8E9D9E7758288
:1000F3000D7583D974051201197582917583007486
:100103000012011975D00075813F751881751902A8
:10011300759F00020096C09FF59FE473D09F22D085
:1001230083D082C09FE493C0E0740193C0E0740263
:1001330093F59F22EC06F8062E072807FF0000B46C
:10014300000028002800283075A000A000A000A00F
:100153000000080008E001F000100010001000107B
:10016300001000100050005000500010001000D08C
:10017300070000000000000F0001000500307507B4
:10018300001000010081FF00000000FFFFFF6C086A
:100193008A087208AE08FF02020208025000A0009B
:1001A3000000E80302B0960100008B9602AA9601B4
:1001B3000000241B02A2960100000A0402AA960171
:1001C3000000251B02A096010000200402AA96014C
:1001D3000000261B029E96010000220402AA96013B
:1001E3000000271B029C96080000230402AA960124
:1001F3000000281B029A96010000291BFFFF010043
:10020300FF2002B096010000889602AA9601000022
:100213008E1B020295000000000002A4960300005A
:1002230053041700F410F410F410F410F410F41045
:10023300F410F410F410F410F410F410F4104C1340
:100243006A1346139014A2148A14020202020202D1
:10025300020202010D000000100102B0960100002D
:10026300949602AA96010000D71B02C096010000D3
:10027300A20E02AA96010000D81B02C69601000036
:10028300859202AA96010000D91B02D896010000AC
:100293006A9202AA96010000DA1B02C496010000CA
:1002A300EA9002AA96010000DB1B02C2960100003D
:1002B300D89002AA96010000DC1B02BE9601000042
:1002C300209102AA96010000DD1B02BA96010000EC
:1002D300329102AA96010000DE1B02B896010000CB
:1002E3004E9202AA96010000DF1B02B6960100009F
:1002F300E01B01E803057710020A0AB216FFFFFFAD
:100303000001307503020106000000000000000038
:1003130000000000000000000000000000000000DA
:1003230000000000FFFF0600800CE803013FFEFF12
:100333000101010201060302F0FF0201061AFF4C4C
:10034300000215E2C56DB5DFFB48D2B060D0F5A75A
:100353001096E000010002CD921B981BA41BAA1B60
:100363009E1B0A4368617261637465726973746981
:10037300632031000243686172616374657269735B
:100383007469632032000843686172616374657243
:100393006973746963203300104368617261637425
:1003A3006572697374696320340002436861726122
:1003B30063746572697374696320350016436861F9
:1003C30072616374657269737469632036001043E4
:1003D300686172616374657269737469632037005D
:1003E30002B0960100008E9602AA96010000EF1C4F
:1003F30002CA96030000861A02A896010000F01CA8
:1004030002AA96010000011D02CC96010000871A82
:1004130002A896010000021D02AA96010000131D06
:1004230002CE96020000881A02A896010000141D4D
:1004330002AA96010000251D02D096000000891A29
:1004430002A4960300008A1A02A896010000261D42
:1004530002AA96010000371D02D2960400008C1AEE
:1004630002A896010000381D02AA96010000491D4A
:1004730002D496030000911A02A496030000A61A60
:1004830002A8960100004A1D02AA960100005B1D06
:1004930002D696000000A81A02A496030000BD1A13
:1004A30002A8960100005C1D0100B0423BAAB83FC0
:1004B3000000003F8C906339AA0CA33A00941E3CC1
:1004C3008042633DCFFE753E1572313F0000803F91
:1004D300F304353F8096184B303132333435363799
:1004E300383941424344454600286E756C6C207090
:1004F3006F696E74657229003031323334353637A3
:100503003839616263646566003F3F3F00000080E5
:100513007FF9021550B743BA5100E7DB2E0000A064
:1005230040000080BF2292D43EDD9B2A3F0400009E
:100533004000000000FFFF7F7FFFFF7FFF0100807F
:10054300341872313F120122A1C10512012288C25F
:100553000512012282C30512012216BD05120122D2
:1005630029BD051201224ABD05120122B5BD05129E
:100573000122F6BD0512012217BE0512012258BE43
:1005830005120122F0BE0512012238BF0512012215
:10059300F9A5051201220CA6051201223DA605129A
:1005A300012277A605120122D0A60512012217A760
:1005B300051201225FA7051201228EA7051201224F
:1005C300BDA705120122F4A7051201223BA80512BB
:1005D300012254A805120122A9A805120122C2A8CA
:1005E3000512012210A9051201224AA905120122AE
:1005F30000800412012203810412012230810412BB
:100603000122818104120122A48104120122B681F4
:1006130004120122B98104120122F781041201227A
:100623006B8204120122D782041201229F830412D7
:100633000122BB8304120122F283041201222C84BF
:1006430004120122C384041201221585041201221B
:10065300468504120122778504120122848504123F
:100663000122EE8504120122F18504120122FE8586
:100673000412012201860412012258860412012267
:100683005B860412012294860412012297860412C7
:100693000122CB8604120122CE8604120122228774
:1006A300041201226B87041201227B8704120122A8
:1006B300AE8704120122BB8704120122BE870412F3
:1006C3000122268804120122288904120122CC89DE
:1006D30004120122358A04120122738A04120122B0
:1006E3007AF60212012277F7021201220DF80212A2
:1006F300012258F802120122BCF80212012246F923
:1007030002120122FFF90212012221FD021201222B
:100713009EFE02120122C1FE02120122DA9105128B
:1007230001227F93051201229F9305120122C09497
:1007330005120122139505120122239A05120122A3
:100743004B9A05120122789A05120122B09A0512DA
:1007530001220E9B051201225A9B05120122C19B05
:1007630005120122019C051201223E9C0512012261
:100773006C9C05120122169D05120122209D051273
:1007830001222D9D05120122609D051201226C9DFF
:1007930005120122849D051201228E9D051201225C
:1007A30023D30512012231D30512012249D30512A5
:1007B300012261D30512012278D305120122D5E467
:1007C300021201227FE50212012292E602120122A5
:1007D3000EE7021201222CE80212012268E802123B
:1007E300012203E902120122E7E902120122AAEA25
:1007F3000212012222EB02120122B0EC02120122A8
:1008030021ED02120122DBED02120122CDEE0212D2
:1008130001220DEF02120122C1EF02120122F3EFB6
:1008230002120122E9F10212012230F20212012224
:100833004EF202120122B4F20212012283F30212D7
:10084300012247F40212012266F60212012270F617
:1008530002120122E0C104120122CAC204120122BF
:1008630075C304120122C6C30412012276C4041202
:100873000122E7C404120122CCC50412012200C6DE
:1008830004120122F9C60412012236C704120122FE
:1008930012C80412012251C8041201226DC80412A5
:1008A3000122B6C3051201223AC40512012265C40E
:1008B300051201227FC5051201221C9E0512012289
:1008C300329E05120122509E05120122619F0512DC
:1008D30001226B9F0512012296A0051201228DA110
:1008E30005120122FAA10512012204A20512012216
:1008F30099CF04120122CFD00412012249D104124C
:10090300012279D1041201228CD104120122E3D1F4
:1009130004120122F8D3041201222E96021201229C
:10092300DF9602120122FB9602120122C4970212E1
:100933000122DE9702120122E99702120122BF98D7
:10094300021201229C99021201222C9A0212012204
:10095300E39A02120122F19D02120122E09F021288
:10096300012292A0021201225BA102120122A0A481
:10097300021201224AA50212012273A602120122C7
:100983002FA802120122CFA8021201221DA90212CE
:1009930001225CA9021201222FAA0212012263AAD8
:1009A30002120122F0AA0212012241D202120122F2
:1009B300CDD20212012231D4021201223DD40212FD
:1009C300012278D402120122E7D402120122F0D5C7
:1009D30002120122F9D602120122C0D70212012209
:1009E3001DD9021201223BD90212012258D9021247
:1009F300012205DA0212012282DA02120122AADAA4
:100A03000212012274DD0212012279DD0212012297
:100A130092DF02120122E0DF0212012250E00212F1
:100A230001228EE0021201226AE1021201222AE26D
:100A33000212012276E20212012279E2021201225B
:100A4300BDE20212012205E30212012244E3021273
:100A5300012266E3021201229AE302120122FDE35C
:100A630002120122AEF504120122B7F5041201228B
:100A7300C5F50412012218F60412012237F60412F6
:100A830001227CF604120122C0F7041201225BF852
:100A9300041201229FF804120122C9F80412012250
:100AA30038F9041201227EF904120122F5F9041225
:100AB3000122A6FA04120122B6B701120122C6B717
:100AC3000112012267B801120122C3B801120122E7
:100AD30080B9011201229CBA01120122CEBA01127D
:100AE3000122FDBA01120122AABC0112012221BF77
:100AF3000112012291C10112012283C201120122BA
:100B03007CC30112012283C50112012277C801129D
:100B13000122A6C901120122AACB01120122BACCD9
:100B23000112012249CE011201223ACF0112012200
:100B330088CF01120122F7CF011201221BD001122B
:100B430001226CD0011201220DD5011201220ED611
:100B5300011201226FD6011201229AD6011201223B
:100B630060D7011201227DDB0412012287DB04120C
:100B73000122CCDB04120122E0DB0412012270DC2F
:100B830004120122A9DC04120122E4DC0412012272
:100B93000DDD041201225BDD0412012270DD04125B
:100BA300012285DD041201229ADD04120122DDDD1A
:100BB30004120122F2DD041201225DDE041201227D
:100BC30071DE0412012285DE041201229ADE041270
:100BD3000122D4DE04120122F8DE0412012224DFF2
:100BE300041201225BDF04120122BDDF0412012281
:100BF3002FE00412012272E0041201229CE004128D
:100C03000122C7E0041201221DD105120122D3C81B
:100C130003120122B6C90312012231CA03120122AF
:100C23006CCA03120122BDCB0312012246CC03126C
:100C330001225ECE03120122F0D003120122A2D1BF
:100C430003120122AED20312012221D40312012284
:100C53007AD40312012270EB04120122B3EB0412C3
:100C6300012237EC041201220AED04120122E1EF02
:100C73000412012217B805120122C4B80512012279
:100C8300D1B90512012210BA051201226ABA05125E
:100C93000122A3C70512012206C805120122A3C817
:100CA30005120122D8C80512012208C90512012222
:100CB30029C90512012264C90512012284C905123A
:100CC3000122B8FA0412012244FB0412012203FC9C
:100CD300041201221BFD0412012235FF041201221A
:100CE30023D50312012248D50312012215D603127C
:100CF3000122E9D60312012256D703120122ACD7EF
:100D03000312012248D8031201227CD903120122C3
:100D130057DA03120122B6DA0312012242DB03126D
:100D23000122B0DB031201223CDC031201223FDC6F
:100D33000312012289DC03120122FBDC03120122CC
:100D43008DDD031201222EDE031201224EDE031279
:100D5300012296DE03120122DFDE03120122FBDEF3
:100D63000312012221DF031201229BDF031201225E
:100D7300A9DF0312012238E003120122A1E00312CA
:100D830001229784051201221C85051201225E852A
:100D930005120122428605120122AF8605120122A5
:100DA300F386051201223787051201226487051293
:100DB30001228C8705120122C487051201220288B1
:100DC30005120122298805120122A3880512012296
:100DD300ED8805120122CCD701120122C5D90112D7
:100DE3000122B1DC0112012205DD0112012230DDF5
:100DF300011201220ADE0112012249DE011201223F
:100E030090DE01120122A3DE01120122E4DE0112AF
:100E1300012211DF011201225FDF011201229EDF95
:100E230001120122C9DF011201221CE00112012279
:100E3300ABE00112012289E301120122A4E50112B0
:100E43000122E2E50112012257E7011201229CE788
:100E53000112012290E801120122A9EA01120122E2
:100E63000BEB011201225CEB0112012277F001125C
:100E73000122C6F0011201220CF101120122F4F247
:100E830001120122C2F401120122C7F4011201224C
:100E9300A1F5011201221AF6011201224AF70112E9
:100EA30001225CF70112012271B505120122E3B59B
:100EB3000512012239B6051201227DB6051201225F
:100EC3009DB605120122EAB60512012232B70512B8
:100ED300012285B705120122D6B7051201226DA89A
:100EE30004120122ECA804120122E5AE041201222D
:100EF300EBAF041201225EB104120122F5B1041218
:100F03000122F960001201224261001201226F6185
:100F130000120122A16100120122AD61001201221F
:100F2300B96100120122D06100120122AB620012EA
:100F330001220963001201223E63001201226F6441
:100F430000120122BC640012012202650012012278
:100F53006E6500120122126600120122C866001299
:100F63000122276700120122986700120122F66707
:100F730000120122286900120122906A0012012244
:100F83005A6B00120122676B00120122A96B001237
:100F93000122B96B00120122DD6B00120122E06B0A
:100FA30000120122CC6C00120122686D0012012292
:100FB300016E00120122986E00120122C56E00120A
:100FC3000122236F001201226A6F00120122BA6FFD
:100FD300001201220A70001201227C700012012209
:100FE300177100120122C2710012012261720012F4
:100FF3000122DF72001201222673001201228A737A
:1010030000120122B973001201225074001201224E
:10101300627600120122A67600120122F1760012F6
:1010230001227777001201220178001201221A7936
:1010330000120122A07900120122C57900120122B7
:101043001C7A00120122317A00120122797A0012ED
:101053000122EC7A00120122317B001201223A7C38
:1010630000120122EB7C00120122497D00120122B1
:10107300A57D00120122BE7D001201226FF603122C
:101083000122C3F603120122CFF60312012299F7BC
:1010930003120122C6F703120122F4F703120122FD
:1010A30060F80312012296F803120122CFF803120B
:1010B3000122E7F8031201223CF90312012255F938
:1010C300031201229AF903120122ADF9031201223C
:1010D300C7F903120122DDF903120122FBFA0312FD
:1010E300012226FC0312012210FD0312012201FE3C
:1010F300031201224D360012012293F00412012241
:1011030016F40412012263F50412012257BC0312E0
:1011130001222ABF0312012230BF03120122C0C1E0
:101123000312012223C403120122008005120122AB
:101133009780051201225581051201227F81051234
:1011430001225983051201225E84051201220080C7
:10115300021201223280021201224F8C021201225A
:10116300A08D02120122A98E0212012228900212DE
:1011730001221391021201226291021201227C9137
:1011830002120122BE9102120122C991021201220E
:10119300109202120122199202120122C592021226
:1011A30001229E9302120122E593021201224D9421
:1011B300021201228F9402120122BD940212012213
:1011C300FA94021201223DBF0212012208C3021245
:1011D30001220EC302120122B2C90212012206CE5B
:1011E30002120122EFD102120122B2A90512012239
:1011F30028AA051201223EAA05120122CEAA05122F
:1012030001220BAB0512012245AB051201227FAB74
:1012130005120122F2AB0512012233AC05120122A1
:101223003CAC0512012248AC0512012267AC051241
:10123300012291AC05120122A6AC05120122E9ACF0
:1012430005120122CEC804120122E1C804120122B0
:10125300FBC80412012228C9041201226EC9041218
:101263000122A1C904120122DFC90412012244CAC6
:101273000412012259CA0412012264CA041201226F
:1012830071CA0412012288CA0412012296CA0412E6
:101293000122A5CA04120122BACA04120122CFCA2A
:1012A30004120122DACA04120122E6CA041201223C
:1012B300F3CA0412012206CB0412012211CB041239
:1012C300012236CB04120122DACB04120122EACB2B
:1012D30004120122FFCB0412012214CC04120122B6
:1012E3002ECC041201224BCC0412012268CC04122E
:1012F300012273CC041201221FCD0412012200CE5D
:101303000412012225CE0412012230CE041201223E
:1013130045CE0412012259CE04120122BACE041280
:101323000122C0CE04120122C6CE04120122CCCE69
:1013330004120122E4CE0412012217CF0412012267
:10134300998A04120122BB8A04120122838B04129C
:1013530001223D8E04120122538F04120122749044
:10136300041201224E9104120122FD910412012262
:10137300D4AE031201226BAF0312012203B0031296
:101383000122F3B0031201222AB1031201223DB15B
:1013930003120122ABB10312012246B3031201224D
:1013A3006DB3031201220FB40312012244B40312DA
:1013B300012255B403120122CEB403120122EFB469
:1013C3000312012207B5031201225FB603120122A1
:1013D30068B803120122B8BA03120122BBBB03127D
:1013E30001220ABC0312012238A00312012235A1F3
:1013F3000312012220A2031201222AA203120122B4
:1014030034A20312012256A20312012262A2031282
:101413000122B4A303120122E3A30312012213A5A1
:101423000312012255A50312012281A603120122F0
:1014330057A703120122A9A70312012208A8031226
:1014430001223FA8031201227AA80312012215AC3C
:10145300031201222EAC03120122B0AC03120122AB
:10146300BEAC0312012213AD0312012221AD0312FC
:1014730001228EAD0312012200AE0312012246AEF9
:1014830003120122C4E003120122E6E00312012247
:10149300D0E20312012275E603120122B8E7031218
:1014A300012292E80312012249CB051201226ECBDD
:1014B30005120122DFCB051201227FF7011201225F
:1014C30088F70112012291F701120122C2F80112D9
:1014D3000122E1FA0112012217FB0112012251FB41
:1014E3000112012287FB01120122C1FB0112012219
:1014F300F5FB0112012221FC011201226AFC0112F7
:101503000122A4FC01120122ECFC0112012242FD82
:101513000112012277FD01120122D2FD01120122E3
:101523000CFE011201225DFE0112012293FE011243
:101533000122CDFE01120122FBFE011201221EFF38
:101543000112012222D7051201224ED705120122D0
:10155300A9D705120122B3D705120122C3D7051259
:1015630001221FB20412012263B20412012211B339
:101573000412012289B304120122DBB304120122F3
:101583007BB404120122B7B40412012251B5041230
:101593000122CEB50412012227B70412012240B75B
:1015A3000412012278B8041201220BB90412012299
:1015B30074B904120122E0B9041201222D89051223
:1015C3000122548905120122858905120122ACFFEB
:1015D30001120122C3FF01120122CDD705120122FC
:1015E300DC9601120122F89901120122E99B0112F2
:1015F30001225B9C01120122199D01120122C49D4B
:1016030001120122549E01120122E39E01120122C2
:101613000D9F011201227A9F01120122B4A401122B
:10162300012248A50112012277A601120122DBA69D
:10163300011201228FA70112012242AA01120122E3
:101643007CAA01120122E6AA0112012244AB011273
:101653000122A2AB01120122FFAB01120122EEAC67
:101663000112012234AD0112012279AD01120122CE
:101673009AAD01120122FCAE0112012217AF011231
:1016830001229DB001120122CAB0011201220AB146
:101693000112012250B1011201226EB10112012285
:1016A300ACB101120122D2B3011201220BB4011217
:1016B3000122A2B40112012242B501120122D5B5C1
:1016C3000112012241B60112012282B70112012245
:1016D300EFE00412012283E104120122C2E20412A8
:1016E30001224BE3041201221EE40412012247E407
:1016F30004120122AEE40412012216E504120122AF
:1017030031D20512012242D20512012213D305124E
:10171300012217AD05120122E2AF0512012275DA8B
:101723000512012208D40512012218D40512012240
:1017330035D405120122C9D405120122C6B20512FD
:10174300012260B30512012256B50512012292C986
:1017530005120122C8C90512012238CA0512012245
:101763009BCA051201220BCB05120122F2FF0112C3
:101773000122F5FF01120122209605120122429651
:1017830005120122D49605120122D29705120122D5
:10179300C39905120122BFD504120122BCD704123A
:1017A300012242D8041201224DD9041201220DDA7A
:1017B3000412012282DA04120122F4DA0412012251
:1017C300F7DA0412012205DB0412012219DB0412E9
:1017D300012231DB0412012249DB0412012257DB0F
:1017E300041201226FDB0412012263BF05120122DE
:1017F30030C00512012215C1051201225FC1051275
:1018030001225FD605120122D9D605120122E9D69B
:1018130005120122F9D60512012212D7051201225F
:10182300AEC505120122DFC50512012209C6051244
:101833000122C6C605120122E6C6051201223EC7D1
:1018430005120122B99E04120122C79E041201222D
:101853000D9F04120122609F04120122A89F04120B
:10186300012202A00412012223A004120122FAA2DF
:101873000412012208A30412012264A30412012208
:1018830097A304120122AAA30412012235A404126D
:101893000122CCA40412012247A5041201227EA531
:1018A3000412012204A60412012259A604120122E1
:1018B300B4A604120122C6A604120122F7A604123A
:1018C300012200A70412012239A804120122FFCC2D
:1018D300051201225ECD05120122F9CD0512012266
:1018E3005FCE051201228D8D05120122C08D0512D6
:1018F3000122E68E051201220B8F05120122CC8FE5
:1019030005120122A49005120122B3CE0512012271
:101913007CCF05120122D4CF05120122EECF05128E
:101923000122B5BA05120122FABA0512012238BB07
:1019330005120122D3BC051201226CFF04120122FD
:1019430087FF0412012297FF041201229BD505127F
:101953000122D7D405120122F19404120122CD955C
:10196300041201221096041201224A960412012243
:10197300B696041201220E97041201227E970412D6
:1019830001224F9804120122399904120122B099BD
:1019930004120122469B04120122D19B041201224C
:1019A300419C04120122BB9C04120122D29C04120A
:1019B3000122FD9D04120122509E041201223AE6E7
:1019C3000412012257E60412012243E70412012202
:1019D3008CE704120122ACE704120122E8E70412A7
:1019E300012241E8041201227DE804120122C5E824
:1019F300041201225FEB04120122E6AB0212012260
:101A030001B102120122F8B3021201221EB4021222
:101A1300012247B402120122F5B402120122D6B602
:101A230002120122F1B7021201220AB802120122A4
:101A330000BD0212012239BD021201227DBD021234
:101A430001228ABE021201225836001201228C366C
:101A530000120122C7360012012239370012012277
:101A6300003800120122173800120122F338001245
:101A73000122E83C00120122F83C00120122293D18
:101A830000120122FC3D001201225E3E00120122DF
:101A9300613E00120122A23E00120122093F001200
:101AA3000122E540001201229C4100120122EE4175
:101AB30000120122F5410012012203420012012209
:101AC3001342001201225142001201226A42001203
:101AD30001228142001201220D43001201222843F8
:101AE300001201225E45001201228C5500120122D0
:101AF3008759001201223F5D00120122375E001256
:101B03000122E85E001201220F6000120122008010
:101B13000312012234810312012261810312012283
:101B2300B08403120122E98403120122FA8403120E
:101B33000122168603120122278603120122B78689
:101B430003120122C786031201228E8B0312012284
:101B5300328C03120122408C031201226D8C03127A
:101B63000122D28C03120122AA8E031201227F8F3B
:101B730003120122D4EB0312012221F003120122EA
:101B8300A5F203120122DEF203120122EFF2031285
:101B930001220EF30312012238F40312012249F445
:101BA30003120122A5F40312012236F503120122C6
:101BB300E5F50312012227BA0412012235BB0412F0
:101BC300012252BB041201222DBD0412012251BE77
:101BD30004120122EDBF0412012294DA051201223C
:101BE300F0AF05120122FFCF0512012279D90512A8
:101BF30001225A9003120122669503120122EE7DFF
:101C030000120122DAD90512012220DA051201227B
:101C13000EA20512012277D805120122A1D80512BE
:101C23000122BBFF031201224CDA05120122B2DAB0
:101C330005E066701008A3E066700A08A3E066700A
:101C43000408A3E06622C008C3E096F50808A3E0F1
:101C530096420808A3E096420808A3E0964208A229
:101C6300D265D033E5087001D3D00822C3E79608C4
:101C730009E7960809E7960809E79622C3E096085C
:101C8300A3E09608A3E09608A3E09622C008C3E069
:101C930096F50808A3E096420808A3E096420808D0
:101CA300A3E09645087001D3D00822080808E6305F
:101CB300E711122568121CC6080808C64480C61816
:101CC300181822181818E9799EC608CAC608CBC680
:101CD30008CCC6C370207996CACBCC7019798ECB49
:101CE300CC70137986CC700EF9802ACA33CACB33F1
:101CF300CBCC33CC331930E7F2CCCBCA335014708E
:101D030004EA30E00DE4CA3ACACB3BCBCC3CCC501E
:101D13000209C3E913C6CC182313C6CB18C6CA18C5
:101D2300C6F922121D6620F01430E72B74FFFCFB6A
:101D3300FA747F8022E4FCFBFA7480801AB4800872
:101D4300BC00F2BB00EF800F50EBF9E4C39AFAE456
:101D53009BFBE49CFCE499C6CC18C6CB18C6CA18F6
:101D6300C6F922E4C9C608CAC608CBC6D3330308DA
:101D7300CCC63392F0C3947F402E94184019C9B94E
:101D83000704CACBCC225025C309CA33CACB33CBF1
:101D9300CC33CC33D9F422F4600DC9CCC313CB13A9
:101DA300CBCA13CAD9F6CC22E4FCFBFA2214FCFBFF
:101DB300FA22E62618461846184622E72719471935
:101DC30047194722181818E60846087009E6260836
:101DD3007005E633F4220822191919E70947097037
:101DE30009E727097005E733F4220922E6084608C4
:101DF300C3134608336002E633F422E7094709C3F5
:101E0300134709336002E733F422121DEF602512F2
:101E13001DFE6020121DB57003021DBE080808E7F1
:101E23006670101819E766700A1819E766700418C7
:101E330019E76622F422121DEF601C121DFE6017C3
:101E4300121DB57007121DBE7001D322C0D0121D22
:101E5300BE7006D0D0B322C32233D0D0501430E0AA
:101E6300F6C3E7960809E7960809E7960809E7968F
:101E7300B32220E0D5E6970809E6970809E6970814
:101E830009E697B322121DEF601B121DFE601612A6
:101E93001DB57007121DBE600CB322C0D0121DBE4B
:101EA3007005D0D022C32233D0D0501330E0EBC31F
:101EB300E7960809E7960809E7960809E7962220B6
:101EC300E0E4E6970809E6970809E6970809E69724
:101ED3002200121DEF604F121DFE6012E754806650
:101EE300F6121DC77011121DBE703B090909F4F6E5
:101EF30018F618F618F622121DDB7015121DB50818
:101F0300080860EAE6447FF618768018E4F618F6C7
:101F130022121DB56016121DBE7012E4F608F608F3
:101F2300F608E65480F609090918181822EAC0E0F1
:101F3300EBC0E0ECC0E0EDC0E0E687F0A4FBACF062
:101F430008E687F0A42CFCE435F0FA1809E687F0DC
:101F5300A42C4B60027401CA35F0FCE433FB09E6A0
:101F630087F0D2F7A42CCB35F0FC1908E687F0A450
:101F73002BCC35F0FBE433FD0819E687F0D2E7A458
:101F83002C4ACB35F0CD3400FC09E687F0D2E7A428
:101F93002DCC35F0FDE433FA0918E687F0D2F7A427
:101FA3002CCD35F0CA3400FC08E687F0D2E7D2F72F
:101FB300A42ACC35F07A7E20E70B0ACB33CBCD3382
:101FC300CDCC33CC33CB3350147004ED30E00ED290
:101FD300F1E4CD3DCDCC3CCC3B5005DA05C2F1EB71
:101FE300547FC63308E63392F0FBE73309E733C384
:101FF3009A502D2B70190C0D4C4D70151806E608D0
:10200300C333700D20F10AA2F013F6E418800B40DD
:1020130024E4F630F002768018F618F618F68024D9
:10202300D33B14501074FFA2F013F6187680E41813
:10203300F618F6800FA2F013F618E63303F618EC41
:10204300F618EDF6D0E0FDD0E0FCD0E0FBD0E0FAEE
:1020530022121DFE6046121DEF603DE9687008F60E
:1020630018F618F618F622748067F7122088090903
:1020730009748067F722121DEF601D121DFE7005A3
:10208300191919801A121DC7701F121DDBC37003A3
:10209300E667331919194007181818220808087435
:1020A300FFF618F618F618F622121DDB6017121D3C
:1020B300BE702192F0121DB57019501720F014084C
:1020C3000808090909E7F61819E7F61819E7F618D1
:1020D30019E7F622121DB560E6E869701F0808E6E5
:1020E3002480F608E436F618547FB47F0CE6548057
:1020F3006007F6E418F618F622181822E9C6CC0889
:10210300C6CD08C6CE08C6CFC0E0E8C0E0EAC0E04E
:10211300EBC0E009E9F809E7FA09E7FBE6F918E695
:10212300F8C3EC98ED99EE9AEBC2E7F5F0EFC2E74E
:1021330095F0500E600CEBCFFBEACEFAE9CDF9E84F
:10214300CCF8EAA2E7D2E7FAEB33FB13F5F0EEA201
:10215300E7D2E7FEEF33FFC5F013A2E730E601B3A2
:1021630013C5F0C3C0E0C0F07F00C39BFB605E9467
:1021730018600F401D14601AD0E023F9D0E0F80274
:10218300225A8AF0E9486003D2F0E4AFF0FAF9F892
:10219300803BEB30E40D89F0EA6003D2F0E4AFF06A
:1021A300F9CAF8EB30E30D88F0EF6002D2F0AFF03C
:1021B300E4CAC9F8EB54076014FBC3EA13FAE91342
:1021C300F9E813F8EF135002D2E0FFDBEDD0E0C0E3
:1021D300E030E739C3E49FFFF5F0EC98FC42F0ED03
:1021E30099FD42F0EE9AFE42F0D0E0F9D0E0F8E536
:1021F300F0607AE923F9EE20E742D8028067C3EF63
:1022030033FFEC33FCED33FDEE33FE80EAEC28FCC8
:10221300ED39FDEE3AFED0E023F9D0E0F84002803C
:102223001BC3EE13FEED13FDEC13FCEF135002D2B0
:10223300E0FF08B800067F7F74FF802EEF3350174E
:102243008CF020F00260100CBC000C0DBD00080ED9
:10225300BE000408E860DFE933E813FFEE2313FE52
:102263004F4D4C8008E95480FFE4FEFDFCEE33EF54
:1022730033F47004FCFD7E80D0E0FBD0E0FAD0E0C4
:10228300F8D0E0CFC618CEC618CDC618CCC6F922F2
:10229300121DEF700418181822121DFE700D74FF22
:1022A300F61819F61819F61819F622E7548066F687
:1022B300121DB5700F121DBE70F014F608F608F665
:1022C30008F680D1121DBE700CF608F60876800859
:1022D300E6447F80EC121DDE700C121DCA60BFE65F
:1022E3005480F6E480BB121DCA700519191980A524
:1022F300E869700C763F18768018F618F6E8F9222C
:10230300E6CDC0E018ECC0E0E633CD33CDD313F611
:10231300E719FCE7191933CC33C3947F400ECD9DE5
:10232300502408E65480F6E418F6800FF4043D14B4
:10233300501408E6447FF6187680E418F618F6D0B1
:10234300E0FCD0E0FD22CCD313CCFD18E4C6CBC017
:10235300E018E4C6CAC0E00808ED08C633E613F681
:1023630018E433C675F003C3CA97CA09CB97CB19D0
:102373009C40047D08802EBD000302243C16B6FF5A
:10238300050606081618C3CA33CACB33CB33CA278C
:10239300CA09CB37CB193CC37D08803E187D082082
:1023A300E75CC633C6CA33CACB33CB33DDF1D5F0D2
:1023B300EB30E77BCA97CA09CB974ACB199C406F8E
:1023C3004B7025E620E0218066187D08C3CA97CAB2
:1023D30009CB97CB199CD3C633C6CA33CACB33CBED
:1023E3003350C9DDE7D5F0E1D3E4C636C608C636B7
:1023F300C608C636C608C636C61818188031C3CAFA
:1024030097CA09CB97CB199CB34097C633C6CA3337
:10241300CACB33CB33DD34D5F02EC6A2E0C640C8D9
:10242300CA27CA09CB37194A70BECB3CB480B90856
:1024330008E63308E633601F181818D0E0FAD0E036
:10244300FBD0E0FCD0E0FD22187D08CA27CA09CBE7
:1024530037CB193CD3808013F618E4B67F11F618F6
:10246300B6FF0EF618C60470D20808768080CAF646
:1024730018F618F680C5080808EAC0E0EBC0E08645
:10248300F0E7A4FA180986F0E7A42AFA180986F0F7
:10249300E7A42AFA180986F0E7A42AFA1986F0E7CE
:1024A300A4FBE5F02AFA190886F0E7A42BFBE5F074
:1024B3003AFA190886F0E7A42BFBE5F03AFA181864
:1024C3000986F0E7A4C5F02BFBE43AFA1908E7C53F
:1024D300F0C6A426F6E5F03BFBE43AFA1886F0E7EB
:1024E300A4F6E5F00826F6E43B08F6E43A08F6D04D
:1024F300E0FBD0E0FA22E4CFC0E0E4CEC0E0E4CDDC
:10250300C0E0E4CCC0E075F020E626F608E633F63A
:1025130008E633F608E633F6181818EC33FCED3307
:10252300FDEE33FEEF33FFC3EC9709ED9709EE970A
:1025330009EF97191919400FFFEC97FC09ED97FD67
:1025430009EE97FE191906D5F0BFECF709EDF70967
:10255300EEF709EFF7191919D0E0FCD0E0FDD0E050
:10256300FED0E0FF22181818E4C396F608E496F6A6
:1025730008E496F608E496F6226016080808C6C32F
:1025830013C618C613C618C613C618C613C6D5E095
:10259300EA227009080808226016181818C6C333FF
:1025A300C608C633C608C633C608C633C6D5E0EA6E
:1025B30022E627F60809E637F60809E637F608099A
:1025C300E637F622E026F608A3E036F608A3E0365F
:1025D300F608A3E036F622E026F008A3E036F0087A
:1025E300A3E036F008A3E036F022C3E697F6080925
:1025F300E697F60809E697F60809E697F622C3E098
:10260300C696F608A3E0C696F608A3E0C696F608B3
:10261300A3E0C696F622C3E096F008A3E096F0087E
:10262300A3E096F008A3E096F022E657F60809E641
:1026330057F60809E657F60809E657F622E056F674
:1026430008A3E056F608A3E056F608A3E056F622E0
:10265300E056F008A3E056F008A3E056F008A3E024
:1026630056F022E066F608A3E066F608A3E066F6F5
:1026730008A3E066F622E0F608A3E0F608A3E0F676
:1026830008A3E0F622E6F008A3E6F008A3E6F008C4
:10269300A3E6F022E0FAA3E0FBA3E0FCA3E0FD2223
:1026A300EAF0A3EBF0A3ECF0A3EDF022E0F8A3E053
:1026B300F9A3E0FAA3E0FB22E8F0A3E9F0A3EAF030
:1026C300A3EBF022CAC0E0E6F0A308DAFAD0E0FAFE
:1026D30022CAC0E0E0A3C582CCC582C583CDC58331
:1026E300F0A3C582CCC582C583CDC583DAE6D0E02D
:1026F300CA22C3E498F8E499F91227368026C3E482
:102703009AFAE49BFBE920E7E9122736E498F8E418
:1027130099F922C3E498F8E499F9122736E498F872
:10272300E499F9C3E49AFAE49BFB22EB20E7CFE9AF
:1027330020E7E0B90010BB0008E88AF084F8AAF0AB
:1027430022E4FBC8FA22EB70227B10C833C8C933DA
:10275300C9335007C39AC3DBF280069A50012ADBC0
:10276300EAC833F4C8C933F4C9FA2275F008E4C8D7
:1027730033C8C933C933C99AC99B5004C92AC93B51
:10278300D5F0ECFBC833F4C8E4C9FA22600D08C6DF
:10279300A2E713C618C613C6D5E0F322600C08C619
:1027A300C313C618C613C6D5E0F422700422600D05
:1027B30018C6C333C608C633C6D5E0F41822251895
:1027C30010AF08F518400C15198008F518400215CC
:1027D30019D2AF2200C0D0251810AF08F518500C3D
:1027E30005198008F51850020519D2AFD0D022255B
:1027F30018F58210AF08F518400C15198008F51864
:1028030040021519D2AF851983222518F582E435C4
:1028130019F583222518F8E43519F9222518FAE465
:102823003519FB222518FCE43519FD22E47325181C
:10283300C582C0E0E51934FFC583C0E0E518C39540
:102843008224F810AF088583198582188008858350
:1028530019858218D2AFCEF0A3E520F0A37808E65D
:1028630008F0A3DEFAEFF0A3E58124FAF8E608F016
:10287300A3E608F0A3E608F0A30808E608F0A3E639
:1028830008F0A315811581D0E0FED0E0F81581157D
:10289300811581E8C0E0EEC0E0222518C582C0E0C2
:1028A300E51934FFC583C0E0E518C3958224F91008
:1028B300AF08858319858218800885831985821856
:1028C300D2AFCEF0A3E520F0A37808E608F0A3DEAC
:1028D300FAEFF0A3E58124FBF8E608F0A3E608F09D
:1028E300A30808E608F0A3E608F0A315811581D034
:1028F300E0FED0E0F815811581E8C0E0EEC0E022EB
:10290300851983851882E0A3FEE0A3F5207808E00B
:10291300A3F608DFFAE0A3FFE0A3C0E0E0A3C0E072
:10292300E0A3C0E0E0A3C0E0E0A3C0E010AF0885EF
:1029330082188583198008858218858319D2AFD0C0
:1029430083D08202011F851983851882E0A3FEE0EC
:10295300A3F5207808E0A3F608DFFAE0A3FFE0A3DD
:10296300C0E0E0A3C0E0E0A3C0E0E0A3C0E010AF9C
:10297300088582188583198008858218858319D272
:10298300AFD083D08222C0D02518C582C0E0E5191C
:1029930034FFC583C0E0E518C3958224F310AF0864
:1029A3008583198582188008858319858218D2AF9B
:1029B300C8F0A3E9F0A3EAF0A3EBF0A37908E709D1
:1029C300F0A3D8FAECF0A3EDF0A3EEF0A3EFF0A39D
:1029D300D0E0F0A3D0E0F0A3D0E0F0A3E520F0A393
:1029E300E5F0F0A322851983851882E0C0E0A3E017
:1029F300F9A3E0FAA3E0FBA37808E0F608A3DFFA63
:102A0300E0FCA3E0FDA3E0FEA3E0FFA3E0C0E0A39E
:102A1300E0C0E0A3E0F5D0A3E0F520A3E0A3F5F048
:102A230010AF0885831985821880088583198582EC
:102A330018D2AFD082D083D0E0F8D0E032740480D3
:102A430006740280027401C0E0F4041227F2D0E09D
:102A53001226C7227404800474028000CCC0E0ED07
:102A6300C0E0E518C39CCCAD1950011D10AF068C16
:102A7300188D1980068C188D19D2AF1226D4D0E088
:102A8300FDD0E0FC22D083D082E9C0E0E493A3C36D
:102A930086F0C5F095F0F908E493A386F0C5F095A8
:102AA300F0700BE493A3C3994005E9048002A3E407
:102AB30075F002A42582F582E5F03583F583D0E035
:102AC300F9E493A3C0E0E493C0E022D083D082EC86
:102AD300C0E0EDC0E0E493A3FCE493A3FDED4C6000
:102AE3000D122B1AEC24FFFCED34FFFD80EFE49371
:102AF300A3FCE493A3FDED4C600D122B59EC24FFD2
:102B0300FCED34FFFD80EFD0E0FDD0E0FCE493A3C7
:102B1300C0E0E493C0E022C0E0C3E49396087401EC
:102B2300939618400FE4936670080874019366182F
:102B330070007019A3A3C3E49396087401939618C5
:102B4300A3A3400DD0E0D0E0D0E0022B0AA3A3A3BF
:102B5300A3A3A3D0E022C0E0C0F088F0E4936670A2
:102B6300080874019366187000A8F0A3A3700BD033
:102B7300F0D0E0D0E0D0E0022B0AA3A3D0F0D0E065
:102B83002274F612289DEAFEEBFF8C088D09EE24D1
:102B930034F8E43FF9E8FCE9FD122CB6E0FAEE2440
:102BA30037F582E43FF583E0F88508F0A4C885F0A3
:102BB3000A8509F0A4250AF9EA28F8E439F97A25FF
:102BC3007B00122736EA8C828D83F0FA1313135499
:102BD3001FF8EE28F8E43FF9E8245DF582E439F5BF
:102BE30083E0C0E074075AF8D0E0B800028004C361
:102BF30013D8FCA2E05003EA8020EE2436F582E4E9
:102C03003FF583E0F5F0EA84A8F0EE28F8E43FF915
:102C1300E82438F582E439F583E0F97F0302294992
:102C230074F512289DEAFEEBFFEE2434F582E43FAF
:102C3300F583E0C0E0122CB6D0E0F08E828F83A340
:102C4300A3A3A3A3E0FAA3E0FB8E828F83A3A3A392
:102C5300A3A3A3A3E0C39AF508A3E09BF509EE247D
:102C63007FF8E43FF9880A890B8882F583E06401E1
:102C7300702CEE2480F582E43FF583EA2401F8E426
:102C83003BF9E0687003A3E06970137C1A7D08EEDA
:102C9300FAEFFB121004850A82850B83E4F0AC087B
:102CA300AD09EEFAEFFB122B84E9F91235277F0405
:102CB300022949EE2435F582E43FF58322C082C020
:102CC30083851882851983E0F8A3E0F9C3EA9CEBB6
:102CD3009D5010C3EC98ED99401BC3EA98EB9950B3
:102CE30014800EC3EA98EB994007C3EC98ED994022
:102CF30004790180027900D083D08222EAC39CFA4E
:102D0300EB9DFB2274ED12289D9004C3E0640860E0
:102D130005E06407702C9061C8E060269004F1E040
:102D2300F874FF68601CE875F00DA4C8AAF02AF9CE
:102D330074F328FE740439FF8E828F83A3A3A3E068
:102D430070057900022EA9EE2468F50EE43FF50F15
:102D5300906060E0850E82850F83F07510B4751165
:102D630008750800750900E5D914F50AE5D9540377
:102D7300F50B601FEE2483F50CE43FF50D7403653A
:102D83000B6059E50A6017EE2467F582E43FF5838B
:102D9300E0700B793DEEFAEFFB12103480A490083B
:102DA300AFE064016023850C82850D83E060047AC3
:102DB3000480027A00E50AC39AFA95E0FB120DE853
:102DC3008A088B09EA45097006121322022D4585EC
:102DD3000C82850D83E070048A108B117A008014B5
:102DE300E5D9C0E0EAF8E51028F582E43511F5836A
:102DF300D0E0F00AEAC3950A40E6850C82850D838C
:102E0300E0602874FC250AF50A7810122A44AC0AFB
:102E1300A90BEEFAEFFB1210EE74021227D7E9703A
:102E23000AAA08AB091218D4022D967403650B6025
:102E330054850A0C750D00780C122A44AC10AD11A0
:102E4300AA08AB091210B274021227D7850E828525
:102E53000F83E0F87480687005750C7F8002880C1E
:102E6300E50CF50D780D122A48780B122A48A90AA9
:102E7300AC08AD099004F1E0FA7B00120C0874026F
:102E83001227D7801C9004C3E06408AC10AD117006
:102E930009EEFAEFFB12111E8007EEFAEFFB121197
:102EA300D812132E79017F0C02294974F312289D3D
:102EB30074FC1227C1EAFEEBFF8909A2AFE433F5E4
:102EC30008C2AFEE2463F50AE43FF50B8010AA0AAB
:102ED300AB0B12106A1218D4900821E004F0850A93
:102EE30082850B83E0F8A3E0F9E849602DE824022A
:102EF300FAE439FBEA2402F50CE43BF50D780C12F5
:102F03002A448A828B83E0FCA3E0F9EEFAEFFB12FA
:102F1300105E74021227D7E960B4900821E0604D77
:102F2300900822E0F8900821E0C398500C740265E1
:102F330009703A900823E060348E828F83A3A3A3A1
:102F4300A3E0851882851983122F80740212280D3D
:102F5300E8122F80900820E028F07402122827AA94
:102F630018AB197901120C68900821E4F0E508A266
:102F7300E092AF74041227D77F06022949F0A3E435
:102F8300F0900821E0F82200008521878522C622DF
:102F9300C0E074EB122989A2AFE433F508C2AF7520
:102FA3009B00906182E0A2E05030E591A2E0502ABC
:102FB3007591FE74016521702112312612123212AD
:102FC3003114122A571232D174041227D7E964013B
:102FD30070057901121280122D07906182E0A2E53B
:102FE300505DE591A2E550577591DF9004C3E0640D
:102FF300076005E06408702F1231267401652170A3
:103003003E121232123114122A571232D1740412A0
:1030130027D7E96401700579011212807901EEFA6C
:10302300EFFB122EAE8018E0640D70139004E5E000
:1030330004F064287002E4F07A00E0F9121334908B
:103043006182E0A2E640030230E9E591A2E6400393
:103053000230E97591BF9004C3E064057008121251
:103063001A121226800312122075210012129EE9F1
:103073009004C4F07900121280120F267A017B00AB
:103083009004C2E0F91218A4907803E064427056E9
:103093009008B3E014F0704EC2AF1230A000782A4B
:1030A300D0E0F618D0E0F6E59F5407F87005750DEB
:1030B300FF8003750D7FC4C0E07829E6F50A08E6B2
:1030C300550DF50B740B780A12279FD0E0250AF8EB
:1030D300906270E0A2E740F8E8C333906272F09028
:1030E3006270E0D2E0F0906181E0A2E35009E5E98B
:1030F300A2E3500375E9F7A3E0A2E75009E591A223
:10310300E7500375917FE508A2E092AF7F0802299B
:10311300E88E828F83E0F8A3E0C82416F582E438B2
:10312300F583229004F1E0F875F00DA4C8AAF02A03
:10313300F974F328FE740439FF22C0E0C0D0C082C2
:10314300C083906183E0A2E05009E5BFA2E0500391
:1031530075BFFEE0A2E15009E5BFA2E1500375BFD0
:10316300FDE0A2E25009E5BFA2E2500375BFFBE018
:10317300A2E35009E5BFA2E3500375BFF7E0A2E461
:103183005009E5BFA2E4500375BFEFE0A2E5500983
:10319300E5BFA2E5500375BFDFE0A2E65009E5BF36
:1031A300A2E6500375BFBFD083D082D0D0D0E03227
:1031B300C0E074F2122989E5A7A2E4500FE5A1A2A9
:1031C300E4500953A7EF75A1EF123207E5A7A2E573
:1031D300500CE5A1A2E5500653A7DF75A1DFE5A7D3
:1031E300A2E15009E5A1A2E1500375A1FDE5A7A263
:1031F300E2500CE5A1A2E2500653A7FB75A1FB7FA9
:10320300010229E874F812289D7521019004C3E096
:10321300640670077A007B00121202A2AFE433FE49
:10322300D2AF9004C9E0640170187A207B00900447
:10323300C2E0F91219E27A207B009004C2E0F9128D
:1032430018AA906182E0D2E6F09008B0E060218590
:10325300C62280169004C8E064017008E5C654F8DD
:103263004405F5C653BEFC122F8C7401652160E43E
:10327300EEA2E092AF7F010229490000008E238F66
:1032830024858228858327851882851983E0CEA328
:10329300E0CF852882852783EBC9EAC8EDCBECCA4A
:1032A30075F010C3E833C8E933C9EA33CAEB33CB4B
:1032B300C3EA9EF526EB9FF525B35004AB25AA265A
:1032C300EC33CCED33CDD5F0DAAE23AF242274F159
:1032D30012289D8A088B098C0A8D0B909618780802
:1032E300122640740F12280D780C12267990961826
:1032F300780C1226407808790C121C6F90960050B7
:10330300107808790C1225ED7808121C8F40148070
:103313000E780C79081225ED780C121C8F50047965
:1033230001800279007F0802294974ED12289D8AE1
:10333300088B098C0A8D0B90961878081226407416
:103343001312280D780C122679909618780C1226F1
:1033530040780C7908121C6F40117808790C1225FB
:10336300EDAA08AB09AC0AAD0B80227510007511EC
:10337300007512007513017810790C1225ED781081
:1033830079081225B4AA10AB11AC12AD137F0C024D
:10339300294990961878081226798A828B837808AF
:1033A3001226537F0402294974F512289D8C828DBD
:1033B3008378081226798A828B8378081226191259
:1033C30033FFC3E098F0A3E0991233F1401E9096C7
:1033D3005878081226798A828B8378081225DA8E28
:1033E300828F83E02420F0A3E0344EF080A4F08E9B
:1033F300828F83C3E09420A3E0944E22EA2404F84E
:10340300E43BF9E8FEE9FF8C828D83A3A3A3A3E049
:10341300F8A3E0F98E828F832274F512289DE9FECA
:1034230090083CE0FAA3E0FBEE29F8E433F974B723
:1034330028F582749139F583E02AF508A3E03BF57A
:10344300097808122A449095FC1226971232807448
:10345300021227D78A088B098C0A8D0B74107808FF
:1034630012257CAA08AB097F0402294974F11228AA
:103473009D8A0C8B0D8C0E8D0F741112280D122A40
:103483005B741112280DE02401F508A3E03400F564
:1034930009E4F50AF50B780C79081224799095E084
:1034A3007808122679780C7908122479AA0CAB0DC6
:1034B300AC0EAD0F12328074021227D78B09EA4586
:1034C3000960047A0180027A00EC2AFCE43DFD7471
:1034D3001312280DE0F8A3E0F9E8FEE9FFECF8ED9C
:1034E300F97A717B0212273688088909E4F50AF50F
:1034F3000B8E828F837808122688ECF8EDF97A71A7
:103503007B021227368A088B09740578081227AEC6
:103513008E828F83A3A3A3A3E508F0A3E509F07F1D
:1035230008022949C082C083E9906000F0D083D0AB
:103533008222C0E074F2122989A2AFE433FED2AF33
:10354300C2C0E5D1A2E4500675D10F1217E4EEA272
:10355300E092AF7F010229E8C0E074F2122989A248
:10356300AFE433FED2AFE589A2E14006E589A2E2EA
:103573005003121766758900758900C2C5EEA2E073
:1035830092AF7F010229E8C0E074F2122989A2AF49
:10359300E433FED2AFE58BA2E05003121766758BBE
:1035A30000C2E8EEA2E092AF7F010229E8C0E0C0CA
:1035B300D0E8C0E0A2AFE433F8D2AFC2C7E8A2E0DC
:1035C30092AFD0E0F8D0D0D0E032C0E0C0D0E8C0B5
:1035D300E0E9C0E0EAC0E0EBC0E0C082C083A2AF94
:1035E300E433F9D2AF90113CE0F890113DE06870FC
:1035F3000B539AFB90113E7401F0802EC2E9901197
:103603003CE0F874012890113CF0E8FA7B0074BCAC
:103613002AF58274103BF583E0F5C190113CE0C3B9
:103623009480400690113C7400F0E9A2E092AFD080
:1036330083D082D0E0FBD0E0FAD0E0F9D0E0F8D03C
:10364300D0D0E032C2AF0200002202011FFFFFFF11
:10365300FFFFFFFFFFEAF8EBF9E824FFFAE934FF85
:10366300FBE84960217800790078DC7905C3E894A8
:1036730001E99400A2D265D03340DA00E824FFF8D0
:10368300E934FFF980E702011F74F7122831890832
:103693007800800108E8C395085022E8FE7F00EA1D
:1036A3002EF582EB3FF583E0F9E8FE7F00EC2EF583
:1036B30082ED3FF583E06960DB7900800279017F69
:1036C3000102290374F0122831E9FE7C0075080019
:1036D300750900750A00750B00803A909660780CA6
:1036E3001226797808790C122479ECF87900EA2803
:1036F300F582EB39F583E0F87900E824D0F50CE99D
:1037030034FFF50DE50D3395E0F50EF50F780879E7
:103713000C1225B40CECC39E500FECF87900EA2888
:10372300F582EB39F583E070B2AA08AB09AC0AADB8
:103733000B7F0802290374F712283174EF1227C193
:10374300909144AC18AD1974111226D478F37919F9
:10375300888289837430F088828983A3A882A983AD
:10376300888289837478F088828983A3A882A98355
:10377300EA2406FA50010B7E06806AEA24FFFAEB7C
:1037830034FFFB8A828B83E0C4540FFC7D008518D1
:1037930082851983E5822CF582E5833DF583E0C0BC
:1037A300E088828983D0E0F088828983A3A882A9F4
:1037B300838A828B83E0FC7D00EC540FFCED540084
:1037C300FD851882851983E5822CF582E5833DF515
:1037D30083E0C0E088828983D0E0F088828983A374
:1037E300A882A9831EEE7093888289837400F07A7D
:1037F300F37B1974111227D77F01022903C082C0FA
:10380300837C3A7D197AB679801219ACE9D083D0DA
:103813008202011F74F7122831E9FEEE60030238B9
:10382300B290193A7404F090193B7400F090193C6B
:103833007400F090193D7400F07C297D947A3E7BEE
:1038430019121C1C90194A7400F07C497D957A4B1F
:103853007B19121C1C9019527400F07C0D7D0079A9
:10386300007A537B1912186290196D7400F0901945
:103873006E7400F07C787D0079007A707B191218E1
:10388300629019E87400F0A37400F09019EA7400D0
:10389300F09019EB7400F09019EC7400F09019EDAE
:1038A30074F4F0A37401F09019EF7400F0802B749A
:1038B300016E70267C0D7D0079007A537B191218F6
:1038C3006290196D7400F090196E7400F07C787D2D
:1038D3000079007A707B191218627C007D007900F0
:1038E3007A097B041215E0E9121A607F01022903A9
:1038F30074F412283174D31227C190193AE0F508F1
:103903007509007808122A447C9E7D8E7402122861
:103913001F121C1C74021227D7AA18AB19121844C1
:103923008A088B09AC08AD09AA18AB1912180E7ACC
:10393300647B00121A4890193BE0F508750900787A
:1039430008122A447C237D8F740212281F121C1C28
:1039530074021227D7AA18AB191218448A088B09C4
:10396300AC08AD09AA18AB1912180E7A647B0012C1
:103973001A4890193CE0F5087509007808122A44A2
:103983007CEF7D8E740212281F121C1C74021227F6
:10399300D7AA18AB191218448A088B09AC08AD09C9
:1039A300AA18AB1912180E7A647B00121A489019E0
:1039B3003DE0F5087509007808122A447CE67D8FFE
:1039C300740212281F121C1C74021227D7AA18ABE8
:1039D300191218448A088B09AC08AD09AA18AB1947
:1039E30012180E7A647B00121A4875083E7509197D
:1039F3007808122A447C427D90740212281F121CFC
:103A03001C74021227D7AA18AB191218448A088B00
:103A130009AC08AD09AA18AB1912180E7A647B0019
:103A2300121A4890194AE0F5087509007808122A15
:103A3300447C2B7D90740212281F121C1C740212EA
:103A430027D7AA18AB191218448A088B09AC08ADFA
:103A530009AA18AB1912180E7A647B00121A48755A
:103A6300084B7509197808122A447C147D90740256
:103A730012281F121C1C74021227D7AA18AB191282
:103A830018448A088B09AC08AD09AA18AB19121897
:103A93000E7A647B00121A48901952E0F5087509F2
:103AA300007808122A447CFD7D8F740212281F12AD
:103AB3001C1C74021227D7AA18AB191218448A08BF
:103AC3008B09AC08AD09AA18AB1912180E7A647BDE
:103AD30000121A487508537509197808122A447C8C
:103AE300B97D8E740212281F121C1C74021227D770
:103AF300AA18AB191218448A088B09AC08AD09AA95
:103B030018AB1912180E7A647B00121A4875080054
:103B1300750900023BA89092FA7420122827740DAD
:103B23001226D4750A0C750B00780A122A44A808C9
:103B3300A909E875F00CA4C8AAF075F000A42AFA44
:103B430075F00CE9A42AF9747028FC741939FD7412
:103B53002212281F12184A74021227D7742012281F
:103B630017880A890B780A122A447808122A447C97
:103B7300817D93740412281F121C1C74041227D70E
:103B8300AA18AB191218448A0A8B0BAC0AAD0BAAFC
:103B930018AB1912180E7AC87B00121A480508E5EB
:103BA300087002050990196DE0F87900C3E50898DB
:103BB300E50999A2D265D0335003023B199019E865
:103BC300122A5B7C587D8E740212281F121C1C74EF
:103BD300021227D7AA18AB191218448A088B09AC0A
:103BE30008AD09AA18AB1912180E7A647B00121AD1
:103BF300489019EAE0F5083395E0F5097808122AA8
:103C0300447C597D90740212281F121C1C740212EA
:103C130027D7AA18AB191218448A088B09AC08AD28
:103C230009AA18AB1912180E7A647B00121A48906D
:103C330019ECE0F5087509007808122A447C097D1F
:103C43008F740212281F121C1C74021227D7AA1881
:103C5300AB191218448A088B09AC08AD09AA18AB32
:103C63001912180E7A647B00121A489019ED122A61
:103C73005B7C2E7D8E740212281F121C1C74021290
:103C830027D7AA18AB191218448A088B09AC08ADB8
:103C930009AA18AB1912180E7A647B00121A4890FD
:103CA30019EFE0F5087509007808122A447CD47DE1
:103CB3008E740212281F121C1C74021227D7AA1812
:103CC300AB191218448A088B09AC08AD09AA18ABC2
:103CD3001912180E7A647B00121A48742D1227D712
:103CE3007F04022903C082C08390194AE0F9D0837C
:103CF300D08202011FC082C083121A72E96401706C
:103D030010901A73E06402700479018012790080C4
:103D13000E901A7EE064067004790180027900D067
:103D230083D08202011F74F412283174F41227C164
:103D3300EAFEEBFF121A72E964016003023DF275B9
:103D430008008002050890196DE0F8E508C3985053
:103D530033AA18AB19A908121A84E96027750A0C4B
:103D6300750B00780A122A44EEFCEFFD7402122848
:103D73001F12185C74021227D7E960C8E50890196E
:103D83006FF0806B75080C7509007808122A44EEF1
:103D9300FCEFFD90196EE0F87900E875F00CA4C80B
:103DA300AAF075F000A42AFA75F00CE9A42AF974B4
:103DB3007028FA741939FB12184A74021227D79023
:103DC300196EE090196FF090196EE02401F09019CC
:103DD3006EE075F00A84E5F090196EF090196DE0CD
:103DE300C3940A500790196DE02401F0121A60740D
:103DF3000C1227D77F0402290374F412283189088F
:103E0300EAFEEBFF121A72E96401704890196DE043
:103E1300F8E508C398503D750A0C750B00780A1233
:103E23002A44E508F87900E875F00CA4C8AAF075EF
:103E3300F000A42AFA75F00CE9A42AF9747028FC9E
:103E4300741939FDEEFAEFFB12184A74021227D7E0
:103E53007901800279007F0402290302011FC082D5
:103E6300C08390193CE0FD90193BE0FC90193AE0C7
:103E7300F97ADE7B1A121802121A72E96401700DC4
:103E83007C157D007A9E7B9012180E800B7C187D2A
:103E9300007A557B8F12180ED083D08202011F74D3
:103EA300EC1228317E31750C00750D00750E4075CE
:103EB3000F40121BDA8A088B09A808A909EEFA7BBE
:103EC30000E8C39AF508E99BF509E5093395E0F5A0
:103ED3000AF50B7808121CAE9096647810122679B6
:103EE300780C7910121ED47808790C122293780872
:103EF300122A40909664122697121C1074041227FB
:103F0300D77F0C02290374F5122831780079007CDD
:103F1300007D007E007F007508E8750903901A0C88
:103F2300E0640560030240AA901A0DE0F8A3E0F9EB
:103F3300E875F002A4C885F00A75F000A4250AF517
:103F43000A75F002E9A4250AF9740228F582741AA5
:103F530039F583EAF0A3EBF0901A0DE02401F0A306
:103F6300E03400F0901A0DE0F8A3E0F97A057B0045
:103F730012272E901A0DEAF0A3EBF07800790002D5
:103F8300407CE8FAE9FBEA75F002A4CA85F00A75F9
:103F9300F000A4250AF50A75F002EBA4250AFB74C8
:103FA300022AF582741A3BF583E0FAA3E0FBC3EE21
:103FB3009AEF9BA2D265D0335028E8FAE9FBEA7561
:103FC300F002A4CAAEF075F000A42EFE75F002EB69
:103FD300A42EFB74022AF582741A3BF583E0FEA338
:103FE300E0FFE8FAE9FBEA75F002A4CA85F00A7576
:103FF300F000A4250AF50A75F002EBA4250AFB7468
:10400300022AF582741A3BF583C3E09508A3E09571
:1040130009A2D265D033502EE8FAE9FBEA75F00223
:10402300A4CA85F00875F000A42508F50875F00208
:10403300EBA42508FB74022AF582741A3BF583E08E
:10404300F508A3E0F509E8FAE9FBEA75F002A4CA6A
:1040530085F00A75F000A4250AF50A75F002EBA4B1
:10406300250AFB74022AF582741A3BF583E02CFCC3
:10407300A3E03DFD08E8700109C3E89405E9940055
:10408300A2D265D0335003023F85ECC39EF8ED9F67
:10409300F9E8C39508F8E99509F97A037B00122733
:1040A3002EE8FAE9FB8036901A0CE0F87900E875FF
:1040B300F002A4C8ACF075F000A42CFC75F002E982
:1040C300A42CF9740228F582741A39F583EAF0A353
:1040D300EBF0901A0CE02401F07A007B007F0302DE
:1040E300290374F012283174E01227C1E9FEEE901F
:1040F30019EAF0121A78E97003024192EEFA339545
:10410300E0FB121A968A088B098C0A8D0B9096682D
:10411300780C1226797808790C121ED47808121DAF
:1041230026AA08AB09121A9C8A088B097808122A56
:1041330044EEF404F5087509007808122A447C5506
:104143007D91740412281F121C1C74041227D7902B
:1041530019F1E0603AAA18AB19121C2E8A088B09D0
:10416300AC08AD09AA18AB1912180EAA18AB19128C
:104173001C2E8A088B09AC08AD09AA18AB191205C5
:1041830048E97A107B00901A3EE0F91218A4E9740A
:10419300201227D77F0802290374F612283174E806
:1041A3001227C1908F86AC18AD1974181226D475D6
:1041B300084B7509197808122A447C5C7D927402B5
:1041C30012281F121C1C74021227D7AA18AB19122B
:1041D30018448A088B09AC08AD09AA18AB19121840
:1041E3000E74181227D77F020229037A3E7B190225
:1041F300011FC082C083121B08D083D08202011F1B
:10420300C082C083901952E0F9D083D08202011F8B
:1042130074F012283179067A4B7B19121A548A0CDE
:104223008B0D8C0E8D0F850C08850D09850E0A8567
:104233000F0B9095FC780C1226797808790C1224D0
:10424300F9AA0CAB0DAC0EAD0F7F08022903C08297
:10425300C08390193DE06402700479018002790003
:10426300D083D08202011FC082C08390193DE070C9
:1042730004790180027900D083D08202011F74F691
:104283001228319019F2E06403700479008076906B
:1042930019F2E0640160089019F2E064047041903F
:1042A300196DE0605E75080C7509007808122A44E0
:1042B30090196FE0F87900E875F00CA4C8ACF075BC
:1042C300F000A42CFC75F00CE9A42CF9747028FC04
:1042D300741939FD12184A74021227D779018025FF
:1042E3009019F2E06402701B75080C7509007808D8
:1042F300122A447C607D1912184A74021227D77956
:1043030001800279007F0202290374F6122831909A
:1043130019EDE0F508A3E0F509AA08AB09E4FCFDF3
:104323007F0202290374EB12283174F41227C18A25
:1043330014750B147405551470030245547E007FE5
:10434300009019F07400F0901CB9E06401704212FF
:10435300181A8A088B09AE08AF09EE4F6030C3EE16
:104363009415EF940040047E147F00EEFAEFFB12E5
:10437300192E8A0A8B0B850A08850B09EEFCEFFDC3
:10438300AA08AB09121808AA08AB09121934024586
:104393005412181A8A088B09AE08AF09EE4F70152C
:1043A300901A137400F0A37400F0A37400F0A374C4
:1043B30000F0024554901A131226AFE8494A4B7095
:1043C300291219F4EAF8EBF9ECFAEDFB901A0F1243
:1043D30026BBEEFCEFFDE4FEFF901A13ECF0A3ED19
:1043E300F0A3EEF0A3EFF0024554121A78E970053A
:1043F300750B168003750B141219F48A0C8B0D8C34
:104403000E8D0FE50BF87900C3EE98EF99502990C4
:104413009614C082C083850C10850D11850E1285FC
:104423000F13901A0F7810122601D083D0827810C0
:10443300121C8F4003024554750A00E50BFA7B00FA
:1044430012192E8A108B11851008851109E508456C
:1044530009700E7C047D007AB97B9512180E024513
:1044630054E50BF87900C3E89EE99F5005850B0AD4
:104473008003EEF50A121A78E96003024502E50AA1
:10448300FC7D00AA08AB09121808E50AC39403408F
:1044930047E50AF87900E50828F8E50939F9E82439
:1044A300FEF582E934FFF583E0640D702BE50AF82D
:1044B3007900E50828F8E50939F9E824FFF582E9E8
:1044C30034FFF583E0640A700FE50AFC7D00AA0857
:1044D300AB09121AE4E98002740070497CD27D941E
:1044E300AA18AB19121C1CAA18AB191218448A106B
:1044F3008B11AC10AD11AA18AB1912180E8026E55A
:104503000AFC7D00AA08AB09121808E50AFC7D0025
:10451300AA08AB09120548E97A107B00901A3EE01D
:10452300F91218A4E9901A0F780C122688E50AF8F4
:104533007900EEC398FCEF99FDE4FEFF901A13ECAB
:10454300F0A3EDF0A3EEF0A3EFF0AA08AB09121964
:1045530034740C1227D77F0D02290374E912283112
:1045630074B91227C1EAFEEBFF8C088D097514019B
:104573007515007404650870047400650970347956
:10458300047CAF7D95EEFAEFFB121A4EE960247CB2
:10459300B47D95AA18AB19121C1CAA18AB191218D2
:1045A300448A088B09AC08AD09AA18AB1912180E76
:1045B30002556B74086508700474006509701679F8
:1045C300087C207D94EEFAEFFB121A4EE960061286
:1045D3001A6C02556B740A650870047400650960EF
:1045E300030246AB79077CF27D94EEFAEFFB121AD5
:1045F3004EE970030246AB8E828F83A3A3A3A3A3CA
:10460300A3A3E024D0604B146048146045146042B7
:1046130014603F24F560030246A590193AE0F508BB
:104623007509007808122A447C5D7D937402122870
:104633001F121C1C74021227D7AA18AB1912184494
:104643008A088B09AC08AD09AA18AB1912180E0217
:10465300556B8E828F83A3A3A3A3A3A3A3E024D02C
:1046630090193AF0121A6090193AE0F508750900AA
:104673007808122A447C757D93740212281F121C39
:104683001C74021227D7AA18AB191218448A088B74
:1046930009AC08AD09AA18AB1912180E7515010259
:1046A300556B75140002556B740A65087004740029
:1046B3006509701679077C0A7D95EEFAEFFB121AED
:1046C3004EE9600675140002556B740A65087004A0
:1046D30074006509701679077C127D95EEFAEFFB7D
:1046E300121A4EE9600675140002556B740A6508C8
:1046F30070047400650960030247BC79077C1A7D66
:1047030095EEFAEFFB121A4EE970030247BC8E8254
:104713008F83A3A3A3A3A3A3A3E024D06045146022
:104723004214603F24F360030247B690193DE0F55D
:10473300087509007808122A447C5D7D937402127F
:10474300281F121C1C74021227D7AA18AB1912189F
:10475300448A088B09AC08AD09AA18AB1912180EC4
:1047630002556B8E828F83A3A3A3A3A3A3A3E024E9
:10477300D090193DF0121A6090193DE0F5087509C3
:10478300007808122A447C757D93740212281F1244
:104793001C1C74021227D7AA18AB191218448A08D2
:1047A3008B09AC08AD09AA18AB1912180E751501BF
:1047B30002556B75140002556BE508C3940AF8E5BE
:1047C300099400F9C3E8940BE99400400302489765
:1047D30079077C227D95EEFAEFFB121A4EE97003FE
:1047E3000248978E828F83A3A3A3A3A3A3A3E0640A
:1047F3003F703575083E7509197808122A447C8D77
:104803007D93740212281F121C1C74021227D7AA4C
:1048130018AB191218448A088B09AC08AD09AA18F9
:10482300AB1912180E02556B7C0C7D0079007A3E91
:104833007B19121862E50824F9F508E50934FFF538
:10484300097808122A44EE2407FCE43FFD7A3E7BF4
:104853001912184A74021227D7121A6075083E7586
:1048630009197808122A447C397D93740212281F8F
:10487300121C1C74021227D7AA18AB191218448AE7
:10488300088B09AC08AD09AA18AB1912180E7515D7
:104893000102556B740A6508700474006509703C65
:1048A30079087CB97D94EEFAEFFB121A4EE9602C7D
:1048B3007CC57D93AA18AB19121C1CAA18AB19123C
:1048C30018448A088B09AC08AD09AA18AB19121849
:1048D3000E7900121A6675150102556B740A650884
:1048E300700474006509701679087CB07D94EEFA43
:1048F300EFFB121A4EE9600675150102556B740A37
:10490300650870047400650960030249D979077C5E
:104913003A7D95EEFAEFFB121A4EE970030249D97C
:104923008E828F83A3A3A3A3A3A3A3E024D0604277
:1049330014603F24F260030249D390194AE0F5085A
:104943007509007808122A447C5D7D93740212284D
:104953001F121C1C74021227D7AA18AB1912184471
:104963008A088B09AC08AD09AA18AB1912180E02F4
:10497300556B8E828F83A3A3A3A3A3A3A3E024D009
:10498300F9E9700890194A7400F0800690194A7486
:1049930001F0121A6090194AE0F5087509007808C9
:1049A300122A447C757D93740212281F121C1C74F6
:1049B300021227D7AA18AB191218448A088B09AC1C
:1049C30008AD09AA18AB1912180E75150102556B1B
:1049D30075140002556B740A650870047400650948
:1049E300701079087CA77D94EEFAEFFB121A4EE95A
:1049F3007022740F65087004740065096003024A2D
:104A0300B879077CDA7D94EEFAEFFB121A4EE9705F
:104A130003024AB88E828F83A3A3A3A3A3A3A3E015
:104A2300643F703575084B7509197808122A447C60
:104A3300AC7D92740212281F121C1C74021227D719
:104A4300AA18AB191218448A088B09AC08AD09AA35
:104A530018AB1912180E02556B7508067509007804
:104A630008122A44EE2407FCE43FFD7A4B7B19121B
:104A7300184A74021227D79019517400F0121A6061
:104A830075084B7509197808122A447C397D93748B
:104A93000212281F121C1C74021227D7AA18AB1962
:104AA3001218448A088B09AC08AD09AA18AB19126D
:104AB300180E02556B740A6508700474006509606A
:104AC30003024B8279077CE27D94EEFAEFFB121A24
:104AD3004EE97003024B828E828F83A3A3A3A3A309
:104AE300A3A3E024D0604214603F24F26003024B8E
:104AF3007C901952E0F5087509007808122A447C65
:104B03005D7D93740212281F121C1C74021227D796
:104B1300AA18AB191218448A088B09AC08AD09AA64
:104B230018AB1912180E02556B8E828F83A3A3A3A1
:104B3300A3A3A3A3E024D0901952F0121A609019F2
:104B430052E0F5087509007808122A447C757D93B4
:104B5300740212281F121C1C74021227D7AA18AB46
:104B6300191218448A088B09AC08AD09AA18AB19A5
:104B730012180E75150102556B75140002556BC39F
:104B8300E508940AE5099400404579087C4D7D9435
:104B9300EEFAEFFB121A4EE96035750853750919E1
:104BA3007808122A447CD37D92740212281F121CA7
:104BB3001C74021227D7AA18AB191218448A088B3F
:104BC30009AC08AD09AA18AB1912180E02556B747B
:104BD3000A65087004740065096003024C6D790866
:104BE3007C9E7D94EEFAEFFB121A4EE9607C121A5A
:104BF30072E96401706E9095C87443122827740497
:104C03001226D47E009019F27401F090196DE070B1
:104C1300047E0180057E00121B14EEF83395E0F943
:104C2300744312280DE58228F582E58339F583E084
:104C3300F5087509007808122A447C517D937402A3
:104C430012281F121C1C74021227D7AA18AB1912A0
:104C530018448A088B09AC08AD09AA18AB191218B5
:104C63000E02556B75140002556B741465087004BD
:104C7300740065096003024D1D79067C6C7D95EE19
:104C8300FAEFFB121A4EE97003024D1D90969774CA
:104C93004012282774031226D4750800121A72E9E9
:104CA300640170709019F27402F0750A0C750B00B0
:104CB300780A122A44EE2406FCE43FFD7A607B194D
:104CC30012184A74021227D7E508F87900744012C3
:104CD300280DE58228F582E58339F583E0F508752B
:104CE30009007808122A447C517D93740212281F0C
:104CF300121C1C74021227D7AA18AB191218448A63
:104D0300088B09AC08AD09AA18AB1912180E121BAF
:104D13001402556B75140002556B740A6508700410
:104D230074006509705579087C5F7D94EEFAEFFB9A
:104D3300121A4EE96045121A72E96401703779015B
:104D4300121A667C007D0079007A097B041215E053
:104D5300E97C997D93AA18AB19121C1CAA18AB19EC
:104D63001218448A088B09AC08AD09AA18AB1912AA
:104D7300180E02556B75140002556B740A650870A2
:104D830004740065096003024E4779087C957D949D
:104D9300EEFAEFFB121A4EE97003024E47121A7233
:104DA300E964016003024E47121A72E96401600369
:104DB300024E4190196DE070247C227D92AA18ABBB
:104DC30019121C1CAA18AB191218448A088B09ACB7
:104DD30008AD09AA18AB1912180E02556B7E009084
:104DE300196DE0F8EEC398400302556BEEF87900B5
:104DF300E875F00CA4C8AAF075F000A42AFA75F0BF
:104E03000CE9A42AF9747028F508741939F509789E
:104E130008122A447C787D92740212281F121C1CEB
:104E230074021227D7AA18AB191218448A088B09DF
:104E3300AC08AD09AA18AB1912180E0E80A175148F
:104E43000002556B740A65087004740065097045A7
:104E530079087C177D94EEFAEFFB121A4EE9603560
:104E63007508C37509957808122A447CBE7D95742C
:104E73000212281F121C1C74021227D7AA18AB197E
:104E83001218448A088B09AC08AD09AA18AB191289
:104E9300180E02556B740A65087004740065096086
:104EA30003024F4579077CEA7D94EEFAEFFB121A71
:104EB3004EE97003024F45121A72E96401707D8E48
:104EC300828F83A3A3A3A3A3A3A3E0643F70309023
:104ED30019E8122A5B7C427D95740212281F121C6A
:104EE3001C74021227D7AA18AB191218448A088B0C
:104EF30009AC08AD09AA18AB1912180E02556B902C
:104F030019E87410F0A37427F0121A609019E812CC
:104F13002A5B7C407D92740212281F121C1C7402AF
:104F23001227D7AA18AB191218448A088B09AC08A0
:104F3300AD09AA18AB1912180E02556B75140002AD
:104F4300556B740A6508700474006509704A790A20
:104F53007C8C7D94EEFAEFFB121A4EE9603A9019BD
:104F6300EAE0F5083395E0F5097808122A447C92C3
:104F73007D92740212281F121C1C74021227D7AAD6
:104F830018AB191218448A088B09AC08AD09AA1882
:104F9300AB1912180E02556B740A6508700474007D
:104FA3006509600302507279077C327D95EEFAEF52
:104FB300FB121A4EE970030250728E828F83A3A3F1
:104FC300A3A3A3A3A3E0643F70389019ECE0F50812
:104FD3007509007808122A447C9F7D927402122876
:104FE3001F121C1C74021227D7AA18AB19121844DB
:104FF3008A088B09AC08AD09AA18AB1912180E025E
:10500300556B8E828F83A3A3A3A3A3A3A3E024D072
:105013009019ECF09019ECE0C3940440069019EC5D
:105023007400F0121A609019ECE0F5087509007825
:1050330008122A447C757D93740212281F121C1CCB
:1050430074021227D7AA18AB191218448A088B09BD
:10505300AC08AD09AA18AB1912180E9019ECE0F8B8
:105063007403C398F9120BE4E975150102556B74C7
:105073000A6508700474006509600F740F65087091
:105083000474006509600302515379077C2A7D95F6
:10509300EEFAEFFB121A4EE97003025153121A7221
:1050A300E9600302514D8E828F83A3A3A3A3A3A31D
:1050B300A3E0643F70309019ED122A5B7C317D923E
:1050C300740212281F121C1C74021227D7AA18ABD1
:1050D300191218448A088B09AC08AD09AA18AB1930
:1050E30012180E02556B7906EE2407FAE43FFB1201
:1050F3001A548A088B098C0A8D0B9019EDE508F078
:10510300A3E509F09019EDC3E09410A3E0942740C0
:105113000302556B121A609019ED122A5B7C407DD5
:1051230092740212281F121C1C74021227D7AA1889
:10513300AB191218448A088B09AC08AD09AA18AB3D
:105143001912180E75150102556B75140002556B73
:10515300740A6508700474006509600302521E79BD
:10516300077CC27D94EEFAEFFB121A4EE97003023C
:10517300521E8E828F83A3A3A3A3A3A3A3E0643FA2
:1051830070389019EFE0F5087509007808122A4481
:105193007C5D7D93740212281F121C1C740212275B
:1051A300D7AA18AB191218448A088B09AC08AD09A1
:1051B300AA18AB1912180E02556B7901EE2407FADF
:1051C300E43FFB121A548A088B098C0A8D0BE508FD
:1051D3009019EFF09019EFE0C394025038121A605F
:1051E3009019EFE0F5087509007808122A447C75D8
:1051F3007D93740212281F121C1C74021227D7AA53
:1052030018AB191218448A088B09AC08AD09AA18FF
:10521300AB1912180E75150102556B740A650870E7
:105223000474006509704B790A7CAF7D93EEFAEF45
:10523300FB121A4EE9603B121A72E96401702D9059
:1052430019F27403F07CBA7D93AA18AB19121C1CD3
:10525300AA18AB191218448A088B09AC08AD09AA1D
:1052630018AB1912180E121B1402556B7514000299
:10527300556B740A6508700474006509703A790700
:105283007CCA7D94EEFAEFFB121A4EE9602A121AD9
:1052930072E96401701C9019F27404F08E828F839A
:1052A300A3A3A3A3A3A3A3E024D0F9121B4AE90257
:1052B300556B75140002556B74096508700474000E
:1052C3006509600302556879067C577D95EEFAEF10
:1052D300FB121A4EE970030255688E828F83A3A3D3
:1052E300A3A3A3A3E0F516E51624CC601814601954
:1052F30014601A14601B1470030253A21470030287
:1053030054760255637E04800A7E0580067E0680FD
:10531300027E07798012170C7A04EEF91217068AB7
:10532300088B09AC08AD098C088D09E4F50AF50B67
:105333007808121CC9909670780C1226797808792F
:105343000C121ED4909674780C1226797808790C76
:105353001222937808122A408C088D097808122AA1
:1053630044E516F87900E824D0F508E934FFF50997
:105373007808122A447CB67D8F740812281F121CE9
:105383001C74081227D7AA18AB191218448A088B61
:1053930009AC08AD09AA18AB1912180E02556B7E99
:1053A300117F01750899750901790012170C7A02AA
:1053B300790F1217068A0A8B0BAC0AAD0BC3EC9557
:1053C30008ED9509400474648058C3EE9CEF9D403A
:1053D300047400804DE508C39EF8E5099FF9E824AD
:1053E30001FAE439FB8A088B097402780812279FB3
:1053F300AA08AB09ECC39EF8ED9FF9E875F019A470
:10540300C8AEF075F000A42EFE75F019E9A42EF9CC
:10541300E82AF8E93BF9E824FFF8E934FFF9122711
:1054230036E8F5087509007808122A448C088D09B6
:105433007808122A44E516F87900E824D0F508E93B
:1054430034FFF5097808122A447C707D90740612A3
:10545300281F121C1C74061227D7AA18AB1912187E
:10546300448A088B09AC08AD09AA18AB1912180EA7
:1054730002556B750C00750D00750E00750F0090CD
:10548300624B7401F09061A97401F07E008057793A
:105493000012170C7A03790E1217068A088B09ACCF
:1054A30008AD098C088D09E4F50AF50B7808121C80
:1054B300C9909678781012267978087910121ED43C
:1054C30090967C78101226797808791012207990BA
:1054D3009680781012267978087910122293780C26
:1054E30079081220790EEEC3944040A3850C0885F9
:1054F3000D09850E0A850F0B90966C780C12267990
:105503007808790C12229390624BE0C2E0F090612C
:10551300A9E0C2E0F07808122A408C088D097808C7
:10552300122A44E516F87900E824D0F508E934FF97
:10553300F5097808122A447C877D90740812281F85
:10554300121C1C74081227D7AA18AB191218448A04
:10555300088B09AC08AD09AA18AB1912180E8008FC
:105563007514008003751400E51560117AC87B007B
:10557300121A48C2AF75C9AB75C95B80FEA9147412
:10558300471227D77F0F02290374F612283174C8F4
:105593001227C1E9FF7E01EFA2E5400302563090D6
:1055A3001CBAE0C2E5F07C5E7D957A177B1A121C6B
:1055B3001C7C457D937A237B1A121C1C901CB9E03A
:1055C3007008901CB97401F08006901CB97400F047
:1055D300901CB9E060077901121940800579001227
:1055E3001940901CB9E0F5087509007808122A449F
:1055F3007CDB7D93740E12281F121C1C740212276D
:10560300D77906740C12281F12176C740C12281FFA
:10561300121C2E8A088B09AC08AD09740C12281FC2
:105623001218147A017B00121A4802584AEFA2E0BA
:105633005042901CBAE0C2E0F07C657D957A177BFE
:105643001A121C1C7C837D947A237B1A121C1C1255
:105653001A72E96401600302584A901A73E0640203
:10566300700302584A7C0A7D007AAF7B93121AE4D6
:10567300E902584AEFA2E45035901CBAE0C2E4F0C4
:105683007C7A7D947A177B1A121C1C7CD77D917AC5
:10569300237B1A121C1C9019F1E070099019F17404
:1056A30001F002584A9019F17400F002584AEFA22F
:1056B300E3503B901CBAE0C2E3F07C717D947A170F
:1056C3007B1A121C1C7C717D947A237B1A121C1C7E
:1056D300121A72E96401600302584A901A73E06473
:1056E30002700302584A7901121B3802584AEFA28A
:1056F300E15020901CBAE0C2E1F07C0D7D947A1752
:105703007B1A121C1C7CB47D907A237B1A121C1CFE
:1057130002584AEFA2E24003025848901CBAE0C282
:10572300E2F07CA47D937A177B1A121C1C7C137DF8
:10573300927A237B1A121C1C121A72E96401600309
:105743000257E9901A73E064026039121B3EE9F5CF
:10575300087509007808122A447C2D7D937402127F
:10576300281F121C1C74021227D7AA18AB19121C6B
:105773002E8A088B09AC08AD09AA18AB19121AE4D2
:10578300E902584A121A78E9700302584A901A3704
:10579300E06008901A377400F08006901A3774019D
:1057A300F0901A37E0F5087509007808122A447C4E
:1057B300077D93740212281F121C1C74021227D730
:1057C300AA18AB19121C2E8A088B09AC08AD09AABA
:1057D30018AB19120548E97A107B00901A3EE0F9DC
:1057E3001218A4E98061121A78E9605B901A38E014
:1057F3006008901A387400F08006901A387401F02B
:10580300901A38E0F5087509007808122A447C14C8
:105813007D93740212281F121C1C74021227D7AA2C
:1058230018AB19121C2E8A088B09AC08AD09AA18EB
:10583300AB19120548E97A107B00901A3EE0F91281
:1058430018A4E980027E00901CBAE07014901A3903
:10585300E0700E901A397401F07A01790712177EFD
:10586300E9EE605675082375091A7808122A447CF4
:105873008C7D95740E12281F121C1C74021227D7DC
:10588300901CBAE060067800790080047880790083
:10589300E84408F9740C12281F12176C7508177561
:1058A300091A7808122A447C8C7D95740E12281FDD
:1058B300121C1C74021227D7805475082375091A09
:1058C3007808122A447C737D95740E12281F121CCB
:1058D3001C74021227D7901CBAE060067800790086
:1058E300800478807900E84408F9740C12281F12A8
:1058F300176C75081775091A7808122A447C737D8A
:1059030095740E12281F121C1C74021227D7740CD4
:10591300122817880889097808122A447CBE7D95C5
:10592300742612281F121C1C74021227D7121A780D
:10593300E97021742412281F121C2E8A088B09ACCB
:1059430008AD09742412281F12180E7A017B001265
:105953001A488026742412281F121C2E8A088B09C9
:10596300AC08AD09742412281F120548E97A107B8C
:1059730000901A3EE0F91218A4E974381227D77F71
:105983000202290374EC12283174C01227C1EAFE03
:10599300EBFF8C088D09C3E5089409E509940040E1
:1059A3003979087C447D94EEFAEFFB121A4EE960D4
:1059B300298E828F83A3A3A3A3A3A3A3A3E0F87435
:1059C3003068700B7A00790212177EE9025D337A30
:1059D30001790212177EE9025D33C3E5089409E5F4
:1059E300099400403979087C3B7D94EEFAEFFB1271
:1059F3001A4EE960298E828F83A3A3A3A3A3A3A333
:105A0300A3E0F8743068700B7A00790412177EE90A
:105A1300025D337A01790412177EE9025D33C3E52F
:105A2300089409E5099400403579087C327D94EEA9
:105A3300FAEFFB121A4EE960258E828F83A3A3A38C
:105A4300A3A3A3A3A3E0F874306870099019F174B9
:105A530000F0025D339019F17401F0025D33C3E588
:105A6300089407E50994005003025D3379067C57D7
:105A73007D95EEFAEFFB121A4EE97003025D338E49
:105A8300828F83A3A3A3A3A3A3E0FEEE24CC601879
:105A930014601914601A14601B147003025B52140F
:105AA3007003025C3B025D337F04800A7F0580063E
:105AB3007F0680027F07798012170C7A04EFF912B0
:105AC30017068A088B09AC08AD098C088D09E4F523
:105AD3000AF50B7808121CC9909670780C12267977
:105AE3007808790C121ED4909674780C1226797863
:105AF30008790C1222937808122A408C088D0978B1
:105B030008122A44EEF87900E824D0F508E934FFB6
:105B1300F5097808122A447CB67D8F740812281F71
:105B2300121C1C74081227D7AA18AB19121C2E8A30
