:020000040000FA
:0600000002011A023105A5
:03002B000237D2C7
:030033000237A9E8
:0300530002317BFC
:03006B00023777E2
:10008300022F5BE5C754F84401F5C779012200004C
:100093000080FB120086B90003020104E479217891
:1000A30008B800028004F709D8FCE479297802B87B
:1000B30000028004F709D8FCE490028178AF791735
:1000C3008002F0A3D8FCD9FA781A90014A7A01BACF
:1000D30000028007E493A3F608DAF97A2F7B1990DC
:1000E300014B781279058015E493A3AD82AE838A20
:1000F300828B83F0A3AA82AB838D828E83D8E9D9C6
:10010300E77582177583D2740512012C7582917578
:100113008300740012012C75D00075813F7518811E
:10012300751902759F00020096C09FF59FE473D076
:100133009F22D083D082C09FE493C0E0740193C018
:10014300E0740293F59F220100070C0742073C0766
:10015300FF0000B4000028002800283075A000A08C
:1001630000A000A00000080008E001F0001000104B
:10017300001000100010001000500050005000103C
:10018300001000D0070000000000000F0001000570
:1001930000307507001000010081FF00000000FF20
:1001A300FFFF80089E088608C208FF0202020802B9
:1001B3005000A0000000E803028B96010000709637
:1001C30002919601000092190297960100000A0419
:1001D30002919601000093190299960100002004F0
:1001E3000291960100009419029F960100002204D7
:1001F300029196010000951902A1960800002304BC
:10020300029196010000961902A596010000971924
:10021300FFFF0100FF20028B960100006A96029106
:1002230096010000FC1902A7960000000000029549
:100233009603000053041700081108110811081150
:1002430008110811081108110811081108110811E3
:1002530008116C138A136613B014C214AA14020291
:1002630002020202020202010D0000001001028BD1
:10027300960100007396029196010000451A029DB3
:1002830096010000A20E029196010000461A029BFD
:10029300960100009792029196010000471A028985
:1002A300960100002D92029196010000481A0283E4
:1002B30096010000DF90029196010000491A027D29
:1002C30096010000CD900291960100004A1A02792E
:1002D30096010000BB900291960100004B1A027B2D
:1002E3009601000097900291960100004C1A027F3C
:1002F300960100003B920291960100004D1A028183
:10030300960100004E1A01E803057710020A0AD28B
:1003130016FFFFFF00013075030201060000000015
:1003230000000000000000000000000000000000CA
:100333000000000000000000FFFF0600800CE8033F
:10034300013FFEFF0101010201060302F0FF02016A
:10035300061AFF4C000215E2C56DB5DFFB48D2B0AB
:1003630060D0F5A71096E000010002CD761B7C1B40
:10037300881B8E1B821B0A436861726163746572FA
:100383006973746963203100024368617261637445
:10039300657269737469632032000843686172612E
:1003A3006374657269737469632033001043686111
:1003B3007261637465726973746963203400024304
:1003C300686172616374657269737469632035006F
:1003D300164368617261637465726973746963203B
:1003E300360010436861726163746572697374697E
:1003F30063203700028B96010000679602919601F5
:1004030000005D1B02AB96030000F41802939601F3
:1004130000005E1B0291960100006F1B02AD960166
:100423000000F518029396010000701B02919601DB
:100433000000811B02AF96020000F618029396019A
:100443000000821B029196010000931B02B19600EB
:100453000000F718029596030000F818029396011E
:100463000000941B029196010000A51B02B39604A1
:100473000000FA18029396010000A61B0291960150
:100483000000B71B02B596030000FF180295960300
:1004930000001419029396010000B81B0291960103
:1004A3000000C91B02B796000000161902959603B7
:1004B30000002B19029396010000CA1B0100B042F1
:1004C3003BAAB83F0000003F8C906339AA0CA33AC3
:1004D30000941E3C8042633DCFFE753E1572313F52
:1004E3000000803FF304353F8096184B30313233A0
:1004F30034353637383941424344454600286E7512
:100503006C6C20706F696E74657229003031323300
:10051300343536373839616263646566003F3F3F7F
:10052300000000807FF9021550B743BA5100E7DBA2
:100533002E0000A040000080BF2292D43EDD9B2A03
:100543003F0400004000000000FFFF7F7FFFFF7FAC
:10055300FF010080341872313F12013546B905128C
:1005630001352DBA0512013527BB05120135DEB45D
:1005730005120135F1B40512013512B50512013525
:100583007DB505120135BEB505120135DFB505127E
:10059300013520B605120135B8B60512013500B78D
:1005A3000512013526A10512013539A105120135C0
:1005B3006AA105120135A4A105120135FDA1051299
:1005C300013544A2051201358CA205120135BBA2E7
:1005D30005120135EAA20512013521A305120135E1
:1005E30068A30512013581A305120135D6A30512AF
:1005F3000135EFA3051201353DA40512013577A49A
:100603000512013558DF031201355BE00312013592
:1006130088E003120135D9E003120135FCE003122F
:1006230001350EE10312013511E1031201354FE1EA
:1006330003120135C3E1031201352FE20312013521
:10064300F7E20312013513E3031201354AE3031200
:10065300013584E3031201351BE4031201356DE414
:10066300031201359EE403120135CFE40312013571
:10067300DCE40312013546E50312013549E50312B3
:10068300013556E50312013559E503120135B0E58D
:1006930003120135B3E503120135ECE5031201350D
:1006A300EFE50312013523E60312013526E60312B3
:1006B30001357AE603120135C3E603120135D3E6A9
:1006C3000312013506E70312013513E7031201355F
:1006D30016E7031201357EE70312013580E80312A2
:1006E300013524E9031201358DE903120135CBE904
:1006F300031201357AF60212013577F7021201353A
:100703000DF80212013558F802120135BCF8021235
:10071300013546F902120135FFF90212013521FDB7
:10072300021201359EFE02120135C1FE021201358D
:10073300378D05120135DC8E05120135FC8E05124D
:1007430001351D90051201357090051201357D911B
:1007530005120135A59105120135D2910512013516
:100763000A9205120135689205120135B4920512F9
:1007730001351B93051201355B93051201359893DF
:1007830005120135C6930512013570940512013522
:100793007A9405120135879405120135BA9405122E
:1007A3000135C69405120135DE9405120135E8942E
:1007B30005120135F3CC0512013501CD05120135C2
:1007C30019CD0512013531CD0512013548CD05127C
:1007D3000135D5E4021201357FE50212013592E6B7
:1007E300021201350EE7021201352CE8021201351F
:1007F30068E80212013503E902120135E7E9021242
:100803000135AAEA0212013522EB02120135B0ECDE
:100813000212013521ED02120135DBED0212013521
:10082300CDEE021201350DEF02120135C1EF0212B6
:100833000135F3EF02120135E9F10212013530F20D
:10084300021201354EF202120135B4F202120135E1
:1008530083F30212013547F40212013566F60212E0
:10086300013570F6021201356DBE0412013557BF12
:100873000412013502C00412013553C004120135BC
:1008830003C10412013574C10412013559C20412A3
:1008930001358DC20412013586C304120135C3C369
:1008A300041201359FC404120135DEC4041201355C
:1008B300FAC4041201356ABD05120135EEBD0512F5
:1008C300013519BE0512013533BF05120135769581
:1008D300051201358C9505120135AA9505120135CE
:1008E300BB9605120135C59605120135F097051221
:1008F3000135E798051201355499051201355E99C2
:100903000512013526CC041201355CCD04120135E4
:10091300D6CD0412013506CE0412013519CE0412C8
:10092300013570CE0412013585D0041201352E969F
:1009330002120135DF9602120135FB9602120135D0
:10094300C49702120135DE9702120135E9970212AC
:100953000135BF98021201359C99021201352C9A78
:1009630002120135E39A02120135F19D021201359B
:10097300E09F0212013592A0021201355BA102121F
:100983000135A0A4021201354AA50212013573A64E
:10099300021201352FA802120135CFA80212013528
:1009A3001DA9021201355CA9021201352FAA0212F8
:1009B300013563AA02120135F0AA0212013541D2B0
:1009C30002120135CDD20212013531D402120135A2
:1009D3003DD40212013578D402120135E7D4021254
:1009E3000135F0D502120135F9D602120135C0D70F
:1009F300021201351DD9021201353BD9021201350C
:100A030058D90212013505DA0212013582DA0212CF
:100A13000135AADA0212013574DD0212013579DDDE
:100A23000212013592DF02120135E0DF02120135B5
:100A330050E0021201358EE0021201356AE1021222
:100A430001352AE20212013576E20212013579E21A
:100A530002120135BDE20212013505E3021201352E
:100A630044E30212013566E3021201359AE30212EE
:100A73000135FDE302120135E6EC04120135EFEC1A
:100A830004120135FDEC0412013550ED0412013559
:100A93006FED04120135B4ED04120135F8EE0412C2
:100AA300013593EF04120135D7EF0412013501F03C
:100AB3000412013570F004120135B6F00412013549
:100AC3002DF104120135DEF104120135BD96011238
:100AD3000135CD96011201356E9701120135CA9782
:100AE30001120135879801120135A39901120135CD
:100AF300D59901120135049A01120135B19B0112F6
:100B03000135289E0112013598A0011201358AA1F1
:100B13000112013583A2011201358AA401120135A4
:100B23007EA701120135ADA801120135B1AA011248
:100B33000135C1AB0112013550AD0112013541AE92
:100B4300011201358FAE01120135FEAE01120135DE
:100B530022AF0112013573AF0112013514B4011232
:100B6300013515B50112013576B501120135A1B56F
:100B73000112013567B601120135EBD704120135B5
:100B8300F5D7041201353AD8041201354ED80412B0
:100B93000135DED80412013517D90412013552D9B3
:100BA300041201357BD904120135C9D90412013568
:100BB300DED904120135F3D90412013508DA04121F
:100BC30001354BDA0412013560DA04120135CBDA50
:100BD30004120135DFDA04120135F3DA04120135A8
:100BE30008DB0412013542DB0412013566DB041213
:100BF300013592DB04120135C9DB041201352BDC0C
:100C0300041201359DDC04120135E0DC04120135C8
:100C13000ADD0412013535DD04120135EDCA051272
:100C2300013557BC031201353ABD03120135B5BD79
:100C330003120135F0BD0312013541BF0312013523
:100C4300CABF03120135E2C10312013574C4031292
:100C5300013526C50312013532C603120135A5C776
:100C630003120135FEC703120135A8E20412013550
:100C7300EBE2041201356FE30412013542E404127E
:100C8300013519E704120135DFAF051201358CB0C8
:100C93000512013599B105120135D8B10512013597
:100CA30032B2051201354AC305120135ADC305122F
:100CB30001354AC4051201357FC405120135AFC49D
:100CC30005120135D0C4051201350BC505120135D6
:100CD3002BC505120135F0F1041201357CF2041223
:100CE30001353BF30412013553F4041201356DF65B
:100CF30004120135A7C803120135CCC8031201350C
:100D030099C9031201356DCA03120135DACA0312F8
:100D1300013530CB03120135CCCB0312013500CDA5
:100D230003120135DBCD031201353ACE031201352F
:100D3300C6CE0312013534CF03120135C0CF0312DF
:100D43000135C3CF031201350DD0031201357FD016
:100D53000312013511D103120135B2D1031201354A
:100D6300D2D1031201351AD20312013563D2031211
:100D730001357FD203120135A5D2031201351FD3EA
:100D8300031201352DD303120135BCD303120135F0
:100D930025D4031201353BFB04120135C0FB0412B9
:100DA300013502FC04120135E6FC0412013553FD42
:100DB3000412013597FD04120135DBFD04120135E0
:100DC30008FE0412013530FE0412013568FE0412D8
:100DD3000135A6FE04120135CDFE0412013547FF8D
:100DE3000412013591FF04120135D3B60112013506
:100DF300CCB801120135B8BB011201350CBC01128C
:100E0300013537BC0112013511BD0112013550BD49
:100E13000112013597BD01120135AABD0112013539
:100E2300EBBD0112013518BE0112013566BE011278
:100E33000135A5BE01120135D0BE0112013523BF14
:100E430001120135B2BF0112013590C20112013501
:100E5300ABC401120135E9C4011201355EC60112AA
:100E63000135A3C60112013597C701120135B0C977
:100E73000112013512CA0112013563CA011201358B
:100E83007ECF01120135CDCF0112013513D00112EE
:100E93000135FBD101120135C9D301120135CED37E
:100EA30001120135A8D40112013521D501120135F2
:100EB30051D60112013563D60112013539AD051240
:100EC3000135ABAD0512013501AE0512013545AE55
:100ED3000512013565AE05120135B2AE05120135B5
:100EE300FAAE051201354DAF051201359EAF05125D
:100EF3000135819304120135009404120135F999E7
:100F030004120135FF9A04120135729C0412013553
:100F1300099D0412013586D601120135CFD601127F
:100F23000135FCD6011201352ED7011201353AD70E
:100F33000112013546D7011201355DD70112013582
:100F430038D80112013596D801120135CBD80112D8
:100F53000135FCD90112013549DA011201358FDA65
:100F630001120135FBDA011201359FDB0112013554
:100F730055DC01120135B4DC0112013525DD011206
:100F8300013583DD01120135B5DE011201351DE0A6
:100F930001120135E7E001120135F4E001120135D8
:100FA30036E10112013546E1011201356AE1011210
:100FB30001356DE10112013559E201120135F5E206
:100FC300011201358EE30112013525E401120135C9
:100FD30052E401120135B0E401120135F7E40112C4
:100FE300013547E50112013597E50112013509E69F
:100FF30001120135A4E6011201354FE70112013553
:10100300EEE7011201356CE801120135B3E8011274
:10101300013517E90112013546E901120135DDE910
:1010230001120135EFEB0112013533EC01120135E9
:101033007EEC0112013504ED011201358EED011232
:101043000135A7EE011201352DEF0112013552EFE3
:1010530001120135A9EF01120135BEEF011201356D
:1010630006F00112013579F001120135BEF00112CB
:101073000135C7F10112013578F201120135D6F2BB
:101083000112013532F3011201354BF3011201351F
:10109300339D04120135879D04120135939D04127B
:1010A30001355D9E041201358A9E04120135B89EF6
:1010B30004120135249F041201355A9F041201358D
:1010C300939F04120135AB9F0412013500A0041253
:1010D300013519A0041201355EA00412013571A077
:1010E300041201358BA004120135A1A004120135AD
:1010F300BFA104120135EAA204120135D4A30412DC
:101103000135C5A404120135F47F00120135CBE784
:10111300041201354EEB041201359BEC0412013528
:101123007BF3011201354EF60112013554F601121B
:101133000135E4F80112013547FB01120135A4F62C
:10114300041201353BF704120135F9F70412013596
:1011530023F804120135FDF90412013502FB0412D0
:1011630001350080021201353280021201354F8CA5
:1011730002120135A08D02120135A98E021201352A
:101183002890021201351391021201356291021265
:1011930001357C9102120135BE9102120135C991CC
:1011A3000212013510920212013519920212013511
:1011B300C592021201359E9302120135E593021284
:1011C30001354D94021201358F9402120135BD94FD
:1011D30002120135FA94021201353DBF02120135A4
:1011E30008C3021201350EC302120135B2C902123D
:1011F300013506CE02120135EFD102120135539D9E
:1012030005120135C99D05120135DF9D0512013512
:101213006F9E05120135AC9E05120135E69E05123F
:101223000135209F05120135939F05120135D49F87
:1012330005120135DD9F05120135E99F05120135C0
:1012430008A00512013532A00512013547A0051289
:1012530001356FA005120135D1A005120135F8A0A3
:10126300051201355BC5041201356EC50412013543
:1012730088C504120135B5C504120135FBC5041236
:1012830001352EC6041201356CC604120135D1C6D0
:1012930004120135E6C604120135F1C60412013504
:1012A300FEC60412013515C70412013523C7041203
:1012B300013532C70412013547C7041201355CC733
:1012C3000412013567C70412013573C704120135CF
:1012D30080C70412013593C7041201359EC7041257
:1012E3000135C3C70412013567C80412013577C835
:1012F300041201358CC804120135A1C8041201354A
:10130300BBC804120135D8C804120135F5C804124C
:10131300013500C904120135ACC9041201358DCA67
:1013230004120135B2CA04120135BDCA04120135D3
:10133300D2CA04120135E6CA0412013547CB04129E
:1013430001354DCB0412013553CB0412013559CB72
:101353000412013571CB04120135A4CB04120135FB
:1013630050F40312013572F4031201353AF50312F6
:101373000135F4F7031201350AF9031201352BFA8B
:101383000312013505FB03120135B4FB03120135CA
:10139300D4AE031201356BAF0312013503B0031250
:1013A3000135F3B0031201352AB1031201353DB102
:1013B30003120135ABB10312013546B303120135F4
:1013C3006DB3031201350FB40312013544B4031294
:1013D300013555B403120135CEB403120135EFB410
:1013E3000312013507B5031201355FB60312013548
:1013F30068B803120135B8BA03120135BBBB031237
:1014030001350ABC0312013538A00312013535A199
:101413000312013520A2031201352AA2031201355A
:1014230034A20312013556A20312013562A203123C
:101433000135B4A303120135E3A30312013513A548
:101443000312013555A50312013581A60312013597
:1014530057A703120135A9A70312013508A80312E0
:1014630001353FA8031201357AA80312013515ACE3
:10147300031201352EAC03120135B0AC0312013552
:10148300BEAC0312013513AD0312013521AD0312B6
:1014930001358EAD0312013500AE0312013546AEA0
:1014A3000312013548D4031201356AD403120135FE
:1014B30054D603120135F9D9031201353CDB03126B
:1014C300013516DC0312013539C5051201355EC538
:1014D30005120135CFC5051201357FA6041201356A
:1014E30088A60412013591A604120135C2A704127D
:1014F3000135E1A90412013517AA0412013551AAD5
:101503000412013587AA04120135C1AA0412013558
:10151300F5AA0412013521AB041201356AAB04129A
:101523000135A4AB04120135ECAB0412013542AC16
:101533000412013577AC04120135D2AC0412013523
:101543000CAD041201355DAD0412013593AD0412E7
:101553000135CDAD04120135FBAD041201351EAECC
:10156300041201352CD00512013558D0051201356E
:10157300B3D005120135BDD005120135CDD005120A
:101583000135ACAE04120135F0AE041201359EAF45
:101593000412013516B00412013568B00412013586
:1015A30008B10412013544B104120135DEB104124D
:1015B30001355BB204120135B4B304120135CDB366
:1015C3000412013505B50412013598B5041201352D
:1015D30001B6041201356DB6041201358A84051271
:1015E3000135B18405120135E284051201352CD38E
:1015F3000512013543D305120135D7D00512013544
:101603006B5D0012013587600012013578620012AC
:101613000135EA6200120135A863001201355364F3
:1016230000120135E36400120135726500120135C1
:101633009C6500120135096600120135436B0012E7
:101643000135D76B00120135066D001201356A6D45
:10165300001201351E6E00120135D17000120135E2
:101663000B7100120135757100120135D37100122F
:1016730001353172001201358E72001201357D730E
:1016830000120135C37300120135087400120135CD
:101693002974001201358B7500120135A6750012ED
:1016A30001352C77001201355977001201359977EE
:1016B30000120135DF7700120135FD770012013585
:1016C3003B7800120135617A001201359A7A0012D3
:1016D3000135317B00120135D17B00120135647C69
:1016E30000120135D07C00120135117E0012013544
:1016F3005DDD04120135F1DD0412013530DF041222
:101703000135B9DF041201358CE004120135B5E06F
:10171300041201351CE10412013584E10412013580
:1017230001CC0512013512CC05120135E3CC0512AB
:101733000135DFA405120135AAA70512013537D4F7
:1017430005120135A3C805120135B3C805120135C9
:10175300CDC805120135C9C9051201358EAA051276
:10176300013528AB051201351EAD0512013557C1F0
:10177300051201358DC105120135FDC10512013573
:1017830028C2051201358BC205120135FBC20512B1
:10179300013539C3051201353CC305120135E4FF98
:1017A30002120135E7FF02120135008005120135EF
:1017B300228005120135B48005120135B28105126C
:1017C3000135A383051201350384051201356C84A9
:1017D30005120135F87F001201352BB705120135CB
:1017E300D7B80512013543B905120135F7FF0112C8
:1017F3000135457E00120135837E00120135687F75
:1018030000120135B27F00120135D2D30512013522
:10181300E2D30512013562BF0512013593BF0512EC
:101823000135BDBF051201357AC0051201359AC0D5
:1018330005120135F2C005120135C88904120135BC
:10184300D689041201351C8A041201356F8A0412E9
:101853000135B78A04120135118B04120135328B1D
:1018630004120135098E04120135178E0412013555
:10187300738E04120135A68E04120135B98E04123B
:101883000135448F04120135DB8F04120135569064
:10189300041201358D9004120135139104120135A0
:1018A300689104120135C39104120135D5910412D4
:1018B30001350692041201350F92041201354D933E
:1018C30004120135EFC6051201354EC70512013565
:1018D300E9C7051201354FC805120135EA8805121B
:1018E30001351D8905120135438A05120135688AC0
:1018F30005120135298B05120135018C05120135BD
:10190300A8FE0312013571FF03120135C9FF03124B
:101913000135E3FF031201357DB205120135C2B271
:101923000512013500B3051201359BB405120135CB
:10193300D8CD05120135F3CD0512013503CE0512BD
:10194300013566CE0512013568CF05120135A4CEE7
:1019530005120135008004120135DC8004120135C3
:101963001F8104120135598104120135C581041206
:1019730001351D82041201358D82041201355E8307
:1019830004120135488404120135BF840412013561
:10199300558604120135E08604120135508704127E
:1019A3000135CA8704120135E187041201350C8918
:1019B300041201355F89041201354CD2041201353A
:1019C30069D20412013555D3041201359ED3041292
:1019D3000135BED304120135FAD30412013553D4B1
:1019E300041201358FD404120135D7D40412013502
:1019F30071D704120135DAD704120135E6AB0212AE
:101A0300013501B102120135F8B3021201351EB4DA
:101A13000212013547B402120135F5B40212013541
:101A2300D6B602120135F1B7021201350AB8021215
:101A3300013500BD0212013539BD021201357DBDEC
:101A4300021201358ABE0212013500380012013537
:101A53003438001201356F3800120135E1380012B5
:101A63000135A83900120135BF39001201359B3AFF
:101A730000120135903E00120135A03E00120135DF
:101A8300D13E00120135A43F001201350640001279
:101A930001350940001201357040001201354C42F6
:101AA300001201350343001201355543001201357D
:101AB3005C43001201356A43001201357A43001278
:101AC3000135B84300120135D14300120135E84313
:101AD300001201357444001201358F4400120135A0
:101AE300BD5400120135B85500120135B359001227
:101AF3000135008003120135348103120135618100
:101B030003120135B08403120135E9840312013550
:101B1300FA84031201351686031201352786031250
:101B23000135B78603120135C786031201358E8B43
:101B330003120135328C03120135408C0312013537
:101B43006D8C03120135D28C03120135AA8E031258
:101B530001357F8F03120135F1E9031201353EEEA2
:101B630003120135C2F003120135FBF003120135F4
:101B73000CF1031201352BF10312013555F2031257
:101B8300013566F20312013510F303120135A1F397
:101B930003120135B4B604120135C2B7041201357C
:101BA300DFB704120135BAB904120135DEBA0412E3
:101BB30001357ABC0412013519D405120135B8A7D1
:101BC30005120135CFC90512013585D2051201353C
:101BD3005A90031201356695031201355BBB05125A
:101BE3000135E6D205120135D1FF0412013568999A
:101BF3000512013581D105120135ABD1051201352D
:101C030072D305120135A9D305120135FBD305E0C3
:101C130066701008A3E066700A08A3E06670040803
:101C2300A3E06622C008C3E096F50808A3E0964245
:101C33000808A3E096420808A3E0964208A2D265EA
:101C4300D033E5087001D3D00822C3E7960809E72B
:101C5300960809E7960809E79622C3E09608A3E0E9
:101C63009608A3E09608A3E09622C008C3E096F581
:101C73000808A3E096420808A3E096420808A3E0F8
:101C83009645087001D3D00822080808E630E7110A
:101C9300122546121CA4080808C64480C618181842
:101CA30022181818E9799EC608CAC608CBC608CCFC
:101CB300C6C370207996CACBCC7019798ECBCC7001
:101CC300137986CC700EF9802ACA33CACB33CBCCB6
:101CD30033CC331930E7F2CCCBCA3350147004EA57
:101CE30030E00DE4CA3ACACB3BCBCC3CCC50020922
:101CF300C3E913C6CC182313C6CB18C6CA18C6F932
:101D030022121D4420F01430E72B74FFFCFBFA74FD
:101D13007F8022E4FCFBFA7480801AB48008BC0044
:101D2300F2BB00EF800F50EBF9E4C39AFAE49BFB9C
:101D3300E49CFCE499C6CC18C6CB18C6CA18C6F9ED
:101D430022E4C9C608CAC608CBC6D3330308CCC627
:101D53003392F0C3947F402E94184019C9B90704F5
:101D6300CACBCC225025C309CA33CACB33CBCC331D
:101D7300CC33D9F422F4600DC9CCC313CB13CBCA33
:101D830013CAD9F6CC22E4FCFBFA2214FCFBFA2298
:101D9300E62618461846184622E727194719471911
:101DA3004722181818E60846087009E62608700541
:101DB300E633F4220822191919E70947097009E7DC
:101DC30027097005E733F4220922E6084608C313FE
:101DD3004608336002E633F422E7094709C3134791
:101DE30009336002E733F422121DCD6025121DDC96
:101DF3006020121D937003021D9C080808E766709B
:101E0300101819E766700A1819E76670041819E7BD
:101E13006622F422121DCD601C121DDC6017121DF8
:101E2300937007121D9C7001D322C0D0121D9C70A9
:101E330006D0D0B322C32233D0D0501430E0F6C33F
:101E4300E7960809E7960809E7960809E796B32293
:101E530020E0D5E6970809E6970809E6970809E61A
:101E630097B322121DCD601B121DDC6016121D9349
:101E73007007121D9C600CB322C0D0121D9C70050C
:101E8300D0D022C32233D0D0501330E0EBC3E79637
:101E93000809E7960809E7960809E7962220E0E48F
:101EA300E6970809E6970809E6970809E6972200E6
:101EB300121DCD604F121DDC6012E7548066F612CE
:101EC3001DA57011121D9C703B090909F4F618F643
:101ED30018F618F622121DB97015121D930808087A
:101EE30060EAE6447FF618768018E4F618F62212C4
:101EF3001D936016121D9C7012E4F608F608F6088E
:101F0300E65480F609090918181822EAC0E0EBC064
:101F1300E0ECC0E0EDC0E0E687F0A4FBACF008E63F
:101F230087F0A42CFCE435F0FA1809E687F0A42C1A
:101F33004B60027401CA35F0FCE433FB09E687F019
:101F4300D2F7A42CCB35F0FC1908E687F0A42BCCF0
:101F530035F0FBE433FD0819E687F0D2E7A42C4AF9
:101F6300CB35F0CD3400FC09E687F0D2E7A42DCCC5
:101F730035F0FDE433FA0918E687F0D2F7A42CCD47
:101F830035F0CA3400FC08E687F0D2E7D2F7A42A7A
:101F9300CC35F07A7E20E70B0ACB33CBCD33CDCCD7
:101FA30033CC33CB3350147004ED30E00ED2F1E474
:101FB300CD3DCDCC3CCC3B5005DA05C2F1EB547F93
:101FC300C63308E63392F0FBE73309E733C39A508D
:101FD3002D2B70190C0D4C4D70151806E608C333E4
:101FE300700D20F10AA2F013F6E418800B4024E4EC
:101FF300F630F002768018F618F618F68024D33BF4
:1020030014501074FFA2F013F6187680E418F61833
:10201300F6800FA2F013F618E63303F618ECF61861
:10202300EDF6D0E0FDD0E0FCD0E0FBD0E0FA2212E8
:102033001DDC6046121DCD603DE9687008F618F698
:1020430018F618F622748067F712206609090974D6
:102053008067F722121DCD601D121DDC7005191952
:1020630019801A121DA5701F121DB9C37003E667EC
:102073003319191940071818182208080874FFF6AD
:1020830018F618F618F622121DB96017121D9C7067
:102093002192F0121D937019501720F014080808AC
:1020A300090909E7F61819E7F61819E7F61819E701
:1020B300F622121D9360E6E869701F0808E6248083
:1020C300F608E436F618547FB47F0CE654806007B4
:1020D300F6E418F618F622181822E9C6CC08C6CD7D
:1020E30008C6CE08C6CFC0E0E8C0E0EAC0E0EBC057
:1020F300E009E9F809E7FA09E7FBE6F918E6F8C3A6
:10210300EC98ED99EE9AEBC2E7F5F0EFC2E795F0A4
:10211300500E600CEBCFFBEACEFAE9CDF9E8CCF830
:10212300EAA2E7D2E7FAEB33FB13F5F0EEA2E7D22C
:10213300E7FEEF33FFC5F013A2E730E601B313C5A3
:10214300F0C3C0E0C0F07F00C39BFB605E941860E7
:102153000F401D14601AD0E023F9D0E0F8022238B2
:102163008AF0E9486003D2F0E4AFF0FAF9F8803B73
:10217300EB30E40D89F0EA6003D2F0E4AFF0F9CA82
:10218300F8EB30E30D88F0EF6002D2F0AFF0E4CA71
:10219300C9F8EB54076014FBC3EA13FAE913F9E82F
:1021A30013F8EF135002D2E0FFDBEDD0E0C0E030D4
:1021B300E739C3E49FFFF5F0EC98FC42F0ED99FD9D
:1021C30042F0EE9AFE42F0D0E0F9D0E0F8E5F0609C
:1021D3007AE923F9EE20E742D8028067C3EF33FFA1
:1021E300EC33FCED33FDEE33FE80EAEC28FCED39F5
:1021F300FDEE3AFED0E023F9D0E0F84002801BC3A5
:10220300EE13FEED13FDEC13FCEF135002D2E0FFCF
:1022130008B800067F7F74FF802EEF3350178CF0D1
:1022230020F00260100CBC000C0DBD00080EBE00B7
:102233000408E860DFE933E813FFEE2313FE4F4D94
:102243004C8008E95480FFE4FEFDFCEE33EF33F4E9
:102253007004FCFD7E80D0E0FBD0E0FAD0E0F8D043
:10226300E0CFC618CEC618CDC618CCC6F922121DAB
:10227300CD700418181822121DDC700D74FFF618A7
:1022830019F61819F61819F622E7548066F6121D86
:1022930093700F121D9C70F014F608F608F608F6FA
:1022A30080D1121D9C700CF608F608768008E6446F
:1022B3007F80EC121DBC700C121DA860BFE6548019
:1022C300F6E480BB121DA8700519191980A5E869E9
:1022D300700C763F18768018F618F6E8F922E6CDEA
:1022E300C0E018ECC0E0E633CD33CDD313F6E719E5
:1022F300FCE7191933CC33C3947F400ECD9D502492
:1023030008E65480F6E418F6800FF4043D145014E4
:1023130008E6447FF6187680E418F618F6D0E0FC59
:10232300D0E0FD22CCD313CCFD18E4C6CBC0E0181B
:10233300E4C6CAC0E00808ED08C633E613F618E49D
:1023430033C675F003C3CA97CA09CB97CB199C4010
:10235300047D08802EBD000302241A16B6FF05066D
:1023630006081618C3CA33CACB33CB33CA27CA09E4
:10237300CB37CB193CC37D08803E187D0820E75C32
:10238300C633C6CA33CACB33CB33DDF1D5F0EB301A
:10239300E77BCA97CA09CB974ACB199C406F4B700E
:1023A30025E620E0218066187D08C3CA97CA09CBB9
:1023B30097CB199CD3C633C6CA33CACB33CB33505E
:1023C300C9DDE7D5F0E1D3E4C636C608C636C6088C
:1023D300C636C608C636C61818188031C3CA97CA87
:1023E30009CB97CB199CB34097C633C6CA33CACB24
:1023F30033CB33DD34D5F02EC6A2E0C640C8CA279E
:10240300CA09CB37194A70BECB3CB480B90808E679
:102413003308E633601F181818D0E0FAD0E0FBD079
:10242300E0FCD0E0FD22187D08CA27CA09CB37CBD0
:10243300193CD3808013F618E4B67F11F618B6FF63
:102443000EF618C60470D20808768080CAF618F60D
:1024530018F680C5080808EAC0E0EBC0E086F0E79C
:10246300A4FA180986F0E7A42AFA180986F0E7A463
:102473002AFA180986F0E7A42AFA1986F0E7A4FBDA
:10248300E5F02AFA190886F0E7A42BFBE5F03AFAFF
:10249300190886F0E7A42BFBE5F03AFA1818098629
:1024A300F0E7A4C5F02BFBE43AFA1908E7C5F0C638
:1024B300A426F6E5F03BFBE43AFA1886F0E7A4F627
:1024C300E5F00826F6E43B08F6E43A08F6D0E0FB2C
:1024D300D0E0FA22E4CFC0E0E4CEC0E0E4CDC0E037
:1024E300E4CCC0E075F020E626F608E633F608E60D
:1024F30033F608E633F6181818EC33FCED33FDEE2B
:1025030033FEEF33FFC3EC9709ED9709EE9709EF1D
:1025130097191919400FFFEC97FC09ED97FD09EE88
:1025230097FE191906D5F0BFECF709EDF709EEF799
:1025330009EFF7191919D0E0FCD0E0FDD0E0FED087
:10254300E0FF22181818E4C396F608E496F608E4A8
:1025530096F608E496F6226016080808C6C313C662
:1025630018C613C618C613C618C613C6D5E0EA2282
:102573007009080808226016181818C6C333C6085D
:10258300C633C608C633C608C633C6D5E0EA22E654
:1025930027F60809E637F60809E637F60809E637A5
:1025A300F622E026F608A3E036F608A3E036F6089E
:1025B300A3E036F622E026F008A3E036F008A3E015
:1025C30036F008A3E036F022C3E697F60809E6974B
:1025D300F60809E697F60809E697F622C3E096F0AF
:1025E30008A3E096F008A3E096F008A3E096F02293
:1025F300E657F60809E657F60809E657F60809E626
:1026030057F622E056F608A3E056F608A3E056F67E
:1026130008A3E056F622E056F008A3E056F008A31C
:10262300E056F008A3E056F022E066F608A3E06661
:10263300F608A3E066F608A3E066F622E0F608A330
:10264300E0F608A3E0F608A3E0F622E6F008A3E626
:10265300F008A3E6F008A3E6F022E0FAA3E0FBA368
:10266300E0FCA3E0FD22EAF0A3EBF0A3ECF0A3ED82
:10267300F022E0F8A3E0F9A3E0FAA3E0FB22E8F0FC
:10268300A3E9F0A3EAF0A3EBF022CAC0E0E6F0A3CB
:1026930008DAFAD0E0FA22CAC0E0E0A3C582CCC5CA
:1026A30082C583CDC583F0A3C582CCC582C583CD46
:1026B300C583DAE6D0E0CA22C3E498F8E499F912B4
:1026C30026FC8026C3E49AFAE49BFBE920E7E9129F
:1026D30026FCE498F8E499F922C3E498F8E499F91C
:1026E3001226FCE498F8E499F9C3E49AFAE49BFB14
:1026F30022EB20E7CFE920E7E0B90010BB0008E8B0
:102703008AF084F8AAF022E4FBC8FA22EB70227B59
:1027130010C833C8C933C9335007C39AC3DBF28027
:10272300069A50012ADBEAC833F4C8C933F4C9FA5C
:102733002275F008E4C833C8C933C933C99AC99BA1
:102743005004C92AC93BD5F0ECFBC833F4C8E4C92B
:10275300FA22600D08C6A2E713C618C613C6D5E051
:10276300F322600C08C6C313C618C613C6D5E0F41B
:1027730022700422600D18C6C333C608C633C6D5FB
:10278300E0F41822251810AF08F518400C1519802D
:1027930008F51840021519D2AF2200C0D025181031
:1027A300AF08F518500C05198008F51850020519E3
:1027B300D2AFD0D0222518F58210AF08F518400CFF
:1027C30015198008F51840021519D2AF851983220F
:1027D3002518F582E43519F583222518F8E435190F
:1027E300F9222518FAE43519FB222518FCE43519DA
:1027F300FD22E4732518C582C0E0E51934FFC583C3
:10280300C0E0E518C3958224F810AF0885831985C5
:1028130082188008858319858218D2AFCEF0A3E58C
:1028230020F0A37808E608F0A3DEFAEFF0A3E58131
:1028330024FAF8E608F0A3E608F0A3E608F0A308F4
:1028430008E608F0A3E608F0A315811581D0E0FEA1
:10285300D0E0F8158115811581E8C0E0EEC0E022D3
:102863002518C582C0E0E51934FFC583C0E0E5182B
:10287300C3958224F910AF088583198582188008CF
:10288300858319858218D2AFCEF0A3E520F0A37813
:1028930008E608F0A3DEFAEFF0A3E58124FBF8E6EF
:1028A30008F0A3E608F0A30808E608F0A3E608F09A
:1028B300A315811581D0E0FED0E0F815811581E8DC
:1028C300C0E0EEC0E022851983851882E0A3FEE014
:1028D300A3F5207808E0A3F608DFFAE0A3FFE0A35E
:1028E300C0E0E0A3C0E0E0A3C0E0E0A3C0E0E0A359
:1028F300C0E010AF08858218858319800885821887
:10290300858319D2AFD083D08202013285198385A2
:102913001882E0A3FEE0A3F5207808E0A3F608DF21
:10292300FAE0A3FFE0A3C0E0E0A3C0E0E0A3C0E0BF
:10293300E0A3C0E010AF088582188583198008855D
:102943008218858319D2AFD083D08222C0D02518B4
:10295300C582C0E0E51934FFC583C0E0E518C3951F
:102963008224F310AF088583198582188008858334
:1029730019858218D2AFC8F0A3E9F0A3EAF0A3EB5C
:10298300F0A37908E709F0A3D8FAECF0A3EDF0A3DC
:10299300EEF0A3EFF0A3D0E0F0A3D0E0F0A3D0E0FB
:1029A300F0A3E520F0A3E5F0F0A3228519838518B1
:1029B30082E0C0E0A3E0F9A3E0FAA3E0FBA3780878
:1029C300E0F608A3DFFAE0FCA3E0FDA3E0FEA3E04A
:1029D300FFA3E0C0E0A3E0C0E0A3E0F5D0A3E0F5EF
:1029E30020A3E0A3F5F010AF088583198582188032
:1029F30008858319858218D2AFD082D083D0E0F8BE
:102A0300D0E03274048006740280027401C0E0F4E2
:102A1300041227B8D0E012268D22740480047402B5
:102A23008000CCC0E0EDC0E0E518C39CCCAD1950EC
:102A3300011D10AF068C188D1980068C188D19D2C4
:102A4300AF12269AD0E0FDD0E0FC22D083D082E9F9
:102A5300C0E0E493A3C386F0C5F095F0F908E493CE
:102A6300A386F0C5F095F0700BE493A3C3994005DA
:102A7300E9048002A3E475F002A42582F582E5F05F
:102A83003583F583D0E0F9E493A3C0E0E493C0E099
:102A930022D083D082ECC0E0EDC0E0E493A3FCE459
:102AA30093A3FDED4C600D122AE0EC24FFFCED3402
:102AB300FFFD80EFE493A3FCE493A3FDED4C600DD5
:102AC300122B1FEC24FFFCED34FFFD80EFD0E0FD63
:102AD300D0E0FCE493A3C0E0E493C0E022C0E0C3F1
:102AE300E49396087401939618400FE49366700874
:102AF30008740193661870007019A3A3C3E4939636
:102B0300087401939618A3A3400DD0E0D0E0D0E061
:102B1300022AD0A3A3A3A3A3A3D0E022C0E0C0F0C2
:102B230088F0E4936670080874019366187000A82F
:102B3300F0A3A3700BD0F0D0E0D0E0D0E0022AD015
:072B4300A3A3D0F0D0E022B3
:102B4C0074F6122863EAFEEBFF8C088D09EE243430
:102B5C00F8E43FF9E8FCE9FD122C7EE0FAEE2437AC
:102B6C00F582E43FF583E0F88508F0A4C885F00A07
:102B7C008509F0A4250AF9EA28F8E439F97A257BC5
:102B8C00001226FCEA8C828D83F0FA131313541F67
:102B9C00F8EE28F8E43FF9E8245DF582E439F58392
:102BAC00E0C0E074075AF8D0E0B800028004C31308
:102BBC00D8FCA2E05003EA8020EE2436F582E43FF4
:102BCC00F583E0F5F0EA84A8F0EE28F8E43FF9E8A4
:102BDC002438F582E439F583E0F97F0302290F7478
:102BEC00F5122863EAFEEBFFEE2434F582E43FF5A0
:102BFC0083E0C0E0122C7ED0E0F08E828F83A3A302
:102C0C00A3A3A3E0FAA3E0FB8E828F83A3A3A3A3C9
:102C1C00A3A3A3E0C39AF508A3E09BF509EE247FD8
:102C2C00F8E43FF9880A890B8882F583E064017027
:102C3C002CEE2480F582E43FF583EA2401F8E43B92
:102C4C00F9E0687003A3E06970137C1A7D08EEFA52
:102C5C00EFFB121018850A82850B83E4F0AC08ADEB
:102C6C0009EEFAEFFB122B4CE9F91237697F0402DB
:102C7C00290FEE2435F582E43FF58322C082C08310
:102C8C00851882851983E0F8A3E0F9C3EA9CEB9DD3
:102C9C005010C3EC98ED99401BC3EA98EB99501473
:102CAC00800EC3EA98EB994007C3EC98ED99400469
:102CBC00790180027900D083D08222EAC39CFAEB9E
:102CCC009DFB2274ED1228639004C3E06408600538
:102CDC00E06407702C9061C8E060269004F1E0F885
:102CEC0074FF68601CE875F00DA4C8AAF02AF9748A
:102CFC00F328FE740439FF8E828F83A3A3A3E070A4
:102D0C00057900022E71EE2468F50EE43FF50F9064
:102D1C006060E0850E82850F83F07510B475110824
:102D2C00750800750900E5D914F50AE5D95403F5C1
:102D3C000B601FEE2483F50CE43FF50D7403650B5B
:102D4C006059E50A6017EE2467F582E43FF583E0ED
:102D5C00700B793DEEFAEFFB12104880A49008AF8F
:102D6C00E064016023850C82850D83E060047A04A5
:102D7C0080027A00E50AC39AFA95E0FB120DFC8AF0
:102D8C00088B09EA45097006121342022D0D850CB9
:102D9C0082850D83E070048A108B117A008014E513
:102DAC00D9C0E0EAF8E51028F582E43511F583D0B6
:102DBC00E0F00AEAC3950A40E6850C82850D83E0B3
:102DCC00602874FC250AF50A7810122A0AAC0AA9A4
:102DDC000BEEFAEFFB121102740212279DE9700A36
:102DEC00AA08AB091218CA022D5E7403650B605455
:102DFC00850A0C750D00780C122A0AAC10AD11AABC
:102E0C0008AB091210C6740212279D850E82850F1D
:102E1C0083E0F87480687005750C7F8002880CE57F
:102E2C000CF50D780D122A0E780B122A0EA90AAC8D
:102E3C0008AD099004F1E0FA7B00120C1C7402122C
:102E4C00279D801C9004C3E06408AC10AD11700980
:102E5C00EEFAEFFB1211328007EEFAEFFB1211ECD7
:102E6C0012134E79017F0C02290F74F3122863742C
:102E7C00FC122787EAFEEBFF8909A2AFE433F508C1
:102E8C00C2AFEE2463F50AE43FF50B8010AA0AAB3F
:102E9C000B12107E1218CA900821E004F0850A82E9
:102EAC00850B83E0F8A3E0F9E849602DE82402FAE9
:102EBC00E439FBEA2402F50CE43BF50D780C122AFC
:102ECC000A8A828B83E0FCA3E0F9EEFAEFFB121086
:102EDC0072740212279DE960B4900821E0604D9055
:102EEC000822E0F8900821E0C398500C74026509A0
:102EFC00703A900823E060348E828F83A3A3A3A33F
:102F0C00E0851882851983122F4874021227D3E8A2
:102F1C00122F48900820E028F074021227EDAA180E
:102F2C00AB197901120C7C900821E4F0E508A2E0C1
:102F3C0092AF740412279D7F0602290FF0A3E4F0D0
:102F4C00900821E0F82200008521878522C622C046
:102F5C00E074EB12294FA2AFE433F508C2AF759BB6
:102F6C0000906182E0A2E05030E591A2E0502A7519
:102F7C0091FE7401652170211230EE12124612304E
:102F8C00DC122A1D123513740412279DE96401709A
:102F9C000579011212A0122CCF906182E0A2E550AB
:102FAC005DE591A2E550577591DF9004C3E064078D
:102FBC006005E06408702F1230EE74016521703EDC
:102FCC001212461230DC122A1D1235137404122709
:102FDC009DE96401700579011212A07901EEFAEFF6
:102FEC00FB122E768018E0640D70139004E5E0045B
:102FFC00F064287002E4F07A00E0F9121354906146
:10300C0082E0A2E640030230B1E591A2E640030261
:10301C0030B17591BF9004C3E06405700812122E94
:10302C0012123A80031212347521001212BEE9906A
:10303C0004C4F079001212A0120F3A7A017B0090AE
:10304C0004C2E0F912189A907803E064427056902A
:10305C0008B3E014F0704EC2AF12306800782AD07A
:10306C00E0F618D0E0F6E59F5407F87005750DFFF3
:10307C008003750D7FC4C0E07829E6F50A08E65593
:10308C000DF50B740B780A122765D0E0250AF89021
:10309C006270E0A2E740F8E8C333906272F090628D
:1030AC0070E0D2E0F0906181E0A2E35009E5E9A282
:1030BC00E3500375E9F7A3E0A2E75009E591A2E715
:1030CC00500375917FE508A2E092AF7F080229AE0C
:1030DC008E828F83E0F8A3E0C82416F582E438F5DD
:1030EC0083229004F1E0F875F00DA4C8AAF02AF937
:1030FC0074F328FE740439FF22C0E0C0D0C082C033
:10310C0083906183E0A2E05009E5BFA2E050037513
:10311C00BFFEE0A2E15009E5BFA2E1500375BFFD7F
:10312C00E0A2E25009E5BFA2E2500375BFFBE0A2AA
:10313C00E35009E5BFA2E3500375BFF7E0A2E450EA
:10314C0009E5BFA2E4500375BFEFE0A2E55009E525
:10315C00BFA2E5500375BFDFE0A2E65009E5BFA2B0
:10316C00E6500375BFBFD083D082D0D0D0E032C040
:10317C00E074F212294FE5A7A2E4500FE5A1A2E4F6
:10318C00500953A7EF75A1EF1231CFE5A7A2E55077
:10319C000CE5A1A2E5500653A7DF75A1DFE5A7A2B8
:1031AC00E15009E5A1A2E1500375A1FDE5A7A2E25A
:1031BC00500CE5A1A2E2500653A7FB75A1FB7F01C1
:1031CC000229AE74F81228637521019004C3E064DF
:1031DC000670077A007B00121216A2AFE433FED2FF
:1031EC00AF9004C9E0640170187A207B009004C28F
:1031FC00E0F91219DE7A207B009004C2E0F9121873
:10320C00A0906182E0D2E6F09008B0E0602185C623
:10321C002280169004C8E064017008E5C654F84496
:10322C0005F5C653BEFC122F547401652160E4EE03
:10323C00A2E092AF7F0102290F0000008E238F24A1
:10324C00858228858327851882851983E0CEA3E0A3
:10325C00CF852882852783EBC9EAC8EDCBECCA75EC
:10326C00F010C3E833C8E933C9EA33CAEB33CBC334
:10327C00EA9EF526EB9FF525B35004AB25AA26EC68
:10328C0033CCED33CDD5F0DAAE23AF242274E91272
:10329C00286374FA122787EAFEEBFF8C088D09125B
:1032AC001258EAF8EBF9ECFAEDFB8E828F831226BA
:1032BC00819004C3E024F7C39405500675100102F5
:1032CC0033D012118C8A0A8B0BEA450B7003023334
:1032DC00CD12124C8A0C8B0D12124CEA650C700339
:1032EC00EB650D60ECEEFCEFFDAA18AB1912125257
:1032FC00850A82850B83A3A3780C12263F9095B385
:10330C00780C122606851882851983781412263FAC
:10331C009095B37814122606780C7914121C4D5023
:10332C001F780C79141225CB90962B780C121C6DEF
:10333C004047850C10850D11850E12850F138045A5
:10334C0090962B85141085151185161285171378F8
:10335C0010790C1225CB7810121C6D501C751000B6
:10336C00751100751200751301781079141225CBA4
:10337C007810790C122592800C751001751100755E
:10338C0012007513007409781012257390958B78C0
:10339C000C12263F7810790C1224D79004C3E064E9
:1033AC0008600AE064066005E0640570209095935F
:1033BC007810121C6D501690962778101225A58047
:1033CC000C751000751100751200751300850882BC
:1033DC00850983781012264E740612279D7F1002E1
:1033EC00290F74F712286312126A9008AEE0640178
:1033FC007010906245E4F0A3F053F4F343FE0C53C9
:10340C0090F3121204E5C654B84441F5C6E59E5437
:10341C0047644170F8906185740FF09008ACE0F44B
:10342C007002A3E0602C7508017509009008ACE0EF
:10343C007808122774E508F4FAA3E0600814600A0F
:10344C0014600C800DEA52808008EA52908003EAE6
:10345C0052A079007F0202290F74F7122863E9FE4B
:10346C00EAFF74016E700C7A807B009004C2E0F964
:10347C0012189A9037F8E493F46008E493F9120F59
:10348C001C800953C6B8E59E544770FA12120A9074
:10349C0008AEE064017003120F529008ACE0F470B7
:1034AC0002A3E0602B7508017509009008ACE07868
:1034BC0008122774E508FAA3E0600814600A146087
:1034CC000C800DEA42808008EA42908003EA42A018
:1034DC0012118C8A088B09A808A909E8496016E51D
:1034EC00E170FCE82414F582E439F583E0F874FF0C
:1034FC0068600288E174016F700A7A019004C2E07E
:10350C00F912193C02346074F11228638A088B0991
:10351C008C0A8D0B9095B37808122606740F12271F
:10352C00D3780C12263F9095B3780C1226067808A7
:10353C00790C121C4D90962B50107808790C122592
:10354C00CB7808121C6D4014800E780C790812256B
:10355C00CB780C121C6D50047901800279007F0825
:10356C0002290F74ED1228638A088B098C0A8D0BC3
:10357C009095B3780812260674131227D3780C1280
:10358C00263F9095B3780C122606780C7908121CFD
:10359C004D40117808790C1225CBAA08AB09AC0A5E
:1035AC00AD0B80227510007511007512007513019A
:1035BC007810790C1225CB78107908122592AA1064
:1035CC00AB11AC12AD137F0C02290F9095B3780898
:1035DC0012263F8A828B8378081226197F040229CF
:1035EC000F74F51228638C828D83780812263F8A1B
:1035FC00828B8378081225DF123641C3E098F0A342
:10360C00E099123633401E9095BB780812263F8AFB
:10361C00828B8378081225B88E828F83E02420F069
:10362C00A3E0344EF080A4F08E828F83C3E094200C
:10363C00A3E0944E22EA2404F8E43BF9E8FEE9FF07
:10364C008C828D83A3A3A3A3E0F8A3E0F98E828FD1
:10365C00832274F5122863E9FE90083CE0FAA3E09B
:10366C00FBEE29F8E433F9749828F582749139F556
:10367C0083E02AF508A3E03BF5097808122A0A90A2
:10368C0095D712265D123248740212279D8A088B38
:10369C00098C0A8D0B7410780812255AAA08AB09EC
:1036AC007F0402290F74F11228638A0C8B0D8C0E87
:1036BC008D0F74111227D3122A2174111227D3E003
:1036CC002401F508A3E03400F509E4F50AF50B78BC
:1036DC000C7908122457909623780812263F780C00
:1036EC007908122457AA0CAB0DAC0EAD0F12324850
:1036FC00740212279D8B09EA450960047A01800245
:10370C007A00EC2AFCE43DFD74131227D3E0F8A3F5
:10371C00E0F9E8FEE9FFECF8EDF97A717B0212268C
:10372C00FC88088909E4F50AF50B8E828F837808EA
:10373C0012264EECF8EDF97A717B021226FC8A08FF
:10374C008B09740578081227748E828F83A3A3A328
:10375C00A3E508F0A3E509F07F0802290FC082C099
:10376C0083E9906000F0D083D08222C0E074F21222
:10377C00294FA2AFE433FED2AFE589A2E14006E5C2
:10378C0089A2E2500312178C758900758900C2C595
:10379C00751A00EEA2E092AF7F010229AEC0E07470
:1037AC00F212294FA2AFE433FED2AFE58BA2E05068
:1037BC000312178C758B00C2E8751A00EEA2E0920A
:1037CC00AF7F010229AEC0E0C0D0E8C0E0A2AFE4F8
:1037DC0033F8D2AFC2C7751A00E8A2E092AFD0E0BE
:1037EC00F8D0D0D0E032C2AF02000022FFFFFFFFC2
:1037FC00FFFFFFFFEAF8EBF9E824FFFAE934FFFBDF
:10380C00E84960217800790078DC7905C3E89401F7
:10381C00E99400A2D265D03340DA00E824FFF8E93D
:10382C0034FFF980E702013274F71227F789087820
:10383C0000800108E8C395085022E8FE7F00EA2EBC
:10384C00F582EB3FF583E0F9E8FE7F00EC2EF58284
:10385C00ED3FF583E06960DB7900800279017F013F
:10386C000228C974F01227F7E9FE7C007508007570
:10387C000900750A00750B00803A909643780C127B
:10388C00263F7808790C122457ECF87900EA28F5D1
:10389C0082EB39F583E0F87900E824D0F50CE934B3
:1038AC00FFF50DE50D3395E0F50EF50F7808790C65
:1038BC001225920CECC39E500FECF87900EA28F517
:1038CC0082EB39F583E070B2AA08AB09AC0AAD0BF8
:1038DC007F080228C974F71227F774EF1227879014
:1038EC009126AC18AD19741112269A786B79188838
:1038FC008289837430F088828983A3A882A9838803
:10390C008289837478F088828983A3A882A983EA48
:10391C002406FA50010B7E06806AEA24FFFAEB3487
:10392C00FFFB8A828B83E0C4540FFC7D00851882D8
:10393C00851983E5822CF582E5833DF583E0C0E0B3
:10394C0088828983D0E0F088828983A3A882A983A6
:10395C008A828B83E0FC7D00EC540FFCED5400FD5F
:10396C00851882851983E5822CF582E5833DF583E4
:10397C00E0C0E088828983D0E0F088828983A3A8A4
:10398C0082A9831EEE7093888289837400F07A6B0F
:10399C007B18741112279D7F010228C9C082C08335
:1039AC007CB37D177AB679801219A8E9D083D082BE
:1039BC0002013274F71227F7E9FEEE6003023A5A5D
:1039CC009017B37404F09017B47400F09017B5749A
:1039DC0000F09017B67400F07C277D947AB77B17B3
:1039EC00121BFA9017C37400F07C187D957AC47B77
:1039FC0017121BFA9017CB7400F07C0D7D00790028
:103A0C007ACC7B171218589017E67400F09017E7D1
:103A1C007400F07C787D0079007AE97B17121858D5
:103A2C009018617400F0A37400F09018637400F0A7
:103A3C009018647400F09018657400F09018667417
:103A4C00F4F0A37401F09018687400F0802B7401EA
:103A5C006E70267C0D7D0079007ACC7B171218587D
:103A6C009017E67400F09017E77400F07C787D00F6
:103A7C0079007AE97B171218587C007D0079007A5E
:103A8C00097B04121600E9121A627F010228C9741C
:103A9C00F41227F774D31227879017B3E0F5087543
:103AAC0009007808122A0A7C9E7D8E74021227E582
:103ABC00121BFA740212279DAA18AB1912183A8A13
:103ACC00088B09AC08AD09AA18AB1912180A7A644C
:103ADC007B00121A4A9017B4E0F5087509007808B3
:103AEC00122A0A7C3C7D8F74021227E5121BFA7491
:103AFC000212279DAA18AB1912183A8A088B09AC26
:103B0C0008AD09AA18AB1912180A7A647B00121AAC
:103B1C004A9017B5E0F5087509007808122A0A7C56
:103B2C00EF7D8E74021227E5121BFA740212279D88
:103B3C00AA18AB1912183A8A088B09AC08AD09AA55
:103B4C0018AB1912180A7A647B00121A4A9017B62D
:103B5C00E0F5087509007808122A0A7C407D9074FB
:103B6C00021227E5121BFA740212279DAA18AB1930
:103B7C0012183A8A088B09AC08AD09AA18AB1912AD
:103B8C00180A7A647B00121A4A7508B775091778F7
:103B9C0008122A0A7CCD7D8F74021227E5121BFABB
:103BAC00740212279DAA18AB1912183A8A088B09AD
:103BBC00AC08AD09AA18AB1912180A7A647B00126A
:103BCC001A4A9017C3E0F5087509007808122A0AFA
:103BDC007CFB7D8F74021227E5121BFA74021227EC
:103BEC009DAA18AB1912183A8A088B09AC08AD09B2
:103BFC00AA18AB1912180A7A647B00121A4A7508B3
:103C0C00C47509177808122A0A7C297D907402124F
:103C1C0027E5121BFA740212279DAA18AB19121869
:103C2C003A8A088B09AC08AD09AA18AB1912180A04
:103C3C007A647B00121A4A9017CBE0F508750900DC
:103C4C007808122A0A7C127D9074021227E5121B46
:103C5C00FA740212279DAA18AB1912183A8A088B0B
:103C6C0009AC08AD09AA18AB1912180A7A647B00C2
:103C7C00121A4A7508CC7509177808122A0A7CB9E9
:103C8C007D8E74021227E5121BFA740212279DAA6C
:103C9C0018AB1912183A8A088B09AC08AD09AA1886
:103CAC00AB1912180A7A647B00121A4A750800754F
:103CBC000900023D509092B174201227ED740D1240
:103CCC00269A750A0C750B00780A122A0AA808A9FC
:103CDC0009E875F00CA4C8AAF075F000A42AFA75CE
:103CEC00F00CE9A42AF974E928FC741739FD742244
:103CFC001227E5121840740212279D74201227DD3A
:103D0C00880A890B780A122A0A7808122A0A7C2255
:103D1C007D9374041227E5121BFA740412279DAAD2
:103D2C0018AB1912183A8A0A8B0BAC0AAD0BAA18ED
:103D3C00AB1912180A7AC87B00121A4A0508E50852
:103D4C00700205099017E6E0F87900C3E50898E5DC
:103D5C000999A2D265D0335003023CC1901861126C
:103D6C002A217C587D8E74021227E5121BFA7402EC
:103D7C0012279DAA18AB1912183A8A088B09AC089D
:103D8C00AD09AA18AB1912180A7A647B00121A4AE8
:103D9C00901863E0F5083395E0F5097808122A0AC3
:103DAC007CE47D8F74021227E5121BFA7402122731
:103DBC009DAA18AB1912183A8A088B09AC08AD09E0
:103DCC00AA18AB1912180A7A647B00121A4A9018B6
:103DDC0065E0F5087509007808122A0A7C097D8FC0
:103DEC0074021227E5121BFA740212279DAA18AB53
:103DFC001912183A8A088B09AC08AD09AA18AB1924
:103E0C0012180A7A647B00121A4A901866122A2138
:103E1C007C2E7D8E74021227E5121BFA7402122777
:103E2C009DAA18AB1912183A8A088B09AC08AD096F
:103E3C00AA18AB1912180A7A647B00121A4A901845
:103E4C0068E0F5087509007808122A0A7CD47D8E82
:103E5C0074021227E5121BFA740212279DAA18ABE2
:103E6C001912183A8A088B09AC08AD09AA18AB19B3
:103E7C0012180A7A647B00121A4A742D12279D7F3D
:103E8C00040228C9C082C0839017C3E0F9D083D044
:103E9C0082020132C082C083121A74E9640170106C
:103EAC009018E1E064027004790180127900800EB0
:103EBC009018ECE064067004790180027900D083DC
:103ECC00D08202013274F41227F774F4122787EAB5
:103EDC00FEEBFF121A74E964016003023F9A750845
:103EEC0000800205089017E6E0F8E508C398503307
:103EFC00AA18AB19A908121A86E96027750A0C755D
:103F0C000B00780A122A0AEEFCEFFD74021227E568
:103F1C00121852740212279DE960C8E5089017E840
:103F2C00F0806B75080C7509007808122A0AEEFCF3
:103F3C00EFFD9017E7E0F87900E875F00CA4C8AA3B
:103F4C00F075F000A42AFA75F00CE9A42AF974E9CA
:103F5C0028FA741739FB121840740212279D901717
:103F6C00E7E09017E8F09017E7E02401F09017E7EE
:103F7C00E075F00A84E5F09017E7F09017E6E0C3DF
:103F8C00940A50079017E6E02401F0121A62740CA0
:103F9C0012279D7F040228C974F41227F78908EAB6
:103FAC00FEEBFF121A74E9640170489017E6E0F812
:103FBC00E508C398503D750A0C750B00780A122A57
:103FCC000AE508F87900E875F00CA4C8AAF075F0B9
:103FDC0000A42AFA75F00CE9A42AF974E928FC74F7
:103FEC001739FDEEFAEFFB121840740212279D7977
:103FFC0001800279007F040228C902013274EC129C
:10400C0027F77E31750C00750D00750E40750F404D
:10401C00121BB88A088B09A808A909EEFA7B00E8DC
:10402C00C39AF508E99BF509E5093395E0F50AF51E
:10403C000B7808121C8C909647781012263F780C3F
:10404C007910121EB27808790C1222717808122A93
:10405C000690964712265D121BEE740412279D7F64
:10406C000C0228C974F51227F7780079007C007DC2
:10407C00007E007F007508E8750903901884E064E1
:10408C00056003024211901885E0F8A3E0F9E87589
:10409C00F002A4C885F00A75F000A4250AF50A758B
:1040AC00F002E9A4250AF9747A28F582741839F516
:1040BC0083EAF0A3EBF0901885E02401F0A3E03440
:1040CC0000F0901885E0F8A3E0F97A057B00122641
:1040DC00F4901885EAF0A3EBF0780079000241E344
:1040EC00E8FAE9FBEA75F002A4CA85F00A75F0005B
:1040FC00A4250AF50A75F002EBA4250AFB747A2AAA
:10410C00F58274183BF583E0FAA3E0FBC3EE9AEF5B
:10411C009BA2D265D0335028E8FAE9FBEA75F0028D
:10412C00A4CAAEF075F000A42EFE75F002EBA42E1E
:10413C00FB747A2AF58274183BF583E0FEA3E0FF4A
:10414C00E8FAE9FBEA75F002A4CA85F00A75F000FA
:10415C00A4250AF50A75F002EBA4250AFB747A2A49
:10416C00F58274183BF583C3E09508A3E09509A28A
:10417C00D265D033502EE8FAE9FBEA75F002A4CAF6
:10418C0085F00875F000A42508F50875F002EBA47D
:10419C002508FB747A2AF58274183BF583E0F50840
:1041AC00A3E0F509E8FAE9FBEA75F002A4CA85F088
:1041BC000A75F000A4250AF50A75F002EBA4250A8D
:1041CC00FB747A2AF58274183BF583E02CFCA3E08F
:1041DC003DFD08E8700109C3E89405E99400A2D2FA
:1041EC0065D03350030240ECECC39EF8ED9FF9E828
:1041FC00C39508F8E99509F97A037B001226F4E8CF
:10420C00FAE9FB8036901884E0F87900E875F00242
:10421C00A4C8ACF075F000A42CFC75F002E9A42C39
:10422C00F9747A28F582741839F583EAF0A3EBF067
:10423C00901884E02401F07A007B007F030228C9E7
:10424C0074F01227F774E0122787E9FEEE901863DA
:10425C00F0121A7AE970030242F9EEFA3395E0FB98
:10426C00121A928A088B098C0A8D0B90964B780C3B
:10427C0012263F7808790C121EB27808121D04AA77
:10428C0008AB09121A988A088B097808122A0AEEC8
:10429C00F404F5087509007808122A0A7C377D9118
:1042AC0074041227E5121BFA740412279D901869E6
:1042BC00E0603AAA18AB19121C0C8A088B09AC08DE
:1042CC00AD09AA18AB1912180AAA18AB19121C0CB2
:1042DC008A088B09AC08AD09AA18AB1912055CE960
:1042EC007A107B009018ACE0F912189AE97420123D
:1042FC00279D7F080228C974F61227F774E8122745
:10430C0087908F55AC18AD19741812269A7508C47D
:10431C007509177808122A0A7C1F7D9274021227DD
:10432C00E5121BFA740212279DAA18AB1912183A3F
:10433C008A088B09AC08AD09AA18AB1912180A74B3
:10434C001812279D7F020228C97AB77B1702013207
:10435C00C082C083121AE0D083D082020132C082A4
:10436C00C0839017CBE0F9D083D08202013274F075
:10437C001227F779067AC47B17121A568A0C8B0D02
:10438C008C0E8D0F850C08850D09850E0A850F0B7B
:10439C009095D7780C12263F7808790C1224D7AA5E
:1043AC000CAB0DAC0EAD0F7F080228C9C082C083C8
:1043BC009017B6E064027004790180027900D08312
:1043CC00D082020132C082C0839017B6E0700479AB
:1043DC000180027900D083D08202013274F6122758
:1043EC00F790186AE0640370047900807690186A7C
:1043FC00E06401600890186AE0640470419017E66C
:10440C00E0605E75080C7509007808122A0A90178E
:10441C00E8E0F87900E875F00CA4C8ACF075F00091
:10442C00A42CFC75F00CE9A42CF974E928FC741785
:10443C0039FD121840740212279D790180259018BD
:10444C006AE06402701B75080C7509007808122A62
:10445C000A7CD97D17121840740212279D790180AD
:10446C000279007F020228C974F61227F7901866A9
:10447C00E0F508A3E0F509AA08AB09E4FCFD7F020E
:10448C000228C974E91227F774B9122787EAFEEBE0
:10449C00FF8C088D0975140175150074046508707E
:1044AC000474006509703479047C727D95EEFAEF22
:1044BC00FB121A50E960247C7C7D95AA18AB19126A
:1044CC001BFAAA18AB1912183A8A088B09AC08AD5A
:1044DC0009AA18AB1912180A02549C7408650870C2
:1044EC000474006509701679087C547D94EEFAEF1B
:1044FC00FB121A50E96006121A6E02549C740A657B
:10450C000870047400650960030245DC79077CF2CD
:10451C007D94EEFAEFFB121A50E970030245DC8E23
:10452C00828F83A3A3A3A3A3A3A3E024D0604B14E3
:10453C00604814604514604214603F24F560030227
:10454C0045D69017B3E0F5087509007808122A0AC9
:10455C007CF27D9274021227E5121BFA7402122768
:10456C009DAA18AB1912183A8A088B09AC08AD0928
:10457C00AA18AB1912180A02549C8E828F83A3A31B
:10458C00A3A3A3A3A3E024D09017B3F0121A6290B4
:10459C0017B3E0F5087509007808122A0A7C2E7DFD
:1045AC009374021227E5121BFA740212279DAA18A3
:1045BC00AB1912183A8A088B09AC08AD09AA18ABCA
:1045CC001912180A75150102549C75140002549C9A
:1045DC00740A6508700474006509701679077CE22A
:1045EC007D94EEFAEFFB121A50E960067514000286
:1045FC00549C740A65087004740065097016790778
:10460C007CDA7D94EEFAEFFB121A50E96006751411
:10461C000002549C740A65087004740065096003F8
:10462C000246ED79077CB27D94EEFAEFFB121A503C
:10463C00E970030246ED8E828F83A3A3A3A3A3A3E9
:10464C00A3E024D0604514604214603F24F360035F
:10465C000246E79017B6E0F5087509007808122AAB
:10466C000A7CF27D9274021227E5121BFA74021274
:10467C00279DAA18AB1912183A8A088B09AC08ADF9
:10468C0009AA18AB1912180A02549C8E828F83A3A4
:10469C00A3A3A3A3A3A3E024D09017B6F0121A628D
:1046AC009017B6E0F5087509007808122A0A7C2ED6
:1046BC007D9374021227E5121BFA740212279DAA2D
:1046CC0018AB1912183A8A088B09AC08AD09AA184C
:1046DC00AB1912180A75150102549C75140002547A
:1046EC009CE508C3940AF8E5099400F9C3E8940B17
:1046FC00E9940040030247C879077CBA7D94EEFA2E
:10470C00EFFB121A50E970030247C88E828F83A305
:10471C00A3A3A3A3A3A3E0643F70357508B77509E1
:10472C00177808122A0A7CFE7D9274021227E51271
:10473C001BFA740212279DAA18AB1912183A8A0890
:10474C008B09AC08AD09AA18AB1912180A02549CB3
:10475C007C0C7D0079007AB77B17121858E5082479
:10476C00F9F508E50934FFF5097808122A0AEE2450
:10477C0007FCE43FFD7AB77B17121840740212272E
:10478C009D121A627508B77509177808122A0A7CE7
:10479C000A7D9374021227E5121BFA740212279DEC
:1047AC00AA18AB1912183A8A088B09AC08AD09AAD9
:1047BC0018AB1912180A75150102549C740A650875
:1047CC00700474006509703C79087CFA7D93EEFAEC
:1047DC00EFFB121A50E9602C7CA17D93AA18AB193F
:1047EC00121BFAAA18AB1912183A8A088B09AC08D2
:1047FC00AD09AA18AB1912180A7900121A687515A6
:10480C000102549C740A65087004740065097016E2
:10481C0079087CE87D93EEFAEFFB121A50E96006FA
:10482C0075150102549C740A6508700474006509BE
:10483C00600302490A79077CCA7D94EEFAEFFB12F9
:10484C001A50E9700302490A8E828F83A3A3A3A393
:10485C00A3A3A3E024D0604214603F24F2600302BF
:10486C0049049017C3E0F5087509007808122A0A64
:10487C007CF27D9274021227E5121BFA7402122745
:10488C009DAA18AB1912183A8A088B09AC08AD0905
:10489C00AA18AB1912180A02549C8E828F83A3A3F8
:1048AC00A3A3A3A3A3E024D0F9E970089017C374C1
:1048BC0000F080069017C37401F0121A629017C3AF
:1048CC00E0F5087509007808122A0A7C2E7D93748D
:1048DC00021227E5121BFA740212279DAA18AB19B3
:1048EC0012183A8A088B09AC08AD09AA18AB191230
:1048FC00180A75150102549C75140002549C740A14
:10490C006508700474006509701079087C037D9447
:10491C00EEFAEFFB121A50E97022740F650870045E
:10492C007400650960030249E979077CEA7D94EE1D
:10493C00FAEFFB121A50E970030249E98E828F8359
:10494C00A3A3A3A3A3A3A3E0643F70357508C47508
:10495C0009177808122A0A7C8A7D9274021227E5BC
:10496C00121BFA740212279DAA18AB1912183A8A54
:10497C00088B09AC08AD09AA18AB1912180A025415
:10498C009C7508067509007808122A0AEE2407FCA3
:10499C00E43FFD7AC47B17121840740212279D90D5
:1049AC0017CA7400F0121A627508C47509177808D2
:1049BC00122A0A7C0A7D9374021227E5121BFA74E0
:1049CC000212279DAA18AB1912183A8A088B09AC47
:1049DC0008AD09AA18AB1912180A02549C740A657E
:1049EC00087004740065096003024AB379077CFA05
:1049FC007D94EEFAEFFB121A50E97003024AB38E63
:104A0C00828F83A3A3A3A3A3A3A3E024D060421407
:104A1C00603F24F26003024AAD9017CBE0F50875B5
:104A2C0009007808122A0A7CF27D9274021227E59A
:104A3C00121BFA740212279DAA18AB1912183A8A83
:104A4C00088B09AC08AD09AA18AB1912180A025444
:104A5C009C8E828F83A3A3A3A3A3A3A3E024D090B3
:104A6C0017CBF0121A629017CBE0F5087509007895
:104A7C0008122A0A7C2E7D9374021227E5121BFA67
:104A8C00740212279DAA18AB1912183A8A088B09BE
:104A9C00AC08AD09AA18AB1912180A751501025405
:104AAC009C75140002549CC3E508940AE509940013
:104ABC00404579087C667D94EEFAEFFB121A50E9BA
:104ACC0060357508CC7509177808122A0A7CBE7DEA
:104ADC009274021227E5121BFA740212279DAA186F
:104AEC00AB1912183A8A088B09AC08AD09AA18AB95
:104AFC001912180A02549C740A6508700474006533
:104B0C00096003024B9E79087C4B7D94EEFAEFFB17
:104B1C00121A50E9607C121A74E96401706E909557
:104B2C00AF74431227ED740412269A7E0090186A13
:104B3C007401F09017E6E070047E0180057E00128F
:104B4C001AF8EEF83395E0F974431227D3E582286E
:104B5C00F582E58339F583E0F508750900780812CC
:104B6C002A0A7C527D9374021227E5121BFA7402F6
:104B7C0012279DAA18AB1912183A8A088B09AC088F
:104B8C00AD09AA18AB1912180A02549C751400022C
:104B9C00549C741465087004740065096003024C1D
:104BAC004E79067C347D95EEFAEFFB121A50E970C3
:104BBC0003024C4E90966D74401227ED740312262E
:104BCC009A750800121A74E96401707090186A746E
:104BDC0002F0750A0C750B00780A122A0AEE2406EC
:104BEC00FCE43FFD7AD97B17121840740212279D02
:104BFC00E508F8790074401227D3E58228F582E5A0
:104C0C008339F583E0F5087509007808122A0A7CC7
:104C1C00527D9374021227E5121BFA740212279D1F
:104C2C00AA18AB1912183A8A088B09AC08AD09AA54
:104C3C0018AB1912180A121AF802549C75140002B7
:104C4C00549C740A650870047400650970557908E1
:104C5C007C5D7D94EEFAEFFB121A50E96045121A56
:104C6C0074E9640170377901121A687C007D00794F
:104C7C00007A097B04121600E97C757D93AA18ABA7
:104C8C0019121BFAAA18AB1912183A8A088B09AC1C
:104C9C0008AD09AA18AB1912180A02549C75140015
:104CAC0002549C740A650870047400650960030260
:104CBC004D7879087CF17D93EEFAEFFB121A50E9EE
:104CCC007003024D78121A74E964016003024D7886
:104CDC00121A74E964016003024D729017E6E070D9
:104CEC00247CC67D91AA18AB19121BFAAA18AB1911
:104CFC0012183A8A088B09AC08AD09AA18AB19121C
:104D0C00180A02549C7E009017E6E0F8EEC3984017
:104D1C000302549CEEF87900E875F00CA4C8AAF0D4
:104D2C0075F000A42AFA75F00CE9A42AF974E928A4
:104D3C00F508741739F5097808122A0A7CCB7D928C
:104D4C0074021227E5121BFA740212279DAA18ABE3
:104D5C001912183A8A088B09AC08AD09AA18AB19B4
:104D6C0012180A0E80A175140002549C740A65086E
:104D7C00700474006509704579087C8A7D94EEFA9C
:104D8C00EFFB121A50E960357508777509957808AC
:104D9C00122A0A7C867D9574021227E5121BFA747E
:104DAC000212279DAA18AB1912183A8A088B09AC63
:104DBC0008AD09AA18AB1912180A02549C740A659A
:104DCC00087004740065096003024E7679077CC292
:104DDC007D94EEFAEFFB121A50E97003024E761234
:104DEC001A74E96401707D8E828F83A3A3A3A3A39D
:104DFC00A3A3E0643F7030901861122A217C117DCE
:104E0C009574021227E5121BFA740212279DAA1838
:104E1C00AB1912183A8A088B09AC08AD09AA18AB61
:104E2C001912180A02549C9018617410F0A374277C
:104E3C00F0121A62901861122A217C117D92740270
:104E4C001227E5121BFA740212279DAA18AB19122D
:104E5C00183A8A088B09AC08AD09AA18AB191218B4
:104E6C000A02549C75140002549C740A6508700460
:104E7C0074006509704A790A7C1E7D94EEFAEFFB8A
:104E8C00121A50E9603A901863E0F5083395E0F592
:104E9C00097808122A0A7CD87D9274021227E5122E
:104EAC001BFA740212279DAA18AB1912183A8A0819
:104EBC008B09AC08AD09AA18AB1912180A02549C3C
:104ECC00740A65087004740065096003024FA379C5
:104EDC00077CAA7D94EEFAEFFB121A50E9700302DC
:104EEC004FA38E828F83A3A3A3A3A3A3A3E0643FAA
:104EFC007038901865E0F5087509007808122A0AD0
:104F0C007CE57D9274021227E5121BFA74021227BB
:104F1C009DAA18AB1912183A8A088B09AC08AD096E
:104F2C00AA18AB1912180A02549C8E828F83A3A361
:104F3C00A3A3A3A3A3E024D0901865F0901865E078
:104F4C00C3940440069018657400F0121A6290180D
:104F5C0065E0F5087509007808122A0A7C2E7D9305
:104F6C0074021227E5121BFA740212279DAA18ABC1
:104F7C001912183A8A088B09AC08AD09AA18AB1992
:104F8C0012180A901865E0F87403C398F9120BF81C
:104F9C00E975150102549C740A6508700474006567
:104FAC0009600F740F6508700474006509600302D2
:104FBC00508479077C027D95EEFAEFFB121A50E9CA
:104FCC007003025084121A74E9600302507E8E82C0
:104FDC008F83A3A3A3A3A3A3A3E0643F7030901873
:104FEC0066122A217CD57D9174021227E5121BFAD8
:104FFC00740212279DAA18AB1912183A8A088B0949
:10500C00AC08AD09AA18AB1912180A02549C7906FF
:10501C00EE2407FAE43FFB121A568A088B098C0A15
:10502C008D0B901866E508F0A3E509F0901866C39F
:10503C00E09410A3E09427400302549C121A62904F
:10504C001866122A217C117D9274021227E5121B1C
:10505C00FA740212279DAA18AB1912183A8A088BF7
:10506C0009AC08AD09AA18AB1912180A751501027A
:10507C00549C75140002549C740A650870047400E6
:10508C006509600302514F79077CA27D94EEFAEF1B
:10509C00FB121A50E9700302514F8E828F83A3A327
:1050AC00A3A3A3A3A3E0643F7038901868E0F508AD
:1050BC007509007808122A0A7CF27D927402122774
:1050CC00E5121BFA740212279DAA18AB1912183A92
:1050DC008A088B09AC08AD09AA18AB1912180A0278
:1050EC00549C7901EE2407FAE43FFB121A568A0805
:1050FC008B098C0A8D0BE508901868F0901868E005
:10510C00C394025038121A62901868E0F5087509B9
:10511C00007808122A0A7C2E7D9374021227E5125D
:10512C001BFA740212279DAA18AB1912183A8A0896
:10513C008B09AC08AD09AA18AB1912180A75150120
:10514C0002549C740A6508700474006509704B79EC
:10515C000A7C6A7D93EEFAEFFB121A50E9603B125F
:10516C001A74E96401702D90186A7403F07C967DB2
:10517C0093AA18AB19121BFAAA18AB1912183A8A6F
:10518C00088B09AC08AD09AA18AB1912180A121A27
:10519C00F802549C75140002549C740A650870043F
:1051AC0074006509703A79077C937D94EEFAEFFBF5
:1051BC00121A50E9602A121A74E96401701C9018D2
:1051CC006A7404F08E828F83A3A3A3A3A3A3A3E08A
:1051DC0024D0F9121B2EE902549C75140002549C25
:1051EC0074096508700474006509600302549979A8
:1051FC00067C1F7D95EEFAEFFB121A50E970030244
:10520C0054998E828F83A3A3A3A3A3A3E0F516E5E1
:10521C001624CC601814601914601A14601B1470D6
:10522C00030252D31470030253A70254947E0480D9
:10523C000A7E0580067E0680027E07798012172C76
:10524C007A04EEF91217268A088B09AC08AD098C82
:10525C00088D09E4F50AF50B7808121CA790964FF7
:10526C00780C12263F7808790C121EB2909653785F
:10527C000C12263F7808790C1222717808122A0633
:10528C008C088D097808122A0AE516F87900E824AA
:10529C00D0F508E934FFF5097808122A0A7CB57DA7
:1052AC008F74081227E5121BFA740812279DAA188E
:1052BC00AB1912183A8A088B09AC08AD09AA18ABBD
:1052CC001912180A02549C7E117F017508997509F0
:1052DC0001790012172C7A02790F1217268A0A8B81
:1052EC000BAC0AAD0BC3EC9508ED95094004746446
:1052FC008058C3EE9CEF9D40047400804DE508C3BC
:10530C009EF8E5099FF9E82401FAE439FB8A088B39
:10531C000974027808122765AA08AB09ECC39EF839
:10532C00ED9FF9E875F019A4C8AEF075F000A42E45
:10533C00FE75F019E9A42EF9E82AF8E93BF9E824FE
:10534C00FFF8E934FFF91226FCE8F5087509007836
:10535C0008122A0A8C088D097808122A0AE516F810
:10536C007900E824D0F508E934FFF5097808122A09
:10537C000A7C6E7D9074061227E5121BFA740612D5
:10538C00279DAA18AB1912183A8A088B09AC08ADDC
:10539C0009AA18AB1912180A02549C750C00750D49
:1053AC0000750E00750F0090624B7401F09061A9AE
:1053BC007401F07E008057790012172C7A03790E55
:1053CC001217268A088B09AC08AD098C088D09E4E4
:1053DC00F50AF50B7808121CA79096577810122630
:1053EC003F78087910121EB290965B781012263F07
:1053FC007808791012205790965F781012263F7813
:10540C00087910122271780C79081220570EEEC30D
:10541C00944040A3850C08850D09850E0A850F0B59
:10542C00909663780C12263F7808790C12227190B2
:10543C00624BE0C2E0F09061A9E0C2E0F0780812A3
:10544C002A068C088D097808122A0AE516F87900C4
:10545C00E824D0F508E934FFF5097808122A0A7C0B
:10546C00577D9074081227E5121BFA740812279DB9
:10547C00AA18AB1912183A8A088B09AC08AD09AAFC
:10548C0018AB1912180A80087514008003751400E3
:10549C00E51560117AC87B00121A4AC2AF75C9AB08
:1054AC0075C95B80FEA914744712279D7F0F0228D3
:1054BC00C974F41227F774F5122787909526740493
:1054CC001227ED740712269A901887E02401F0A396
:1054DC00E03400F0901887C3E09405A3E0940050EA
:1054EC00030255AE1217F81217FE8A088B09E5084D
:1054FC00450970030255A1900FBDE0F4C0E074049F
:10550C001227D3D0E0F0900FBEE0F4C0E074051287
:10551C0027D3D0E0F0900FBFE0F4C0E07406122760
:10552C00D3D0E0F01219128A088B098C0A8D0B85E6
:10553C001882851983780812264E74031227D3E03B
:10554C00C0E074071227D3D0E0F074021227D3E026
:10555C00C0E074081227D3D0E0F074011227D3E016
:10556C00C0E074091227D3D0E0F085188285198326
:10557C00E0C0E0740A1227D3D0E0F07C077D007401
:10558C00041227E512055CE97A047B009018ACE064
:10559C00F912189AE91218049018877400F0A37481
:1055AC0000F0740B12279D7F040228C974F6122791
:1055BC00F774C8122787E9FF7E01EFA2E5400302CA
:1055CC00565C901B28E0C2E5F07C2D7D957A897B9A
:1055DC0018121BFA7C3A7D937A957B18121BFA9061
:1055EC001B27E07008901B277401F08006901B2786
:1055FC007400F0901B27E0600779011219368005C2
:10560C007900121936901B27E0F508750900780807
:10561C00122A0A7CCA7D93740E1227E5121BFA74A7
:10562C000212279D7906740C1227E512179E740C32
:10563C001227E5121C0C8A088B09AC08AD09740CF6
:10564C001227E51218107A017B00121A4A025876BA
:10565C00EFA2E05042901B28E0C2E0F07C0A7D955E
:10566C007A897B18121BFA7C6F7D947A957B1812C1
:10567C001BFA121A74E9640160030258769018E15F
:10568C00E0640270030258767C0A7D007A6A7B9390
:10569C00121ADAE9025876EFA2E45035901B28E092
:1056AC00C2E4F07C787D947A897B18121BFA7CA872
:1056BC007D917A957B18121BFA901869E07009900D
:1056CC0018697401F00258769018697400F0025849
:1056DC0076EFA2E3503B901B28E0C2E3F07C817D87
:1056EC00947A897B18121BFA7C817D947A957B18AD
:1056FC00121BFA121A74E9640160030258769018AE
:10570C00E1E0640270030258767901121B1C025806
:10571C0076EFA2E15020901B28E0C2E1F07CDE7D08
:10572C00937A897B18121BFA7C037D917A957B18EE
:10573C00121BFA025876EFA2E24003025874901B37
:10574C0028E0C2E2F07C8B7D937A897B18121BFADD
:10575C007CE47D917A957B18121BFA121A74E96419
:10576C000160030258159018E1E064026039121BC5
:10577C0022E9F5087509007808122A0A7C5E7D93E7
:10578C0074021227E5121BFA740212279DAA18AB99
:10579C0019121C0C8A088B09AC08AD09AA18AB1994
:1057AC00121ADAE9025876121A7AE970030258765C
:1057BC009018A9E060089018A97400F08006901861
:1057CC00A97401F09018A9E0F50875090078081281
:1057DC002A0A7C567D9274021227E5121BFA740277
:1057EC0012279DAA18AB19121C0C8A088B09AC083D
:1057FC00AD09AA18AB1912055CE97A107B00901858
:10580C00ACE0F912189AE98061121A7AE9605B909F
:10581C0018AAE060089018AA7400F080069018AAE4
:10582C007401F09018AAE0F5087509007808122A9E
:10583C000A7C497D9274021227E5121BFA7402123B
:10584C00279DAA18AB19121C0C8A088B09AC08AD41
:10585C0009AA18AB1912055CE97A107B009018ACF8
:10586C00E0F912189AE980027E00901B28E070146F
:10587C009018ABE0700E9018AB7401F07A017907B8
:10588C001217B0E9EE60567508957509187808126C
:10589C002A0A7C427D95740E1227E5121BFA7402BB
:1058AC0012279D901B28E060067800790080047810
:1058BC00807900E84408F9740C1227E512179E75DC
:1058CC0008897509187808122A0A7C427D95740E8D
:1058DC001227E5121BFA740212279D805475089545
:1058EC007509187808122A0A7C3B7D95740E1227CC
:1058FC00E5121BFA740212279D901B28E0600678B3
:10590C00007900800478807900E84408F9740C125E
:10591C0027E512179E7508897509187808122A0A46
:10592C007C3B7D95740E1227E5121BFA740212272C
:10593C009D740C1227DD880889097808122A0A7CC4
:10594C00867D9574261227E5121BFA740212279D88
:10595C00121A7AE9702174241227E5121C0C8A0899
:10596C008B09AC08AD0974241227E512180A7A01C8
:10597C007B00121A4A802674241227E5121C0C8A0A
:10598C00088B09AC08AD0974241227E512055CE9F3
:10599C007A107B009018ACE0F912189AE97438125E
:1059AC00279D7F020228C974EC1227F774C01227B6
:1059BC0087EAFEEBFF8C088D09C3E5089409E5091D
:1059CC009400403979087C427D94EEFAEFFB121A70
:1059DC0050E960298E828F83A3A3A3A3A3A3A3A3BF
:1059EC00E0F8743068700B7A0079021217B0E90293
:1059FC005D5F7A0179021217B0E9025D5FC3E508B9
:105A0C009409E5099400403979087C397D94EEFAC3
:105A1C00EFFB121A50E960298E828F83A3A3A3A3F4
:105A2C00A3A3A3A3E0F8743068700B7A0079041276
:105A3C0017B0E9025D5F7A0179041217B0E9025DD3
:105A4C005FC3E5089409E5099400403579087C307A
:105A5C007D94EEFAEFFB121A50E960258E828F834B
:105A6C00A3A3A3A3A3A3A3A3E0F874306870099025
:105A7C0018697400F0025D5F9018697401F0025DA2
:105A8C005FC3E5089407E50994005003025D5F7954
:105A9C00067C1F7D95EEFAEFFB121A50E97003029B
:105AAC005D5F8E828F83A3A3A3A3A3A3E0FEEE244A
:105ABC00CC601814601914601A14601B1470030263
:105ACC005B7E147003025C67025D5F7F04800A7F5B
:105ADC000580067F0680027F07798012172C7A04D6
:105AEC00EFF91217268A088B09AC08AD098C088DC2
:105AFC0009E4F50AF50B7808121CA790964F780C60
:105B0C0012263F7808790C121EB2909653780C121C
:105B1C00263F7808790C1222717808122A068C0814
:105B2C008D097808122A0AEEF87900E824D0F508D5
