:020000040000FA
:0600000002010702313984
:03002B000235ACEF
:030033000235860D
:03003B000235C9C2
:0300430002353152
:030053000231AFC8
:03006B0002355704
:10008300022F8FE5C754F84401F5C7790122000018
:100093000080FB120086B900030200F1E4792178A5
:1000A30008B800028004F709D8FCE479297802B87B
:1000B30000028004F709D8FCE4900281783F7919A3
:1000C3008002F0A3D8FCD9FA7ABF7B1A9001377863
:1000D3001279058015E493A3AD82AE838A828B8364
:1000E300F0A3AA82AB838D828E83D8E9D9E7758288
:1000F300F37583D9740512011975829175830074A0
:100103000012011975D00075813F751881751902A8
:10011300759F00020096C09FF59FE473D09F22D085
:1001230083D082C09FE493C0E0740193C0E0740263
:1001330093F59F22EC06F8062E072807FF0000B46C
:10014300000028002800283075A000A000A000A00F
:100153000000080008E001F000100010001000107B
:10016300001000100050005000500010001000D08C
:10017300070000000000000F0001000500307507B4
:10018300001000010081FF00000000FFFFFF6C086A
:100193008A087208AE08FF02020208025000A0009B
:1001A3000000E80302B6960100009F9602BC960188
:1001B3000000221B02C4960100000A0402BC96013F
:1001C3000000231B02C696010000200402BC960116
:1001D3000000241B02CA96010000220402BC9601FF
:1001E3000000251B02CC96080000230402BC9601E4
:1001F3000000261B02CE96010000271BFFFF010013
:10020300FF2002B696010000939602BC96010000FF
:100213008C1B02E296000000000002C0960300005F
:1002230053041700F410F410F410F410F410F41045
:10023300F410F410F410F410F410F410F4104C1340
:100243006A1346139014A2148A14020202020202D1
:10025300020202010D000000100102B69601000027
:100263009C9602BC96010000D51B02C296010000B9
:10027300A20E02BC96010000D61B02B0960100003C
:10028300C69202BC96010000D71B02AE9601000085
:10029300409202BC96010000D81B02A89601000000
:1002A300D89002BC96010000D91B02C89601000039
:1002B300C69002BC96010000DA1B02CA940100003A
:1002C3000E9102BC96010000DB1B02A29601000006
:1002D300209102BC96010000DC1B02A496010000E1
:1002E3005C9202BC96010000DD1B02A69601000091
:1002F300DE1B01E803057710020A0AB216FFFFFFAF
:100303000001307503020106000000000000000038
:1003130000000000000000000000000000000000DA
:1003230000000000FFFF0600800CE803013FFEFF12
:100333000101010201060302F0FF0201061AFF4C4C
:10034300000215E2C56DB5DFFB48D2B060D0F5A75A
:100353001096E000010002CD801B861B921B981BA8
:100363008C1B0A4368617261637465726973746993
:10037300632031000243686172616374657269735B
:100383007469632032000843686172616374657243
:100393006973746963203300104368617261637425
:1003A3006572697374696320340002436861726122
:1003B30063746572697374696320350016436861F9
:1003C30072616374657269737469632036001043E4
:1003D300686172616374657269737469632037005D
:1003E30002B696010000909602BC96010000ED1C37
:1003F30002D296030000841A02BE96010000EE1C8E
:1004030002BC96010000FF1C02D496010000851A6D
:1004130002BE96010000001D02BC96010000111DE2
:1004230002D696020000861A02BE96010000121D33
:1004330002BC96010000231D02D896000000871A13
:1004430002C096030000881A02BE96010000241D14
:1004530002BC96010000351D02DA960400008A1AD8
:1004630002BE96010000361D02BC96010000471D26
:1004730002DC960300008F1A02C096030000A41A40
:1004830002BE96010000481D02BC96010000591DE2
:1004930002DE96000000A61A02C096030000BB1AF3
:1004A30002BE960100005A1D0100B0423BAAB83FAC
:1004B3000000003F8C906339AA0CA33A00941E3CC1
:1004C3008042633DCFFE753E1572313F0000803F91
:1004D300F304353F8096184B303132333435363799
:1004E300383941424344454600286E756C6C207090
:1004F3006F696E74657229003031323334353637A3
:100503003839616263646566003F3F3F00000080E5
:100513007FF9021550B743BA5100E7DB2E0000A064
:1005230040000080BF2292D43EDD9B2A3F0400009E
:100533004000000000FFFF7F7FFFFF7FFF0100807F
:10054300341872313F1201229EC10512012285C265
:10055300051201227FC30512012216BD05120122D5
:1005630029BD051201224ABD05120122B5BD05129E
:100573000122F6BD0512012217BE0512012258BE43
:1005830005120122F0BE0512012238BF0512012215
:10059300F9A5051201220CA6051201223DA605129A
:1005A300012277A605120122D0A60512012217A760
:1005B300051201225FA7051201228EA7051201224F
:1005C300BDA705120122F4A7051201223BA80512BB
:1005D300012254A805120122A9A805120122C2A8CA
:1005E3000512012210A9051201224AA905120122AE
:1005F30037EE031201223AEF0312012267EF0312CF
:100603000122B8EF03120122DBEF03120122EDEF07
:1006130003120122F0EF031201222EF00312012232
:10062300A2F0031201220EF103120122D6F10312EA
:100633000122F2F10312012229F20312012263F2D1
:1006430003120122FAF2031201224CF303120122D4
:100653007DF303120122AEF303120122BBF3031253
:10066300012225F40312012228F40312012235F496
:100673000312012238F4031201228FF40312012220
:1006830092F403120122CBF403120122CEF40312DB
:10069300012202F50312012205F50312012259F585
:1006A30003120122A2F503120122B2F50312012261
:1006B300E5F503120122F2F503120122F5F5031207
:1006C30001225DF6031201225FF70312012203F8F0
:1006D300031201226CF803120122AAF80312012269
:1006E3007AF60212012277F7021201220DF80212A2
:1006F300012258F802120122BCF80212012246F923
:1007030002120122FFF90212012221FD021201222B
:100713009EFE02120122C1FE02120122DA9105128B
:1007230001227F93051201229F9305120122C09497
:1007330005120122139505120122239A05120122A3
:100743004B9A05120122789A05120122B09A0512DA
:1007530001220E9B051201225A9B05120122C19B05
:1007630005120122019C051201223E9C0512012261
:100773006C9C05120122169D05120122209D051273
:1007830001222D9D05120122609D051201226C9DFF
:1007930005120122849D051201228E9D051201225C
:1007A30011D4051201221FD40512012237D40512D8
:1007B30001224FD40512012266D405120122D5E489
:1007C300021201227FE50212012292E602120122A5
:1007D3000EE7021201222CE80212012268E802123B
:1007E300012203E902120122E7E902120122AAEA25
:1007F3000212012222EB02120122B0EC02120122A8
:1008030021ED02120122DBED02120122CDEE0212D2
:1008130001220DEF02120122C1EF02120122F3EFB6
:1008230002120122E9F10212012230F20212012224
:100833004EF202120122B4F20212012283F30212D7
:10084300012247F40212012266F60212012270F617
:1008530002120122D0F803120122BAF90312012273
:1008630065FA03120122B6FA0312012266FB031290
:100873000122D7FB03120122BCFC03120122F0FC6C
:1008830003120122E9FD0312012226FE03120122B3
:1008930002FF0312012241FF031201225DFF031233
:1008A3000122C2C50512012246C60512012271C6E4
:1008B300051201228BC7051201221C9E051201227B
:1008C300329E05120122509E05120122619F0512DC
:1008D30001226B9F0512012296A0051201228DA110
:1008E30005120122FAA10512012204A20512012216
:1008F3008BCF04120122C1D0041201223BD1041276
:1009030001226BD1041201227ED104120122D5D11E
:1009130004120122EAD3041201222E9602120122AA
:10092300DF9602120122FB9602120122C4970212E1
:100933000122DE9702120122E99702120122BF98D7
:10094300021201229C99021201222C9A0212012204
:10095300E39A02120122F19D02120122E09F021288
:10096300012292A0021201225BA102120122A0A481
:10097300021201224AA50212012273A602120122C7
:100983002FA802120122CFA8021201221DA90212CE
:1009930001225CA9021201222FAA0212012263AAD8
:1009A30002120122F0AA0212012241D202120122F2
:1009B300CDD20212012231D4021201223DD40212FD
:1009C300012278D402120122E7D402120122F0D5C7
:1009D30002120122F9D602120122C0D70212012209
:1009E3001DD9021201223BD90212012258D9021247
:1009F300012205DA0212012282DA02120122AADAA4
:100A03000212012274DD0212012279DD0212012297
:100A130092DF02120122E0DF0212012250E00212F1
:100A230001228EE0021201226AE1021201222AE26D
:100A33000212012276E20212012279E2021201225B
:100A4300BDE20212012205E30212012244E3021273
:100A5300012266E3021201229AE302120122FDE35C
:100A630002120122A0F504120122A9F504120122A7
:100A7300B7F5041201220AF60412012229F6041220
:100A830001226EF604120122B2F7041201224DF87C
:100A93000412012291F804120122BBF8041201226C
:100AA3002AF90412012270F904120122E7F904124F
:100AB300012298FA04120122E49601120122F4960B
:100AC30001120122959701120122F19701120122CD
:100AD300AE9801120122CA9901120122FC99011256
:100AE30001222B9A01120122D89B011201224F9E4F
:100AF30001120122BFA001120122B1A101120122A0
:100B0300AAA201120122B1A401120122A5A7011276
:100B13000122D4A801120122D8AA01120122E8ABB2
:100B23000112012277AD0112012268AE01120122E6
:100B3300B6AE0112012225AF0112012249AF011203
:100B430001229AAF011201223BB4011201223CB5EA
:100B5300011201229DB501120122C8B50112012221
:100B63008EB6011201226FDB0412012279DB04121B
:100B73000122BEDB04120122D2DB0412012262DC59
:100B8300041201229BDC04120122D6DC041201228E
:100B9300FFDC041201224DDD0412012262DD041286
:100BA300012277DD041201228CDD04120122CFDD44
:100BB30004120122E4DD041201224FDE0412012299
:100BC30063DE0412012277DE041201228CDE04129A
:100BD3000122C6DE04120122EADE0412012216DF1C
:100BE300041201224DDF04120122AFDF041201229D
:100BF30021E00412012264E0041201228EE00412B7
:100C03000122B9E0041201220BD205120122A2F340
:100C13000112012285F40112012200F501120122C1
:100C23003BF5011201228CF60112012215F7011284
:100C330001222DF901120122BFFB0112012271FCD5
:100C4300011201227DFD01120122F0FE0112012297
:100C530049FF0112012262EB04120122A5EB0412E7
:100C6300012229EC04120122FCEC04120122D3EF2D
:100C73000412012217B805120122C4B80512012279
:100C8300D1B90512012210BA051201226ABA05125E
:100C93000122AFC90512012212CA05120122AFCAED
:100CA30005120122E4CA0512012214CB0512012206
:100CB30035CB0512012270CB0512012290CB051210
:100CC3000122AAFA0412012236FB04120122F5FBC7
:100CD300041201220DFD0412012227FF0412012236
:100CE30086D703120122ABD70312012278D803124D
:100CF30001224CD903120122B9D9031201220FDABE
:100D030003120122ABDA03120122DFDB03120122F9
:100D1300BADC0312012219DD03120122A5DD03123D
:100D2300012213DE031201229FDE03120122A2DE3F
:100D330003120122ECDE031201225EDF0312012201
:100D4300F0DF0312012291E003120122B1E003124A
:100D53000122F9E00312012242E1031201225EE1C2
:100D63000312012284E103120122FEE10312012294
:100D73000CE2031201229BE20312012204E3031299
:100D830001229784051201221C85051201225E852A
:100D930005120122428605120122AF8605120122A5
:100DA300F386051201223787051201226487051293
:100DB30001228C8705120122C487051201220288B1
:100DC30005120122298805120122A3880512012296
:100DD300ED8805120122FAB601120122F3B80112BD
:100DE3000122DFBB0112012233BC011201225EBCCE
:100DF3000112012238BD0112012277BD0112012225
:100E0300BEBD01120122D1BD0112012212BE011287
:100E130001223FBE011201228DBE01120122CCBE6E
:100E230001120122F7BE011201224ABF011201225F
:100E3300D9BF01120122B7C201120122D2C4011289
:100E4300012210C50112012285C601120122CAC660
:100E530001120122BEC701120122D7C901120122C8
:100E630039CA011201228ACA01120122A5CF011235
:100E73000122F4CF011201223AD00112012222D21F
:100E830001120122F0D301120122F5D30112012232
:100E9300CFD40112012248D50112012278D60112C2
:100EA30001228AD60112012271B505120122E3B58E
:100EB3000512012239B6051201227DB6051201225F
:100EC3009DB605120122EAB60512012232B70512B8
:100ED300012285B705120122D6B705120122D49D3E
:100EE30004120122539E041201224CA40412012273
:100EF30052A504120122C5A6041201225CA7041202
:100F03000122ADD601120122F6D60112012223D706
:100F13000112012255D70112012261D701120122C8
:100F23006DD70112012284D7011201225FD8011269
:100F33000122BDD801120122F2D80112012223DAC3
:100F43000112012270DA01120122B6DA0112012222
:100F530022DB01120122C6DB011201227CDC011219
:100F63000122DBDC011201224CDD01120122AADD88
:100F730001120122DCDE0112012244E001120122EE
:100F83000EE1011201221BE1011201225DE10112B6
:100F930001226DE10112012291E10112012294E18A
:100FA3000112012280E2011201221CE3011201223B
:100FB300B5E3011201224CE40112012279E401128A
:100FC3000122D7E4011201221EE5011201226EE57E
:100FD30001120122BEE50112012230E601120122B3
:100FE300CBE60112012276E70112012215E8011274
:100FF300012293E801120122DAE8011201223EE9FB
:10100300011201226DE90112012204EA01120122F7
:1010130016EC011201225AEC01120122A5EC011275
:1010230001222BED01120122B5ED01120122CEEEB8
:101033000112012254EF0112012279EF0112012260
:10104300D0EF01120122E5EF011201222DF001126E
:101053000122A0F001120122E5F001120122EEF1BA
:10106300011201229FF201120122FDF2011201225B
:1010730059F30112012272F30112012286A704120D
:101083000122DAA704120122E6A704120122B0A862
:1010930004120122DDA8041201220BA90412012269
:1010A30077A904120122ADA904120122E6A90412B0
:1010B3000122FEA90412012253AA041201226CAADE
:1010C30004120122B1AA04120122C4AA04120122A9
:1010D300DEAA04120122F4AA0412012212AC0412A1
:1010E30001223DAD0412012227AE0412012218AFE2
:1010F3000412012249360012012285F00412012252
:1011030008F40412012255F5041201220ACB03123A
:101113000122DDCD03120122E3CD0312012273D09C
:1011230003120122D6D203120122008005120122EA
:101133009780051201225581051201227F81051234
:1011430001225983051201225E84051201220080C7
:10115300021201223280021201224F8C021201225A
:10116300A08D02120122A98E0212012228900212DE
:1011730001221391021201226291021201227C9137
:1011830002120122BE9102120122C991021201220E
:10119300109202120122199202120122C592021226
:1011A30001229E9302120122E593021201224D9421
:1011B300021201228F9402120122BD940212012213
:1011C300FA94021201223DBF0212012208C3021245
:1011D30001220EC302120122B2C90212012206CE5B
:1011E30002120122EFD102120122B2A90512012239
:1011F30028AA051201223EAA05120122CEAA05122F
:1012030001220BAB0512012245AB051201227FAB74
:1012130005120122F2AB0512012233AC05120122A1
:101223003CAC0512012248AC0512012267AC051241
:10123300012291AC05120122A6AC05120122E9ACF0
:1012430005120122C0C804120122D3C804120122CC
:10125300EDC8041201221AC90412012260C9041242
:10126300012293C904120122D1C90412012236CAF0
:10127300041201224BCA0412012256CA041201228B
:1012830063CA041201227ACA0412012288CA041210
:10129300012297CA04120122ACCA04120122C1CA54
:1012A30004120122CCCA04120122D8CA0412012258
:1012B300E5CA04120122F8CA0412012203CB041264
:1012C300012228CB04120122CCCB04120122DCCB55
:1012D30004120122F1CB0412012206CC04120122D2
:1012E30020CC041201223DCC041201225ACC041258
:1012F300012265CC0412012211CD04120122F2CD88
:101303000412012217CE0412012222CE041201225A
:1013130037CE041201224BCE04120122ACCE0412AA
:101323000122B2CE04120122B8CE04120122BECE93
:1013330004120122D6CE0412012209CF0412012283
:10134300008004120122228004120122EA80041286
:101353000122A48304120122BA8404120122DB8530
:1013630004120122B58604120122648704120122A9
:1013730087BD031201221EBE03120122B6BE031251
:101383000122A6BF03120122DDBF03120122F0BF17
:10139300031201225EC003120122F9C103120122CA
:1013A30020C203120122C2C203120122F7C2031296
:1013B300012208C30312012281C303120122A2C323
:1013C30003120122BAC30312012212C5031201221E
:1013D3001BC7031201226BC9031201226ECA031237
:1013E3000122BDCA03120122EBAE03120122E8AFB0
:1013F30003120122D3B003120122DDB00312012232
:10140300E7B00312012209B10312012215B103123D
:10141300012267B20312012296B203120122C6B35C
:101423000312012208B40312012234B5031201226C
:101433000AB6031201225CB603120122BBB60312E1
:101443000122F2B6031201222DB703120122C8BAF8
:1014530003120122E1BA0312012263BB0312012228
:1014630071BB03120122C6BB03120122D4BB0312B8
:10147300012241BC03120122B3BC03120122F9BCB5
:101483000312012227E30312012249E3031201227B
:1014930033E503120122D8E8031201221BEA0312E7
:1014A3000122F5EA0312012255CD051201227ACD5C
:1014B30005120122EBCD05120122D2B00412012242
:1014C300DBB004120122E4B00412012215B20412AB
:1014D300012234B4041201226AB404120122A4B416
:1014E30004120122DAB40412012214B504120122F7
:1014F30048B50412012274B504120122BDB50412C9
:101503000122F7B5041201223FB60412012295B657
:1015130004120122CAB60412012225B704120122C1
:101523005FB704120122B0B704120122E6B7041216
:10153300012220B8041201224EB80412012271B80C
:101543000412012210D8051201223CD805120122EF
:1015530097D805120122A1D805120122B1D805128C
:101563000122FFB80412012243B904120122F1B986
:101573000412012269BA04120122BBBA0412012225
:101583005BBB0412012297BB0412012231BC04127B
:101593000122AEBC0412012207BE0412012220BEA6
:1015A3000412012258BF04120122EBBF04120122CC
:1015B30054C004120122C0C0041201222D89051255
:1015C3000122548905120122858905120122C0DAFC
:1015D30005120122D7DA05120122BBD80512012216
:1015E300F65D001201221261001201220363001250
:1015F3000122756300120122336400120122DE64AA
:10160300001201226E6500120122FD650012012203
:10161300276600120122946600120122CE6B00128B
:101623000122626C00120122916D00120122F56DFC
:1016330000120122A96E001201225C710012012224
:101643009671001201220072001201225E720012D2
:101653000122BC72001201221973001201220874C4
:10166300001201224E74001201229374001201220F
:10167300B474001201221676001201223176001290
:101683000122B77700120122E477001201222478A5
:10169300001201226A7800120122887800120122C6
:1016A300C67800120122EC7A00120122257B001277
:1016B3000122BC7B001201225C7C00120122EF7C20
:1016C300001201225B7D001201229C7E0012012286
:1016D300E1E00412012275E104120122B4E20412D2
:1016E30001223DE30412012210E40412012239E431
:1016F30004120122A0E40412012208E504120122CB
:101703001FD30512012230D30512012201D4051281
:10171300012217AD05120122E2AF05120122A1DB5E
:1017230005120122F6D40512012206D50512012263
:1017330023D505120122B7D505120122C6B205121F
:10174300012260B30512012256B5051201229ECB78
:1017530005120122D4CB0512012244CC0512012229
:10176300A7CC0512012217CD05120122EE7F00122C
:101773000122F17F001201222096051201224296D6
:1017830005120122D49605120122D29705120122D5
:10179300C39905120122B1D504120122AED7041256
:1017A300012234D8041201223FD904120122FFD9A5
:1017B3000412012274DA04120122E6DA041201226D
:1017C300E9DA04120122F7DA041201220BDB041214
:1017D300012223DB041201223BDB0412012249DB39
:1017E3000412012261DB0412012263BF05120122EC
:1017F3002DC00512012212C1051201225CC105127E
:1018030001224DD705120122C7D705120122D7D7CE
:1018130005120122E7D70512012200D80512012281
:10182300BAC705120122EBC70512012215C805121A
:101833000122D2C805120122F2C8051201224AC9A7
:10184300051201222094041201222E940412012273
:10185300749404120122C794041201220F950412F6
:1018630001226995041201228A95041201226198CA
:10187300041201226F9804120122CB980412012250
:10188300FE98041201221199041201229C99041258
:101893000122339A04120122AE9A04120122E59A1C
:1018A300041201226B9B04120122C09B0412012229
:1018B3001B9C041201222D9C041201225E9C041223
:1018C3000122679C04120122A09D041201220BCF66
:1018D300051201226ACF0512012205D00512012249
:1018E3006BD0051201228D8D05120122C08D0512C8
:1018F3000122E68E051201220B8F05120122CC8FE5
:1019030005120122A49005120122BFD00512012263
:1019130088D105120122E0D105120122FAD1051264
:101923000122B5BA05120122FABA0512012238BB07
:1019330005120122D3BC0512012265D90512012229
:1019430080D90512012290D90512012289D60512E8
:101953000122C5D505120122588A04120122348BB3
:1019630004120122778B04120122B18B041201228B
:101973001D8C04120122758C04120122E58C0412C1
:101983000122B68D04120122A08E04120122178FA8
:1019930004120122AD900412012238910412012293
:1019A300A8910412012222920412012239920412F4
:1019B3000122649304120122B793041201222CE63C
:1019C3000412012249E60412012235E7041201221E
:1019D3007EE7041201229EE704120122DAE70412D1
:1019E300012233E8041201226FE804120122B7E84E
:1019F3000412012251EB04120122E6AB021201226E
:101A030001B102120122F8B3021201221EB4021222
:101A1300012247B402120122F5B402120122D6B602
:101A230002120122F1B7021201220AB802120122A4
:101A330000BD0212012239BD021201227DBD021234
:101A430001228ABE02120122543600120122883674
:101A530000120122C336001201223537001201227F
:101A6300FC3700120122133800120122EF38001252
:101A73000122E43C00120122F43C00120122253D24
:101A830000120122F83D001201225A3E00120122E7
:101A93005D3E001201229E3E00120122053F00120C
:101AA3000122E14000120122984100120122EA4181
:101AB30000120122F14100120122FF410012012212
:101AC3000F42001201224D4200120122664200120F
:101AD30001227D4200120122094300120122244304
:101AE300001201225A4500120122885500120122D8
:101AF3004356001201223E5A0012012200800312B3
:101B03000122348103120122618103120122B08474
:101B130003120122E98403120122FA84031201222F
:101B2300168603120122278603120122B7860312A7
:101B33000122C786031201228E8B03120122328CEB
:101B430003120122408C031201226D8C0312012225
:101B5300D28C03120122AA8E031201227F8F031259
:101B6300012238A00312012285A40312012209A72E
:101B730003120122D8A703120122E9A703120122AB
:101B830008A80312012232A90312012243A9031256
:101B9300012200AA0312012291AA0312012240ABDF
:101BA3000312012224AC031201221CAD03120122F1
:101BB30007C10412012215C20412012232C2041207
:101BC30001220DC40412012231C504120122CDC623
:101BD30004120122C0DB05120122F0AF051201221B
:101BE300D07E001201225FDA051201225A900312FD
:101BF3000122669503120122B3C30512012206DBFB
:101C0300051201224CDB051201220EA2051201224C
:101C13005EFF0412012288FF04120122BEFF031299
:101C2300012278DB05120122DEDB05E06670100875
:101C3300A3E066700A08A3E066700408A3E06622C6
:101C4300C008C3E096F50808A3E096420808A3E09D
:101C530096420808A3E0964208A2D265D033E5086D
:101C63007001D3D00822C3E7960809E7960809E76D
:101C7300960809E79622C3E09608A3E09608A3E036
:101C83009608A3E09622C008C3E096F50808A3E0EF
:101C930096420808A3E096420808A3E09645087018
:101CA30001D3D00822080808E630E7111225621292
:101CB3001CC0080808C64480C6181818221818182B
:101CC300E9799EC608CAC608CBC608CCC6C370202D
:101CD3007996CACBCC7019798ECBCC70137986CC1C
:101CE300700EF9802ACA33CACB33CBCC33CC331929
:101CF30030E7F2CCCBCA3350147004EA30E00DE481
:101D0300CA3ACACB3BCBCC3CCC500209C3E913C67D
:101D1300CC182313C6CB18C6CA18C6F922121D60E5
:101D230020F01430E72B74FFFCFBFA747F8022E46D
:101D3300FCFBFA7480801AB48008BC00F2BB00EF8D
:101D4300800F50EBF9E4C39AFAE49BFBE49CFCE4B8
:101D530099C6CC18C6CB18C6CA18C6F922E4C9C698
:101D630008CAC608CBC6D3330308CCC63392F0C324
:101D7300947F402E94184019C9B90704CACBCC22CA
:101D83005025C309CA33CACB33CBCC33CC33D9F4B4
:101D930022F4600DC9CCC313CB13CBCA13CAD9F633
:101DA300CC22E4FCFBFA2214FCFBFA22E6261846BA
:101DB3001846184622E727194719471947221818C2
:101DC30018E60846087009E626087005E633F4228B
:101DD3000822191919E70947097009E72709700546
:101DE300E733F4220922E6084608C31346083360A2
:101DF30002E633F422E7094709C3134709336002B4
:101E0300E733F422121DE96025121DF86020121D2C
:101E1300AF7003021DB8080808E76670101819E7C9
:101E230066700A1819E76670041819E76622F42227
:101E3300121DE9601C121DF86017121DAF70071206
:101E43001DB87001D322C0D0121DB87006D0D0B314
:101E530022C32233D0D0501430E0F6C3E7960809EA
:101E6300E7960809E7960809E796B32220E0D5E646
:101E7300970809E6970809E6970809E697B3221237
:101E83001DE9601B121DF86016121DAF7007121DAD
:101E9300B8600CB322C0D0121DB87005D0D022C3D5
:101EA3002233D0D0501330E0EBC3E7960809E7960E
:101EB3000809E7960809E7962220E0E4E69708096F
:101EC300E6970809E6970809E6972200121DE960DC
:101ED3004F121DF86012E7548066F6121DC170118F
:101EE300121DB8703B090909F4F618F618F618F62E
:101EF30022121DD57015121DAF08080860EAE644CA
:101F03007FF618768018E4F618F622121DAF6016D5
:101F1300121DB87012E4F608F608F608E65480F6C7
:101F230009090918181822EAC0E0EBC0E0ECC0E088
:101F3300EDC0E0E687F0A4FBACF008E687F0A42C44
:101F4300FCE435F0FA1809E687F0A42C4B60027420
:101F530001CA35F0FCE433FB09E687F0D2F7A42C81
:101F6300CB35F0FC1908E687F0A42BCC35F0FBE465
:101F730033FD0819E687F0D2E7A42C4ACB35F0CD20
:101F83003400FC09E687F0D2E7A42DCC35F0FDE45C
:101F930033FA0918E687F0D2F7A42CCD35F0CA340A
:101FA30000FC08E687F0D2E7D2F7A42ACC35F07A12
:101FB3007E20E70B0ACB33CBCD33CDCC33CC33CB25
:101FC3003350147004ED30E00ED2F1E4CD3DCDCCAE
:101FD3003CCC3B5005DA05C2F1EB547FC63308E62F
:101FE3003392F0FBE73309E733C39A502D2B701973
:101FF3000C0D4C4D70151806E608C333700D20F117
:102003000AA2F013F6E418800B4024E4F630F00241
:10201300768018F618F618F68024D33B1450107403
:10202300FFA2F013F6187680E418F618F6800FA2D4
:10203300F013F618E63303F618ECF618EDF6D0E0D5
:10204300FDD0E0FCD0E0FBD0E0FA22121DF86046A0
:10205300121DE9603DE9687008F618F618F618F6DF
:1020630022748067F7122082090909748067F722B6
:10207300121DE9601D121DF87005191919801A1235
:102083001DC1701F121DD5C37003E66733191919DB
:1020930040071818182208080874FFF618F618F6EF
:1020A30018F622121DD56017121DB8702192F01276
:1020B3001DAF7019501720F014080808090909E723
:1020C300F61819E7F61819E7F61819E7F622121D9C
:1020D300AF60E6E869701F0808E62480F608E43676
:1020E300F618547FB47F0CE654806007F6E418F6C4
:1020F30018F622181822E9C6CC08C6CD08C6CE08A1
:10210300C6CFC0E0E8C0E0EAC0E0EBC0E009E9F810
:1021130009E7FA09E7FBE6F918E6F8C3EC98ED9945
:10212300EE9AEBC2E7F5F0EFC2E795F0500E600CC4
:10213300EBCFFBEACEFAE9CDF9E8CCF8EAA2E7D295
:10214300E7FAEB33FB13F5F0EEA2E7D2E7FEEF334A
:10215300FFC5F013A2E730E601B313C5F0C3C0E037
:10216300C0F07F00C39BFB605E9418600F401D149A
:10217300601AD0E023F9D0E0F80222548AF0E9484B
:102183006003D2F0E4AFF0FAF9F8803BEB30E40DF2
:1021930089F0EA6003D2F0E4AFF0F9CAF8EB30E378
:1021A3000D88F0EF6002D2F0AFF0E4CAC9F8EB5447
:1021B300076014FBC3EA13FAE913F9E813F8EF1302
:1021C3005002D2E0FFDBEDD0E0C0E030E739C3E4FA
:1021D3009FFFF5F0EC98FC42F0ED99FD42F0EE9A8A
:1021E300FE42F0D0E0F9D0E0F8E5F0607AE923F9B7
:1021F300EE20E742D8028067C3EF33FFEC33FCEDF8
:1022030033FDEE33FE80EAEC28FCED39FDEE3AFEB9
:10221300D0E023F9D0E0F84002801BC3EE13FEEDBB
:1022230013FDEC13FCEF135002D2E0FF08B80006D5
:102233007F7F74FF802EEF3350178CF020F0026005
:10224300100CBC000C0DBD00080EBE000408E860B5
:10225300DFE933E813FFEE2313FE4F4D4C8008E90B
:102263005480FFE4FEFDFCEE33EF33F47004FCFD19
:102273007E80D0E0FBD0E0FAD0E0F8D0E0CFC61803
:10228300CEC618CDC618CCC6F922121DE9700418A3
:10229300181822121DF8700D74FFF61819F6181984
:1022A300F61819F622E7548066F6121DAF700F1266
:1022B3001DB870F014F608F608F608F680D1121D62
:1022C300B8700CF608F608768008E6447F80EC12B6
:1022D3001DD8700C121DC460BFE65480F6E480BBA9
:1022E300121DC4700519191980A5E869700C763F91
:1022F30018768018F618F6E8F922E6CDC0E018EC57
:10230300C0E0E633CD33CDD313F6E719FCE7191953
:1023130033CC33C3947F400ECD9D502408E65480C4
:10232300F6E418F6800FF4043D14501408E6447FD5
:10233300F6187680E418F618F6D0E0FCD0E0FD221B
:10234300CCD313CCFD18E4C6CBC0E018E4C6CAC096
:10235300E00808ED08C633E613F618E433C675F053
:1023630003C3CA97CA09CB97CB199C40047D088045
:102373002EBD000302243616B6FF050606081618FE
:10238300C3CA33CACB33CB33CA27CA09CB37CB191A
:102393003CC37D08803E187D0820E75CC633C6CA6F
:1023A30033CACB33CB33DDF1D5F0EB30E77BCA97C0
:1023B300CA09CB974ACB199C406F4B7025E620E0A6
:1023C300218066187D08C3CA97CA09CB97CB199C8D
:1023D300D3C633C6CA33CACB33CB3350C9DDE7D5F3
:1023E300F0E1D3E4C636C608C636C608C636C60804
:1023F300C636C61818188031C3CA97CA09CB97CBFB
:10240300199CB34097C633C6CA33CACB33CB33DD2B
:1024130034D5F02EC6A2E0C640C8CA27CA09CB37B6
:10242300194A70BECB3CB480B90808E63308E633DA
:10243300601F181818D0E0FAD0E0FBD0E0FCD0E021
:10244300FD22187D08CA27CA09CB37CB193CD38094
:102453008013F618E4B67F11F618B6FF0EF618C609
:102463000470D20808768080CAF618F618F680C57C
:10247300080808EAC0E0EBC0E086F0E7A4FA180910
:1024830086F0E7A42AFA180986F0E7A42AFA1809BD
:1024930086F0E7A42AFA1986F0E7A4FBE5F02AFA06
:1024A300190886F0E7A42BFBE5F03AFA190886F041
:1024B300E7A42BFBE5F03AFA18180986F0E7A4C560
:1024C300F02BFBE43AFA1908E7C5F0C6A426F6E5B3
:1024D300F03BFBE43AFA1886F0E7A4F6E5F00826A9
:1024E300F6E43B08F6E43A08F6D0E0FBD0E0FA2243
:1024F300E4CFC0E0E4CEC0E0E4CDC0E0E4CCC0E093
:1025030075F020E626F608E633F608E633F608E625
:1025130033F6181818EC33FCED33FDEE33FEEF33CE
:10252300FFC3EC9709ED9709EE9709EF971919196E
:10253300400FFFEC97FC09ED97FD09EE97FE191983
:1025430006D5F0BFECF709EDF709EEF709EFF71938
:102553001919D0E0FCD0E0FDD0E0FED0E0FF221856
:102563001818E4C396F608E496F608E496F608E429
:1025730096F6226016080808C6C313C618C613C603
:1025830018C613C618C613C6D5E0EA227009080890
:1025930008226016181818C6C333C608C633C608FF
:1025A300C633C608C633C6D5E0EA22E627F60809CD
:1025B300E637F60809E637F60809E637F622E02695
:1025C300F608A3E036F608A3E036F608A3E036F6ED
:1025D30022E026F008A3E036F008A3E036F008A3D3
:1025E300E036F022C3E697F60809E697F60809E60F
:1025F30097F60809E697F622C3E0C696F608A3E025
:10260300C696F608A3E0C696F608A3E0C696F62299
:10261300C3E096F008A3E096F008A3E096F008A3C1
:10262300E096F022E657F60809E657F60809E6575A
:10263300F60809E657F622E056F608A3E056F60830
:10264300A3E056F608A3E056F622E056F008A3E00E
:1026530056F008A3E056F008A3E056F022E066F631
:1026630008A3E066F608A3E066F608A3E066F62290
:10267300E0F608A3E0F608A3E0F608A3E0F622E6F6
:10268300F008A3E6F008A3E6F008A3E6F022E0FAD8
:10269300A3E0FBA3E0FCA3E0FD22EAF0A3EBF0A39D
:1026A300ECF0A3EDF022E0F8A3E0F9A3E0FAA3E055
:1026B300FB22E8F0A3E9F0A3EAF0A3EBF022CAC0FF
:1026C300E0E6F0A308DAFAD0E0FA22CAC0E0E0A319
:1026D300C582CCC582C583CDC583F0A3C582CCC5D5
:1026E30082C583CDC583DAE6D0E0CA22C3E498F875
:1026F300E499F91227308026C3E49AFAE49BFBE9B4
:1027030020E7E9122730E498F8E499F922C3E49822
:10271300F8E499F9122730E498F8E499F9C3E49AB4
:10272300FAE49BFB22EB20E7CFE920E7E0B90010B6
:10273300BB0008E88AF084F8AAF022E4FBC8FA2276
:10274300EB70227B10C833C8C933C9335007C39A0F
:10275300C3DBF280069A50012ADBEAC833F4C8C906
:1027630033F4C9FA2275F008E4C833C8C933C9334E
:10277300C99AC99B5004C92AC93BD5F0ECFBC8339D
:10278300F4C8E4C9FA22600D08C6A2E713C618C646
:1027930013C6D5E0F322600C08C6C313C618C613CC
:1027A300C6D5E0F422700422600D18C6C333C608F0
:1027B300C633C6D5E0F41822251810AF08F5184023
:1027C3000C15198008F51840021519D2AF2200C064
:1027D300D0251810AF08F518500C05198008F51806
:1027E30050020519D2AFD0D0222518F58210AF08B8
:1027F300F518400C15198008F51840021519D2AFC9
:10280300851983222518F582E43519F583222518C5
:10281300F8E43519F9222518FAE43519FB222518AD
:10282300FCE43519FD22E4732518C582C0E0E519DF
:1028330034FFC583C0E0E518C3958224F810AF08C0
:102843008583198582188008858319858218D2AFFC
:10285300CEF0A3E520F0A37808E608F0A3DEFAEFB4
:10286300F0A3E58124FAF8E608F0A3E608F0A3E66E
:1028730008F0A30808E608F0A3E608F0A3158115FD
:1028830081D0E0FED0E0F8158115811581E8C0E024
:10289300EEC0E0222518C582C0E0E51934FFC583E8
:1028A300C0E0E518C3958224F910AF088583198524
:1028B30082188008858319858218D2AFCEF0A3E5EC
:1028C30020F0A37808E608F0A3DEFAEFF0A3E58191
:1028D30024FBF8E608F0A3E608F0A30808E608F0EE
:1028E300A3E608F0A315811581D0E0FED0E0F8152A
:1028F300811581E8C0E0EEC0E02285198385188246
:10290300E0A3FEE0A3F5207808E0A3F608DFFAE0F1
:10291300A3FFE0A3C0E0E0A3C0E0E0A3C0E0E0A326
:10292300C0E0E0A3C0E010AF08858218858319805A
:1029330008858218858319D2AFD083D08202011F04
:10294300851983851882E0A3FEE0A3F5207808E0CB
:10295300A3F608DFFAE0A3FFE0A3C0E0E0A3C0E032
:10296300E0A3C0E0E0A3C0E010AF08858218858330
:10297300198008858218858319D2AFD083D082222B
:10298300C0D02518C582C0E0E51934FFC583C0E077
:10299300E518C3958224F310AF088583198582183F
:1029A3008008858319858218D2AFC8F0A3E9F0A304
:1029B300EAF0A3EBF0A37908E709F0A3D8FAECF067
:1029C300A3EDF0A3EEF0A3EFF0A3D0E0F0A3D0E0EB
:1029D300F0A3D0E0F0A3E520F0A3E5F0F0A3228577
:1029E3001983851882E0C0E0A3E0F9A3E0FAA3E02D
:1029F300FBA37808E0F608A3DFFAE0FCA3E0FDA35D
:102A0300E0FEA3E0FFA3E0C0E0A3E0C0E0A3E0F5A5
:102A1300D0A3E0F520A3E0A3F5F010AF0885831958
:102A23008582188008858319858218D2AFD082D019
:102A330083D0E0F8D0E0327404800674028002741C
:102A430001C0E0F4041227ECD0E01226C122740482
:102A5300800474028000CCC0E0EDC0E0E518C39CA4
:102A6300CCAD1950011D10AF068C188D1980068C42
:102A7300188D19D2AF1226CED0E0FDD0E0FC22D0C3
:102A830083D082E9C0E0E493A3C386F0C5F095F058
:102A9300F908E493A386F0C5F095F0700BE493A3D3
:102AA300C3994005E9048002A3E475F002A42582DA
:102AB300F582E5F03583F583D0E0F9E493A3C0E034
:102AC300E493C0E022D083D082ECC0E0EDC0E0E428
:102AD30093A3FCE493A3FDED4C600D122B14EC24A3
:102AE300FFFCED34FFFD80EFE493A3FCE493A3FD2F
:102AF300ED4C600D122B53EC24FFFCED34FFFD80F5
:102B0300EFD0E0FDD0E0FCE493A3C0E0E493C0E0A9
:102B130022C0E0C3E49396087401939618400FE42F
:102B23009366700808740193661870007019A3A364
:102B3300C3E49396087401939618A3A3400DD0E0C1
:102B4300D0E0D0E0022B04A3A3A3A3A3A3D0E0224D
:102B5300C0E0C0F088F0E4936670080874019366DF
:102B6300187000A8F0A3A3700BD0F0D0E0D0E0D091
:0B2B7300E0022B04A3A3D0F0D0E0226E
:102B800074F6122897EAFEEBFF8C088D09EE2434C8
:102B9000F8E43FF9E8FCE9FD122CB2E0FAEE243744
:102BA000F582E43FF583E0F88508F0A4C885F00AD3
:102BB0008509F0A4250AF9EA28F8E439F97A257B91
:102BC00000122730EA8C828D83F0FA131313541FFE
:102BD000F8EE28F8E43FF9E8245DF582E439F5835E
:102BE000E0C0E074075AF8D0E0B800028004C313D4
:102BF000D8FCA2E05003EA8020EE2436F582E43FC0
:102C0000F583E0F5F0EA84A8F0EE28F8E43FF9E86F
:102C10002438F582E439F583E0F97F03022943740F
:102C2000F5122897EAFEEBFFEE2434F582E43FF537
:102C300083E0C0E0122CB2D0E0F08E828F83A3A399
:102C4000A3A3A3E0FAA3E0FB8E828F83A3A3A3A395
:102C5000A3A3A3E0C39AF508A3E09BF509EE247FA4
:102C6000F8E43FF9880A890B8882F583E0640170F3
:102C70002CEE2480F582E43FF583EA2401F8E43B5E
:102C8000F9E0687003A3E06970137C1A7D08EEFA1E
:102C9000EFFB121004850A82850B83E4F0AC08ADCB
:102CA00009EEFAEFFB122B80E9F91235237F0402BB
:102CB0002943EE2435F582E43FF58322C082C083A8
:102CC000851882851983E0F8A3E0F9C3EA9CEB9D9F
:102CD0005010C3EC98ED99401BC3EA98EB9950143F
:102CE000800EC3EA98EB994007C3EC98ED99400435
:102CF000790180027900D083D08222EAC39CFAEB6A
:102D00009DFB2274ED1228979004C3E064086005CF
:102D1000E06407702C9061C8E060269004F1E0F850
:102D200074FF68601CE875F00DA4C8AAF02AF97455
:102D3000F328FE740439FF8E828F83A3A3A3E0706F
:102D4000057900022EA5EE2468F50EE43FF50F90FC
:102D50006060E0850E82850F83F07510B4751108F0
:102D6000750800750900E5D914F50AE5D95403F58D
:102D70000B601FEE2483F50CE43FF50D7403650B27
:102D80006059E50A6017EE2467F582E43FF583E0B9
:102D9000700B793DEEFAEFFB12103480A49008AF6F
:102DA000E064016023850C82850D83E060047A0471
:102DB00080027A00E50AC39AFA95E0FB120DE88AD0
:102DC000088B09EA45097006121322022D41850C71
:102DD00082850D83E070048A108B117A008014E5DF
:102DE000D9C0E0EAF8E51028F582E43511F583D082
:102DF000E0F00AEAC3950A40E6850C82850D83E07F
:102E0000602874FC250AF50A7810122A3EAC0AA93B
:102E10000BEEFAEFFB1210EE74021227D1E9700AE2
:102E2000AA08AB091218D4022D927403650B6054E2
:102E3000850A0C750D00780C122A3EAC10AD11AA53
:102E400008AB091210B274021227D1850E82850FC9
:102E500083E0F87480687005750C7F8002880CE54B
:102E60000CF50D780D122A42780B122A42A90AACF1
:102E700008AD099004F1E0FA7B00120C087402120C
:102E800027D1801C9004C3E06408AC10AD11700918
:102E9000EEFAEFFB12111E8007EEFAEFFB1211D8CB
:102EA00012132E79017F0C02294374F312289774B0
:102EB000FC1227BBEAFEEBFF8909A2AFE433F50859
:102EC000C2AFEE2463F50AE43FF50B8010AA0AAB0B
:102ED0000B12106A1218D4900821E004F0850A82BF
:102EE000850B83E0F8A3E0F9E849602DE82402FAB5
:102EF000E439FBEA2402F50CE43BF50D780C122AC8
:102F00003E8A828B83E0FCA3E0F9EEFAEFFB12101D
:102F10005E74021227D1E960B4900821E0604D9000
:102F20000822E0F8900821E0C398500C740265096B
:102F3000703A900823E060348E828F83A3A3A3A30A
:102F4000E0851882851983122F7C7402122807E805
:102F5000122F7C900820E028F07402122821AA1871
:102F6000AB197901120C68900821E4F0E508A2E0A1
:102F700092AF74041227D17F06022943F0A3E4F034
:102F8000900821E0F82200008521878522C622C012
:102F9000E074EB122983A2AFE433F508C2AF759B4E
:102FA00000906182E0A2E05030E591A2E0502A75E5
:102FB00091FE7401652170211231221212321231F8
:102FC00010122A511232CD74041227D1E964017013
:102FD000057901121280122D03906182E0A2E55062
:102FE0005DE591A2E550577591DF9004C3E0640759
:102FF0006005E06408702F12312274016521703E73
:10300000121232123110122A511232CD74041227C8
:10301000D1E96401700579011212807901EEFAEFAD
:10302000FB122EAA8018E0640D70139004E5E004F2
:10303000F064287002E4F07A00E0F9121334906131
:1030400082E0A2E640030230E5E591A2E6400302F9
:1030500030E57591BF9004C3E06405700812121A40
:10306000121226800312122075210012129EE9907E
:1030700004C4F07900121280120F267A017B0090AE
:1030800004C2E0F91218A4907803E06442705690EC
:1030900008B3E014F0704EC2AF12309C00782AD012
:1030A000E0F618D0E0F6E59F5407F87005750DFFBF
:1030B0008003750D7FC4C0E07829E6F50A08E6555F
:1030C0000DF50B740B780A122799D0E0250AF890B9
:1030D0006270E0A2E740F8E8C333906272F0906259
:1030E00070E0D2E0F0906181E0A2E35009E5E9A24E
:1030F000E3500375E9F7A3E0A2E75009E591A2E7E1
:10310000500375917FE508A2E092AF7F080229E2A3
:103110008E828F83E0F8A3E0C82416F582E438F5A8
:1031200083229004F1E0F875F00DA4C8AAF02AF902
:1031300074F328FE740439FF22C0E0C0D0C082C0FE
:1031400083906183E0A2E05009E5BFA2E0500375DF
:10315000BFFEE0A2E15009E5BFA2E1500375BFFD4B
:10316000E0A2E25009E5BFA2E2500375BFFBE0A276
:10317000E35009E5BFA2E3500375BFF7E0A2E450B6
:1031800009E5BFA2E4500375BFEFE0A2E55009E5F1
:10319000BFA2E5500375BFDFE0A2E65009E5BFA27C
:1031A000E6500375BFBFD083D082D0D0D0E032C00C
:1031B000E074F2122983E5A7A2E4500FE5A1A2E48E
:1031C000500953A7EF75A1EF123203E5A7A2E5500E
:1031D0000CE5A1A2E5500653A7DF75A1DFE5A7A284
:1031E000E15009E5A1A2E1500375A1FDE5A7A2E226
:1031F000500CE5A1A2E2500653A7FB75A1FB7F018D
:103200000229E274F81228977521019004C3E06442
:103210000670077A007B00121202A2AFE433FED2DE
:10322000AF9004C9E0640170187A207B009004C25A
:10323000E0F91219E27A207B009004C2E0F912183A
:10324000AA906182E0D2E6F09008B0E0602185C6E5
:103250002280169004C8E064017008E5C654F84462
:1032600005F5C653BEFC122F887401652160E4EE9B
:10327000A2E092AF7F010229430000008E238F2439
:10328000858228858327851882851983E0CEA3E06F
:10329000CF852882852783EBC9EAC8EDCBECCA75B8
:1032A000F010C3E833C8E933C9EA33CAEB33CBC300
:1032B000EA9EF526EB9FF525B35004AB25AA26EC34
:1032C00033CCED33CDD5F0DAAE23AF242274F11236
:1032D00028978A088B098C0A8D0B9095E87808123C
:1032E000263A740F122807780C1226739095E87806
:1032F0000C12263A7808790C121C699096485010E6
:103300007808790C1225E77808121C894014800E81
:10331000780C79081225E7780C121C895004790181
:10332000800279007F0802294374ED1228978A08E9
:103330008B098C0A8D0B9095E8780812263A741345
:10334000122807780C1226739095E8780C12263A0A
:10335000780C7908121C6940117808790C1225E75D
:10336000AA08AB09AC0AAD0B8022751000751100DC
:103370007512007513017810790C1225E778107911
:10338000081225AEAA10AB11AC12AD137F0C0229A6
:10339000439095E878081226738A828B8378081206
:1033A000264D7F0402294374F51228978C828D8361
:1033B00078081226738A828B8378081226131233B8
:1033C000FBC3E098F0A3E0991233ED401E909628DD
:1033D00078081226738A828B8378081225D48E820D
:1033E0008F83E02420F0A3E0344EF080A4F08E829E
:1033F0008F83C3E09420A3E0944E22EA2404F8E4EF
:103400003BF9E8FEE9FF8C828D83A3A3A3A3E0F838
:10341000A3E0F98E828F832274F5122897E9FE903B
:10342000083CE0FAA3E0FBEE29F8E433F9747728CE
:10343000F582749139F583E02AF508A3E03BF5099C
:103440007808122A3E9095FC12269112327C740262
:103450001227D18A088B098C0A8D0B7410780812F8
:103460002576AA08AB097F0402294374F112289734
:103470008A0C8B0D8C0E8D0F7411122807122A5591
:103480007411122807E02401F508A3E03400F509BF
:10349000E4F50AF50B780C790812247390964478B9
:1034A00008122673780C7908122473AA0CAB0DACA1
:1034B0000EAD0F12327C74021227D18B09EA450936
:1034C00060047A0180027A00EC2AFCE43DFD74136A
:1034D000122807E0F8A3E0F9E8FEE9FFECF8EDF9BF
:1034E0007A717B0212273088088909E4F50AF50B06
:1034F0008E828F837808122682ECF8EDF97A717B40
:10350000021227308A088B09740578081227A88EC2
:10351000828F83A3A3A3A3E508F0A3E509F07F08A6
:10352000022943C082C083E9906000F0D083D0823A
:1035300022C0E074F2122983A2AFE433FED2AFC2FC
:10354000C0E5D1A2E4500675D10F1217E4EEA2E057
:1035500092AF7F010229E2C0E074F2122983A2AF88
:10356000E433FED2AFE589A2E14006E589A2E2504C
:1035700003121766758900758900C2C5EEA2E09234
:10358000AF7F010229E2C0E074F2122983A2AFE406
:1035900033FED2AFE58BA2E05003121766758B00A5
:1035A000C2E8EEA2E092AF7F010229E2C0E0C0D003
:1035B000E8C0E0A2AFE433F8D2AFC2C7E8A2E0921D
:1035C000AFD0E0F8D0D0D0E032C0E0C0D0E8C0E06A
:1035D000E9C0E0EAC0E0EBC0E0C082C083A2AFE493
:1035E00033F9D2AF90113CE0F890113DE068700BD8
:1035F000539AFB90113E7401F0802EC2E990113C69
:10360000E0F874012890113CF0E8FA7B0074BC2AC1
:10361000F58274103BF583E0F5C190113CE0C39452
:1036200080400690113C7400F0E9A2E092AFD08394
:10363000D082D0E0FBD0E0FAD0E0F9D0E0F8D0D0F2
:10364000D0E032C2AF0200002202011FFFFFFFFFE5
:10365000FFFFFFFFEAF8EBF9E824FFFAE934FFFB8C
:10366000E84960217800790078DC7905C3E89401A5
:10367000E99400A2D265D03340DA00E824FFF8E9EB
:1036800034FFF980E702011F74F712282B890878AC
:1036900000800108E8C395085022E8FE7F00EA2E6A
:1036A000F582EB3FF583E0F9E8FE7F00EC2EF58232
:1036B000ED3FF583E06960DB7900800279017F01ED
:1036C0000228FD74F012282BE9FE7C0075080075B5
:1036D0000900750A00750B00803A909664780C1208
:1036E00026737808790C122473ECF87900EA28F52F
:1036F00082EB39F583E0F87900E824D0F50CE93461
:10370000FFF50DE50D3395E0F50EF50F7808790C12
:103710001225AE0CECC39E500FECF87900EA28F5A8
:1037200082EB39F583E070B2AA08AB09AC0AAD0BA5
:103730007F080228FD74F712282B74EF1227BB9024
:103740009155AC18AD1974111226CE78F2791988FA
:103750008289837430F088828983A3A882A98388B0
:103760008289837478F088828983A3A882A983EAF6
:103770002406FA50010B7E06806AEA24FFFAEB3435
:10378000FFFB8A828B83E0C4540FFC7D0085188286
:10379000851983E5822CF582E5833DF583E0C0E061
:1037A00088828983D0E0F088828983A3A882A98354
:1037B0008A828B83E0FC7D00EC540FFCED5400FD0D
:1037C000851882851983E5822CF582E5833DF58392
:1037D000E0C0E088828983D0E0F088828983A3A852
:1037E00082A9831EEE7093888289837400F07AF236
:1037F0007B1974111227D17F010228FDC082C0837A
:103800007C397D197AB679801219ACE9D083D082DF
:1038100002011F74F712282BE9FEEE60030238AE96
:103820009019397404F090193A7400F090193B74AF
:1038300000F090193C7400F07C687D947A3D7B190F
:10384000121C169019497400F07C5F7D957A4A7BB2
:1038500019121C169019517400F07C0D7D0079002E
:103860007A527B1912186290196C7400F090196DDD
:103870007400F07C787D0079007A6F7B19121862F1
:103880009019E77400F0A37400F09019E97400F047
:103890009019EA7400F09019EB7400F09019EC7430
:1038A000F4F0A37401F09019EE7400F0802B740111
:1038B0006E70267C0D7D0079007A527B1912186299
:1038C00090196C7400F090196D7400F07C787D0094
:1038D00079007A6F7B191218627C007D0079007A7A
:1038E000097B041215E0E9121A607F010228FD74B9
:1038F000F412282B74D31227BB901939E0F5087500
:1039000009007808122A3E7C9E7D8E7402122819C6
:10391000121C1674021227D1AA18AB191218448A65
:10392000088B09AC08AD09AA18AB1912180E7A64F5
:103930007B00121A4890193AE0F5087509007808DA
:10394000122A3E7C237D8F7402122819121C1674D1
:10395000021227D1AA18AB191218448A088B09AC95
:1039600008AD09AA18AB1912180E7A647B00121A56
:103970004890193BE0F5087509007808122A3E7C4A
:10398000EF7D8E7402122819121C1674021227D1B0
:10399000AA18AB191218448A088B09AC08AD09AAF9
:1039A00018AB1912180E7A647B00121A4890193C51
:1039B000E0F5087509007808122A3E7C427D907473
:1039C00002122819121C1674021227D1AA18AB1958
:1039D0001218448A088B09AC08AD09AA18AB191251
:1039E000180E7A647B00121A4875083D750919781B
:1039F00008122A3E7C597D907402122819121C1656
:103A000074021227D1AA18AB191218448A088B091C
:103A1000AC08AD09AA18AB1912180E7A647B001213
:103A20001A48901949E0F5087509007808122A3EED
:103A30007CE67D8F7402122819121C16740212275C
:103A4000D1AA18AB191218448A088B09AC08AD0921
:103A5000AA18AB1912180E7A647B00121A4875085E
:103A60004A7509197808122A3E7C2B7D907402123F
:103A70002819121C1674021227D1AA18AB19121891
:103A8000448A088B09AC08AD09AA18AB1912180EA4
:103A90007A647B00121A48901951E0F50875090004
:103AA0007808122A3E7C147D907402122819121C88
:103AB0001674021227D1AA18AB191218448A088B5F
:103AC00009AC08AD09AA18AB1912180E7A647B006C
:103AD000121A487508527509197808122A3E7CB9DD
:103AE0007D8E7402122819121C1674021227D1AA94
:103AF00018AB191218448A088B09AC08AD09AA182A
:103B0000AB1912180E7A647B00121A4875080075FA
:103B10000900023BA49092ED7420122821740D122A
:103B200026CE750A0C750B00780A122A3EA808A941
:103B300009E875F00CA4C8AAF075F000A42AFA757B
:103B4000F00CE9A42AF9746F28FC741939FD742269
:103B500012281912184A74021227D174201228113F
:103B6000880A890B780A122A3E7808122A3E7C8D30
:103B70007D937404122819121C1674041227D1AAFA
:103B800018AB191218448A0A8B0BAC0AAD0BAA1891
:103B9000AB1912180E7AC87B00121A480508E508FE
:103BA0007002050990196CE0F87900C3E50898E502
:103BB0000999A2D265D0335003023B159019E71240
:103BC0002A557C587D8E7402122819121C16740214
:103BD0001227D1AA18AB191218448A088B09AC080D
:103BE000AD09AA18AB1912180E7A647B00121A4894
:103BF0009019E9E0F5083395E0F5097808122A3EB6
:103C00007C707D907402122819121C1674021227FF
:103C1000D1AA18AB191218448A088B09AC08AD094F
:103C2000AA18AB1912180E7A647B00121A48901960
:103C3000EBE0F5087509007808122A3E7C097D8FB3
:103C40007402122819121C1674021227D1AA18AB7A
:103C5000191218448A088B09AC08AD09AA18AB19C7
:103C600012180E7A647B00121A489019EC122A5529
:103C70007C2E7D8E7402122819121C1674021227D3
:103C8000D1AA18AB191218448A088B09AC08AD09DF
:103C9000AA18AB1912180E7A647B00121A489019F0
:103CA000EEE0F5087509007808122A3E7CD47D8E76
:103CB0007402122819121C1674021227D1AA18AB0A
:103CC000191218448A088B09AC08AD09AA18AB1957
:103CD00012180E7A647B00121A48742D1227D17FB5
:103CE000040228FDC082C083901949E0F9D083D036
:103CF0008202011FC082C083121A72E9640170102F
:103D0000901A70E064027004790180127900800ECC
:103D1000901A7BE064067004790180027900D083F8
:103D2000D08202011F74F412282B74F41227BBEA0C
:103D3000FEEBFF121A72E964016003023DEE7508A2
:103D4000008002050890196CE0F8E508C39850332C
:103D5000AA18AB19A908121A84E96027750A0C750C
:103D60000B00780A122A3EEEFCEFFD7402122819AD
:103D700012185C74021227D1E960C8E50890196E28
:103D8000F0806B75080C7509007808122A3EEEFC6D
:103D9000EFFD90196DE0F87900E875F00CA4C8AA61
:103DA000F075F000A42AFA75F00CE9A42AF9746FF2
:103DB00028FA741939FB12184A74021227D1901983
:103DC0006DE090196EF090196DE02401F090196D7E
:103DD000E075F00A84E5F090196DF090196CE0C37D
:103DE000940A500790196CE02401F0121A60740CC8
:103DF0001227D17F040228FD74F412282B8908EAC7
:103E0000FEEBFF121A72E96401704890196CE0F839
:103E1000E508C398503D750A0C750B00780A122A04
:103E20003EE508F87900E875F00CA4C8AAF075F032
:103E300000A42AFA75F00CE9A42AF9746F28FC741E
:103E40001939FDEEFAEFFB12184A74021227D179E4
:103E500001800279007F040228FD02011FC082C098
:103E60008390193BE0FD90193AE0FC901939E0F994
:103E70007ADE7B1A121802121A72E96401700D7C44
:103E8000157D007A9E7B9012180E800B7C187D00A9
:103E90007A557B8F12180ED083D08202011F74ECEA
:103EA00012282B7E31750C00750D00750E40750FB4
:103EB00040121BD48A088B09A808A909EEFA7B00D6
:103EC000E8C39AF508E99BF509E5093395E0F50A99
:103ED000F50B7808121CA890966878101226737853
:103EE0000C7910121ECE7808790C12228D780812E7
:103EF0002A3A909668122691121C0A74041227D14D
:103F00007F0C0228FD74F512282B780079007C00C4
:103F10007D007E007F007508E8750903901A0BE0AC
:103F2000640560030240A6901A0CE0F8A3E0F9E8EB
:103F300075F002A4C885F00A75F000A4250AF50AF8
:103F400075F002E9A4250AF9740128F582741A397A
:103F5000F583EAF0A3EBF0901A0CE02401F0A3E063
:103F60003400F0901A0CE0F8A3E0F97A057B001217
:103F70002728901A0CEAF0A3EBF0780079000240B1
:103F800078E8FAE9FBEA75F002A4CA85F00A75F050
:103F900000A4250AF50A75F002EBA4250AFB7401BA
:103FA0002AF582741A3BF583E0FAA3E0FBC3EE9A8C
:103FB000EF9BA2D265D0335028E8FAE9FBEA75F00E
:103FC00002A4CAAEF075F000A42EFE75F002EBA4B8
:103FD0002EFB74012AF582741A3BF583E0FEA3E000
:103FE000FFE8FAE9FBEA75F002A4CA85F00A75F069
:103FF00000A4250AF50A75F002EBA4250AFB74015A
:104000002AF582741A3BF583C3E09508A3E095096D
:10401000A2D265D033502EE8FAE9FBEA75F002A48B
:10402000CA85F00875F000A42508F50875F002EBC4
:10403000A42508FB74012AF582741A3BF583E0F588
:1040400008A3E0F509E8FAE9FBEA75F002A4CA85DD
:10405000F00A75F000A4250AF50A75F002EBA42514
:104060000AFB74012AF582741A3BF583E02CFCA349
:10407000E03DFD08E8700109C3E89405E99400A259
:10408000D265D0335003023F81ECC39EF8ED9FF917
:10409000E8C39508F8E99509F97A037B0012272807
:1040A000E8FAE9FB8036901A0BE0F87900E875F041
:1040B00002A4C8ACF075F000A42CFC75F002E9A4D1
:1040C0002CF9740128F582741A39F583EAF0A3EB10
:1040D000F0901A0BE02401F07A007B007F030228A5
:1040E000FD74F012282B74E01227BBE9FEEE901944
:1040F000E9F0121A78E9700302418EEEFA3395E086
:10410000FB121A968A088B098C0A8D0B90966C7894
:104110000C1226737808790C121ECE7808121D2016
:10412000AA08AB09121A9C8A088B097808122A3E41
:10413000EEF404F5087509007808122A3E7C447DE7
:10414000917404122819121C1674041227D19019A4
:10415000F0E0603AAA18AB19121C288A088B09AC47
:1041600008AD09AA18AB1912180EAA18AB19121C1F
:10417000288A088B09AC08AD09AA18AB19120548A2
:10418000E97A107B00901A3BE0F91218A4E9742038
:104190001227D17F080228FD74F612282B74E8122A
:1041A00027BB908F6EAC18AD1974181226CE750807
:1041B0004A7509197808122A3E7C6A7D92740212A7
:1041C0002819121C1674021227D1AA18AB1912183A
:1041D000448A088B09AC08AD09AA18AB1912180E4D
:1041E00074181227D17F020228FD7A3D7B19020143
:1041F0001FC082C083121AEAD083D08202011FC07E
:1042000082C083901951E0F9D083D08202011F74DB
:10421000F012282B79067A4A7B19121A548A0C8BD1
:104220000D8C0E8D0F850C08850D09850E0A850FE6
:104230000B9095FC780C1226737808790C1224F3F5
:10424000AA0CAB0DAC0EAD0F7F080228FDC082C0DA
:104250008390193CE064027004790180027900D0F7
:1042600083D08202011FC082C08390193CE0700499
:10427000790180027900D083D08202011F74F61286
:10428000282B9019F1E0640370047900807690196E
:10429000F1E0640160089019F1E064047041901944
:1042A0006CE0605E75080C7509007808122A3E9073
:1042B000196EE0F87900E875F00CA4C8ACF075F060
:1042C00000A42CFC75F00CE9A42CF9746F28FC7484
:1042D0001939FD12184A74021227D17901802590EC
:1042E00019F1E06402701B75080C7509007808125A
:1042F0002A3E7C5F7D1912184A74021227D1790177
:10430000800279007F020228FD74F612282B901992
:10431000ECE0F508A3E0F509AA08AB09E4FCFD7F91
:10432000020228FD74EB12282B74F41227BB8A14A6
:10433000750B147405551470030245507E007F0000
:104340009019EF7400F0901CB7E0640170421218ED
:104350001A8A088B09AE08AF09EE4F6030C3EE949D
:1043600015EF940040047E147F00EEFAEFFB121963
:104370002E8A0A8B0B850A08850B09EEFCEFFDAA35
:1043800008AB09121808AA08AB09121934024550E3
:1043900012181A8A088B09AE08AF09EE4F701590F3
:1043A0001A127400F0A37400F0A37400F0A3740058
:1043B000F0024550901A121226A9E8494A4B70297A
:1043C0001219F4EAF8EBF9ECFAEDFB901A0E12264A
:1043D000B5EEFCEFFDE4FEFF901A12ECF0A3EDF059
:1043E000A3EEF0A3EFF0024550121A78E9700575BC
:1043F0000B168003750B141219F48A0C8B0D8C0E9E
:104400008D0FE50BF87900C3EE98EF99502990963F
:1044100070C082C083850C10850D11850E12850F2A
:1044200013901A0E78101225FBD083D082781012C8
:104430001C894003024550750A00E50BFA7B001207
:10444000192E8A108B11851008851109E508450978
:10445000700E7C047D007AB77B9512180E024550D1
:10446000E50BF87900C3E89EE99F5005850B0A80AB
:1044700003EEF50A121A78E960030244FEE50AFC2D
:104480007D00AA08AB09121808E50AC39403404747
:10449000E50AF87900E50828F8E50939F9E824FE85
:1044A000F582E934FFF583E0640D702BE50AF879B5
:1044B00000E50828F8E50939F9E824FFF582E93430
:1044C000FFF583E0640A700FE50AFC7D00AA08ABE3
:1044D00009121AE4E98002740070497CD27D94AA22
:1044E00018AB19121C16AA18AB191218448A108B93
:1044F00011AC10AD11AA18AB1912180E8026E50ADE
:10450000FC7D00AA08AB09121808E50AFC7D00AA88
:1045100008AB09120548E97A107B00901A3BE0F9D4
:104520001218A4E9901A0E780C122682E50AF8797E
:1045300000EEC398FCEF99FDE4FEFF901A12ECF038
:10454000A3EDF0A3EEF0A3EFF0AA08AB0912193423
:10455000740C1227D17F0D0228FD74E912282B74E8
:10456000B91227BBEAFEEBFF8C088D0975140175A3
:1045700015007404650870047400650970347904CA
:104580007CBC7D95EEFAEFFB121A4EE960247CB2FA
:104590007D95AA18AB19121C16AA18AB191218444B
:1045A0008A088B09AC08AD09AA18AB1912180E02BB
:1045B00055677408650870047400650970167908F9
:1045C0007C177D94EEFAEFFB121A4EE96006121A80
:1045D0006C025567740A650870047400650960030D
:1045E0000246A779077CF27D94EEFAEFFB121A4E91
:1045F000E970030246A78E828F83A3A3A3A3A3A37C
:10460000A3E024D0604B1460481460451460421449
:10461000603F24F560030246A1901939E0F5087562
:1046200009007808122A3E7C517D937402122819E1
:10463000121C1674021227D1AA18AB191218448A38
:10464000088B09AC08AD09AA18AB1912180E02554F
:10465000678E828F83A3A3A3A3A3A3A3E024D090F8
:104660001939F0121A60901939E0F50875090078C7
:1046700008122A3E7C457D937402122819121C16DA
:1046800074021227D1AA18AB191218448A088B0990
:10469000AC08AD09AA18AB1912180E751501025510
:1046A00067751400025567740A6508700474006524
:1046B00009701679077C0A7D95EEFAEFFB121A4E07
:1046C000E96006751400025567740A650870047481
:1046D000006509701679077C127D95EEFAEFFB12E2
:1046E0001A4EE96006751400025567740A65087071
:1046F000047400650960030247B879077C1A7D9548
:10470000EEFAEFFB121A4EE970030247B88E828F61
:1047100083A3A3A3A3A3A3A3E024D0604514604272
:1047200014603F24F360030247B290193CE0F5089F
:104730007509007808122A3E7C517D937402122874
:1047400019121C1674021227D1AA18AB1912184498
:104750008A088B09AC08AD09AA18AB1912180E0209
:1047600055678E828F83A3A3A3A3A3A3A3E024D022
:1047700090193CF0121A6090193CE0F50875090098
:104780007808122A3E7C457D937402122819121C67
:104790001674021227D1AA18AB191218448A088B72
:1047A00009AC08AD09AA18AB1912180E751501024B
:1047B0005567751400025567E508C3940AF8E509C2
:1047C0009400F9C3E8940BE99400400302489379FC
:1047D000077C227D95EEFAEFFB121A4EE970030278
:1047E00048938E828F83A3A3A3A3A3A3A3E0643FD4
:1047F000703575083D7509197808122A3E7C397D97
:10480000937402122819121C1674021227D1AA18C6
:10481000AB191218448A088B09AC08AD09AA18AB69
:104820001912180E0255677C0C7D0079007A3D7BC9
:1048300019121862E50824F9F508E50934FFF509AD
:104840007808122A3EEE2407FCE43FFD7A3D7B19EE
:1048500012184A74021227D1121A6075083D7509A0
:10486000197808122A3E7C2D7D93740212281912A1
:104870001C1674021227D1AA18AB191218448A0800
:104880008B09AC08AD09AA18AB1912180E751501E1
:10489000025567740A6508700474006509703C79F4
:1048A000087CB97D94EEFAEFFB121A4EE9602C7C7D
:1048B000997D93AA18AB19121C16AA18AB191218D5
:1048C000448A088B09AC08AD09AA18AB1912180E56
:1048D0007900121A66751501025567740A65087029
:1048E0000474006509701679087C4D7D94EEFAEF2A
:1048F000FB121A4EE96006751501025567740A65C8
:104900000870047400650960030249D579077CDAF0
:104910007D94EEFAEFFB121A4EE970030249D58E30
:10492000828F83A3A3A3A3A3A3A3E024D0604214F4
:10493000603F24F260030249CF901949E0F5087501
:1049400009007808122A3E7C517D937402122819BE
:10495000121C1674021227D1AA18AB191218448A15
:10496000088B09AC08AD09AA18AB1912180E02552C
:10497000678E828F83A3A3A3A3A3A3A3E024D0F96C
:10498000E970089019497400F08006901949740183
:10499000F0121A60901949E0F508750900780812BC
:1049A0002A3E7C457D937402122819121C1674024B
:1049B0001227D1AA18AB191218448A088B09AC081F
:1049C000AD09AA18AB1912180E75150102556775B5
:1049D0001400025567740A65087004740065097054
:1049E0001079087C5F7D94EEFAEFFB121A4EE970A5
:1049F00022740F65087004740065096003024AB4EC
:104A000079077C2A7D95EEFAEFFB121A4EE97003C6
:104A1000024AB48E828F83A3A3A3A3A3A3A3E064BB
:104A20003F703575084A7509197808122A3E7C9F2F
:104A30007D927402122819121C1674021227D1AA30
:104A400018AB191218448A088B09AC08AD09AA18CA
:104A5000AB1912180E02556775080675090078081B
:104A6000122A3EEE2407FCE43FFD7A4A7B19121815
:104A70004A74021227D19019507400F0121A60750E
:104A8000084A7509197808122A3E7C2D7D93740214
:104A9000122819121C1674021227D1AA18AB191267
:104AA00018448A088B09AC08AD09AA18AB1912186A
:104AB0000E025567740A6508700474006509600386
:104AC000024B7E79077CC27D94EEFAEFFB121A4E00
:104AD000E97003024B7E8E828F83A3A3A3A3A3A3BB
:104AE000A3E024D0604214603F24F26003024B78BC
:104AF000901951E0F5087509007808122A3E7C519A
:104B00007D937402122819121C1674021227D1AA5E
:104B100018AB191218448A088B09AC08AD09AA18F9
:104B2000AB1912180E0255678E828F83A3A3A3A31D
:104B3000A3A3A3E024D0901951F0121A6090195148
:104B4000E0F5087509007808122A3E7C457D9374CB
:104B500002122819121C1674021227D1AA18AB19B6
:104B60001218448A088B09AC08AD09AA18AB1912AF
:104B7000180E751501025567751400025567C3E5D7
:104B800008940AE5099400404579087C9E7D94EEDE
:104B9000FAEFFB121A4EE96035750852750919785B
:104BA00008122A3E7CD37D927402122819121C1618
:104BB00074021227D1AA18AB191218448A088B095B
:104BC000AC08AD09AA18AB1912180E025567740A81
:104BD00065087004740065096003024C6979087CFB
:104BE000567D94EEFAEFFB121A4EE9607C121A72AF
:104BF000E96401706E9096147443122821740412B3
:104C000026CE7E009019F17401F090196CE07004CA
:104C10007E0180057E00121B02EEF83395E0F974E8
:104C200043122807E58228F582E58339F583E0F50C
:104C3000087509007808122A3E7C5D7D9374021283
:104C40002819121C1674021227D1AA18AB191218AF
:104C5000448A088B09AC08AD09AA18AB1912180EC2
:104C60000255677514000255677414650870047462
:104C70000065096003024D1979067C587D95EEFAAE
:104C8000EFFB121A4EE97003024D19909699744089
:104C900012282174031226CE750800121A72E964D4
:104CA0000170709019F17402F0750A0C750B0078A0
:104CB0000A122A3EEE2406FCE43FFD7A5F7B1912BD
:104CC000184A74021227D1E508F8790074401228B6
:104CD00007E58228F582E58339F583E0F508750953
:104CE000007808122A3E7C5D7D9374021228191206
:104CF0001C1674021227D1AA18AB191218448A087C
:104D00008B09AC08AD09AA18AB1912180E121B02B8
:104D1000025567751400025567740A6508700474BB
:104D2000006509705579087CB07D94EEFAEFFB12AE
:104D30001A4EE96045121A72E9640170377901125E
:104D40001A667C007D0079007A097B041215E0E97F
:104D50007CBA7D93AA18AB19121C16AA18AB1912AB
:104D600018448A088B09AC08AD09AA18AB191218A7
:104D70000E025567751400025567740A65087004C1
:104D8000740065096003024E4379087C207D94EE2F
:104D9000FAEFFB121A4EE97003024E43121A72E93F
:104DA00064016003024E43121A72E9640160030257
:104DB0004E3D90196CE070247CF57D91AA18AB19DA
:104DC000121C16AA18AB191218448A088B09AC08D1
:104DD000AD09AA18AB1912180E0255677E0090197A
:104DE0006CE0F8EEC3984003025567EEF87900E8EE
:104DF00075F00CA4C8AAF075F000A42AFA75F00C9E
:104E0000E9A42AF9746F28F508741939F5097808A6
:104E1000122A3E7C077D937402122819121C167404
:104E2000021227D1AA18AB191218448A088B09ACB0
:104E300008AD09AA18AB1912180E0E80A17514003E
:104E4000025567740A650870047400650970457935
:104E5000087C8C7D94EEFAEFFB121A4EE9603575F2
:104E600008C67509957808122A3E7CC17D957402A2
:104E7000122819121C1674021227D1AA18AB191283
:104E800018448A088B09AC08AD09AA18AB19121886
:104E90000E025567740A65087004740065096003A2
:104EA000024F4179077C427D95EEFAEFFB121A4ED4
:104EB000E97003024F41121A72E96401707D8E821B
:104EC0008F83A3A3A3A3A3A3A3E0643F703090198F
:104ED000E7122A557C7B7D957402122819121C1644
:104EE00074021227D1AA18AB191218448A088B0928
:104EF000AC08AD09AA18AB1912180E025567901923
:104F0000E77410F0A37427F0121A609019E7122AC0
:104F1000557C4E7D927402122819121C16740212CE
:104F200027D1AA18AB191218448A088B09AC08AD0E
:104F300009AA18AB1912180E02556775140002550C
:104F400067740A6508700474006509704A790A7C00
:104F5000447D94EEFAEFFB121A4EE9603A9019E99B
:104F6000E0F5083395E0F5097808122A3E7CFA7DD1
:104F7000927402122819121C1674021227D1AA1850
:104F8000AB191218448A088B09AC08AD09AA18ABF2
:104F90001912180E025567740A65087004740065CA
:104FA00009600302506E79077C027D95EEFAEFFBF3
:104FB000121A4EE9700302506E8E828F83A3A3A350
:104FC000A3A3A3A3E0643F70389019EBE0F5087544
:104FD00009007808122A3E7CE07D9274021228199A
:104FE000121C1674021227D1AA18AB191218448A7F
:104FF000088B09AC08AD09AA18AB1912180E025596
:10500000678E828F83A3A3A3A3A3A3A3E024D0903E
:1050100019EBF09019EBE0C3940440069019EB747F
:1050200000F0121A609019EBE0F508750900780895
:10503000122A3E7C457D937402122819121C1674A4
:10504000021227D1AA18AB191218448A088B09AC8E
:1050500008AD09AA18AB1912180E9019EBE0F874F4
:1050600003C398F9120BE4E9751501025567740A38
:105070006508700474006509600F740F650870049A
:1050800074006509600302514F79077CE27D94EE5C
:10509000FAEFFB121A4EE9700302514F121A72E92D
:1050A00060030251498E828F83A3A3A3A3A3A3A36A
:1050B000E0643F70309019EC122A557C047D9274A4
:1050C00002122819121C1674021227D1AA18AB1941
:1050D0001218448A088B09AC08AD09AA18AB19123A
:1050E000180E0255677906EE2407FAE43FFB121A00
:1050F000548A088B098C0A8D0B9019ECE508F0A3F3
:10510000E509F09019ECC3E09410A3E09427400364
:10511000025567121A609019EC122A557C4E7D9246
:105120007402122819121C1674021227D1AA18AB85
:10513000191218448A088B09AC08AD09AA18AB19D2
:1051400012180E7515010255677514000255677423
:105150000A6508700474006509600302521A790731
:105160007CEA7D94EEFAEFFB121A4EE970030252CC
:105170001A8E828F83A3A3A3A3A3A3A3E0643F708B
:10518000389019EEE0F5087509007808122A3E7C7F
:10519000517D937402122819121C1674021227D121
:1051A000AA18AB191218448A088B09AC08AD09AAD1
:1051B00018AB1912180E0255677901EE2407FAE4AC
:1051C0003FFB121A548A088B098C0A8D0BE5089054
:1051D00019EEF09019EEE0C394025038121A609064
:1051E00019EEE0F5087509007808122A3E7C457D25
:1051F000937402122819121C1674021227D1AA18CD
:10520000AB191218448A088B09AC08AD09AA18AB6F
:105210001912180E751501025567740A6508700495
:1052200074006509704B790A7CC57D93EEFAEFFB3B
:10523000121A4EE9603B121A72E96401702D90193E
:10524000F17403F07CD07D93AA18AB19121C16AA36
:1052500018AB191218448A088B09AC08AD09AA18B2
:10526000AB1912180E121B02025567751400025575
:1052700067740A6508700474006509703A79077CE0
:10528000327D95EEFAEFFB121A4EE9602A121A727D
:10529000E96401701C9019F17404F08E828F83A36D
:1052A000A3A3A3A3A3A3E024D0F9121B38E90255BA
:1052B0006775140002556774096508700474006509
:1052C00009600302556479067C517D95EEFAEFFB87
:1052D000121A4EE970030255648E828F83A3A3A332
:1052E000A3A3A3E0F516E51624CC601814601914E6
:1052F000601A14601B14700302539E14700302544E
:105300007202555F7E04800A7E0580067E0680025A
:105310007E07798012170C7A04EEF91217068A08B4
:105320008B09AC08AD098C088D09E4F50AF50B78FA
:1053300008121CC3909674780C1226737808790CA6
:10534000121ECE909678780C1226737808790C127B
:10535000228D7808122A3A8C088D097808122A3E84
:10536000E516F87900E824D0F508E934FFF5097866
:1053700008122A3E7C9E7D8F7408122819121C1672
:1053800074081227D1AA18AB191218448A088B097D
:10539000AC08AD09AA18AB1912180E0255677E1198
:1053A0007F01750899750901790012170C7A027945
:1053B0000F1217068A0A8B0BAC0AAD0BC3EC9508CB
:1053C000ED9509400474648058C3EE9CEF9D400441
:1053D0007400804DE508C39EF8E5099FF9E82401B3
:1053E000FAE439FB8A088B0974027808122799AA13
:1053F00008AB09ECC39EF8ED9FF9E875F019A4C855
:10540000AEF075F000A42EFE75F019E9A42EF9E8AF
:105410002AF8E93BF9E824FFF8E934FFF9122730CC
:10542000E8F5087509007808122A3E8C088D09787D
:1054300008122A3EE516F87900E824D0F508E93488
:10544000FFF5097808122A3E7C877D9074061228A1
:1054500019121C1674061227D1AA18AB1912184477
:105460008A088B09AC08AD09AA18AB1912180E02EC
:105470005567750C00750D00750E00750F00906274
:105480004B7401F09061A97401F07E00805779009F
:1054900012170C7A03790E1217068A088B09AC08CA
:1054A000AD098C088D09E4F50AF50B7808121CC3C8
:1054B00090967C781012267378087910121ECE9080
:1054C00096807810122673780879101220739096BF
:1054D0008478101226737808791012228D780C794E
:1054E000081220730EEEC3944040A3850C08850D6E
:1054F00009850E0A850F0B909688780C1226737812
:1055000008790C12228D90624BE0C2E0F09061A904
:10551000E0C2E0F07808122A3A8C088D0978081267
:105520002A3EE516F87900E824D0F508E934FFF5BD
:10553000097808122A3E7CFD7D8F74081228191202
:105540001C1674081227D1AA18AB191218448A081D
:105550008B09AC08AD09AA18AB1912180E80087592
:1055600014008003751400E51560117AC87B0012E1
:105570001A48C2AF75C9AB75C95B80FEA9147447E0
:105580001227D17F0F0228FD74F612282B7C077D8D
:10559000007AFA7B9412180E901A16E02401F0A3F8
:1055A000E03400F0901A16C3E09405A3E094005094
:1055B0000302563E1217F01217F68A088B09E50807
:1055C0004509606D7A097B001218748A088B09AE50
:1055D00008AF098E828F8374FCF0901141E0F4C013
:1055E000E08E828F83A3A3D0E0F0901142E0F4C05C
:1055F000E08E828F83A3A3A3D0E0F0901143E0F468
:10560000C0E08E828F83A3A3A3A3D0E0F012191C65
:10561000EAF8EBF9ECFAEDFB8E828F83A3A3A3A348
:10562000A31226B5EEFAEFFB901A3BE0F9121880B0
:10563000E91217FC901A167400F0A37400F07F02B0
:105640000228FD74F612282B74C81227BBE9FF7ECE
:1056500001EFA2E540030256E7901CB8E0C2E5F076
:105660007C6D7D957A187B1A121C167C757D937A59
:10567000247B1A121C16901CB7E07008901CB7749B
:1056800001F08006901CB77400F0901CB7E0600732
:10569000790112194080057900121940901CB7E079
:1056A000F5087509007808122A3E7C0D7D94740E69
:1056B000122819121C1674021227D17906740C12C2
:1056C000281912176C740C122819121C288A088BBE
:1056D00009AC08AD09740C1228191218147A017B50
:1056E00000121A48025901EFA2E05042901CB8E0A3
:1056F000C2E0F07C747D957A187B1A121C167C2906
:105700007D947A247B1A121C16121A72E9640160C5
:1057100003025901901A70E0640270030259017C7F
:105720000A7D007AC57B93121AE4E9025901EFA2BF
:10573000E45035901CB8E0C2E4F07C327D947A18D5
:105740007B1A121C167CD77D917A247B1A121C16A8
:105750009019F0E070099019F07401F0025901906D
:1057600019F07400F0025901EFA2E3503B901CB80D
:10577000E0C2E3F07C3B7D947A187B1A121C167C05
:105780003B7D947A247B1A121C16121A72E964016A
:105790006003025901901A70E0640270030259011B
:1057A0007901121B26025901EFA2E15020901CB88A
:1057B000E0C2E1F07CDB7D937A187B1A121C167C28
:1057C000EA7D907A247B1A121C16025901EFA2E29C
:1057D00040030258FF901CB8E0C2E2F07CA47D9325
:1057E0007A187B1A121C167CE67D917A247B1A1299
:1057F0001C16121A72E9640160030258A0901A7014
:10580000E064026039121B2CE9F50875090078087C
:10581000122A3E7C217D937402122819121C1674E0
:10582000021227D1AA18AB19121C288A088B09ACBE
:1058300008AD09AA18AB19121AE4E9025901121AA3
:1058400078E97003025901901A38E06008901A381C
:105850007400F08006901A387401F0901A38E0F560
:10586000087509007808122A3E7C857D9274021220
:105870002819121C1674021227D1AA18AB19121C6F
:10588000288A088B09AC08AD09AA18AB191205487B
:10589000E97A107B00901A3BE0F91218A4E98061C4
:1058A000121A78E9605B901A39E06008901A39742E
:1058B00000F08006901A397401F0901A39E0F5086A
:1058C0007509007808122A3E7C787D9274021228AD
:1058D00019121C1674021227D1AA18AB19121C280F
:1058E0008A088B09AC08AD09AA18AB19120548E95A
:1058F0007A107B00901A3BE0F91218A4E980027E2E
:1059000000901CB8E07014901A3AE0700E901A3AA9
:105910007401F07A01790712177EE9EE6056750876
:105920002475091A7808122A3E7CAC7D95740E12F3
:105930002819121C1674021227D1901CB8E06006B8
:1059400078007900800478807900E84408F9740CC4
:1059500012281912176C75081875091A7808122A76
:105960003E7CAC7D95740E122819121C167402121E
:1059700027D1805475082475091A7808122A3E7CAC
:105980004A7D95740E122819121C1674021227D122
:10599000901CB8E060067800790080047880790077
:1059A000E84408F9740C12281912176C7508187558
:1059B000091A7808122A3E7C4A7D95740E1228191D
:1059C000121C1674021227D1740C1228118808892F
:1059D000097808122A3E7CC17D9574261228191276
:1059E0001C1674021227D1121A78E970217424123D
:1059F0002819121C288A088B09AC08AD09742412D6
:105A0000281912180E7A017B00121A488026742475
:105A1000122819121C288A088B09AC08AD097424B5
:105A2000122819120548E97A107B00901A3BE0F918
:105A30001218A4E974381227D17F020228FD74ECF1
:105A400012282B74C01227BBEAFEEBFF8C088D09CD
:105A5000C3E5089409E5099400403979087C717D13
:105A600094EEFAEFFB121A4EE960298E828F83A31F
:105A7000A3A3A3A3A3A3A3E0F8743068700B7A00D8
:105A8000790212177EE9025DEA7A01790212177E25
:105A9000E9025DEAC3E5089409E509940040397913
:105AA000087C7A7D94EEFAEFFB121A4EE960298E9B
:105AB000828F83A3A3A3A3A3A3A3A3E0F874306856
:105AC000700B7A00790412177EE9025DEA7A017997
:105AD0000412177EE9025DEAC3E5089409E509941A
:105AE00000403579087C837D94EEFAEFFB121A4E64
:105AF000E960258E828F83A3A3A3A3A3A3A3A3E01E
:105B0000F874306870099019F07400F0025DEA9042
:105B100019F07401F0025DEAC3E5089407E5099401
:105B2000005003025DEA79067C517D95EEFAEFFBA9
